:020000020000FC
:02000000FFC03F
:02005400C9C120
:0200380073C192
:1002000004E00EBF0FEF0DBF00E410E424E6569AA1
:1002100022985E9803D00CD01CD029C032E03093D5
:100220006E003CE937BD32E034BD34E035BD0895A1
:1002300031E0306C3093800038E030938100219AB7
:1002400030E8309388003091810034603093810031
:100250000895389830E4306230937C0037E038609D
:1002600030683064306230937A0078940895FFCF1C
:0C0320002A9509F0189524E601270BB976
:0E03E80040917800409179004093880018956C
:00000001FF
