:1000000067C0000084C0000082C0000080C0000003
:100010007EC000007CC000007AC0000078C00000F4
:1000200076C0000074C00000B3C500007FC50000AA
:1000300087C500008FC50000A1C500000C94811E7B
:100040006BC5000064C000003DC6000071C6000022
:100050005EC00000DAC100005AC0000058C00000B5
:1000600083C500009FC50000A7C50000AFC5000004
:10007000B7C50000BFC50000B1C70000E8C7000059
:1000800046C0000044C0000042C00000AD04B104FE
:10009000B504B904BD04C404CB04D204D604DD0401
:1000A000E404EB04EF04F604FD0419051D05210525
:1000B00025052B052F053305370540054405480563
:1000C0005105AB1AF01B511CB21C131D751DD81D18
:1000D00011241FBECFEFD0E1DEBFCDBF12E0A0E004
:1000E000B1E0EEE2FFE300E00BBF02C007900D922B
:1000F000AC31B107D9F724E0ACE1B2E001C01D9208
:10010000AD3DB207E1F70E94FE130C94951F78CF26
:10011000882389F0E0914D02F0914E02208181E028
:1001200090E000904F0202C0880F991F0A94E2F7F6
:10013000822B808311C0E0914D02F0914E0220810C
:1001400081E090E000904F0202C0880F991F0A944E
:10015000E2F7809582238083E0914D02F0914E0278
:10016000408181E090E09C010090510202C0220F8A
:10017000331F0A94E2F7242B2083E0914D02F09183
:100180004E0220810090510202C0880F991F0A94EC
:10019000E2F78095822380830895E0914D02F091EB
:1001A0004E02408181E090E09C010090500202C02C
:1001B000220F331F0A94E2F7242B2083E0914D0293
:1001C000F0914E0220810090500202C0880F991FCA
:1001D0000A94E2F78095822380830895FF920F931B
:1001E0001F93CF93DF93F82EC0E0D0E001E010E042
:1001F000C8010C2E02C0880F991F0A94E2F78F21C4
:1002000087DF2196C830D10599F7C7DFDF91CF91FD
:100210001F910F91FF9008950F93CF93DF9300D01C
:1002200000D000D0CDB7DEB75FB73FB73F773FBF55
:1002300090934C0280934B0270934E0260934D0258
:1002400040934F022093510200935002FC013081F1
:1002500061E070E0DB0102C0AA0FBB1F2A95E2F744
:10026000FB0102C0EE0FFF1F0A95E2F7EA2B02C066
:10027000660F771F4A95E2F76E2B232F262BFC0182
:100280002083E0914D02F0914E02808160956823B9
:1002900060835FBF28E830E03A8329834EEE50E068
:1002A0005C834B836DEC70E07E836D833A815C816F
:1002B0007E8180E090E026960FB6F894DEBF0FBEF8
:1002C000CDBFDF91CF910F910895369B369AFC01F7
:1002D000EE0FFF1FEB5CFD4F8081918108950F931E
:1002E0001F93CF93DF93CDB7DEB79F816885498594
:1002F0005A851FB78FB78F778FBF509324024093D3
:100300002302109222021092210210921C0287B145
:100310008F7387B9913019F0933021F008C03E9A5D
:1003200001E006C087B1806C87B903E001C000E03E
:100330003D98141615068CF4DE011B9680E090E0C3
:100340002D913D91FC01EE0FFF1FEB5DFD4F3183C1
:10035000208301964817590799F787B1807E87B99E
:10036000E0912102F0912202EE0FFF1FEB5DFD4FA5
:100370008081918127B18F719927822B87B9379A14
:10038000369A3598339A86B1887F86B96031D1F034
:1003900038F4643079F0683081F0623029F507C0B4
:1003A0006034C1F06038D9F06032F1F40EC0309A98
:1003B00022E01EC0319A24E01BC086B1836086B95A
:1003C00028E016C0329A20E113C086B1856086B954
:1003D00020E20EC086B1866086B920E409C086B1ED
:1003E000876086B920E804C086B1876086B920E8B6
:1003F0001FBF8FB780688FBF602F722F85E691E097
:10040000DF91CF911F910F9108951F920F920FB618
:100410000F9211240BB60F922F933F934F935F933C
:100420008F939F93EF93FF932FB78FB78F778FBFE4
:1004300084B190E090931E0280931D0235B18091AB
:100440001D0290911E02932B90931E0280931D0219
:1004500080911C028430A0F480911C028F5F8093F5
:100460001C0240911D0250911E0280911F0290912A
:100470002002840F951F9093200280931F0243C097
:10048000E0912102F091220280911F0290912002BE
:100490009595879595958795EE0FFF1FEB5CFD4F22
:1004A000918380831092200210921F0210921C02EE
:1004B00040912102509122028091230290912402C6
:1004C0004817590754F48091210290912202019615
:1004D000909322028093210204C010922202109273
:1004E000210287B1807E87B9E0912102F09122023A
:1004F000EE0FFF1FEB5DFD4F8081918137B18F7152
:100500009927832B87B92FBFFF91EF919F918F91EF
:100510005F914F913F912F910F900BBE0F900FBEA7
:100520000F901F901895E4E7F0E084EA80838FEF46
:1005300093E09093530280935202808188235CF071
:100540008EEF93E0909353028093520220812223F6
:1005500014F00197B8F7089580937300E4E7F0E092
:1005600084E880838FEF93E090935302809352024C
:10057000808188235CF08EEF93E090935302809308
:1005800052022081222314F00197B8F7089520E445
:10059000829FC00111248468E4E7F0E080838FEF3C
:1005A00093E09093530280935202808188235CF001
:1005B0008EEF93E090935302809352022081222386
:1005C00014F00197B8F7809173000895809171003D
:1005D000887F089584E9809374008FE891E0019703
:1005E000F1F700C00000089591B3936091BB92B3FE
:1005F000936092BB843079F018F4813031F01DC0E3
:10060000803179F0803499F018C0E1E7F0E0908112
:100610009C7F908318C0E1E7F0E090819160908327
:1006200012C0E1E7F0E09081926090830CC0E1E7B6
:10063000F0E090819360908306C0E1E7F0E0808174
:100640008C7F808381E0282F30E0220F331F032E20
:10065000000C440B550B60E970E080E090E00E94D4
:10066000161F2093700008951F93CF93DF93EC0122
:10067000862F1FB79FB79F779FBFB6DF1FBF83E946
:1006800092E0998388838AEE92E09B838A838CEA46
:1006900092E09D838C8387EC92E09F838E8386EE2D
:1006A00092E099878887CE01DF91CF911F910895BD
:1006B00020915702211140C02FEF21BF23B7287F7F
:1006C00023BF8034910511F148F488309105B1F0D1
:1006D00080329105B9F0019749F50CC0811521E0F0
:1006E0009207E1F0811524E09207E1F0803891054E
:1006F000E9F410C083B7816083BF1BC083B78260F9
:1007000083BF17C083B7836083BF13C083B7846080
:1007100083BF0FC083B7856083BF0BC083B786607C
:1007200083BF07C083B7876083BF03C083B7876079
:1007300083BF81E080935702089593B79F7C93BF56
:10074000823041F0833051F0813059F483B78061B9
:1007500083BF089583B7806283BF089583B78063A2
:1007600083BF089581BF089583B7887F83BF12BE7A
:1007700010925702089520915402211142C02FEF88
:100780003FEF3BBD2ABD2EB5287F2EBD8830910599
:10079000D1F048F48330910531F18530910539F17C
:1007A000019749F50CC0811521E09207A1F0811550
:1007B00024E09207A1F080349105E9F408C08EB5D9
:1007C00081608EBD1BC08EB582608EBD17C08EB598
:1007D00083608EBD13C08EB584608EBD0FC08EB594
:1007E00085608EBD0BC08EB586608EBD07C08EB590
:1007F00087608EBD03C08EB585608EBD81E080931D
:10080000540208959FB59F739FBD823041F083309D
:1008100051F0813059F48FB580648FBD08958FB544
:1008200080688FBD08958FB5806C8FBD08959FB58A
:100830009F7C9FBD823041F0833051F0813059F46C
:100840008FB580618FBD08958FB580628FBD08958B
:100850008FB580638FBD08959FB5937F9FBD823014
:1008600041F0833051F0813059F48FB584608FBDF1
:1008700008958FB588608FBD08958FB58C608FBD4A
:1008800008959BBD8ABD089599BD88BD0895909334
:1008900079008093780008958EB5887F8EBD1DBC49
:1008A0001CBC1092540208951092570223B7277B64
:1008B00023BF623041F0633051F0613059F423B707
:1008C000206423BF07C023B7286023BF03C023B71A
:1008D000286423BF27B72E7F27BF27B72D7F27BFC9
:1008E000423041F0433051F0413071F427B721607C
:1008F00027BF0AC027B7226027BF06C027B72160DD
:1009000027BF27B7226027BF2DE933E0FC013183E1
:10091000208322EB33E03783268328E533E03587D5
:10092000248724EB33E03787268708950F931F939E
:10093000DC01109254028FB58C7F8FBD8EB5877EFF
:100940008EBD062F10E0F8013197EF30F10508F069
:100950005AC0EA5BFF4F0C94541F8FB581608FBD66
:1009600052C08FB582608FBD4EC08FB583608FBD82
:100970004AC08EB588608EBD46C08FB581608FBD80
:100980008EB588608EBD3FC08FB582608FBD8EB53D
:1009900088608EBD38C08FB583608FBD8EB588608E
:1009A0008EBD31C08EB580618EBD2DC08FB581608A
:1009B0008FBD8EB580618EBD26C08FB582608FBD24
:1009C0008EB580618EBD1FC08FB583608FBD8EB523
:1009D00080618EBD18C08EB588618EBD14C08FB584
:1009E00081608FBD8EB588618EBD0DC08FB5826070
:1009F0008FBD8EB588618EBD06C08FB583608FBDFB
:100A00008EB588618EBD8FB583708FBD87B7837CAF
:100A100087BFEDE7F0E080818E7F808350E0FA01B0
:100A20003197EC30F10508F044C0EB5AFF4F0C94BD
:100A3000541F87B7846087BF3CC087B7806187BF7A
:100A400038C087B7886087BF34C0EDE7F0E08081A9
:100A5000816080832EC087B7806287BF2AC087B736
:100A6000846187BF26C087B78C6087BF22C087B7E5
:100A7000846087BFEDE7F0E080818160808319C0EA
:100A800087B7846287BF15C087B78C6187BF11C0E5
:100A900087B78C6187BFEDE7F0E08081816080835C
:100AA00008C087B7886187BFEDE7F0E0808181608B
:100AB000808382E094E011969C938E9387E194E08A
:100AC00013969C938E9312978CE294E015969C93C8
:100AD0008E93149781E494E017969C938E931697C7
:100AE00084E494E019969C938E93189787E494E09D
:100AF0001B969C938E931A978BEB93E01D969C9379
:100B00008E931C978CE494E01F969C938E931E9773
:100B1000CD011F910F9108951F920F920FB60F9262
:100B200011240F900FBE0F901F9018951F920F92D7
:100B30000FB60F9211240F900FBE0F901F901895B3
:100B40001F920F920FB60F9211240F900FBE0F90AD
:100B50001F9018951F920F920FB60F9211240F90AD
:100B60000FBE0F901F9018951F920F920FB60F9205
:100B700011240F900FBE0F901F9018951F920F9287
:100B80000FB60F9211240F900FBE0F901F90189563
:100B90001F920F920FB60F9211240F900FBE0F905D
:100BA0001F9018951F920F920FB60F9211240F905D
:100BB0000FBE0F901F9018951F920F920FB60F92B5
:100BC00011240F900FBE0F901F9018951F920F9237
:100BD0000FB60F9211240F900FBE0F901F90189513
:100BE0001F920F920FB60F9211240F900FBE0F900D
:100BF0001F9018951F920F920FB60F9211240F900D
:100C00000FBE0F901F901895E091A4038091DE0213
:100C10008E1749F0EF5FEF73E093A403F0E0E55621
:100C2000FD4F8081089580E008958091DE0290E07C
:100C3000CF962091A403821B91096FE370E00C947E
:100C4000031F0895E1EEF2E010821182128280917A
:100C5000A4038093DE02089580919A028093E002BB
:100C60000895E091E002AE2FB0E0AE5DBC4F8C93F2
:100C7000EF5FEF73E093E00280919A02E81729F0AA
:100C8000F0E0EE5DFC4F108209C02FEF86E791E0A7
:100C9000215080409040E1F700C00000EAE9F0E018
:100CA0008081806280830895CF93DF93EC018881F7
:100CB000882329F02196D5DF89918111FCCFDF911E
:100CC000CF9108951F920F920FB60F9211240BB679
:100CD0000F928F939F93EF93FF938BB19AB188718B
:100CE00080939902E091A203EF5FEF739091A303C9
:100CF000E91304C082E0809399020FC09CB1E09395
:100D0000A203882331F0F0E0EB55FC4F88E58083A7
:100D100004C0F0E0EB55FC4F9083FF91EF919F9161
:100D20008F910F900BBE0F900FBE0F901F901895D4
:100D30001F920F920FB60F9211240BB60F928F9342
:100D40009F93EF93FF93E091DD02F0E0EE59FC4FAB
:100D500080818CB910828091DD028F5F8F738093C8
:100D6000DD0290919802891301C05598FF91EF918F
:100D70009F918F910F900BBE0F900FBE0F901F9001
:100D800018950F931F93CF93DF93FC01BFB78FB7D5
:100D90008F778FBF1092E00210929A021092DE02BB
:100DA0001092A4031092DC021092DB021092E10276
:100DB000A62F772324F482E080939B007F777093A3
:100DC00098006093990088E980939A004730510514
:100DD00041F140F44530510509F441C04630510518
:100DE00079F149C04830510581F04930510509F089
:100DF00042C0CAE9D0E0888184608883CDE9D0E030
:100E000088818660888349E041C0CAE9D0E0888152
:100E10008B7F8883CDE9D0E088818660888348E035
:100E200035C0CAE9D0E088818B7F8883CDE9D0E0E6
:100E300088818460888388818D7F888347E026C08D
:100E4000CAE9D0E088818B7F8883CDE9D0E08881B2
:100E50008B7F888388818260888346E017C0CAE9D7
:100E6000D0E088818B7F8883CDE9D0E08881897F3D
:100E7000888345E00BC0CAE9D0E088818B7F8883F6
:100E8000CDE9D0E088818660888348E02130310553
:100E900021F02230310541F00EC0CDE9D0E088814B
:100EA000877F888321E00DC0CDE9D0E0888188600C
:100EB000888322E006C0CDE9D0E08881877F8883DF
:100EC00021E00230110561F00330110599F0012B8A
:100ED000C1F4CDE9D0E088818F7C888390E017C091
:100EE000CDE9D0E088818062888388818F7E888385
:100EF00092E00DC0CDE9D0E088818063888393E0E3
:100F000006C0CDE9D0E088818F7C888390E0BFBFA8
:100F10008FB780688FBFA08341832283938382EC45
:100F200097E09583848384E096E09783868381E3CA
:100F300096E09187808784E596E09387828785E1B4
:100F400096E09587848782E296E0978786878CE291
:100F500096E0918B808BCF01DF91CF911F910F9104
:100F60000895E091A4038091DE02E81749F0EF5F55
:100F7000EF73E093A403F0E0E556FD4F8081089500
:100F800080E00895CF93DF939091A4038091DE02D7
:100F90009817D9F0C091DB02D091DC02CF33D10594
:100FA000A4F4DFDFCF51DD4F88838091DB02909185
:100FB000DC0201969093DC028093DB02FC01EF518E
:100FC000FD4F108280E191E006C01092DC02109289
:100FD000DB0281EE92E0DF91CF9108951F920F9294
:100FE0000FB60F9211240BB60F928F939F93EF932E
:100FF000FF9380919B0090919A0088718093DF020B
:10100000E091DE02EF5FEF739091A403E91304C057
:1010100082E08093DF0210C090919C00E093DE029A
:10102000882331F0F0E0E556FD4F88E5808304C069
:10103000F0E0E556FD4F9083FF91EF919F918F91E6
:101040000F900BBE0F900FBE0F901F9018951F9220
:101050000F920FB60F9211240BB60F928F939F939E
:10106000EF93FF93E0919A02F0E0EE5DFC4F8081F8
:1010700080939C00108280919A028F5F8F7380937F
:101080009A029091E002891305C0EAE9F0E08081BC
:101090008F7D8083FF91EF919F918F910F900BBE79
:1010A0000F900FBE0F901F9018956823442321F0D6
:1010B000861721F080E00895611180E00895862B65
:1010C00008958623089586230895862B8095089594
:1010D0008627862308956095862308958627089598
:1010E000CF92DF92EF92FF920F931F93FC0100814A
:1010F000118122813381FB01C080D180E280F380A5
:10110000FC01C082D182E282F382FB010083118361
:10111000228333831F910F91FF90EF90DF90CF9048
:101120000895FB012081FC012083222339F0DB019B
:10113000119631969D9191939111FCCF0895CF9383
:10114000DF93EC019881992399F0FE01319620E01C
:1011500030E0492F50E04617570731F0DE01A20F6B
:10116000B31F9C932F5F3F4F91919111F2CF02C01B
:1011700020E030E0FE01E20FF31F1082DF91CF91FB
:1011800008952F923F924F925F926F927F928F922B
:101190009F92AF92BF92CF92DF92EF92FF920F9306
:1011A0001F93CF93DF9300D000D0CDB7DEB72C01D3
:1011B0001B014B0177231CF42FEF821A920A95949E
:1011C0008794181419040CF451C06AC09601DD20EC
:1011D0009CF1F50140815181F401608171816417B6
:1011E000750754F58C010A0D1B1DD401BC82AB821E
:1011F000BA82A982EB81FC817183608311965C9332
:101200004E932E193F09C2F0F80140815181E981C6
:10121000FA8160817181080F191FE80FF91FFA83A5
:10122000E983EB81FC81E80FF91FFC83EB83A80FB6
:10123000B91F64177507F4F2FFEFCF1ADF0A22E037
:10124000A20EB11CE2E08E0E911CC614D70409F068
:10125000BDCF4701FF201CF4FFEF8F1A9F0A959422
:10126000879418141904E4F4740101C07401821401
:1012700093047CF76401CE18DF085601AA0CBB1C4E
:10128000A40CB51C880C991C840C951C31016E189B
:101290007F08C701880F991F91958195910996CF75
:1012A0000F900F900F900F90DF91CF911F910F91A2
:1012B000FF90EF90DF90CF90BF90AF909F908F9076
:1012C0007F906F905F904F903F902F90089586177A
:1012D00097070CF4CB0108959B01672B11F4089537
:1012E0009A01B9010E94031FAC01822F932F41156F
:1012F0005105B1F70895FC01908180ED890F8A3086
:10130000D0F4319620E030E0A901440F551F220FA0
:10131000331F220F331F220F331F420F531F292F5A
:1013200030E020533109240F351F919180ED890F52
:101330008A3050F302C020E030E0C90108958623CE
:101340000895009739F020E030E02F5F3F4F82177B
:101350009307D9F7089587FF08C091958195910962
:10136000992791958195910908958F7799270895E7
:1013700091FF08C091958195910993709195819500
:101380009109089591700895615021E030E002C004
:10139000220F331F6A95E2F7A90141505109B901A3
:1013A00068237923672B29F084239523821B930BD1
:1013B00008958423952308959DEC899F912D1124F0
:1013C000969596959695392F330F232F220F220F3E
:1013D000230F821B20E1929F800D11240895982FE6
:1013E00092959F70990F292F220F220F920F8F70C5
:1013F000890F0895FC01DB01AB51BC4F1C921616FE
:10140000170614F5908191110CC017C0919191119C
:101410000DC015C081932F5F3F4F26173707D4F3B8
:1014200013C0A5EEB3E0319620E030E09D932F5F2E
:101430003F4F6217730751F707C020E030E0F90112
:10144000EB51FC4F80E2E6CF85EE93E008954F929A
:101450005F926F927F92AF92BF92CF92DF92EF92A4
:10146000FF920F931F93CF93DF93CDB7DEB7290180
:101470003A019B01AC0124193509460957098989AC
:101480009A89AB89BC89BC01CD016A197B098C0999
:101490009D090E94E01EA8019701241935094609FB
:1014A00057090E94381FCA01B9016A0D7B1D8C1DA6
:1014B0009D1DDF91CF911F910F91FF90EF90DF90D5
:1014C000CF90BF90AF907F906F905F904F900895B6
:1014D00070E06115710599F041E050E021E030E0E5
:1014E00090E0FA01E89FA001E99F500DF89F500D90
:1014F00011242F5F3F4F6217730798F702C041E036
:1015000050E0CA010895FC012081222341F0319668
:1015100080E090E0019621912111FCCF089580E0B8
:1015200090E00895CF93DF93EC01EDDF9C01215013
:10153000310962F0FE01E80FF91F9291903219F023
:101540009950923018F421503109B8F7C20FD31FC7
:101550001982C901DF91CF910895CF93DF93EC01F8
:10156000D2DF9C01215031091216130684F4DE01EA
:10157000A80FB91FFE0180E090E040815E91519379
:101580004C9301962150310982179307B4F3DF91F0
:10159000CF9108958F929F92AF92BF92CF92DF9298
:1015A000EF92FF920F931F93CF93DF936B017C0118
:1015B000DC01CB01FF203CF488279927DC018C1942
:1015C0009D09AE09BF09BC01CD0110E00F2EFAE064
:1015D0008F2E912CA12CB12CF02D01C0102F01E0E9
:1015E000010FC12FD0E0CB51DC4FA50194010E9427
:1015F000381F605D6883622F732F842F952F161616
:1016000017061806190654F3FF2044F4E02FF0E003
:10161000EB51FC4F8DE2808302E0010FE02FF0E000
:10162000EB51FC4F108285EE93E097DF85EE93E05F
:10163000DF91CF911F910F91FF90EF90DF90CF90AE
:10164000BF90AF909F908F9008950F931F93CF936B
:10165000DF93EC01992324F4882799278C1B9D0B99
:1016600020E00AE010E001C0232F31E0320FE22F2A
:10167000F0E0EB51FC4FB8010E94031F805D8083B6
:10168000862F972F181619067CF3DD2344F4E32FD9
:10169000F0E0EB51FC4F8DE2808332E0320FE32F1C
:1016A000F0E0EB51FC4F108285EE93E056DF85EEC3
:1016B00093E0DF91CF911F910F910895CF93AC01EB
:1016C000E0E0C1E0CE0FF0E0EB51FC4F9A01ADEC51
:1016D000BCEC0E945D1F969587959695879596958B
:1016E00087959C01220F331F880F991F880F991F20
:1016F000880F991F820F931F9A01281B390BC9016C
:10170000805D80839A010E945D1FAC0156954795CC
:101710005695479556954795EC2F4115510589F6F5
:10172000EC2FF0E0EB51FC4F108285EE93E015DFDB
:1017300085EE93E0CF910895982F92959F70990F21
:10174000292F220F220F920F8F70890F0895AC015D
:101750009C01ADECBCEC0E945D1F9695879596951B
:10176000879596958795BC01660F771F9C01220F80
:10177000331F220F331F220F331F260F371F421B29
:10178000530B342F20E1829F300D1124832F0895B5
:10179000CF92DF92EF92FF92CF93DF93CDB7DEB778
:1017A00028970FB6F894DEBF0FBECDBF6B017C014A
:1017B00069837A838B839C832D833E834F835887F1
:1017C000C216D306E406F50634F4BE016B5F7F4F04
:1017D000CE01019685DC8D819E81AF81B885892BF4
:1017E0008A2B8B2B71F469817A818B819C8120E01B
:1017F00030E0A9010E94381F61157105810591052E
:1018000029F46D817E818F81988505C06D837E83EB
:101810008F839887F6CF28960FB6F894DEBF0FBE59
:10182000CDBFDF91CF91FF90EF90DF90CF900895E3
:1018300090E002C0959587956A95E2F781700895CA
:10184000E5EEF3E090E020E850E341E3382F322367
:1018500011F0408301C0508326959F5F31969830E8
:10186000A9F71092ED0385EE93E00895A42FB0E060
:10187000109761F021E030E0E1E0F0E0EE0FFF1FB3
:101880002F5F3F4FA217B307C8F702C0E1E0F0E0B7
:1018900031976E237F238E239F23862797276823E4
:1018A000792302C0660F771F4A95E2F7862B972BA4
:1018B0000895FC019FB78FB78F778FBF9FBF88E6D2
:1018C0009AE09183808383E89AE0938382838DEA10
:1018D0009AE09583848386E39CE09783868385E5FD
:1018E00098E09187808783E698E09387828785E6F2
:1018F00098E09587848788E698E0978786878BE6C7
:1019000098E0918B808B8EE698E0938B828B8FE5AD
:1019100098E0958B848B81E698E0978B868B80E7A7
:1019200098E0918F808F81E998E0938F828F8FE983
:1019300098E0958F848F81EC98E0978F868F85E271
:101940009BE091A380A38EE59BE093A382A38AEC06
:101950009AE095A384A382E99AE097A386A387E6F9
:1019600099E091A780A78CE699E093A782A78BE7DF
:1019700099E095A784A78FE999E097A786A781EAC0
:1019800099E091AB80AB8BEA99E093AB82AB88EBAB
:1019900099E095AB84AB84EC99E097AB86AB8CED8A
:1019A00099E091AF80AF8FEE99E093AF82AF8AEF6D
:1019B00099E095AF84AF87E29AE097AF86AFDF01F9
:1019C000A05CBF4F8CE99BE011969C938E9312967E
:1019D00087EA9BE011969C938E93129688EC9BE08D
:1019E00011969C938E93129688E19CE011969C939D
:1019F0008E93129680E29CE08D939C93CF01089584
:101A0000CF93DF9300D000D01F92CDB7DEB785E033
:101A1000E8E3F4E0DE01119601900D928A95E1F77A
:101A200029813A814B815C816D8170E080E090E09A
:101A30000F900F900F900F900F90DF91CF9108951E
:101A400010920504E8E3F4E080E2808382E191E013
:101A500092838183948383830895CF93DF9321E0DE
:101A600080E0ADEFB3E0E1E0F4E060E071E001C000
:101A70002F5F9FEF920F913009F44BC038F09230F6
:101A800009F48CC0933009F4CEC00EC14091080413
:101A900050910904EA019881906898834091FA0373
:101AA0005091FB03EA0198819F7798834091060447
:101AB00050910704EA01388134773C939081432F99
:101AC000492794233083992399F0943019F4EB013A
:101AD00088810AC0903119F4EB01898109C09032E4
:101AE00019F4EB018A8104C0903411F4EB018B816D
:101AF0004091080450910904EA0198819F779883E6
:101B00004091FA035091FB03EA0198819068988311
:101B1000AFCF4091080450910904EA019881916087
:101B200098834091FA035091FB03EA0198819E7FCC
:101B300098834091060450910704EA013881347774
:101B400011963C9311979181432F49279423318318
:101B5000992399F0943019F4EB018C810AC09031EB
:101B600019F4EB018D8109C0903219F4EB018E81DB
:101B700004C0903411F4EB018F814091080450911E
:101B80000904EA0198819E7F98834091FA0350915D
:101B9000FB03EA019881916098836ACF4091080421
:101BA00050910904EA019881926098834091FA0368
:101BB0005091FB03EA0198819D7F98834091060430
:101BC00050910704EA013881347712963C931297BA
:101BD0009281432F492794233283992399F094309B
:101BE00019F4EB0188850AC0903119F4EB0189855D
:101BF00009C0903219F4EB018A8504C0903411F4C5
:101C0000EB018B854091080450910904EA01988109
:101C10009D7F98834091FA035091FB03EA019881DC
:101C20009260988325CFE0910804F0910904908197
:101C300098609083E091FA03F091FB039081977F85
:101C40009083E0910604F09107042081247720938B
:101C50000004E1E0F4E09381322F392793232383BA
:101C6000992399F0943019F480910C010AC09031B5
:101C700019F480910D0109C0903219F480910E0180
:101C800004C0903411F480910F01E0910804F091A8
:101C900009049081977F9083E091FA03F091FB0310
:101CA00090819860908303C0243008F4E1CEDF91E6
:101CB000CF910895CF93DF9300D000D01F92CDB77E
:101CC000DEB7CBDE8823B1F1809338049091050410
:101CD000943188F4E0910504F0E0E65FFB4F8083E7
:101CE000909105049F5F90930504E0910504F0E056
:101CF000E65FFB4F1082843499F4E0910504F0E034
:101D0000E75FFB4F108210920504E8E3F4E082E104
:101D100091E0928381838AE094E0948383830AC074
:101D2000E8E3F4E08AE094E09283818382E191E049
:101D30009483838385E0E8E3F4E0DE01119601906B
:101D40000D928A95E1F729813A814B815C816D8101
:101D500070E080E090E00F900F900F900F900F9048
:101D6000DF91CF910895CF93DF93CDB7DEB728975A
:101D70000FB6F894DEBF0FBECDBF2FB730E2309361
:101D800038049093090480930804709307046093C7
:101D900006045093FB034093FA033BE8FC013083B5
:101DA000E091FA03F091FB0384E78083ADEFB3E0A9
:101DB0008C93E1E0F4E0808311968C9311978183FA
:101DC00012968C931297828313968C93838310922E
:101DD00005042FBFE091FA03F091FB0380818B682B
:101DE00080832DE23DE03A8329834AE55EE05C830F
:101DF0004B8360E07DE07E836D8380E29DE0988789
:101E00008F833A815C817E81988528960FB6F894FD
:101E1000DEBF0FBECDBFDF91CF910895E0912904C1
:101E2000F0912A0490819D7F9083672B41F0E0918F
:101E30002904F0912A0490819160908307C0E09179
:101E40002904F0912A0490819E7F9083E0912604DA
:101E5000F09127049081906F9083E0912904F09194
:101E60002A04908194609083882344F4E0912904AB
:101E7000F0912A0490819068908307C0E091290432
:101E8000F0912A0490819F77908386FF08C0E091AB
:101E90002904F0912A0490819064908307C0E09116
:101EA0002904F0912A0490819F7B908385FF08C0CC
:101EB000E0912904F0912A0490819062908307C0F8
:101EC000E0912904F0912A0490819F7D908384FF02
:101ED00008C0E0912904F0912A04908190619083D8
:101EE00007C0E0912904F0912A0490819F7E90839D
:101EF000E0912904F0912A0490819B7F9083E091E6
:101F00002904F0912A0490819460908383FF08C093
:101F1000E0912904F0912A0490819068908307C091
:101F2000E0912904F0912A0490819F77908382FFA9
:101F300008C0E0912904F0912A0490819064908374
:101F400007C0E0912904F0912A0490819F7B90833F
:101F500081FF08C0E0912904F0912A0490819062E9
:101F6000908307C0E0912904F0912A0490819F7D1D
:101F7000908380FF08C0E0912904F0912A048081B9
:101F80008061808307C0E0912904F0912A04808158
:101F90008F7E8083E0912904F0912A0480818B7FD9
:101FA00080830895E0912604F091270420812F700A
:101FB0002083E0912904F0912A042081206F20835E
:101FC000E0912904F0912A04208122602083892B4A
:101FD00041F0E0912904F0912A048081816080839E
:101FE00007C0E0912904F0912A0480818E7F8083CC
:101FF000E0912904F0912A04808184608083E0913B
:102000001F04F09120048081882314F080E001C037
:1020100080E8908196FF02C0806401C08F7B908130
:1020200095FF02C0806201C08F7D908194FF02C045
:10203000806101C08F7EE0912904F0912A04908193
:102040009B7F9083E0912904F0912A049081946011
:102050009083E0911F04F09120049081992314F45F
:10206000886001C0877F908196FF02C0846001C0B4
:102070008B7F908195FF02C0826001C08D7F90812F
:1020800094FF02C0816001C08E7FE0912904F0912D
:102090002A0490819B7F90830895CF93DF9380E003
:1020A00090E080DFCBE0D0E005C080E090E07ADF18
:1020B000219711F08823CCF3DF91CF91089561E04F
:1020C00070E0ACDEEACF0895CF9381E090E06ADF64
:1020D000C82FE3DF8C2FCF910895CF93DF93EC01CE
:1020E0008881882341F0219661E070E097DED5DF9A
:1020F00089918111F9CFDF91CF9108950F931F93AB
:10210000CF93DF93FC01D62F8081882351F08F017C
:102110000F5F1F4F611109C01BC0CF5FDC1730F488
:1021200001C0C0E0CD1760F013C0C1E061E070E015
:1021300075DEB3DFF80181918F018111EECFF2CF0F
:10214000CF5F61E070E080E269DEA7DFCD17C0F30A
:10215000DF91CF911F910F910895CF93C82F8823BE
:1021600039F061E070E080E259DE97DFC150C9F7D5
:10217000CF910895262F8130910571F030F0823093
:10218000910589F00397B1F0089560E070E080E870
:10219000820F44DE82CF089560E070E080EC820F11
:1021A0003DDE7BCF089560E070E084E9820F36DE8B
:1021B00074CF089560E070E084ED820F2FDE6DCF64
:1021C000089560E070E081E029DE87EE97E10197F5
:1021D000F1F700C000000895E0912604F091270473
:1021E00087E08083E0912904F0912A0488E08083CD
:1021F0002FEF83EF91E0215080409040E1F700C045
:10220000000060E070E083E309DE20ED2A95F1F73D
:1022100060E070E083E302DE80ED8A95F1F760E034
:1022200070E08BE2FBDD95EC9A95F1F7000060E041
:1022300070E08CE0F3DD25EC2A95F1F7000060E01A
:1022400070E081E0EBDD87EE97E10197F1F700C0E8
:10225000000060E070E086E0E1DD95EC9A95F1F732
:10226000000008951F93CF93DF93EC011FB78FB742
:102270008F778FBF709327046093260450932004B8
:1022800040931F0430932A0420932904FB011082F9
:10229000E0912904F0912A048FEF8083E0911F04DC
:1022A000F0912004808188708093280495DF1FBFFF
:1022B0008EE09FE09983888382ED9FE09B838A83F1
:1022C0008DE490E19D838C838FE590E19F838E83E5
:1022D00084E690E1998788878DE690E19B878A87DD
:1022E0008EE790E19D878C878DEA90E19F878E87AE
:1022F00081EE90E1998B888B8AEB90E19B8B8A8BA6
:1023000089E891E19D8B8C8BCE01DF91CF911F915C
:102310000895CF93E0911F04F0912004C081C8700C
:10232000809128048C278C2309F056DFC093280461
:10233000CF910895FF920F931F93CF93DF93182FA0
:10234000062FF42ECEE4D4E0E881F9810995EC81E2
:10235000FD8182EA0995EC81FD8182E00995EC819D
:10236000FD818F2D0995EC81FD81802F0995EC81F0
:10237000FD81812F0995EA81FB810995DF91CF913C
:102380001F910F91FF9008951F93CF93DF93182F04
:10239000CEE4D4E0E881F9810995EC81FD8182EAFF
:1023A0000995EC81FD8184E00995EC81FD81812F07
:1023B0000995EA81FB810995DF91CF911F910895DD
:1023C0001F93CF93DF93182FCEE4D4E0E881F981F7
:1023D0000995EC81FD8182EA0995EC81FD8183E01C
:1023E0000995EC81FD81812F0995EA81FB81099591
:1023F000DF91CF911F9108951F93CF93DF93182FF3
:10240000CEE4D4E0E881F9810995EC81FD8182EA8E
:102410000995EC81FD8182E00995EC81FD81812F98
:102420000995EA81FB810995DF91CF911F9108956C
:102430001F93CF93DF93882321F06370162F1068CA
:1024400001C010E0CEE4D4E0E881F9810995EC8187
:10245000FD8182EA0995EC81FD818DE00995EC8191
:10246000FD81812F0995EA81FB810995DF91CF914B
:102470001F910895EF92FF920F931F93CF93DF93D5
:10248000E82EF62E042F122FCEE4D4E0E881F98155
:102490000995EC81FD8182EA0995EC81FD8185E059
:1024A0000995EC81FD818E2D0995EC81FD818F2DA3
:1024B0000995EC81FD81802F0995EC81FD81812FAB
:1024C0000995EA81FB810995DF91CF911F910F91C9
:1024D000FF90EF9008951F93CF93DF93182FCEE4D2
:1024E000D4E0E881F9810995EC81FD8182EA0995C2
:1024F000EC81FD8188E00995EC81FD81812F0995B2
:10250000EA81FB810995DF91CF911F9108951F9377
:10251000CF93DF93182FCEE4D4E0E881F9810995B9
:10252000EC81FD8182EA0995EC81FD8187E00995C6
:10253000EC81FD81812F0995EA81FB810995DF916D
:10254000CF911F9108951F93CF93DF93182FCEE45F
:10255000D4E0E881F9810995EC81FD8182EA099551
:10256000EC81FD8186E00995EC81FD81812F099543
:10257000EA81FB810995DF91CF911F9108951F9307
:10258000CF93DF93182FCEE4D4E0E881F981099549
:10259000EC81FD8182EA0995EC81FD8185E0099558
:1025A000EC81FD81812F0995EA81FB810995DF91FD
:1025B000CF911F910895FF920F931F93CF93DF93B5
:1025C000CEE4D4E0E881F9810995EC81FD8182EACD
:1025D0000995EC81FD8182E00995EA81FB810995ED
:1025E000E881F9810995EC81FD8183EA0995EE8105
:1025F000FF8181E00995F82EEE81FF8181E0099548
:10260000182FEE81FF8180E00995082FEA81FB8178
:102610000995602F6F73712F7F778F2D8F77DF91E3
:10262000CF911F910F91FF900895EF92FF920F931A
:102630001F93CF93DF93CEE4D4E0E881F98109952D
:10264000EC81FD8182EA0995EC81FD8185E00995A7
:10265000EA81FB810995E881F9810995EC81FD8189
:1026600083EA0995EE81FF8181E00995082FEE81CB
:10267000FF8181E00995F82EEE81FF8181E00995C7
:10268000182FEE81FF8180E00995E82EEA81FB8119
:102690000995712F7F716E2D8F2D8770902F9F73ED
:1026A000DF91CF911F910F91FF90EF900895982F98
:1026B00092959F70990F292F220F220F920F8F70E2
:1026C000890F08959DEC899F912D112496959695DB
:1026D0009695392F330F232F220F220F230F821BA2
:1026E00020E1929F800D11240895CF93DF93CEE4D3
:1026F000D4E0E881F9810995EC81FD8182EA0995B0
:10270000EC81FD8180E00995EC81FD8180E00995F7
:10271000EA81FB810995DF91CF910895FF920F9394
:102720001F93CF93DF93CDB7DEB72A970FB6F894F8
:10273000DEBF0FBECDBF8C01FFB68FB78F778FBFC7
:10274000CE0101960E9434038AE0FE013196AEE488
:10275000B4E001900D928A95E1F7C7DFFFBE8AE9E8
:1027600091E1F8019183808384EC91E193838283EA
:1027700080EE91E1958384838CEF91E1978386834A
:1027800088E192E1918780878AE392E1938782874B
:102790008FEB92E19587848783EA92E1978786871A
:1027A00087E892E1918B808B8BE692E1938B828B11
:1027B0008BED92E1958B848B85E193E1978B868BF2
:1027C00087E593E1918F808F82E693E1938F828FEB
:1027D000C8012A960FB6F894DEBF0FBECDBFDF91B9
:1027E000CF911F910F91FF900895109261008FE09B
:1027F0008093620087B3806E87BB0895CF93DF9389
:10280000CDB7DEB7CC57D1400FB6F894DEBF0FBEC0
:10281000CDBFEBDFCE018E5D9E4F4BD88AE4FE012B
:10282000EE5DFE4FAEE5B4E001900D928A95E1F7C2
:102830002BE330E049E350E06AE370E0CE018E56CE
:102840009F4F10DDC856DF4F28803980C859D040CF
:10285000C256DF4F48805980CE59D040CE55DF4F09
:1028600028813981C25AD040C059DE4F398328832C
:10287000C057D140CC55DF4F88809980C45AD04092
:1028800043E250E061E270E082E290E06CDAC85529
:10289000DF4F2883C85AD040C755DF4F3883C95A05
:1028A000D040C655DF4F4883CA5AD040C555DF4F88
:1028B0005883CB5AD040C455DF4F6883CC5AD040A0
:1028C000C355DF4F7883CD5AD040C255DF4F888340
:1028D000CE5AD040C155DF4F9883CF5AD040C4550F
:1028E000DF4F68807980CC5AD040C255DF4F888155
:1028F0009981CE5AD040C259DE4F99838883CE56F3
:10290000D1401F921F921F9281E08F9390E89F9376
:102910008F930E946F01C758DE4F688379838A8343
:102920009B83C957D14042E062E0CE0180559F4F62
:102930000E94540440E069E0CE0180549F4F0E9401
:102940009604C853DF4FA881B981C85CD040C958EC
:10295000DE4FB983A883C757D14060E1CE018E5DB9
:102960009E4FDCDE8CE1FE01EE5DFE4FABEAB4E093
:1029700001900D928A95E1F701E020E042E065E6E2
:1029800070E084E690E00E940C012093580430939C
:10299000590440935A0450935B0460935C04709311
:1029A0005D0400E010E021E030E048E050E067E640
:1029B00070E0CE018E5D9E4F0E94C10682E1FE0155
:1029C000EE5DFE4FABECB4E001900D928A95E1F71D
:1029D000CE0180539F4FFC0120E330E021933193DF
:1029E00024E0DF011D922A95E9F729E330E3CA527A
:1029F000DF4F39832883C65DD040C852DF4F19822C
:102A00001882C85DD040C652DF4F19821882CA5D55
:102A1000D0409093480280934702CA54DF4FE88128
:102A2000F981C65BD04089EF0995C454DF4FE88136
:102A3000F981CC5BD04080E490E00995CE53DF4F24
:102A4000E881F981C25CD04082E00995CA53DF4F2A
:102A5000E881F981C65CD04080E29EE40995C453C8
:102A6000DF4FE881F981CC5CD04088E090E00995A7
:102A7000E091B304F091B40462E081E009950F9015
:102A80000F900F900F900F900F90ECE0F0E0CE5869
:102A9000DE4FF983E883C257D140F0E3CA58DE4FD6
:102AA000F883C657D14021E3C459DE4F2883CC5662
:102AB000D1400DC031E3C459DE4F3883CC56D140EC
:102AC00006C080E3CA58DE4F8883C657D140CA5536
:102AD000DF4FE881F981C65AD0400995C655DF4FCE
:102AE000E881F981CA5AD0400995E091CF04F0916C
:102AF000D004099590934602809345026DE070E002
:102B000083E090E0F40109958AE3F1010995F3016E
:102B10000995C357DF4F2883CD58D040C257DF4FA8
:102B20003883CE58D040C157DF4F4883CF58D0406C
:102B3000C057DF4F5883C059D040CF56DF4F68830E
:102B4000C159D04066E0C257DF4F88819981CE5885
:102B5000D040F2010995C459DE4FF881CC56D140DE
:102B6000F23309F403C3F33309F440C4F13311F031
:102B70000C943B1EF3010995C857DF4F2883C858B2
:102B8000D040C757DF4F3883C958D040C657DF4FB2
:102B90004883CA58D040C557DF4F5883CB58D040E0
:102BA000C457DF4F6883CC58D04064E171E0C5570B
:102BB000DF4F88819981CB58D0400E94761F892BA6
:102BC000A9F4C259DE4FE881F981CE56D14009956A
:102BD000C059DE4FE881F981C057D1400995F2E331
:102BE000C459DE4FF883CC56D14071CFF30109951B
:102BF000CD57DF4F2883C358D040CC57DF4F3883A1
:102C0000C458D040CB57DF4F4883C558D040CA572F
:102C1000DF4F5883C658D040C957DF4F6883C75825
:102C2000D04066E171E0CA57DF4F88819981C6586C
:102C3000D0400E94761F892BA9F4C259DE4FE8814B
:102C4000F981CE56D1400995C059DE4FE881F9810E
:102C5000C057D1400995F3E3C459DE4FF883CC56F1
:102C6000D14035CF0BEA14E0D8015496ED91FC9198
:102C7000559709956093A8047093A9048093AA04BA
:102C8000D8015696ED91FC91579709956093C7042A
:102C90007093C8048093C9049093CA0480E090E0C4
:102CA000C558DE4FE881F981CB57D1400995C45909
:102CB000DE4F99838883CC56D140CE58DE4F888131
:102CC0009981C257D14006970F9708F06AC0CE5835
:102CD000DE4F28813981C257D140B90180E090E0B0
:102CE0001F921F9229E02F932EE22F93E0919C04D4
:102CF000F0919D040F2EF4EFAF2EBB24B394C12CA2
:102D0000D12CF02D17E1E12EF12C00E010E022E0B3
:102D100030E040E050E00995CE58DE4F688379837B
:102D20008A839B83C257D140C459DE4FE881F98121
:102D3000CC56D140CF01A0E0B0E01F921F9221E01D
:102D40002F932CE22F93E0919C04F0919D040F2E81
:102D5000F4EDAF2EFEEFBF2ECC24CA94DC2CF02D68
:102D6000EE24EA9413E0F12E00E010E020E030E0E1
:102D7000A901BC01CD010995CE58DE4F888199810A
:102D8000C257D140860F971FC958DE4FE881F9819D
:102D9000C757D14009950FB6F894DEBF0FBECDBF1F
:102DA0002CC01F921F9289E08F938EE28F93E09147
:102DB0009C04F0919D040F2EF4EFAF2EBB24B3942E
:102DC000C12CD12CF02D17E1E12EF12C00E010E008
:102DD00022E030E040E050E066E070E080E090E02B
:102DE0000995CB01C958DE4FE881F981C757D14019
:102DF00009950F900F900F900F9060E070E080E0C9
:102E000090E0F401099567E088E191E0F20109950D
:102E10000F2EFEE5CF2EF4E0DF2EF02DD60190969A
:102E2000ED91FC919197C459DE4F88819981CC56E0
:102E3000D1400995BC01CE0180539F4F0E947F1F56
:102E400064E0CE0180539F4FF20109956CE070E081
:102E500080E090E0F4010995D6019296ED90FC9007
:102E6000939707EC14E00F2EFBEAAF2EF4E0BF2E91
:102E7000F02DD5015896ED91FC915997D8011396F4
:102E80008C91099590E0F701099562E0F2010995AE
:102E90008AE3F1010995D6019296ED90FC90939703
:102EA000D5015896ED91FC915997D80111968C91C6
:102EB000099590E0F701099562E0F20109958AE32E
:102EC000F1010995D6019296ED90FC909397D5016A
:102ED0005896ED91FC915997D8018C91099590E005
:102EE000F701099562E0F20109956CE070E081E07C
:102EF00090E0F40109950F2EF8EAEF2EF4E0FF2E92
:102F0000F02DD5015896ED91FC915997D7018C91F0
:102F10000995E82FF0E0CE58DE4FF983E883C257D9
:102F2000D140D6019296ED91FC919397CE58DE4F09
:102F300088819981C257D140099562E0F2010995D3
:102F40008AE3F1010995D60192960D911C91939710
:102F5000D5015896ED91FC915997D70111968C9116
:102F6000099590E0F801099562E0F20109958AE37C
:102F7000F1010995D60192960D911C919397D50177
:102F80005896ED91FC915997D70112968C9109951D
:102F900090E0F801099562E0F201099560E070E0C7
:102FA00082E090E0F40109950091450210914602FB
:102FB000B801CE018E519F4FA2D7D8018C918823A2
:102FC00059F063E080E291E0F201099561E1CE0100
:102FD0008E519F4FF201099564E271E080914502A4
:102FE0009091460283D7892B51F50BEC14E0D80160
:102FF0001A96ED91FC911B9781E291E00995D80119
:103000001A96ED91FC911B978EE291E00995D801FB
:103010001A96ED91FC911B9780914702909148027E
:103020000995D8011A96ED91FC911B9783E891E0E0
:103030000995D8011E96ED91FC911F9709956FE3B4
:1030400071E0809145029091460250D7892B09F09A
:1030500031CD0F2EFBECCF2EF4E0DF2EF02DF6015C
:103060000284F385E02DC459DE4FF983E883CC5602
:10307000D1400F2EFEE5EF2EF4E0FF2EF02DD7010C
:1030800092960D911C9193970F2EFBEAAF2EF4E0D0
:10309000BF2EF02DD5015896ED91FC915997A8EAD5
:1030A000B4E08C91099590E0F8010995C459DE4F80
:1030B000E881F981CC56D1400995D6011896ED9159
:1030C000FC9119978AE30995F6010284F385E02DB6
:1030D000C459DE4FF983E883CC56D140D70192968C
:1030E0000D911C919397D5015896ED91FC915997AC
:1030F0008091A904099590E0F8010995C459DE4F23
:10310000E881F981CC56D1400995D6011896ED9108
:10311000FC9119978AE30995F60102851385D70179
:103120009296ED90FC909397D5015896ED91FC9175
:1031300059978091AA04099590E0F7010995F80143
:103140000995D6011A96ED91FC911B9783E891E0C1
:103150000995D6011E96ED91FC911F970995B1E353
:10316000C459DE4FB883CC56D140B1CCF301099598
:10317000EF962FAFEF97C158DF4F3883CF57D0402E
:10318000C058DF4F4883C058D040CF57DF4F5883D7
:10319000C158D040CE57DF4F6883C258D04064E159
:1031A00071E0CF57DF4F88819981C158D0409ED6BA
:1031B000892BA9F4C259DE4FE881F981CE56D1405E
:1031C0000995C059DE4FE881F981C057D140099572
:1031D000F3E3C459DE4FF883CC56D14078CCF301E9
:1031E0000995EA962FAFEA97EB963FAFEB97EC96EF
:1031F0004FAFEC97ED965FAFED97EE966FAFEE9712
:1032000066E171E0EE968EAD9FADEE976FD6892B9D
:10321000A9F4C259DE4FE881F981CE56D140099513
:10322000C059DE4FE881F981C057D1400995F1E3DB
:10323000C459DE4FF883CC56D14049CCF3010995EF
:10324000E5962FAFE597E6963FAFE697E7964FAF47
:10325000E797E8965FAFE897E9966FAFE99765E47F
:1032600071E0E9968EAD9FADE99740D6892BE1F4E8
:10327000C259DE4FE881F981CE56D1400995C05937
:10328000DE4FE881F981C057D1400995E091D5041E
:10329000F091D60487E491E00995F1E3C459DE4F3B
:1032A000F883CC56D14013CC60E070E080E090E031
:1032B000F401099568E085E591E0F201099563E084
:1032C000CE018A529F4FF201099560E070E081E0E3
:1032D00090E0F40109956BE08EE591E0F20109952B
:1032E000F3010995E0962FAFE097E1963FAFE197A4
:1032F000E2964FAFE297E3965FAFE397E4966FAF46
:10330000E497243409F066C0F3010995AB962FAF1A
:10331000AB97AC963FAFAC97AD964FAFAD97AE962F
:103320005FAFAE97AF966FAFAF97AF966EAD7FAD15
:10333000AF9746E050E0CE018A529F4FE7D5E0912B
:103340008A04F0918B04CE018A529F4F0995853BE8
:103350009105A0F5BC01990F880B990B1F921F9244
:1033600029E02F932EE22F93E0919C04F0919D048D
:103370000F2EF4EFAF2EBB24B394C12CD12CF02D23
:1033800014EBE12EF12C00E010E020E030E0A90188
:103390000995CB01C958DE4FE881F981C757D14063
:1033A0000995C056DF4FE881F981C05AD04085E0C9
:1033B00009950F900F900F900F9005C065E08AE679
:1033C00091E0F2010995C259DE4FE881F981CE56AC
:1033D000D140099560E070E083E090E0F401099548
:1033E00068E080E791E0F201099571CBF30109955E
:1033F000A6962FAFA697A7963FAFA797A8964FAFD1
:10340000A897A9965FAFA997AA966FAFAA9764E10C
:1034100071E0AA968EAD9FADAA9768D5892BA9F4C5
:10342000C259DE4FE881F981CE56D1400995C05985
:10343000DE4FE881F981C057D1400995F1E3C459C5
:10344000DE4FF883CC56D14042CBF3010995A196CB
:103450002FAFA197A2963FAFA297A3964FAFA39786
:10346000A4965FAFA497A5966FAFA59766E171E0AC
:10347000A5968EAD9FADA59739D5892BA9F4C259D4
:10348000DE4FE881F981CE56D1400995C059DE4F13
:10349000E881F981C057D1400995F2E3C459DE4F64
:1034A000F883CC56D14013CBF30109956C962FAF1E
:1034B0006C976D963FAF6D976E964FAF6E976F9608
:1034C0005FAF6F97A0966FAFA09765E471E0A0968D
:1034D0008EAD9FADA0970AD5892B11F5C259DE4F4D
:1034E000E881F981CE56D1400995C059DE4FE88177
:1034F000F981C057D1400995E091D504F091D604E7
:1035000089E791E00995F0E3CA58DE4FF883C65782
:10351000D14021E3C459DE4F2883CC56D140D7CACD
:1035200060E070E080E090E0F401099563E186E8F6
:1035300091E0F2010995CA58DE4FF881C657D14093
:103540008F2F90E0FC01F097E730F10508F0B9CA41
:10355000EF59FF4FA9C460E070E081E090E0F40112
:10356000099567E08AE991E0F201099568E081EA4E
:1035700091E0F201099565E089EA91E0F20109958F
:1035800060E070E082E090E0F401099567E08FEA86
:1035900091E0F201099568E086EB91E0F20109956E
:1035A00065E08CEB91E0F201099560E070E083E06A
:1035B00090E0F401099568E080E791E0F201099557
:1035C000F301099567962FAF679768963FAF6897A5
:1035D00069964FAF69976A965FAF6A976B966FAFC0
:1035E0006B9762EC71E06B968EAD9FAD6B977ED45E
:1035F000892BA1F4C259DE4FE881F981CE56D14022
:103600000995C059DE4FE881F981C057D14009952D
:10361000F1E3CA58DE4FF883C657D140F30109954C
:1036200062962FAF629763963FAF639764964FAFF2
:10363000649765965FAF659766966FAF669764EC23
:1036400071E066968EAD9FAD669750D4892BA1F43C
:10365000C259DE4FE881F981CE56D1400995C05953
:10366000DE4FE881F981C057D1400995F2E3CA588D
:10367000DE4FF883C657D140F30109952D962FAF41
:103680002D972E963FAF2E972F964FAF2F97609680
:103690005FAF609761966FAF619766EC71E061967E
:1036A0008EAD9FAD619722D4892BA1F4C259DE4F14
:1036B000E881F981CE56D1400995C059DE4FE881A5
:1036C000F981C057D1400995F3E3CA58DE4FF8831A
:1036D000C657D140F301099528962FAF2897299610
:1036E0003FAF29972A964FAF2A972B965FAF2B971C
:1036F0002C966FAF2C9768EC71E02C968EAD9FAD39
:103700002C97F4D3892BA1F4C259DE4FE881F981BB
:10371000CE56D1400995C059DE4FE881F981C05796
:10372000D1400995F4E3CA58DE4FF883C657D1401B
:10373000F301099523962FAF239724963FAF249743
:1037400025964FAF259726965FAF269727966FAFA2
:1037500027976AEC71E027968EAD9FAD2797C6D369
:10376000892BA1F4C259DE4FE881F981CE56D140B0
:103770000995C059DE4FE881F981C057D1400995BC
:10378000F5E3CA58DE4FF883C657D140F3010995D7
:103790002DAF3EAF4FAF21965FAF219722966FAF0F
:1037A00022976CEC71E022968EAD9FAD22979ED34E
:1037B000892B09F08CC9C259DE4FE881F981CE56B8
:1037C000D1400995C059DE4FE881F981C057D140F9
:1037D0000995F6E3CA58DE4FF883C657D14077C93A
:1037E00060E070E081E090E0F40109956BE08EEC20
:1037F00091E0F201099560E070E083E090E0F4016F
:10380000099568E080E791E0F2010995F3010995D7
:1038100028AF39AF4AAF5BAF6CAF243409F057C95A
:10382000F30109952BAB3CAB4DAB5EAB6FAB6EA917
:103830007FA9CE0184529F4F62D3E0918A04F09118
:103840008B04CE0184529F4F09958436910588F4EC
:10385000EBEAF4E002891389028CF38DE02D0995DF
:10386000F8010995F0E3CA58DE4FF883C657D140F6
:1038700010C085E692E7C452DF4F99838883CC5D00
:10388000D04082E790E0C252DF4F99838883CE5DBB
:10389000D040C259DE4FE881F981CE56D14009951A
:1038A00016C960E070E081E090E0F40109956CE0F9
:1038B0008AED91E0F201099560E070E083E090E02C
:1038C000F401099568E080E791E0F2010995F301C0
:1038D00009952EA73FA748AB59AB6AAB243409F032
:1038E000F6C8F301099529A73AA74BA75CA76DA7CE
:1038F0006CA57DA5CE0184529F4F01D3E0918A042F
:10390000F0918B04CE0184529F4F09958D30910523
:1039100088F4EBEAF4E000891189028CF38DE02D44
:103920000995F8010995F0E3CA58DE4FF883C657A8
:10393000D14010C085E692E7C452DF4F9983888357
:10394000CC5DD04082E790E0C252DF4F99838883FC
:10395000CE5DD040C259DE4FE881F981CE56D140CC
:103960000995B5C860E070E081E090E0F401099548
:103970006AE087EE91E0F201099560E070E083E093
:1039800090E0F401099568E080E791E0F201099583
:10399000F30109952CA33DA34EA35FA368A724348C
:1039A00009F095C8F30109952F8F38A349A35AA3AD
:1039B0006BA36AA17BA1CE0184529F4FA0D2E0915C
:1039C0008A04F0918B04CE0184529F4F0995803276
:1039D000910588F4EBEAF4E004851585028CF38DFB
:1039E000E02D0995F8010995F0E3CA58DE4FF883F8
:1039F000C657D14010C085E692E7C452DF4F998385
:103A00008883CC5DD04082E790E0C252DF4F99833B
:103A10008883CE5DD040C259DE4FE881F981CE5611
:103A2000D140099554C860E070E081E090E0F40175
:103A300009956BE082EF91E0F201099560E070E09A
:103A400083E090E0F401099568E080E791E0F201FD
:103A50000995F30109952A8F3B8F4C8F5D8F6E8FEF
:103A6000243409F034C8F30109952D8B3E8B4F8B1C
:103A7000588F698F688D798DCE0184529F4F3FD2C8
:103A8000E0918A04F0918B04CE0184529F4F0995F6
:103A90008831910588F4EBEAF4E002811381028C0D
:103AA000F38DE02D0995F8010995F0E3CA58DE4F32
:103AB000F883C657D14010C085E692E7C452DF4F65
:103AC00099838883CC5DD04082E790E0C252DF4F7B
:103AD00099838883CE5DD040C259DE4FE881F98159
:103AE000CE56D14009950C94671560E070E081E0F6
:103AF00090E0F40109956DE08EEF91E0F2010995F7
:103B000060E070E083E090E0F401099568E080E710
:103B100091E0F2010995F3010995288B398B4A8BC5
:103B20005B8B6C8B243411F00C946715F3010995B1
:103B30002B873C874D875E876F876E857F85CE019B
:103B400084529F4FDCD1E0918A04F0918B04CE0126
:103B500084529F4F09958C33910588F4EBEAF4E089
:103B600004811581028CF38DE02D0995F8010995EA
:103B7000F0E3CA58DE4FF883C657D14010C085E63F
:103B800092E7C452DF4F99838883CC5DD04082E7AF
:103B900090E0C252DF4F99838883CE5DD040C259F6
:103BA000DE4FE881F981CE56D14009950C94671516
:103BB00060E070E081E090E0F40109956DE08DE057
:103BC00092E0F201099560E070E083E090E0F4019A
:103BD000099568E080E791E0F2010995F301099504
:103BE0002E833F83488759876A87243411F00C94C9
:103BF0006715F301099529833A834B835C836D83B1
:103C00006C817D81CE0184529F4F79D1E0918A04ED
:103C1000F0918B04CE0184529F4F09958C3391050E
:103C200088F4EBEAF4E006811781028CF38DE02D35
:103C30000995F8010995F0E3CA58DE4FF883C65795
:103C4000D14010C085E692E7C452DF4F9983888344
:103C5000CC5DD04082E790E0C252DF4F99838883E9
:103C6000CE5DD040C259DE4FE881F981CE56D140B9
:103C700009950C946715CA55DF4FE881F981C65A3A
:103C8000D0400995C655DF4FE881F981CA5AD04026
:103C90000995E091CF04F091D004099590934602E4
:103CA000809345026DE070E083E090E0F4010995B7
:103CB0008AE3F1010995F3010995C357DF4F288382
:103CC000CD58D040C257DF4F3883CE58D040C1576F
:103CD000DF4F4883CF58D040C057DF4F5883C0597B
:103CE000D040CF56DF4F6883C159D04066E0C257FD
:103CF000DF4F88819981CE58D040F20109950C940C
:103D0000BA151F920F920FB60F9211240BB60F9295
:103D10000F931F932F933F934F935F936F937F93D3
:103D20008F939F93AF93BF93CF93EF93FF93CFB7AF
:103D30008FB78F778FBF80914A028C3338F1809193
:103D400049028F5F809349028F7090E0089774F466
:103D500008E514E0D801ED91FC9180E00995D801C7
:103D60001496ED91FC91159709950DC008E514E0A6
:103D7000D801ED91FC9181E00995D8011496ED915F
:103D8000FC911597099510924A0203C08F5F8093AA
:103D90004A02CFBFFF91EF91CF91BF91AF919F9119
:103DA0008F917F916F915F914F913F912F911F91D3
:103DB0000F910F900BBE0F900FBE0F901F90189594
:103DC000DB018F939F9388D0BF91AF91A29F800D0D
:103DD000911DA39F900DB29F900D11240895AA1BD1
:103DE000BB1B51E107C0AA1FBB1FA617B70710F0E6
:103DF000A61BB70B881F991F5A95A9F78095909518
:103E0000BC01CD01089597FB072E16F4009406D04F
:103E100077FD08D0E4DF07FC05D03EF4909581954E
:103E20009F4F0895709561957F4F0895A1E21A2ED6
:103E3000AA1BBB1BFD010DC0AA1FBB1FEE1FFF1F4E
:103E4000A217B307E407F50720F0A21BB30BE40B9E
:103E5000F50B661F771F881F991F1A9469F76095E5
:103E60007095809590959B01AC01BD01CF0108959F
:103E7000052E97FB16F400940FD057FD05D0D6DF22
:103E800007FC02D046F408C0509540953095219526
:103E90003F4F4F4F5F4F0895909580957095619576
:103EA0007F4F8F4F9F4F0895EE0FFF1F0024001C80
:103EB0000BBE0790F691E02D0994A29FB001B39F2D
:103EC000C001A39F700D811D1124911DB29F700D23
:103ED000811D1124911D0895F0DFA59F900DB49FC1
:103EE000900DA49F800D911D11240895FB01DC010C
:103EF0008D91019080190110D9F3990B0895FB0160
:103F0000DC0101900D920020E1F70895FB01DC0136
:103F10004150504048F001900D920020C9F701C077
:0E3F20001D9241505040E0F70895F894FFCFF5
:103F2E003132334134353642373839432A3023441F
:103F3E00000000004100420053656E73653A200098
:103F4E00753E2000706F736974696F6E0D00616E3F
:103F5E00616C6F672052656164696E673A20007408
:103F6E00696D650D0043004D616E75616C2065785D
:103F7E0069740D0A004D616E75616C3A2000456ED4
:103F8E0074657220416E676C650020206572720048
:103F9E0043202D206578697400436C6F636B206538
:103FAE007869740D0A004461746520616E64205452
:103FBE00696D6520536574757000312D5965617298
:103FCE0000322D4D6F6E746800332D4461790034CC
:103FDE002D486F757200352D4D696E00362D536567
:103FEE006300310032003300340035003600456E78
:103FFE0074657220596561723A00456E746572205F
:10400E004D6F6E74683A00456E7465722044617926
:10401E003A00456E74657220486F75723A00456EAF
:10402E00746572204D696E757465733A00456E74D1
:0C403E006572205365636F6E64733A0076
:00000001FF
