S011000041746D6567613132382E7372656329
S113000060C000007DC000007BC0000079C000001B
S113001077C0000075C0000073C0000071C000000C
S11300206FC000006DC000006BC0000069C000001C
S113003067C0000065C0000063C000000C947F101E
S11300405FC000005DC000005BC0000059C000003C
S113005057C00000F6C0000053C0000051C00000AB
S11300604FC000004DC000004BC0000049C000005C
S113007047C0000045C0000043C0000041C000006C
S11300803FC000003DC000003BC00000E30CE70C93
S1130090EB0CEF0CF30CFA0C010D080D0C0D130D09
S11300A01A0D210D250D2C0D330D4E0D520D560D2F
S11300B05A0D600D640D680D6C0D750D790D7D0D77
S11300C0860D11241FBECFEFD0E1DEBFCDBF11E0FE
S11300D0A0E0B1E0E6EBF2E200E00BBF02C0079063
S11300E00D92A235B107D9F722E0A2E5B1E001C033
S11300F01D92A632B207E1F70E94D40D0C94591157
S11301007FCF369B369AFC01EE0FFF1FE559FE4F59
S11301108081918108950F931F93CF93DF93CDB77F
S1130120DEB79F81688549855A851FB78FB78F775A
S11301308FBF50935A014093590110925801109265
S113014057011092520187B18F7387B9913019F01A
S1130150933021F008C03E9A01E006C087B1806C5C
S113016087B903E001C000E03D98141615068CF42D
S1130170DE011B9680E090E02D913D91FC01EE0F95
S1130180FF1FE55AFE4F3183208301964817590714
S113019099F787B1807E87B9E0915701F0915801B2
S11301A0EE0FFF1FE55AFE4F8081918127B18F71B9
S11301B09927822B87B9379A369A3598339A86B11C
S11301C0887F86B96031D1F038F4643079F06830D2
S11301D081F0623029F507C06034C1F06038D9F08D
S11301E06032F1F40EC0309A22E01EC0319A24E04D
S11301F01BC086B1836086B928E016C0329A20E11C
S113020013C086B1856086B920E20EC086B18660CF
S113021086B920E409C086B1876086B920E804C0A5
S113022086B1876086B920E81FBF8FB780688FBF0B
S1130230602F722F81E890E0DF91CF911F910F9191
S113024008951F920F920FB60F9211240BB60F92BE
S11302502F933F938F939F93EF93FF9384B190E0F9
S1130260909354018093530125B18091530190914F
S11302705401922B90935401809353018091520125
S11302808430A0F4809152018F5F809352012091B9
S11302905301309154018091550190915601820F80
S11302A0931F909356018093550143C0E0915701E9
S11302B0F09158018091550190915601959587953B
S11302C095958795EE0FFF1FE559FE4F9183808327
S11302D0109256011092550110925201209157012B
S11302E0309158018091590190915A01281739078A
S11302F054F48091570190915801019690935801BC
S11303008093570104C0109258011092570187B18D
S1130310807E87B9E0915701F0915801EE0FFF1FDD
S1130320E55AFE4F8081918127B18F719927822BE5
S113033087B9FF91EF919F918F913F912F910F90EA
S11303400BBE0F900FBE0F901F901895E9E8F1E0D7
S11303508083618342830895E9E8F1E082818F5FBD
S113036082838C330CF47AC081818F5F8183128203
S11303708C3344F080818F5F80831182883114F044
S1130380109289018091890190918C0189132AC06E
S113039090918F01943009F053C093E090938F01B2
S11303A020918D0190918A01291309C004C0909174
S11303B08F01933051F492E090938F0106C0209105
S11303C08A0190918D0129130DC020918B01909188
S11303D08E01291307C090918F01923019F491E096
S11303E090938F019091860198133FC0809185016D
S11303F0843069F583E08093850190918A0180912E
S11304008701981309C004C080918501833051F499
S113041082E08093850106C090918A0180918701D2
S1130420981323C090918B018091880198131DC06B
S1130430809185018230C9F481E08093850108951B
S113044020918A0190918D012913CCCFB0CF909146
S11304508A0180918701981308C0D6CF80918901C1
S113046090918C019813BECF93CF0895E9E8F1E001
S113047082818150828388230CF047C0818181501E
S113048081839BE3928388234CF480818150808311
S1130490918388231CF487E18093890190918901D9
S11304A080918601981337C080918501843031F59D
S11304B083E08093850190918A018091870198134C
S11304C009C004C080918501833051F482E0809397
S11304D0850106C090918A018091870198131BC001
S11304E090918B0180918801981315C080918501AA
S11304F0823089F481E080938501089590918A0186
S113050080918701981307C0DDCF90918901809174
S11305108601981749F2089590918501911108C0B8
S1130520E6E8F1E080836183428384E0809385017F
S1130530809185010895CF92DF92EF92FF920F93FD
S11305401F93CF93DF93FC0180918F01811165C0CC
S11305509F01A9E8B8E80E9439116C01D694C794A8
S1130560D694C794D694C794D694C794D694C79473
S11305704CE34C9DC0014D9D900D1124281B390B5B
S1130580C9E8D1E08A81082E000C990B820F911DD5
S11305900CE811E00F2EFCE3EF2EF12CF02DB70147
S11305A00E94DF10562FD80112968C939601A9E869
S11305B0B8E80E94391196958795929582958F7027
S11305C089279F708927489F9001499F300D1124E6
S11305D0C21AD30A8981082E000C990B8C0D911D27
S11305E0850F911DB7010E94DF10262FD8011196A7
S11305F08C93CF0160E17EE00E94CB108881680F6C
S1130600620F693128F088E1861B80938C0102C057
S113061060938C0184E080938F0180918F01DF913E
S1130620CF911F910F91FF90EF90DF90CF9008959D
S11306301092850108958FE08093850108951092AA
S11306408F0108958FE080938F010895ECE7F1E026
S11306501086A9E8B1E012962C91129787E6280239
S1130660912D11249595959527FD9395492F440F28
S1130670342F330F330F340F231B205D27832DECCE
S1130680929F312D1124369536953695330F432F8D
S1130690440F440F340F931B905D96835AE35583A4
S11306A011963C9111973802912D112495959595A9
S11306B037FD9395692F660F462F440F440F460F5D
S11306C0341B305D3483929F312D11243695369539
S11306D03695330F432F440F440F340F931B905D13
S11306E0938352839C919802812D1124859585953D
S11306F097FD8395482F440F342F330F330F340F56
S1130700931B905D9183829F212D1124269526951C
S11307102695220F922F990F990F290F821B805D26
S11307208083CF010895FC01A9E8B1E06C93119690
S11307304C93119712962C938FE0809385018093AC
S11307408F0186EA91E0918380838CEA91E0938320
S1130750828386E392E0958384838CE892E0978396
S113076086838BE992E0918780878FE193E093877A
S1130770828782E293E09587848788E193E0978774
S113078086878BE193E0918B808B86E293E0938B59
S1130790828BCF0108956823442321F0861721F02A
S11307A080E00895611180E00895862B08958623E2
S11307B008958627862308956095862308958627BD
S11307C00895CF92DF92EF92FF920F931F93FC0153
S11307D00081118122813381FB01C080D180E280BC
S11307E0F380FC01C082D182E282F382FB010083A8
S11307F01183228333831F910F91FF90EF90DF9039
S1130800CF900895FB012081FC012083222339F03D
S1130810DB01119631969D9191939111FCCF08952E
S1130820CF93DF93EC019881992399F0FE013196DF
S113083020E030E0492F50E04617570731F0DE0141
S1130840A20FB31F9C932F5F3F4F91919111F2CF51
S113085002C020E030E0FE01E20FF31F1082DF91BE
S1130860CF9108952F923F924F925F926F927F9211
S11308708F929F92AF92BF92CF92DF92EF92FF92AC
S11308800F931F93CF93DF9300D000D0CDB7DEB783
S11308902C011B014B0177231CF42FEF821A920ABF
S11308A095948794181419040CF451C06AC09601E5
S11308B0DD209CF1F50140815181F4016081718159
S11308C06417750754F58C010A0D1B1DD401BC82F5
S11308D0AB82BA82A982EB81FC8171836083119619
S11308E05C934E932E193F09C2F0F8014081518167
S11308F0E981FA8160817181080F191FE80FF91FDE
S1130900FA83E983EB81FC81E80FF91FFC83EB8315
S1130910A80FB91F64177507F4F2FFEFCF1ADF0AA7
S113092022E0A20EB11CE2E08E0E911CC614D70484
S113093009F0BDCF4701FF201CF4FFEF8F1A9F0A77
S11309409594879418141904E4F4740101C0740193
S1130950821493047CF76401CE18DF085601AA0CB4
S1130960BB1CA40CB51C880C991C840C951C31016F
S11309706E187F08C701880F991F91958195910979
S113098096CF0F900F900F900F90DF91CF911F9102
S11309900F91FF90EF90DF90CF90BF90AF909F901A
S11309A08F907F906F905F904F903F902F9008951D
S11309B0861797070CF4CB0108959B01672B11F45C
S11309C008959A01B9010E94DF10AC01822F932F80
S11309D041155105B1F70895FC01908180ED890F0F
S11309E08A30D0F4319620E030E0A901440F551F3D
S11309F0220F331F220F331F220F331F420F531FA7
S1130A00292F30E020533109240F351F919180EDB7
S1130A10890F8A3050F302C020E030E0C901089504
S1130A2086230895009739F020E030E02F5F3F4F90
S1130A3082179307D9F7089587FF08C09195819588
S1130A409109992791958195910908958F7799270F
S1130A50089591FF08C0919581959109937091959E
S1130A6081959109089591700895615021E030E0D5
S1130A7002C0220F331F6A95E2F7A90141505109C0
S1130A80B90168237923672B29F084239523821BDA
S1130A90930B08958423952308959DEC899F912DAC
S1130AA01124969596959695392F330F232F220F5F
S1130AB0220F230F821B20E1929F800D11240895A1
S1130AC0982F92959F70990F292F220F220F920F22
S1130AD08F70890F0895FC01DB01A057BE4F1C9253
S1130AE01616170614F5908191110CC017C0919138
S1130AF091110DC015C081932F5F3F4F2617370703
S1130B00D4F313C0A0E9B1E0319620E030E09D9326
S1130B102F5F3F4F6217730751F707C020E030E0A3
S1130B20F901E057FE4F80E2E6CF80E991E00895B5
S1130B304F925F926F927F92AF92BF92CF92DF9269
S1130B40EF92FF920F931F93CF93DF93CDB7DEB74E
S1130B5029013A019B01AC012419350946095709B9
S1130B6089899A89AB89BC89BC01CD016A197B0941
S1130B708C099D090E94BC10A8019701241935090C
S1130B80460957090E941411CA01B9016A0D7B1D57
S1130B908C1D9D1DDF91CF911F910F91FF90EF90C0
S1130BA0DF90CF90BF90AF907F906F905F904F9009
S1130BB0089570E06115710599F041E050E021E07D
S1130BC030E090E0FA01E89FA001E99F500DF89F02
S1130BD0500D11242F5F3F4F6217730798F702C01F
S1130BE041E050E0CA010895FC012081222341F034
S1130BF0319680E090E0019621912111FCCF089577
S1130C0080E090E00895CF93DF93EC01EDDF9C0149
S1130C102150310962F0FE01E80FF91F92919032E0
S1130C2019F09950923018F421503109B8F7C20FD5
S1130C30D31F1982C901DF91CF910895CF93DF9318
S1130C40EC01D2DF9C01215031091216130684F401
S1130C50DE01A80FB91FFE0180E090E040815E91A3
S1130C6051934C9301962150310982179307B4F3A1
S1130C70DF91CF9108954F925F926F927F92AF92DE
S1130C80BF92CF92DF92EF92FF920F931F93CF9375
S1130C90DF936A015B0177233CF49095809570950E
S1130CA061957F4F8F4F9F4F8601E12CF12C0F2EC2
S1130CB0FAE04F2E512C612C712CF02D01C07E01D5
S1130CC0E7012196A30192010E941411605DF801CD
S1130CD061938F01622F732F842F952F1616170699
S1130CE01806190664F3BB2034F4CC0DDD1D8DE227
S1130CF08883E7012296CC0DDD1D1882C6019EDF94
S1130D00DF91CF911F910F91FF90EF90DF90CF90E3
S1130D10BF90AF907F906F905F904F900895982F01
S1130D2092959F70990F292F220F220F920F8F7087
S1130D30890F0895AC019C01ADECBCEC0E94391103
S1130D40969587959695879596958795BC01660F98
S1130D50771F9C01220F331F220F331F220F331FD3
S1130D60260F371F421B530B342F20E1829F300D77
S1130D701124832F0895CF92DF92EF92FF92CF93A5
S1130D80DF93CDB7DEB728970FB6F894DEBF0FBE5A
S1130D90CDBF6B017C0169837A838B839C832D8314
S1130DA03E834F835887C216D306E406F50634F40F
S1130DB0BE016B5F7F4FCE01019603DD8D819E8165
S1130DC0AF81B885892B8A2B8B2B71F469817A8149
S1130DD08B819C8120E030E0A9010E9414116115EF
S1130DE071058105910529F46D817E818F81988536
S1130DF005C06D837E838F839887F6CF28960FB6C0
S1130E00F894DEBF0FBECDBFDF91CF91FF90EF907E
S1130E10DF90CF90089590E002C0959587956A95EC
S1130E20E2F781700895E0E9F1E020E030E040E885
S1130E3050E0B0E3A1E3BC0164237523672B11F0F8
S1130E40A08301C0B083559547952F5F3F4F3196DE
S1130E502830310581F71092980180E991E00895D6
S1130E60A42FB0E0109761F021E030E0E1E0F0E081
S1130E70EE0FFF1F2F5F3F4FA217B307C8F702C043
S1130E80E1E0F0E031976E237F238E239F238627B2
S1130E9097276823792302C0660F771F4A95E2F7E4
S1130EA0862B972B0895FC019FB78FB78F778FBF41
S1130EB09FBF89ED95E09183808384EF95E09383D0
S1130EC082838EE196E09583848380E397E0978321
S1130ED086838BEC93E09187808789ED93E09387F9
S1130EE082878CED93E0958784878FED93E09787D5
S1130EF0868785ED93E0918B808B87ED93E0938BD0
S1130F00828B81EE93E0958B848B82E094E0978BC7
S1130F10868B80E194E0918F808F82E394E0938FBD
S1130F20828F8BE396E0958F848F83E096E0978F92
S1130F30868F88ED94E091A380A38DED94E093A334
S1130F4082A38CEE94E095A384A380E195E097A31B
S1130F5086A382E195E091A780A78CE195E093A711
S1130F6082A789E295E095A784A785E395E097A7F2
S1130F7086A78DE495E091AB80AB80E695E093ABDA
S1130F8082AB8BE695E095AB84AB88E995E097ABB3
S1130F9086AB8FE896E091AF80AF8AE996E093AF95
S1130FA082AF8BEB96E095AF84AF8BE097E097AF81
S1130FB086AFDF01A05CBF4F83E197E08D939C93E4
S1130FC0CF010895E091AA01F091AB0190819D7F3A
S1130FD09083672B41F0E091AA01F091AB019081DD
S1130FE09160908307C0E091AA01F091AB019081D8
S1130FF09E7F9083E091A701F091A8019081906F6A
S11310009083E091AA01F091AB0190819460908368
S1131010882344F4E091AA01F091AB019081906897
S1131020908307C0E091AA01F091AB0190819F7772
S1131030908386FF08C0E091AA01F091AB019081F2
S11310409064908307C0E091AA01F091AB01908174
S11310509F7B908385FF08C0E091AA01F091AB01CA
S113106090819062908307C0E091AA01F091AB0156
S113107090819F7D908384FF08C0E091AA01F09144
S1131080AB0190819061908307C0E091AA01F09137
S1131090AB0190819F7E9083E091AA01F091AB0116
S11310A090819B7F9083E091AA01F091AB019081A4
S11310B09460908383FF08C0E091AA01F091AB0192
S11310C090819068908307C0E091AA01F091AB01F0
S11310D090819F77908382FF08C0E091AA01F091EC
S11310E0AB0190819064908307C0E091AA01F091D4
S11310F0AB0190819F7B908381FF08C0E091AA019E
S1131100F091AB0190819062908307C0E091AA01B5
S1131110F091AB0190819F7D908380FF08C0E091A6
S1131120AA01F091AB0180818061808307C0E091C6
S1131130AA01F091AB0180818F7E8083E091AA01A6
S1131140F091AB0180818B7F80830895E091A701AA
S1131150F091A80120812F702083E091AA01F091E1
S1131160AB012081206F2083E091AA01F091AB01B3
S1131170208122602083892B41F0E091AA01F09123
S1131180AB0180818160808307C0E091AA01F09166
S1131190AB0180818E7F8083E091AA01F091AB0145
S11311A0808184608083E091A001F091A10180811D
S11311B0882314F080E001C080E8908196FF02C08B
S11311C0806401C08F7B908195FF02C0806201C062
S11311D08F7D908194FF02C0806101C08F7EE09179
S11311E0AA01F091AB0190819B7F9083E091AA01C9
S11311F0F091AB01908194609083E091A001F09113
S1131200A1019081992314F4886001C0877F9081A3
S113121096FF02C0846001C08B7F908195FF02C05D
S1131220826001C08D7F908194FF02C0816001C003
S11312308E7FE091AA01F091AB0190819B7F908316
S11312400895CF93DF9380E090E080DFCBE0D0E09F
S113125005C080E090E07ADF219711F08823CCF379
S1131260DF91CF91089561E070E0ACDEEACF08959C
S1131270CF9381E090E06ADFC82FE3DF8C2FCF911A
S11312800895CF93DF93EC018881882341F0219660
S113129061E070E097DED5DF89918111F9CFDF91AC
S11312A0CF9108950F931F93CF93DF93FC01D62F13
S11312B08081882351F08F010F5F1F4F611109C096
S11312C01BC0CF5FDC1730F401C0C0E0CD1760F065
S11312D013C0C1E061E070E075DEB3DFF801819115
S11312E08F018111EECFF2CFCF5F61E070E080E239
S11312F069DEA7DFCD17C0F3DF91CF911F910F9166
S11313000895CF93C82F882339F061E070E080E21C
S113131059DE97DFC150C9F7CF91089560E070E0BE
S113132081E050DE8ECF08956115710521F06130A2
S1131330710539F0089560E070E0805843DE81CF94
S1131340089560E070E080543DDE7BCF0895E09125
S1131350A701F091A80187E08083E091AA01F091B0
S1131360AB0188E080832FEF83EF91E02150804030
S11313709040E1F700C0000060E070E083E322DE0B
S113138020ED2A95F1F760E070E08BE21BDE80ED42
S11313908A95F1F760E070E08BE214DE95EC9A95A3
S11313A0F1F7000060E070E08CE00CDE25EC2A959B
S11313B0F1F7000060E070E081E004DE87EE97E181
S11313C00197F1F700C0000060E070E086E0FADD0C
S11313D095EC9A95F1F7000060E070E08FE1F2DDA2
S11313E030DF60E070E083E0EDDD2BCF08951F93E4
S11313F0CF93DF93EC011FB78FB78F778FBF7093B5
S1131400A8016093A7015093A1014093A0013093D8
S1131410AB012093AA01FB011082E091AA01F09193
S1131420AB018FEF8083E091A001F091A101808155
S113143088708093A9018BDF1FBF82EE97E09983A8
S1131440888386EA98E09B838A8381E299E09D837E
S11314508C8383E399E09F838E8388E399E0998763
S1131460888781E499E09B878A8782E599E09D8754
S11314708C8781E899E09F878E878EE899E0998B25
S1131480888B84E999E09B8B8A8B8EE49AE09D8B10
S11314908C8BCE01DF91CF911F910895CF93E09172
S11314A0A001F091A101C081C8708091A9018C278D
S11314B08C2309F04CDFC093A901CF91089580914A
S11314C0B5018093AE01E091B001F091B10180814A
S11314D08093B5010895E091C201F091C301609138
S11314E0B5018091AE01099580FF62C0E091B3011E
S11314F0F091B40180818D7F8083E091B001F091FF
S1131500B1018081882334F49091AF01916090936C
S1131510AF0105C09091AF019E7F9093AF0186FF0C
S113152006C09091AF0192609093AF0105C0909175
S1131530AF019D7F9093AF0185FF06C09091AF01ED
S113154094609093AF0105C09091AF019B7F9093FD
S1131550AF0184FF06C09091AF0198609093AF01F2
S113156005C09091AF01977F9093AF0183FF06C0B0
S11315709091AF0190619093AF0105C09091AF013C
S11315809F7E9093AF0182FF06C08091AF0180627D
S11315908093AF0105C08091AF018F7D8093AF012F
S11315A0E091B301F091B40180818260808303C033
S11315B084E38093AF01E091AF01F0E0E050FF4F8E
S11315C08081089588DF8A3219F41092B20112C022
S11315D0882381F0E091B201EF3060F4AE2FB0E0E7
S11315E0A450BE4F8C93EF5FE093B201F0E0E4505F
S11315F0FE4F10828CEF91E008958091B201882310
S113160039F08BE791E09093B7018093B60106C05F
S11316108CEF91E09093B7018093B6018091B6016D
S11316209091B70108951092B2011092FC010895AF
S11316309F92AF92BF92CF92DF92EF92FF920F935D
S11316401F93CF93DF93CDB7DEB7C254D1090FB642
S1131650F894DEBF0FBECDBF8C017B015A01690136
S11316609FB68FB78F778FBFCE0101961CDC82E4C3
S1131670FE013196A8EBB1E001900D928A95E1F755
S1131680F092FB01E092FA01B092B101A092B00194
S1131690D092B401C092B30182E0F7018083E0915B
S11316A0B301F091B4018FEF80838091B5018E7FF7
S11316B08093B5018091AE018E7F8093AE018BE75C
S11316C091E09093B7018093B6019FBE8FE59AE0B5
S11316D0F801918380838BE69AE09383828382EE80
S11316E09AE0958384838DEF9AE09783868383E1E0
S11316F09BE091878087C801CE5BDF4F0FB6F894DB
S1131700DEBF0FBECDBFDF91CF911F910F91FF9030
S1131710EF90DF90CF90BF90AF909F90089520916D
S11317200F02211140C02FEF21BF23B7287F23BF11
S11317308034910511F148F488309105B1F080327C
S11317409105B9F0019749F50CC0811521E0920784
S1131750E1F0811524E09207E1F080389105E9F485
S113176010C083B7816083BF1BC083B7826083BF0F
S113177017C083B7836083BF13C083B7846083BFFC
S11317800FC083B7856083BF0BC083B7866083BFF8
S113179007C083B7876083BF03C083B7876083BFF5
S11317A081E080930F02089593B79F7C93BF8230AA
S11317B041F0833051F0813059F483B7806183BFA5
S11317C0089583B7806283BF089583B7806383BF1E
S11317D0089581BF089583B7887F83BF12BE109296
S11317E00F02089520910C02211142C02FEF3FEF08
S11317F03BBD2ABD2EB5287F2EBD88309105D1F082
S113180048F48330910531F18530910539F1019720
S113181049F50CC0811521E09207A1F0811524E05F
S11318209207A1F080349105E9F408C08EB5816077
S11318308EBD1BC08EB582608EBD17C08EB5836011
S11318408EBD13C08EB584608EBD0FC08EB585600D
S11318508EBD0BC08EB586608EBD07C08EB5876009
S11318608EBD03C08EB585608EBD81E080930C0271
S113187008959FB59F739FBD823041F0833051F02E
S1131880813059F48FB580648FBD08958FB5806819
S11318908FBD08958FB5806C8FBD08959FB59F7CD3
S11318A09FBD823041F0833051F0813059F48FB5BF
S11318B080618FBD08958FB580628FBD08958FB507
S11318C080638FBD08959FB5937F9FBD823041F0A3
S11318D0833051F0813059F48FB584608FBD089501
S11318E08FB588608FBD08958FB58C608FBD0895C6
S11318F09BBD8ABD089599BD88BD089590937900D4
S11319008093780008958EB5887F8EBD1DBC1CBC65
S113191010920C02089510920F0223B7277B23BF65
S1131920623041F0633051F0613059F423B72064E0
S113193023BF07C023B7286023BF03C023B728648D
S113194023BF27B72E7F27BF27B72D7F27BF42305E
S113195041F0433051F0413071F427B7216027BF83
S11319600AC027B7226027BF06C027B7216027BF58
S113197027B7226027BF24ED3BE0FC01318320839D
S113198029EE3BE0378326832FE83BE03587248725
S11319902BEE3BE03787268708950F931F93DC01D6
S11319A010920C028FB58C7F8FBD8EB5877E8EBD55
S11319B0062F10E0F8013197EF30F10508F059C017
S11319C0EA5BFF4F4DC48FB581608FBD52C08FB5A8
S11319D082608FBD4EC08FB583608FBD4AC08EB507
S11319E088608EBD46C08FB581608FBD8EB588601E
S11319F08EBD3FC08FB582608FBD8EB588608EBDB1
S1131A0038C08FB583608FBD8EB588608EBD31C000
S1131A108EB580618EBD2DC08FB581608FBD8EB5B2
S1131A2080618EBD26C08FB582608FBD8EB580610A
S1131A308EBD1FC08FB583608FBD8EB580618EBD96
S1131A4018C08EB588618EBD14C08FB581608FBDFE
S1131A508EB588618EBD0DC08FB582608FBD8EB589
S1131A6088618EBD06C08FB583608FBD8EB58861D9
S1131A708EBD8FB583708FBD87B7837C87BFEDE73D
S1131A80F0E080818E7F808350E0FA013197EC3062
S1131A90F10508F043C0EB5AFF4FE2C387B78460F7
S1131AA087BF3CC087B7806187BF38C087B788606D
S1131AB087BF34C0EDE7F0E08081816080832EC071
S1131AC087B7806287BF2AC087B7846187BF26C073
S1131AD087B78C6087BF22C087B7846087BFEDE774
S1131AE0F0E080818160808319C087B7846287BFFA
S1131AF015C087B78C6187BF11C087B78C6187BF5A
S1131B00EDE7F0E080818160808308C087B7886159
S1131B1087BFEDE7F0E080818160808389E39CE00A
S1131B2011969C938E938EE49CE013969C938E93D3
S1131B30129783E69CE015969C938E93149788E7FE
S1131B409CE017969C938E9316978BE79CE01996CE
S1131B509C938E9318978EE79CE01B969C938E9390
S1131B601A9782EF9BE01D969C938E931C9783E8B3
S1131B709CE01F969C938E931E97CD011F910F910D
S1131B800895109261008FE08093620012B88FEF85
S1131B9083B911BA82BB84BB15BA87B3806E87BB85
S1131BA08FB780688FBF0895CF93DF93CDB7DEB72B
S1131BB0CA5BD1090FB6F894DEBF0FBECDBFE1DF1B
S1131BC0CE01019670D98DA19EA1CD54DF4F99838A
S1131BD08883C35BD040EFA9F8ADC355DF4FF983C9
S1131BE0E883CD5AD0402BE330E049E350E06AE388
S1131BF070E0CE018D5B9F4FFADB61968EAD9FAD99
S1131C006197C755DF4F99838883C95AD04063963B
S1131C10EEADFFAD6397C555DF4FF983E883CB5A2B
S1131C20D04067962EAC3FAC679725E330E043E3A2
S1131C3050E064E370E0CE01875A9F4FF9DC6F9661
S1131C408EAD9FAD6F97CB54DF4F99838883C55B6F
S1131C50D040A196EEADFFADA197CF54DF4FF983ED
S1131C60E883C15BD040A3968EAD9FADA397C954C2
S1131C70DF4F99838883C75BD0401F921F921F92C6
S1131C8081E08F9390E89F938F930E948B002B01A8
S1131C903C0142E062E0CE018D599F4F3CDE40E0C2
S1131CA069E0CE018D589F4F78DEED96EEADFFAD25
S1131CB0ED97C155DF4FF983E883CF5AD04020E038
S1131CC040E06CE0CE018D569F4F0E94930384E167
S1131CD0FE01ED56FF4FA2E1B2E001900D928A950C
S1131CE0E1F7AB96EEADFFADAB9789EF0995E796BB
S1131CF0EEADFFADE79782E00995EB96EEADFFAD53
S1131D00EB9780E29EE40995C158DF4FE881F981A1
S1131D10CF57D04088E090E00995E196EEADFFAD55
S1131D20E19780E490E009950F900F900F900F9049
S1131D300F900F90C955DF4F1882C75AD040F1E376
S1131D40C855DF4FF883C85AD040C754DF4F798253
S1131D506882C95BD0400F2EF9E09F2EF02D0F2E24
S1131D60F2E98F2EF02D6996EEADFFAD69970995D6
S1131D706B96EEADFFAD6B970995C855DF4F888123
S1131D80C85AD040813309F465C0823309F0B3C026
S1131D9060E070E080E090E0F1010995CB54DF4F02
S1131DA0E881F981C55BD040099565E0C755DF4FEF
S1131DB0E881F981C95AD0400995CF54DF4FE881B1
S1131DC0F981C15BD0400995FC018081882361F0D1
S1131DD0CF54DF4FE881F981C15BD0400995BC0144
S1131DE0CE018D579F4F5ED2CE018D579F4FCD545C
S1131DF0DF4FE881F981C35BD0400995BC01990F9D
S1131E00880B990B1F921F929F928F920F2EF2ECC8
S1131E10AF2EBB24B394C12CD12CF02D14EBE12EA6
S1131E20F12C00E010E020E030E0A901C355DF4FC1
S1131E30E881F981CD5AD0400995CB01C155DF4FD6
S1131E40E881F981CF5AD04009950F900F900F90F7
S1131E500F90B3C060E070E080E090E0F10109957C
S1131E6080E090E0C754DF4FE881F981C95BD0403E
S1131E7009952C01990F66087708ED8DFE8DAE014A
S1131E8045575F4FC301B201099565E0CE018557FF
S1131E909F4FC755DF4FE881F981C95AD040099552
S1131EA01F921F929F928F920F2EF2ECAF2EBB24A3
S1131EB0B394C12CD12CF02DEE24EA9413E0F12E2E
S1131EC000E010E020E030E0A901C301B201C355F5
S1131ED0DF4FE881F981CD5AD0400995CB01C15536
S1131EE0DF4FE881F981CF5AD04009950F900F90C8
S1131EF00F900F9062C060E070E080E090E0F1012C
S1131F000995CB54DF4FE881F981C55BD040099531
S1131F1065E0C755DF4FE881F981C95AD04009957A
S1131F20CF54DF4FE881F981C15BD0400995FC01B2
S1131F308081882361F0CF54DF4FE881F981C15B50
S1131F40D0400995BC01CE018D579F4FABD1CE0136
S1131F508D579F4FCD54DF4FE881F981C35BD0404B
S1131F600995BC01990F880B990B1F921F929F92A0
S1131F708F920F2EF2ECAF2EBB24B394C12CD12C34
S1131F80F02DEE24EA9413E0F12E00E010E020E0BE
S1131F9030E0A901C355DF4FE881F981CD5AD04023
S1131FA00995CB01C155DF4FE881F981CF5AD04063
S1131FB009950F900F900F900F9083E0C555DF4F58
S1131FC0E881F981CB5AD04009952F966EAC7FAC4D
S1131FD02F97E0912402F09125020995F3010995C8
S1131FE06D96EEADFFAD6D970995C955DF4FF8813C
S1131FF0C75AD040F13041F120F0F23009F472C0F8
S1132000B2CE182F61E070E080E090E0F101099514
S11320106CE085E391E0C755DF4FE881F981C95A47
S1132020D040099584E0C555DF4FE881F981CB5A4A
S1132030D0400995113509F092CEF1E0C955DF4F32
S1132040F883C75AD0408BCE182F61E070E080E04F
S113205090E0F10109956FE081E491E0C755DF4F0D
S1132060E881F981C95AD040099581E0C555DF4F0F
S1132070E881F981CB5AD0400995123301F1133329
S113208021F0113309F06BCE07C0F2E0C955DF4FE0
S1132090F883C75AD04063CEC954DF4FE881F98131
S11320A0C75BD0400995C955DF4F1882C75AD04045
S11320B0F1E3C855DF4FF883C85AD04050CEC95415
S11320C0DF4FE881F981C75BD0400995C955DF4FDF
S11320D01882C75AD040F2E3C855DF4FF883C85A74
S11320E0D0403DCEC954DF4FE881F981C75BD04071
S11320F00995C955DF4F1882C75AD04030CE1F9278
S11321000F920FB60F9211240BB60F922F933F9399
S11321104F935F936F937F938F939F93AF93BF93EB
S1132120EF93FF9380911002909111020196883EE3
S113213023E0920728F4909311028093100209C0BF
S11321401092110210921002E0911402F091150203
S11321500995FF91EF91BF91AF919F918F917F91DD
S11321606F915F914F913F912F910F900BBE0F9004
S11321700FBE0F901F901895DB018F939F9388D00B
S1132180BF91AF91A29F800D911DA39F900DB29F0F
S1132190900D11240895AA1BBB1B51E107C0AA1F6F
S11321A0BB1FA617B70710F0A61BB70B881F991FF4
S11321B05A95A9F780959095BC01CD01089597FB98
S11321C0072E16F4009406D077FD08D0E4DF07FC50
S11321D005D03EF4909581959F4F08957095619533
S11321E07F4F0895A1E21A2EAA1BBB1BFD010DC04F
S11321F0AA1FBB1FEE1FFF1FA217B307E407F507B3
S113220020F0A21BB30BE40BF50B661F771F881F8E
S1132210991F1A9469F760957095809590959B0124
S1132220AC01BD01CF010895052E97FB16F400946F
S11322300FD057FD05D0D6DF07FC02D046F408C006
S113224050954095309521953F4F4F4F5F4F0895DE
S113225090958095709561957F4F8F4F9F4F08950E
S1132260EE0FFF1F0024001C0BBE0790F691E02D1B
S11322700994A29FB001B39FC001A39F700D811D5B
S11322801124911DB29F700D811D1124911D08957B
S1132290F0DFA59F900DB49F900DA49F800D911D1C
S11322A011240895FB01DC0101900D920020E1F757
S10922B00895F894FFCF2D
S11322B6414243454748494A4D4E4F505152535463
S11322C65658595A000000000000000000000000A3
S11322D64C2D2B4637383923343536553132334471
S11322E6302F2E2A004D656E75202D3E20522B313F
S11322F6004D2D31207C20412D32207C20542D335D
S10523060000D1
S9030000FC
