:1000000067C0000084C0000082C0000080C0000003
:100010007EC000007CC000007AC0000078C00000F4
:1000200076C0000074C00000EEC40000BAC4000036
:10003000C2C40000CAC40000DCC400000C946F1CE1
:10004000A6C4000064C0000049C500007FC50000D0
:100050005EC00000DAC100005AC0000058C00000B5
:10006000BEC40000DAC40000E2C40000EAC400001C
:10007000F2C40000FAC4000003C700003CC700003F
:1000800046C0000044C0000042C00000E803EC038A
:10009000F003F403F803FF0306040D04110418042D
:1000A0001F0426042A0431043804540458045C0450
:1000B000600466046A046E0472047B047F04830493
:1000C0008C04EE18031A631AC31A231B831BE31B49
:1000D00011241FBECFEFD0E1DEBFCDBF11E0A0E005
:1000E000B1E0E6E7FBE300E00BBF02C007900D9232
:1000F000A43FB107D9F723E0A4EFB1E001C01D92FE
:10010000A339B207E1F70E9418140C94B91D78CFF7
:10011000882389F0E091B002F091B102208181E062
:1001200090E00090B20202C0880F991F0A94E2F793
:10013000822B808311C0E091B002F091B102208146
:1001400081E090E00090B20202C0880F991F0A94EB
:10015000E2F7809582238083E091B002F091B102B2
:10016000408181E090E09C010090B40202C0220F27
:10017000331F0A94E2F7242B2083E091B002F09120
:10018000B10220810090B40202C0880F991F0A9426
:10019000E2F78095822380830895E091B002F09188
:1001A000B102408181E090E09C010090B30202C066
:1001B000220F331F0A94E2F7242B2083E091B00230
:1001C000F091B10220810090B30202C0880F991F04
:1001D0000A94E2F78095822380830895FF920F931B
:1001E0001F93CF93DF93F82EC0E0D0E001E010E042
:1001F000C8010C2E02C0880F991F0A94E2F78F21C4
:1002000087DF2196C830D10599F7C7DFDF91CF91FD
:100210001F910F91FF9008950F93CF93DF9300D01C
:1002200000D000D0CDB7DEB75FB73FB73F773FBF55
:100230009093AF028093AE027093B1026093B002CC
:100240004093B2022093B4020093B302FC013081C8
:1002500061E070E0DB0102C0AA0FBB1F2A95E2F744
:10026000FB0102C0EE0FFF1F0A95E2F7EA2B02C066
:10027000660F771F4A95E2F76E2B232F262BFC0182
:100280002083E091B002F091B102808160956823F3
:1002900060835FBF28E830E03A8329834EEE50E068
:1002A0005C834B836DEC70E07E836D833A815C816F
:1002B0007E8180E090E026960FB6F894DEBF0FBEF8
:1002C000CDBFDF91CF910F910895369B369AFC01F7
:1002D000EE0FFF1FE35FFD4F8081918108950F9323
:1002E0001F93CF93DF93CDB7DEB79F816885498594
:1002F0005A851FB78FB78F778FBF5093FC014093FC
:10030000FB011092FA011092F9011092F40187B1E9
:100310008F7387B9913019F0933021F008C03E9A5D
:1003200001E006C087B1806C87B903E001C000E03E
:100330003D98141615068CF4DE011B9680E090E0C3
:100340002D913D91FC01EE0FFF1FE350FE4F3183D5
:10035000208301964817590799F787B1807E87B99E
:10036000E091F901F091FA01EE0FFF1FE350FE4F0B
:100370008081918127B18F719927822B87B9379A14
:10038000369A3598339A86B1887F86B96031D1F034
:1003900038F4643079F0683081F0623029F507C0B4
:1003A0006034C1F06038D9F06032F1F40EC0309A98
:1003B00022E01EC0319A24E01BC086B1836086B95A
:1003C00028E016C0329A20E113C086B1856086B954
:1003D00020E20EC086B1866086B920E409C086B1ED
:1003E000876086B920E804C086B1876086B920E8B6
:1003F0001FBF8FB780688FBF602F722F85E691E097
:10040000DF91CF911F910F9108951F920F920FB618
:100410000F9211240BB60F922F933F934F935F933C
:100420008F939F93EF93FF932FB78FB78F778FBFE4
:1004300084B190E09093F6018093F50135B18091FD
:10044000F5019091F601932B9093F6018093F501BD
:100450008091F4018430A0F48091F4018F5F809347
:10046000F4014091F5015091F6018091F7019091CE
:10047000F801840F951F9093F8018093F70143C012
:10048000E091F901F091FA018091F7019091F80162
:100490009595879595958795EE0FFF1FE35FFD4F27
:1004A000918380831092F8011092F7011092F40169
:1004B0004091F9015091FA018091FB019091FC016A
:1004C0004817590754F48091F9019091FA01019667
:1004D0009093FA018093F90104C01092FA011092EE
:1004E000F90187B1807E87B9E091F901F091FA01B5
:1004F000EE0FFF1FE350FE4F8081918137B18F7166
:100500009927832B87B92FBFFF91EF919F918F91EF
:100510005F914F913F912F910F900BBE0F900FBEA7
:100520000F901F9018952091B802211140C02FEF15
:1005300021BF23B7287F23BF8034910511F148F4F0
:1005400088309105B1F080329105B9F0019749F5F5
:100550000CC0811521E09207E1F0811524E092079B
:10056000E1F080389105E9F410C083B7816083BF62
:100570001BC083B7826083BF17C083B7836083BF0C
:1005800013C083B7846083BF0FC083B7856083BF08
:100590000BC083B7866083BF07C083B7876083BF04
:1005A00003C083B7876083BF81E08093B80208955A
:1005B00093B79F7C93BF823041F0833051F08130FC
:1005C00059F483B7806183BF089583B7806283BF86
:1005D000089583B7806383BF089581BF089583B76B
:1005E000887F83BF12BE1092B80208952091B50291
:1005F000211142C02FEF3FEF3BBD2ABD2EB5287F12
:100600002EBD88309105D1F048F48330910531F149
:100610008530910539F1019749F50CC0811521E02C
:100620009207A1F0811524E09207A1F08034910592
:10063000E9F408C08EB581608EBD1BC08EB58260A6
:100640008EBD17C08EB583608EBD13C08EB584601D
:100650008EBD0FC08EB585608EBD0BC08EB5866019
:100660008EBD07C08EB587608EBD03C08EB5856018
:100670008EBD81E08093B50208959FB59F739FBDA5
:10068000823041F0833051F0813059F48FB580646D
:100690008FBD08958FB580688FBD08958FB5806C2C
:1006A0008FBD08959FB59F7C9FBD823041F0833000
:1006B00051F0813059F48FB580618FBD08958FB5A9
:1006C00080628FBD08958FB580638FBD08959FB5FB
:1006D000937F9FBD823041F0833051F0813059F4D7
:1006E0008FB584608FBD08958FB588608FBD0895E4
:1006F0008FB58C608FBD08959BBD8ABD089599BD4F
:1007000088BD0895909379008093780008958EB500
:10071000887F8EBD1DBC1CBC1092B502089510923E
:10072000B80223B7277B23BF623041F0633051F01A
:10073000613059F423B7206423BF07C023B7286072
:1007400023BF03C023B7286423BF27B72E7F27BF4B
:1007500027B72D7F27BF423041F0433051F0413061
:1007600071F427B7216027BF0AC027B7226027BFCF
:1007700006C027B7216027BF27B7226027BF28ED13
:1007800032E0FC01318320832DEE32E03783268373
:1007900023E932E0358724872FEE32E0378726873A
:1007A00008950F931F93DC011092B5028FB58C7FD3
:1007B0008FBD8EB5877E8EBD062F10E0F801319774
:1007C000EF30F10508F05AC0EA5BFF4F0C94781D3A
:1007D0008FB581608FBD52C08FB582608FBD4EC016
:1007E0008FB583608FBD4AC08EB588608EBD46C010
:1007F0008FB581608FBD8EB588608EBD3FC08FB5CF
:1008000082608FBD8EB588608EBD38C08FB5836025
:100810008FBD8EB588608EBD31C08EB580618EBDB6
:100820002DC08FB581608FBD8EB580618EBD26C015
:100830008FB582608FBD8EB580618EBD1FC08FB5B4
:1008400083608FBD8EB580618EBD18C08EB5886106
:100850008EBD14C08FB581608FBD8EB588618EBD91
:100860000DC08FB582608FBD8EB588618EBD06C00C
:100870008FB583608FBD8EB588618EBD8FB5837057
:100880008FBD87B7837C87BFEDE7F0E080818E7FE7
:10089000808350E0FA013197EC30F10508F044C054
:1008A000EB5AFF4F0C94781D87B7846087BF3CC01C
:1008B00087B7806187BF38C087B7886087BF34C07B
:1008C000EDE7F0E08081816080832EC087B7806291
:1008D00087BF2AC087B7846187BF26C087B78C606F
:1008E00087BF22C087B7846087BFEDE7F0E08081D3
:1008F0008160808319C087B7846287BF15C087B7BE
:100900008C6187BF11C087B78C6187BFEDE7F0E0CE
:1009100080818160808308C087B7886187BFEDE7E9
:10092000F0E08081816080838DE393E011969C9359
:100930008E9382E593E013969C938E93129787E6AD
:1009400093E015969C938E9314978CE793E01796FB
:100950009C938E9316978FE793E019969C938E93B2
:10096000189782E893E01B969C938E931A9786EFD4
:1009700092E01D969C938E931C9787E893E01F96B8
:100980009C938E931E97CD011F910F9108951F92F6
:100990000F920FB60F9211240F900FBE0F901F9061
:1009A00018951F920F920FB60F9211240F900FBE41
:1009B0000F901F9018951F920F920FB60F9211244F
:1009C0000F900FBE0F901F9018951F920F920FB6A9
:1009D0000F9211240F900FBE0F901F9018951F9229
:1009E0000F920FB60F9211240F900FBE0F901F9011
:1009F00018951F920F920FB60F9211240F900FBEF1
:100A00000F901F9018951F920F920FB60F921124FE
:100A10000F900FBE0F901F9018951F920F920FB658
:100A20000F9211240F900FBE0F901F9018951F92D8
:100A30000F920FB60F9211240F900FBE0F901F90C0
:100A400018951F920F920FB60F9211240F900FBEA0
:100A50000F901F9018951F920F920FB60F921124AE
:100A60000F900FBE0F901F9018951F920F920FB608
:100A70000F9211240F900FBE0F901F901895909118
:100A80001F0280911E029817A1F080911E028F5FB5
:100A90008F7180931E02E0911E02F0E0EE5DFD4F2B
:100AA000208180911D0290E0982F8827820F911D50
:100AB000089580E091E0089580911F0220911E0228
:100AC00090E04F96821B91096FE170E00C94271D16
:100AD000089580911E0280931F0208951F920F9225
:100AE0000FB60F9211240BB60F928F939F93EF9333
:100AF000FF938BB19AB1887180936202E091640296
:100B0000EF5FEF7180916302E81304C082E080938D
:100B1000620211C09CB1E09364028091620288235A
:100B200031F0F0E0E959FD4F88E5808304C0F0E042
:100B3000E959FD4F9083FF91EF919F918F910F9015
:100B40000BBE0F900FBE0F901F9018951F920F9223
:100B50000FB60F9211240BB60F928F939F93EF93C2
:100B6000FF939091660280916502981302C0559898
:100B70000BC0E0916502EF5FEF71E0936502F0E07A
:100B8000E957FD4F80818CB9FF91EF919F918F9133
:100B90000F900BBE0F900FBE0F901F901895FF92F5
:100BA0000F931F93CF93DF93FC01FFB68FB78F771F
:100BB0008FBF109221021092200210921F021092F9
:100BC0001E021092DA021092D9021092DB027723F1
:100BD00034F482E080939B00CB019F7701C0CB016E
:100BE000909398008093990088E980939A00473009
:100BF000510551F140F44530510509F445C04630E6
:100C0000510591F14EC04830510589F049305105E8
:100C100009F047C0CAE9D0E0888184608883CDE9C3
:100C2000D0E0888186608883C9E0D0E046C0CAE908
:100C3000D0E088818B7F8883CDE9D0E08881866091
:100C40008883C8E0D0E039C0CAE9D0E088818B7FD2
:100C50008883CDE9D0E088818460888388818D7F16
:100C60008883C7E0D0E029C0CAE9D0E088818B7FC3
:100C70008883CDE9D0E088818B7F888388818260FA
:100C80008883C6E0D0E019C0CAE9D0E088818B7FB4
:100C90008883CDE9D0E08881897F8883C5E0D0E072
:100CA0000CC0CAE9D0E088818B7F8883CDE9D0E091
:100CB000888186608883C8E0D0E02130310521F04A
:100CC0002230310551F012C02DE930E0D9018C916C
:100CD000877F8C9341E050E011C02DE930E0D901CD
:100CE0008C9188608C9342E050E008C02DE930E0A0
:100CF000D9018C91877F8C9341E050E0023011053F
:100D000071F003301105B9F0012BF1F42DE930E059
:100D1000D9018C918F7C8C9320E030E01DC08DE94F
:100D200090E0DC012C9120622C932C912F7E2C934F
:100D300022E030E011C02DE930E0D9018C918063D0
:100D40008C9323E030E008C02DE930E0D9018C918C
:100D50008F7C8C9320E030E0FFBE8FB780688FBF20
:100D600071836083D383C28355834483378326830F
:100D70008CEE96E0918780878FE395E0938782875A
:100D80008BE297E09587848782E397E09787868751
:100D90008CE595E0918B808B89E695E0938B828B37
:100DA000CF01DF91CF911F910F91FF900895909106
:100DB0001F0280911E02981769F080911E028F5FBA
:100DC0008F7180931E02E0911E02F0E0EE5DFD4FF8
:100DD0008081089580E00895CF93DF9390911E0263
:100DE00080911F029817D9F0C091D902D091DA02F0
:100DF000CF31D105A4F4DBDFC552DD4F888380916C
:100E0000D9029091DA0201969093DA028093D90286
:100E1000FC01E552FD4F108282E191E006C0109284
:100E2000DA021092D9028BED92E0DF91CF91089512
:100E3000909121029F5F9F71909321022091210246
:100E4000909120022917D1F3E0912102F0E0EE5BAE
:100E5000FD4F80830895ECDFEAE9F0E08081806255
:100E600080830895CF93DF93EC018881882329F054
:100E70002196F1DF89918111FCCFDF91CF91089507
:100E80001F920F920FB60F9211240BB60F928F93F1
:100E90009F93EF93FF9380919B0090919A008871AC
:100EA00080931D02E0911F02EF5FEF7180911E029F
:100EB000E81304C082E080931D0212C090919C0050
:100EC000E0931F0280911D02882331F0F0E0EE5D77
:100ED000FD4F88E5808304C0F0E0EE5DFD4F908318
:100EE000FF91EF919F918F910F900BBE0F900FBECE
:100EF0000F901F9018951F920F920FB60F9211240A
:100F00000BB60F928F939F93EF93FF9390912102D3
:100F100080912002981306C0EAE9F0E080818F7D7D
:100F200080830EC0809120028F5F8F71809320029A
:100F3000E0912002F0E0EE5BFD4F808180939C0009
:100F4000FF91EF919F918F910F900BBE0F900FBE6D
:100F50000F901F9018956823442321F0861721F0E5
:100F600080E00895611180E00895862B089586231E
:100F7000089586230895862B8095089586278623D5
:100F8000089560958623089586270895CF92DF926D
:100F9000EF92FF920F931F93FC0100811181228138
:100FA0003381FB01C080D180E280F380FC01C082EC
:100FB000D182E282F382FB01008311832283338397
:100FC0001F910F91FF90EF90DF90CF900895FB015C
:100FD0002081FC012083222339F0DB011196319618
:100FE0009D9191939111FCCF0895CF93DF93EC01E4
:100FF0009881992399F0FE01319620E030E0492F45
:1010000050E04617570731F0DE01A20FB31F9C9343
:101010002F5F3F4F91919111F2CF02C020E030E05D
:10102000FE01E20FF31F1082DF91CF9108952F92FE
:101030003F924F925F926F927F928F929F92AF9268
:10104000BF92CF92DF92EF92FF920F931F93CF93B5
:10105000DF9300D000D0CDB7DEB72C011B014B01D0
:1010600077231CF42FEF821A920A95948794181410
:1010700019040CF451C06AC09601DD209CF1F50101
:1010800040815181F401608171816417750754F5C5
:101090008C010A0D1B1DD401BC82AB82BA82A982CD
:1010A000EB81FC817183608311965C934E932E19C2
:1010B0003F09C2F0F80140815181E981FA816081E4
:1010C0007181080F191FE80FF91FFA83E983EB817B
:1010D000FC81E80FF91FFC83EB83A80FB91F64178D
:1010E0007507F4F2FFEFCF1ADF0A22E0A20EB11C5F
:1010F000E2E08E0E911CC614D70409F0BDCF470163
:10110000FF201CF4FFEF8F1A9F0A95948794181400
:101110001904E4F4740101C07401821493047CF78F
:101120006401CE18DF085601AA0CBB1CA40CB51C28
:10113000880C991C840C951C31016E187F08C7011E
:10114000880F991F91958195910996CF0F900F90D7
:101150000F900F90DF91CF911F910F91FF90EF9023
:10116000DF90CF90BF90AF909F908F907F906F90C7
:101170005F904F903F902F900895861797070CF43B
:10118000CB0108959B01672B11F408959A01B901D1
:101190000E94271DAC01822F932F41155105B1F7F5
:1011A0000895FC01908180ED890F8A30D0F431964A
:1011B00020E030E0A901440F551F220F331F220FFA
:1011C000331F220F331F420F531F292F30E02053AC
:1011D0003109240F351F919180ED890F8A3050F32A
:1011E00002C020E030E0C9010895862308950097E9
:1011F00039F020E030E02F5F3F4F82179307D9F797
:10120000089587FF08C09195819591099927919537
:101210008195910908958F779927089591FF08C0C6
:101220009195819591099370919581959109089572
:1012300091700895615021E030E002C0220F331F09
:101240006A95E2F7A90141505109B9016823792350
:10125000672B29F084239523821B930B0895842305
:10126000952308959DEC899F912D1124969596952F
:101270009695392F330F232F220F220F230F821B16
:1012800020E1929F800D11240895982F92959F70D0
:10129000990F292F220F220F920F8F70890F089517
:1012A000FC01DB01A350BD4F1C921616170614F566
:1012B000908191110CC017C0919191110DC015C072
:1012C00081932F5F3F4F26173707D4F313C0ADEF3D
:1012D000B2E0319620E030E09D932F5F3F4F6217E0
:1012E000730751F707C020E030E0F901E350FD4FEC
:1012F00080E2E6CF8DEF92E008954F925F926F9279
:101300007F92AF92BF92CF92DF92EF92FF920F93B4
:101310001F93CF93DF93CDB7DEB729013A019B012D
:10132000AC01241935094609570989899A89AB897D
:10133000BC89BC01CD016A197B098C099D090E94F9
:10134000041DA801970124193509460957090E946F
:101350005C1DCA01B9016A0D7B1D8C1D9D1DDF91AD
:10136000CF911F910F91FF90EF90DF90CF90BF90A2
:10137000AF907F906F905F904F90089570E06115EF
:10138000710599F041E050E021E030E090E0FA0191
:10139000E89FA001E99F500DF89F500D11242F5F89
:1013A0003F4F6217730798F702C041E050E0CA014F
:1013B0000895FC012081222341F0319680E090E0E5
:1013C000019621912111FCCF089580E090E00895CD
:1013D000CF93DF93EC01EDDF9C012150310962F0E6
:1013E000FE01E80FF91F9291903219F09950923056
:1013F00018F421503109B8F7C20FD31F1982C9015F
:10140000DF91CF910895CF93DF93EC01D2DF9C0160
:10141000215031091216130684F4DE01A80FB91FFA
:10142000FE0180E090E040815E9151934C930196E3
:101430002150310982179307B4F3DF91CF910895BA
:101440008F929F92AF92BF92CF92DF92EF92FF92D4
:101450000F931F93CF93DF936B017C01DC01CB01D2
:10146000FF203CF488279927DC018C199D09AE09DF
:10147000BF09BC01CD0110E00F2EFAE08F2E912C98
:10148000A12CB12CF02D01C0102F01E0010FC12FB4
:10149000D0E0C350DD4FA50194010E945C1D605D4A
:1014A0006883622F732F842F952F16161706180640
:1014B000190654F3FF2044F4E02FF0E0E350FD4F11
:1014C0008DE2808302E0010FE02FF0E0E350FD4F5A
:1014D00010828DEF92E097DF8DEF92E0DF91CF9158
:1014E0001F910F91FF90EF90DF90CF90BF90AF9042
:1014F0009F908F9008950F931F93CF93DF93EC01EC
:10150000992324F4882799278C1B9D0B20E00AE05F
:1015100010E001C0232F31E0320FE22FF0E0E35062
:10152000FD4FB8010E94271D805D8083862F972F75
:10153000181619067CF3DD2344F4E32FF0E0E350A2
:10154000FD4F8DE2808332E0320FE32FF0E0E35075
:10155000FD4F10828DEF92E056DF8DEF92E0DF912C
:10156000CF911F910F910895CF93AC01E0E0C1E0BE
:10157000CE0FF0E0E350FD4F9A01ADECBCEC0E94C1
:10158000811D9695879596958795969587959C014B
:10159000220F331F880F991F880F991F880F991FDB
:1015A000820F931F9A01281B390BC901805D80832C
:1015B0009A010E94811DAC01569547955695479515
:1015C00056954795EC2F4115510589F6EC2FF0E023
:1015D000E350FD4F10828DEF92E015DF8DEF92E02A
:1015E000CF910895982F92959F70990F292F220FD0
:1015F000220F920F8F70890F0895AC019C01ADEC02
:10160000BCEC0E94811D9695879596958795969539
:101610008795BC01660F771F9C01220F331F220F95
:10162000331F220F331F260F371F421B530B342F3C
:1016300020E1829F300D1124832F0895CF92DF92F5
:10164000EF92FF92CF93DF93CDB7DEB728970FB617
:10165000F894DEBF0FBECDBF6B017C0169837A8336
:101660008B839C832D833E834F835887C216D3067A
:10167000E406F50634F4BE016B5F7F4FCE010196A0
:1016800085DC8D819E81AF81B885892B8A2B8B2B40
:1016900071F469817A818B819C8120E030E0A9011D
:1016A0000E945C1D611571058105910529F46D810C
:1016B0007E818F81988505C06D837E838F83988717
:1016C000F6CF28960FB6F894DEBF0FBECDBFDF91E0
:1016D000CF91FF90EF90DF90CF90089590E002C0FF
:1016E000959587956A95E2F781700895EDEFF2E0A0
:1016F00090E020E850E341E3382F322311F040839B
:1017000001C0508326959F5F31969830A9F71092BB
:1017100005038DEF92E00895A42FB0E0109761F0DB
:1017200021E030E0E1E0F0E0EE0FFF1F2F5F3F4FE0
:10173000A217B307C8F702C0E1E0F0E031976E23CB
:101740007F238E239F23862797276823792302C030
:10175000660F771F4A95E2F7862B972B0895FC01B9
:101760009FB78FB78F778FBF9FBF8EEB99E0918325
:10177000808389ED99E09383828383E09AE0958367
:1017800084838CE89BE0978386838BEA97E091873C
:10179000808789EB97E0938782878BEB97E095872B
:1017A00084878EEB97E09787868781EC97E0918B13
:1017B000808B84EC97E0938B828B85EB97E0958B05
:1017C000848B87EB97E0978B868B86EC97E0918FE5
:1017D000808F87EE97E0938F828F85EF97E0958FCC
:1017E000848F87E198E0978F868F8BE79AE091A3AB
:1017F00080A384EB9AE093A382A380E29AE095A36E
:1018000084A388EE99E097A386A38DEB98E091A737
:1018100080A782EC98E093A782A781ED98E095A736
:1018200084A785EF98E097A786A787EF98E091AB0C
:1018300080AB81E099E093AB82AB8EE099E095AB11
:1018400084AB8AE199E097AB86AB82E399E091AFF4
:1018500080AF85E499E093AF82AF80E599E095AFE2
:1018600084AF8DE799E097AF86AFDF01A05CBF4FF3
:1018700082EF9AE011969C938E9312968DEF9AE0E8
:1018800011969C938E9312968EE19BE011969C93F9
:101890008E9312968EE69BE011969C938E931296F1
:1018A00086E79BE08D939C93CF010895E4E7F0E0F9
:1018B00084EA80838FEF93E0909313038093120365
:1018C000808188235CF08EEF93E0909313038093E4
:1018D00012032081222314F00197B8F70895809312
:1018E0007300E4E7F0E084E880838FEF93E0909367
:1018F000130380931203808188235CF08EEF93E0C2
:1019000090931303809312032081222314F00197F4
:10191000B8F7089520E4829FC00111248468E4E7A9
:10192000F0E080838FEF93E0909313038093120392
:10193000808188235CF08EEF93E090931303809373
:1019400012032081222314F00197B8F780917300CD
:10195000089580917100887F089584E980937400D0
:101960008FE891E00197F1F700C00000089591B36E
:10197000936091BB92B3936092BB843079F018F47A
:10198000813031F01DC0803179F0803499F018C079
:10199000E1E7F0E090819C7F908318C0E1E7F0E000
:1019A00090819160908312C0E1E7F0E090819260B5
:1019B00090830CC0E1E7F0E090819360908306C0D3
:1019C000E1E7F0E080818C7F808381E0282F30E0A8
:1019D000220F331F032E000C440B550B60E970E0FF
:1019E00080E090E00E943A1D2093700008951F93BC
:1019F000CF93DF93EC01862F1FB79FB79F779FBFD1
:101A0000B6DF1FBF86E59CE0998388838DEA9CE062
:101A10009B838A838FE69CE09D838C838AE89CE08D
:101A20009F838E8389EA9CE099878887CE01DF9126
:101A3000CF911F910895CF93DF9300D000D01F92D4
:101A4000CDB7DEB785E0E2E5F3E0DE011196019067
:101A50000D928A95E1F729813A814B815C816D81F4
:101A600070E080E090E00F900F900F900F900F903B
:101A7000DF91CF91089510921F03E2E5F3E080E239
:101A8000808380E191E092838183948383830895AE
:101A9000CF93DF9321E080E0A7E1B3E0EBE1F3E057
:101AA00060E071E001C02F5F9FEF920F913009F469
:101AB0004BC038F0923009F48CC0933009F4CEC09A
:101AC0000EC14091220350912303EA01988190684E
:101AD00098834091140350911503EA0198819F77F0
:101AE00098834091200350912103EA013881347793
:101AF0003C939081432F492794233083992399F075
:101B0000943019F4EB0188810AC0903119F4EB018B
:101B1000898109C0903219F4EB018A8104C09034A4
:101B200011F4EB018B814091220350912303EA01D0
:101B300098819F7798834091140350911503EA018F
:101B4000988190689883AFCF4091220350912303EE
:101B5000EA01988191609883409114035091150394
:101B6000EA0198819E7F9883409120035091210340
:101B7000EA013881347711963C9311979181432F74
:101B8000492794233183992399F0943019F4EB0178
:101B90008C810AC0903119F4EB018D8109C090321B
:101BA00019F4EB018E8104C0903411F4EB018F81A4
:101BB0004091220350912303EA0198819E7F9883EC
:101BC0004091140350911503EA0198819160988324
:101BD0006ACF4091220350912303EA0198819260D9
:101BE00098834091140350911503EA0198819D7FD9
:101BF00098834091200350912103EA013881347782
:101C000012963C9312979281432F49279423328353
:101C1000992399F0943019F4EB0188850AC090312A
:101C200019F4EB01898509C0903219F4EB018A851A
:101C300004C0903411F4EB018B8540912203509144
:101C40002303EA0198819D7F98834091140350916A
:101C50001503EA0198819260988325CFE0912203D1
:101C6000F0912303908198609083E0911403F091A8
:101C700015039081977F9083E0912003F0912103D9
:101C80002081247720931A03EBE1F3E09381322F34
:101C9000392793232383992399F0943019F4809161
:101CA0000C010AC0903119F480910D0109C09032E5
:101CB00019F480910E0104C0903411F480910F0149
:101CC000E0912203F09123039081977F9083E0912C
:101CD0001403F091150390819860908303C0243021
:101CE00008F4E1CEDF91CF910895CF93DF9300D038
:101CF00000D01F92CDB7DEB7CBDE8823B1F1809341
:101D0000520390911F03943188F4E0911F03F0E097
:101D1000EC5DFC4F808390911F039F5F90931F03A6
:101D2000E0911F03F0E0EC5DFC4F1082843499F4E5
:101D3000E0911F03F0E0ED5DFC4F108210921F0355
:101D4000E2E5F3E080E191E09283818384E293E035
:101D5000948383830AC0E2E5F3E084E293E0928314
:101D6000818380E191E09483838385E0E2E5F3E081
:101D7000DE01119601900D928A95E1F729813A8151
:101D80004B815C816D8170E080E090E00F900F905E
:101D90000F900F900F90DF91CF910895CF93DF9325
:101DA000CDB7DEB728970FB6F894DEBF0FBECDBF14
:101DB0002FB730E230935203909323038093220392
:101DC00070932103609320035093150340931403F1
:101DD0003BE8FC013083E0911403F091150384E7A4
:101DE0008083A7E1B3E08C93EBE1F3E0808311966D
:101DF0008C931197818312968C93129782831396FA
:101E00008C93838310921F032FBFE0911403F091F2
:101E1000150380818B68808328E43DE03A83298321
:101E200045E75EE05C834B836BE17DE07E836D8301
:101E30008BE39DE098878F833A815C817E819885D2
:101E400028960FB6F894DEBF0FBECDBFDF91CF91BD
:101E50000895E0914303F091440390819D7F908326
:101E6000672B41F0E0914303F0914403908191602E
:101E7000908307C0E0914303F091440390819E7FDB
:101E80009083E0914003F09141039081906F9083A3
:101E9000E0914303F0914403908194609083882300
:101EA00044F4E0914303F09144039081906890835F
:101EB00007C0E0914303F091440390819F779083A2
:101EC00086FF08C0E0914303F09144039081906441
:101ED000908307C0E0914303F091440390819F7B7E
:101EE000908385FF08C0E0914303F0914403908103
:101EF0009062908307C0E0914303F0914403908186
:101F00009F7D908384FF08C0E0914303F0914403D8
:101F100090819061908307C0E0914303F091440366
:101F200090819F7E9083E0914303F09144039081E0
:101F30009B7F9083E0914303F091440390819460F0
:101F4000908383FF08C0E0914303F09144039081A4
:101F50009068908307C0E0914303F091440390811F
:101F60009F77908382FF08C0E0914303F091440380
:101F700090819064908307C0E0914303F091440303
:101F800090819F7B908381FF08C0E0914303F09193
:101F9000440390819062908307C0E0914303F091E5
:101FA000440390819F7D908380FF08C0E0914303AC
:101FB000F091440380818061808307C0E0914303F6
:101FC000F091440380818F7E8083E0914303F09100
:101FD000440380818B7F80830895E0914003F091DA
:101FE000410320812F702083E0914303F09144034B
:101FF0002081206F2083E0914303F09144032081EE
:1020000022602083892B41F0E0914303F091440347
:1020100080818160808307C0E0914303F091440395
:1020200080818E7F8083E0914303F091440380811F
:1020300084608083E0913903F0913A0380818823A2
:1020400014F080E001C080E8908196FF02C08064B7
:1020500001C08F7B908195FF02C0806201C08F7D9F
:10206000908194FF02C0806101C08F7EE0914303A4
:10207000F091440390819B7F9083E0914303F09122
:102080004403908194609083E0913903F0913A0386
:102090009081992314F4886001C0877F908196FF16
:1020A00002C0846001C08B7F908195FF02C0826076
:1020B00001C08D7F908194FF02C0816001C08E7F3E
:1020C000E0914303F091440390819B7F90830895B6
:1020D000CF93DF9380E090E080DFCBE0D0E005C0DD
:1020E00080E090E07ADF219711F08823CCF3DF9134
:1020F000CF91089561E070E0ACDEEACF0895CF9310
:1021000081E090E06ADFC82FE3DF8C2FCF91089544
:10211000CF93DF93EC018881882341F0219661E021
:1021200070E097DED5DF89918111F9CFDF91CF91F2
:1021300008950F931F93CF93DF93FC01D62F8081D7
:10214000882351F08F010F5F1F4F611109C01BC021
:10215000CF5FDC1730F401C0C0E0CD1760F013C0D2
:10216000C1E061E070E075DEB3DFF80181918F01BD
:102170008111EECFF2CFCF5F61E070E080E269DEE7
:10218000A7DFCD17C0F3DF91CF911F910F91089575
:10219000CF93C82F882339F061E070E080E259DEE8
:1021A00097DFC150C9F7CF910895262F813091054F
:1021B00071F030F08230910589F00397B1F0089505
:1021C00060E070E080E8820F44DE82CF089560E036
:1021D00070E080EC820F3DDE7BCF089560E070E020
:1021E00084E9820F36DE74CF089560E070E084EDFC
:1021F000820F2FDE6DCF089560E070E081E029DE70
:1022000087EE97E10197F1F700C000000895E09193
:102210004003F091410387E08083E0914303F09114
:10222000440388E080832FEF83EF91E021508040CA
:102230009040E1F700C0000060E070E083E309DE59
:1022400020ED2A95F1F760E070E083E302DE80ED97
:102250008A95F1F760E070E08BE2FBDD95EC9A95F2
:10226000F1F7000060E070E08CE0F3DD25EC2A95EA
:10227000F1F7000060E070E081E0EBDD87EE97E1D0
:102280000197F1F700C0000060E070E086E0E1DD5A
:1022900095EC9A95F1F7000008951F93CF93DF9383
:1022A000EC011FB78FB78F778FBF70934103609397
:1022B000400350933A0340933903309344032093EF
:1022C0004303FB011082E0914303F09144038FEF3D
:1022D0008083E0913903F0913A0380818870809384
:1022E000420395DF1FBF89E29FE0998388838DEECB
:1022F0009FE09B838A8388E690E19D838C838AE7B5
:1023000090E19F838E838FE790E19987888788E8A3
:1023100090E19B878A8789E990E19D878C8788EC8B
:1023200090E19F878E878CEF90E1998B888B85ED6C
:1023300090E19B8B8A8B84EA91E19D8B8C8BCE0103
:10234000DF91CF911F910895CF93E0913903F091E0
:102350003A03C081C870809142038C278C2309F016
:1023600056DFC0934203CF910895FF920F931F93BE
:10237000CF93DF93182F062FF42EC8E6D3E0E88121
:10238000F9810995EC81FD8182EA0995EC81FD8155
:1023900082E00995EC81FD818F2D0995EC81FD810D
:1023A000802F0995EC81FD81812F0995EA81FB81C0
:1023B0000995DF91CF911F910F91FF9008951F9381
:1023C000CF93DF93182FC8E6D3E0E881F981099510
:1023D000EC81FD8182EA0995EC81FD8184E009951B
:1023E000EC81FD81812F0995EA81FB810995DF91BF
:1023F000CF911F9108951F93CF93DF93182FC8E6B5
:10240000D3E0E881F9810995EC81FD8182EA0995A3
:10241000EC81FD8183E00995EC81FD81812F099597
:10242000EA81FB810995DF91CF911F9108951F9358
:10243000CF93DF93182FC8E6D3E0E881F98109959F
:10244000EC81FD8182EA0995EC81FD8182E00995AC
:10245000EC81FD81812F0995EA81FB810995DF914E
:10246000CF911F9108951F93CF93DF93882321F07D
:102470006370162F106801C010E0C8E6D3E0E88151
:10248000F9810995EC81FD8182EA0995EC81FD8154
:102490008DE00995EC81FD81812F0995EA81FB8111
:1024A0000995DF91CF911F910895EF92FF920F93BD
:1024B0001F93CF93DF93E82EF62E042F122FC8E63A
:1024C000D3E0E881F9810995EC81FD8182EA0995E3
:1024D000EC81FD8185E00995EC81FD818E2D0995CA
:1024E000EC81FD818F2D0995EC81FD81802F09956F
:1024F000EC81FD81812F0995EA81FB810995DF91AE
:10250000CF911F910F91FF90EF9008951F93CF935C
:10251000DF93182FC8E6D3E0E881F9810995EC81B3
:10252000FD8182EA0995EC81FD8188E00995EC81C5
:10253000FD81812F0995EA81FB810995DF91CF917A
:102540001F9108951F93CF93DF93182FC8E6D3E010
:10255000E881F9810995EC81FD8182EA0995EC8198
:10256000FD8187E00995EC81FD81812F0995EA8144
:10257000FB810995DF91CF911F9108951F93CF9310
:10258000DF93182FC8E6D3E0E881F9810995EC8143
:10259000FD8182EA0995EC81FD8186E00995EC8157
:1025A000FD81812F0995EA81FB810995DF91CF910A
:1025B0001F9108951F93CF93DF93182FC8E6D3E0A0
:1025C000E881F9810995EC81FD8182EA0995EC8128
:1025D000FD8185E00995EC81FD81812F0995EA81D6
:1025E000FB810995DF91CF911F910895FF920F9381
:1025F0001F93CF93DF93C8E6D3E0E881F981099573
:10260000EC81FD8182EA0995EC81FD8182E00995EA
:10261000EA81FB810995E881F9810995EC81FD81C9
:1026200083EA0995EE81FF8181E00995F82EEE811C
:10263000FF8181E00995182FEE81FF8180E00995E7
:10264000082FEA81FB810995602F6F73712F7F77C7
:102650008F2D8F77DF91CF911F910F91FF9008956C
:10266000EF92FF920F931F93CF93DF93C8E6D3E0CF
:10267000E881F9810995EC81FD8182EA0995EC8177
:10268000FD8185E00995EA81FB810995E881F98161
:102690000995EC81FD8183EA0995EE81FF8181E056
:1026A0000995082FEE81FF8181E00995F82EEE81D2
:1026B000FF8181E00995182FEE81FF8180E0099567
:1026C000E82EEA81FB810995712F7F716E2D8F2D88
:1026D0008770902F9F73DF91CF911F910F91FF9083
:1026E000EF900895982F92959F70990F292F220FA0
:1026F000220F920F8F70890F08959DEC899F912D65
:102700001124969596959695392F330F232F220FE6
:10271000220F230F821B20E1929F800D1124089528
:10272000CF93DF93C8E6D3E0E881F9810995EC8186
:10273000FD8182EA0995EC81FD8180E00995EC81BB
:10274000FD8180E00995EA81FB810995DF91CF91B8
:102750000895FF920F931F93CF93DF93CDB7DEB70A
:102760002A970FB6F894DEBF0FBECDBF8C01FFB61F
:102770008FB78F778FBFCE01019639D98AE0FE01DE
:102780003196A8E6B3E001900D928A95E1F7C8DF93
:10279000FFBE85EB91E1F801918380838FED91E19C
:1027A000938382838BEF91E19583848387E192E128
:1027B0009783868383E392E19187808785E592E121
:1027C000938782878AED92E1958784878EEB92E1E9
:1027D0009787868782EA92E1918B808B86E892E1E7
:1027E000938B828B86EF92E1958B848B80E393E1D0
:1027F000978B868B82E793E1918F808F8DE793E1B2
:10280000938F828FC8012A960FB6F894DEBF0FBE51
:10281000CDBFDF91CF911F910F91FF90089510923E
:1028200061008FE08093620087B3806E87BB08955C
:10283000CF93DF93CDB7DEB7C257D1400FB6F89430
:10284000DEBF0FBECDBFEBDFCE018E569F4F0E9485
:10285000AF0BCC54DF4F28813981C45BD040CE59B7
:10286000DE4F39832883C256D140C254DF4F88815E
:102870009981CE5BD040C159DE4F99838883CF5672
:10288000D140C053DF4FA881B981C05DD040C95944
:10289000DE4FB983A883C756D1402BE330E049E32C
:1028A00050E06AE370E0CE0184529F4FF6DCCE51D7
:1028B000DF4F48805980C25ED040C851DF4F6880EA
:1028C0007980C85ED040C451DF4FE881F981CC5E89
:1028D000D040C05ADE4FF983E883C056D140C25180
:1028E000DF4F28803980CE5ED04043E250E061E285
:1028F00070E082E290E052DACE50DF4F2883C25F70
:10290000D040CD50DF4F3883C35FD040CC50DF4F35
:102910004883C45FD040CB50DF4F5883C55FD04061
:10292000CA50DF4F6883C65FD040C950DF4F7883FD
:10293000C75FD040C850DF4F8883C85FD040C750C2
:10294000DF4F9883C95FD040CA50DF4F888099809D
:10295000C65FD040C850DF4F28813981C85FD04062
:10296000C25ADE4F39832883CE55D1401F921F9221
:102970001F9281E08F9390E89F938F930E946F0145
:10298000C559DE4F688379838A839B83CB56D140B8
:1029900042E062E0CE0186509F4F0E948F0340E0EC
:1029A00069E0CE01865F9E4F0E94D103CE5EDE4F6E
:1029B00088819981C251D140C759DE4F998388835C
:1029C000C956D14060E1CE01865E9E4FC2DECE5C2C
:1029D000DE4FA881B981C253D140CC59DE4FB983B3
:1029E000A883C456D140CC5CDE4FE881F981C45342
:1029F000D140CF58DE4FF983E883C157D14001E081
:102A000020E042E065E670E084E690E00E940C0180
:102A100020937203309373034093740350937503B0
:102A2000609376037093770300E010E021E030E0DC
:102A300048E050E067E670E0CE01885B9E4F0E9460
:102A4000CF0584E1FE01E85BFE4FAFE7B3E0019004
:102A50000D928A95E1F7CE018A5C9E4FFC0120E33E
:102A600030E02193319324E0DF011D922A95E9F7AC
:102A700029E330E3C45CDE4F39832883CC53D14053
:102A8000C25CDE4F19821882CE53D140C05CDE4F4B
:102A900019821882C054D1409093AA028093A9024F
:102AA000C050DF4FE881F981C050D14089EF0995CE
:102AB000CA5FDE4FE881F981C650D14080E490E0E2
:102AC0000995C45FDE4FE881F981CC50D14082E0A6
:102AD0000995C05FDE4FE881F981C051D14080E2A5
:102AE0009EE40995CA5EDE4FE881F981C651D14066
:102AF00088E090E00995CE5DDE4FE881F981C25211
:102B0000D14062E081E009950F900F900F900F90F7
:102B10000F900F90B0E3CA59DE4FB883C656D1402C
:102B2000E1E3C45ADE4FE883CC55D14006C0F0E360
:102B3000CA59DE4FF883C656D140C051DF4FE880F6
:102B4000F980C05FD040F7010995CC50DF4F088174
:102B50001981C45FD040F8010995E0918703F09195
:102B6000880309959093A8028093A7026DE070E016
:102B700083E090E0F10109958AE3F2010995F401FF
:102B80000995C257DF4F3883CE58D040C157DF4F29
:102B90004883CF58D04066E0C257DF4F8881998183
:102BA000CE58D040F3010995C45ADE4FF881CC5578
:102BB000D140F23309F479C1F33309F47CC2F13323
:102BC00009F061C6F4010995C557DF4F5883CB580A
:102BD000D040C457DF4F6883CC58D04068E171E0E3
:102BE000C557DF4F88819981CB58D040A3D7892B17
:102BF000A9F4C25ADE4FE881F981CE55D14009953A
:102C0000C05ADE4FE881F981C056D1400995F2E300
:102C1000C45ADE4FF883CC55D1408FCFF4010995CB
:102C2000CA57DF4F5883C658D040C957DF4F688313
:102C3000C758D0406AE171E0CA57DF4F8881998157
:102C4000C658D04077D7892BA9F4C25ADE4FE88105
:102C5000F981CE55D1400995C05ADE4FE881F981FE
:102C6000C056D1400995F3E3C45ADE4FF883CC55E2
:102C7000D14063CFC25DDE4FE881F981CE52D140B1
:102C80000995609378037093790380937A03C05D0C
:102C9000DE4FE881F981C053D140099560937B03F1
:102CA00070937C0380937D0390937E0380E090E09B
:102CB000C359DE4FE881F981CD56D1400995C45AF8
:102CC000DE4F99838883CC55D140BC01990F880B86
:102CD000990B1F921F9229E02F932EE22F930F2E14
:102CE000F4EFAF2EBB24B394C12CD12CF02DEE24E5
:102CF000EA9413E0F12E00E010E020E030E0A901BA
:102D0000C959DE4FE881F981C756D1400995CB01F9
:102D1000C759DE4FE881F981C956D140099560E075
:102D200070E080E090E0F101099567E08CE191E0CE
:102D3000F3010995CE54DF4FE881F981C25BD040A1
:102D4000C45ADE4F88819981CC55D1400995BC0188
:102D5000CE018A5C9E4FF7D664E0CE018A5C9E4F1E
:102D6000F30109956CE070E080E090E0F1010995D5
:102D70000BE713E0D80113968C91CC59DE4FE88114
:102D8000F981C456D140099590E0CE59DE4FE881D3
:102D9000F981C256D140099562E0F30109958AE3B1
:102DA000F2010995D80111968C91CC59DE4FE8813A
:102DB000F981C456D140099590E0CE59DE4FE881A3
:102DC000F981C256D140099562E0F30109958AE381
:102DD000F2010995D8018C91CC59DE4FE881F98137
:102DE000C456D140099590E0CE59DE4FE881F98173
:102DF000C256D140099562E0F30109956CE070E09C
:102E000081E090E0F101099508E713E0D8018C9189
:102E1000CC59DE4FE881F981C456D140099590E044
:102E2000CE59DE4FE881F981C256D140099562E062
:102E3000F30109958AE3F2010995D80111968C9165
:102E4000CC59DE4FE881F981C456D140099590E014
:102E5000CE59DE4FE881F981C256D140099562E032
:102E6000F30109958AE3F2010995D80112968C9134
:102E7000CC59DE4FE881F981C456D140099590E0E4
:102E8000CE59DE4FE881F981C256D140099562E002
:102E9000F30109950F900F900F900F90F1E3C45A32
:102EA000DE4FF883CC55D14048CEF4010995CF5779
:102EB000DF4F5883C158D040CE57DF4F6883C25888
:102EC000D04068E171E0CF57DF4F88819981C158C8
:102ED000D04030D6892BA9F4C25ADE4FE881F9815F
:102EE000CE55D1400995C05ADE4FE881F981C056D0
:102EF000D1400995F3E3C45ADE4FF883CC55D14055
:102F00001CCEF4010995ED965FAFED97EE966FAF8D
:102F1000EE976AE171E0EE968EAD9FADEE970AD620
:102F2000892BA9F4C25ADE4FE881F981CE55D140F0
:102F30000995C05ADE4FE881F981C056D140099504
:102F4000F1E3C45ADE4FF883CC55D140F6CDF401FD
:102F50000995E8965FAFE897E9966FAFE99764E265
:102F600071E0E9968EAD9FADE997E4D5892BA9F480
:102F7000C25ADE4FE881F981CE55D1400995C05A39
:102F8000DE4FE881F981C056D1400995F1E3C45A7A
:102F9000DE4FF883CC55D140D0CD60E070E080E0CA
:102FA00090E0F101099568E086E291E0F30109956E
:102FB00063E0CE01845C9E4FF301099560E070E010
:102FC00081E090E0F10109956BE08FE291E0F3017F
:102FD0000995F4010995243409F061C0F4010995BB
:102FE000AE965FAFAE97AF966FAFAF97AF966EAD41
:102FF0007FADAF9746E050E0CE01845C9E4FAAD5EE
:10300000CE01845C9E4FC159DE4FE881F981CF56D5
:10301000D1400995853B9105B0F5BC01990F880B0E
:10302000990B1F921F9229E02F932EE22F930F2EC0
:10303000F4EFAF2EBB24B394C12CD12CF02D14EBA4
:10304000E12EF12C00E010E020E030E0A901C959A8
:10305000DE4FE881F981C756D1400995CB01C759A8
:10306000DE4FE881F981C956D1400995C651DF4F3D
:10307000E881F981CA5ED04085E009950F900F90F4
:103080000F900F9005C065E08BE391E0F301099587
:10309000C25ADE4FE881F981CE55D140099560E0F2
:1030A00070E083E090E0F101099568E081E491E04F
:1030B000F301099542CDF4010995A9965FAFA9974F
:1030C000AA966FAFAA9768E171E0AA968EAD9FAD00
:1030D000AA9730D5892BA9F4C25ADE4FE881F9812D
:1030E000CE55D1400995C05ADE4FE881F981C056CE
:1030F000D1400995F1E3C45ADE4FF883CC55D14055
:103100001CCDF4010995A4965FAFA497A5966FAF67
:10311000A5976AE171E0A5968EAD9FADA5970AD5FA
:10312000892BA9F4C25ADE4FE881F981CE55D140EE
:103130000995C05ADE4FE881F981C056D140099502
:10314000F2E3C45ADE4FF883CC55D140F6CCF401FB
:1031500009956F965FAF6F97A0966FAFA09764E2E7
:1031600071E0A0968EAD9FADA097E4D4892BD9F4E1
:10317000C25ADE4FE881F981CE55D1400995C05A37
:10318000DE4FE881F981C056D1400995F0E3CA5974
:10319000DE4FF883C656D14021E3C45ADE4F288360
:1031A000CC55D140CACC60E070E080E090E0F10105
:1031B000099563E18AE491E0F3010995CA59DE4F6C
:1031C000F881C656D1408F2F90E0FC01F097E73090
:1031D000F10508F0ACCCEF59FF4F8AC460E070E015
:1031E00081E090E0F101099567E08EE591E0F3015F
:1031F000099568E085E691E0F301099565E08DE6C3
:1032000091E0F301099560E070E082E090E0F10167
:10321000099567E083E791E0F301099568E08AE7A3
:1032200091E0F301099565E080E891E0F3010995EB
:1032300060E070E083E090E0F101099568E081E4EE
:1032400091E0F3010995F40109956A965FAF6A97D9
:103250006B966FAF6B9766E871E06B968EAD9FAD26
:103260006B9768D4892BA1F4C25ADE4FE881F981AB
:10327000CE55D1400995C05ADE4FE881F981C0563C
:10328000D1400995F1E3CA59DE4FF883C656D140C3
:10329000F401099565965FAF659766966FAF66977F
:1032A00068E871E066968EAD9FAD669743D4892B32
:1032B000A1F4C25ADE4FE881F981CE55D14009957B
:1032C000C05ADE4FE881F981C056D1400995F2E33A
:1032D000CA59DE4FF883C656D140F401099560966D
:1032E0005FAF609761966FAF61976AE871E0619632
:1032F0008EAD9FAD61971ED4892BA1F4C25ADE4FCB
:10330000E881F981CE55D1400995C05ADE4FE88158
:10331000F981C056D1400995F3E3CA59DE4FF883CD
:10332000C656D140F40109952B965FAF2B972C968A
:103330006FAF2C976CE871E02C968EAD9FAD2C97FB
:10334000F9D3892BA1F4C25ADE4FE881F981CE5519
:10335000D1400995C05ADE4FE881F981C056D1406D
:103360000995F4E3CA59DE4FF883C656D140F401FB
:10337000099526965FAF269727966FAF27976EE839
:1033800071E027968EAD9FAD2797D4D3892BA1F4FA
:10339000C25ADE4FE881F981CE55D1400995C05A15
:1033A000DE4FE881F981C056D1400995F5E3CA594D
:1033B000DE4FF883C656D140F401099521965FAFE0
:1033C000219722966FAF229760E971E022968EAD29
:1033D0009FAD2297AFD3892B09F0AFCBC25ADE4FF6
:1033E000E881F981CE55D1400995C05ADE4FE88178
:1033F000F981C056D1400995F6E3CA59DE4FF883EA
:10340000C656D1409ACB60E070E081E090E0F101D7
:1034100009956BE082E991E0F301099560E070E0C5
:1034200083E090E0F101099568E081E491E0F30127
:103430000995F4010995243409F07FCBF40109952D
:103440005EAB6FAB6EA97FA9CE018E5B9E4F7BD327
:10345000CE018E5B9E4FC159DE4FE881F981CF5678
:10346000D140099584369105B0F4C45DDE4F0881E2
:103470001981CC52D140CF58DE4FE881F981C15734
:10348000D1400995F8010995F0E3CA59DE4FF88358
:10349000C656D14010C085E692E7CE5BDE4F9983D9
:1034A0008883C254D14082E790E0CC5BDE4F9983A1
:1034B0008883C454D140C25ADE4FE881F981CE5589
:1034C000D14009953ACB60E070E081E090E0F101F5
:1034D00009956CE08EE991E0F301099560E070E0F8
:1034E00083E090E0F101099568E081E491E0F30167
:1034F0000995F4010995243409F01FCBF4010995CD
:103500005CA76DA76CA57DA5CE018E5B9E4F1BD3DE
:10351000CE018E5B9E4FC159DE4FE881F981CF56B7
:10352000D14009958D309105B0F4C65DDE4F08811C
:103530001981CA52D140CF58DE4FE881F981C15775
:10354000D1400995F8010995F0E3CA59DE4FF88397
:10355000C656D14010C085E692E7CE5BDE4F998318
:103560008883C254D14082E790E0CC5BDE4F9983E0
:103570008883C454D140C25ADE4FE881F981CE55C8
:10358000D1400995DACA60E070E081E090E0F10195
:1035900009956AE08BEA91E0F301099560E070E03B
:1035A00083E090E0F101099568E081E491E0F301A6
:1035B0000995F4010995243409F0BFCAF40109956D
:1035C0005AA36BA36AA17BA1CE018E5B9E4FBBD297
:1035D000CE018E5B9E4FC159DE4FE881F981CF56F7
:1035E000D140099580329105B0F4CA5DDE4F088163
:1035F0001981C652D140CF58DE4FE881F981C157B9
:10360000D1400995F8010995F0E3CA59DE4FF883D6
:10361000C656D14010C085E692E7CE5BDE4F998357
:103620008883C254D14082E790E0CC5BDE4F99831F
:103630008883C454D140C25ADE4FE881F981CE5507
:10364000D14009957ACA60E070E081E090E0F10134
:1036500009956BE086EB91E0F301099560E070E07D
:1036600083E090E0F101099568E081E491E0F301E5
:103670000995F4010995243409F05FCAF40109950C
:10368000588F698F688D798DCE018E5B9E4F5BD28E
:10369000CE018E5B9E4FC159DE4FE881F981CF5636
:1036A000D140099588319105B0F4C45EDE4F0881A0
:1036B0001981CC51D140CF58DE4FE881F981C157F3
:1036C000D1400995F8010995F0E3CA59DE4FF88316
:1036D000C656D14010C085E692E7CE5BDE4F998397
:1036E0008883C254D14082E790E0CC5BDE4F99835F
:1036F0008883C454D140C25ADE4FE881F981CE5547
:10370000D14009951ACA60E070E081E090E0F101D3
:1037100009956DE082EC91E0F301099560E070E0BD
:1037200083E090E0F101099568E081E491E0F30124
:103730000995F4010995243409F0FFC9F4010995AC
:103740005E876F876E857F85CE018E5B9E4FFBD136
:10375000CE018E5B9E4FC159DE4FE881F981CF5675
:10376000D14009958C339105B0F4C25EDE4F0881DB
:103770001981CE51D140CF58DE4FE881F981C15730
:10378000D1400995F8010995F0E3CA59DE4FF88355
:10379000C656D14010C085E692E7CE5BDE4F9983D6
:1037A0008883C254D14082E790E0CC5BDE4F99839E
:1037B0008883C454D140C25ADE4FE881F981CE5586
:1037C000D1400995BAC960E070E081E090E0F10174
:1037D00009956DE081ED91E0F301099560E070E0FD
:1037E00083E090E0F101099568E081E491E0F30164
:1037F0000995F4010995243409F09FC9F40109954C
:103800005C836D836C817D81CE018E5B9E4F9BD1ED
:10381000CE018E5B9E4FC159DE4FE881F981CF56B4
:10382000D14009958C339105B0F4C05EDE4F08811C
:103830001981C052D140CF58DE4FE881F981C1577C
:10384000D1400995F8010995F0E3CA59DE4FF88394
:10385000C656D14010C085E692E7CE5BDE4F998315
:103860008883C254D14082E790E0CC5BDE4F9983DD
:103870008883C454D140C25ADE4FE881F981CE55C5
:10388000D14009955AC9F7010995F8010995E091C8
:103890008703F091880309959093A8028093A7026B
:1038A0006DE070E083E090E0F10109958AE3F201B8
:1038B0000995F4010995C257DF4F3883CE58D0409F
:1038C000C157DF4F4883CF58D04066E0C257DF4F23
:1038D00088819981CE58D040F301099573C91F9210
:1038E0000F920FB60F9211240BB60F920F931F93E6
:1038F0002F933F934F935F936F937F938F939F93F8
:10390000AF93BF93CF93EF93FF93CFB78FB78F77DB
:103910008FBF8091AD028C3338F18091AC028F5F04
:103920008093AC028F7090E0089774F402E713E084
:10393000D801ED91FC9180E00995D8011496ED91A4
:10394000FC91159709950DC002E713E0D801ED91A0
:10395000FC9181E00995D8011496ED91FC911597A1
:1039600009951092AD0203C08F5F8093AD028091E4
:10397000AB02893C78F163E671E08091A7029091F7
:10398000A802D8D0892B19F50FE713E0D8011C96AF
:10399000ED91FC911D978EE30995D8011E96ED914E
:1039A000FC911F9780EE91E00995D8011E96ED914C
:1039B000FC911F978091A9029091AA020995D801C4
:1039C0001E96ED91FC911F9781EF91E00995109261
:1039D000AB0203C08F5F8093AB02CFBFFF91EF912B
:1039E000CF91BF91AF919F918F917F916F915F9197
:1039F0004F913F912F911F910F910F900BBE0F9000
:103A00000FBE0F901F901895DB018F939F9388D066
:103A1000BF91AF91A29F800D911DA39F900DB29F6A
:103A2000900D11240895AA1BBB1B51E107C0AA1FCA
:103A3000BB1FA617B70710F0A61BB70B881F991F4F
:103A40005A95A9F780959095BC01CD01089597FBF3
:103A5000072E16F4009406D077FD08D0E4DF07FCAB
:103A600005D03EF4909581959F4F0895709561958E
:103A70007F4F0895A1E21A2EAA1BBB1BFD010DC0AA
:103A8000AA1FBB1FEE1FFF1FA217B307E407F5070E
:103A900020F0A21BB30BE40BF50B661F771F881FEA
:103AA000991F1A9469F760957095809590959B0180
:103AB000AC01BD01CF010895052E97FB16F40094CB
:103AC0000FD057FD05D0D6DF07FC02D046F408C062
:103AD00050954095309521953F4F4F4F5F4F08953A
:103AE00090958095709561957F4F8F4F9F4F08956A
:103AF000EE0FFF1F0024001C0BBE0790F691E02D77
:103B00000994A29FB001B39FC001A39F700D811DB6
:103B10001124911DB29F700D811D1124911D0895D6
:103B2000F0DFA59F900DB49F900DA49F800D911D77
:103B300011240895FB01DC018D9101908019011081
:103B4000D9F3990B0895FB01DC0101900D9200203F
:103B5000E1F70895FB01DC014150504048F001902D
:103B60000D920020C9F701C01D9241505040E0F76E
:063B70000895F894FFCF58
:103B76003132334134353642373839432A302344DB
:103B86000000656D707479004100420053656E73E4
:103B9600653A200043004D616E75616C3A20004520
:103BA6006E74657220416E676C65002020657272C6
:103BB6000043202D20657869740044617465206196
:103BC6006E642054696D6520536574757000312DDF
:103BD6005965617200322D4D6F6E746800332D4445
:103BE600617900342D486F757200352D4D696E0070
:103BF600362D536563003100320033003400350042
:103C06003600456E74657220596561723A00456EDC
:103C1600746572204D6F6E74683A00456E746572F5
:103C2600204461793A00456E74657220486F75725A
:103C36003A00456E746572204D696E757465733A07
:103C460000456E746572205365636F6E64733A0047
:103C5600616E616C6F672052656164696E673A20B8
:043C6600000D0A0043
:00000001FF
