S011000041746D6567613132382E7372656329
S113000060C000007DC000007BC0000079C000001B
S113001077C0000075C0000073C0000071C000000C
S11300206FC000006DC0000001C40000CDC300001B
S1130030D5C30000DDC30000EFC300000C94A6117B
S1130040B9C300005DC000002DC4000063C40000FB
S113005057C00000F6C0000053C0000051C00000AB
S1130060D1C30000EDC30000F5C30000FDC30000D0
S113007005C400000DC4000076C40000AFC4000035
S11300803FC000003DC000003BC00000FB02FF0277
S1130090030307030B0312031903200324032B0395
S11300A0320339033D0344034B0367036B036F03BC
S11300B0730379037D03810385038E0392039603FF
S11300C09F0311241FBECFEFD0E1DEBFCDBF11E0EF
S11300D0A0E0B1E0E8E0F5E200E00BBF02C0079069
S11300E00D92A632B107D9F722E0A6E2B1E001C031
S11300F01D92AE34B207E1F70E9440100C948212B4
S11301007FCF369B369AFC01EE0FFF1FE15CFE4F5A
S11301108081918108950F931F93CF93DF93CDB77F
S1130120DEB79F81688549855A851FB78FB78F775A
S11301308FBF50932E0140932D0110922C011092E9
S11301402B011092260187B18F7387B9913019F072
S1130150933021F008C03E9A01E006C087B1806C5C
S113016087B903E001C000E03D98141615068CF42D
S1130170DE011B9680E090E02D913D91FC01EE0F95
S1130180FF1FE15DFE4F3183208301964817590715
S113019099F787B1807E87B9E0912B01F0912C010A
S11301A0EE0FFF1FE15DFE4F8081918127B18F71BA
S11301B09927822B87B9379A369A3598339A86B11C
S11301C0887F86B96031D1F038F4643079F06830D2
S11301D081F0623029F507C06034C1F06038D9F08D
S11301E06032F1F40EC0309A22E01EC0319A24E04D
S11301F01BC086B1836086B928E016C0329A20E11C
S113020013C086B1856086B920E20EC086B18660CF
S113021086B920E409C086B1876086B920E804C0A5
S113022086B1876086B920E81FBF8FB780688FBF0B
S1130230602F722F81E890E0DF91CF911F910F9191
S113024008951F920F920FB60F9211240BB60F92BE
S11302502F933F938F939F93EF93FF9384B190E0F9
S1130260909328018093270125B1809127019091D3
S11302702801922B909328018093270180912601D5
S11302808430A0F4809126018F5F80932601209111
S11302902701309128018091290190912A01820F30
S11302A0931F90932A018093290143C0E0912B016D
S11302B0F0912C018091290190912A0195958795BF
S11302C095958795EE0FFF1FE15CFE4F9183808328
S11302D010922A01109229011092260120912B01DB
S11302E030912C0180912D0190912E01281739070E
S11302F054F480912B0190912C01019690932C0140
S113030080932B0104C010922C0110922B0187B111
S1130310807E87B9E0912B01F0912C01EE0FFF1F35
S1130320E15DFE4F8081918127B18F719927822BE6
S113033087B9FF91EF919F918F913F912F910F90EA
S11303400BBE0F900FBE0F901F9018952091DC01EB
S1130350211140C02FEF21BF23B7287F23BF803452
S1130360910511F148F488309105B1F0803291057E
S1130370B9F0019749F50CC0811521E09207E1F02D
S1130380811524E09207E1F080389105E9F410C06A
S113039083B7816083BF1BC083B7826083BF17C0EC
S11303A083B7836083BF13C083B7846083BF0FC0E8
S11303B083B7856083BF0BC083B7866083BF07C0E4
S11303C083B7876083BF03C083B7876083BF81E03F
S11303D08093DC01089593B79F7C93BF823041F0F2
S11303E0833051F0813059F483B7806183BF08951D
S11303F083B7806283BF089583B7806383BF089502
S113040081BF089583B7887F83BF12BE1092DC0139
S113041008952091D901211142C02FEF3FEF3BBD38
S11304202ABD2EB5287F2EBD88309105D1F048F421
S11304308330910531F18530910539F1019749F502
S11304400CC0811521E09207A1F0811524E09207E8
S1130450A1F080349105E9F408C08EB581608EBDA9
S11304601BC08EB582608EBD17C08EB583608EBDF5
S113047013C08EB584608EBD0FC08EB585608EBDF1
S11304800BC08EB586608EBD07C08EB587608EBDED
S113049003C08EB585608EBD81E08093D901089537
S11304A09FB59F739FBD823041F0833051F08130FE
S11304B059F48FB580648FBD08958FB580688FBD62
S11304C008958FB5806C8FBD08959FB59F7C9FBDA7
S11304D0823041F0833051F0813059F48FB580611E
S11304E08FBD08958FB580628FBD08958FB58063E9
S11304F08FBD08959FB5937F9FBD823041F08330B7
S113050051F0813059F48FB584608FBD08958FB553
S113051088608FBD08958FB58C608FBD08959BBD95
S11305208ABD089599BD88BD0895909379008093FC
S1130530780008958EB5887F8EBD1DBC1CBC1092BA
S1130540D90108951092DC0123B7277B23BF6230C1
S113055041F0633051F0613059F423B7206423BF74
S113056007C023B7286023BF03C023B7286423BF71
S113057027B72E7F27BF27B72D7F27BF423041F0F3
S1130580433051F0413071F427B7216027BF0AC0CE
S113059027B7226027BF06C027B7216027BF27B728
S11305A0226027BF2BEE31E0FC013183208320E061
S11305B032E03783268326EA31E03587248722E038
S11305C032E03787268708950F931F93DC0110923A
S11305D0D9018FB58C7F8FBD8EB5877E8EBD062FDA
S11305E010E0F8013197EF30F10508F05AC0EA5BEA
S11305F0FF4F0C9457128FB581608FBD52C08FB5D9
S113060082608FBD4EC08FB583608FBD4AC08EB5EA
S113061088608EBD46C08FB581608FBD8EB5886001
S11306208EBD3FC08FB582608FBD8EB588608EBD94
S113063038C08FB583608FBD8EB588608EBD31C0E4
S11306408EB580618EBD2DC08FB581608FBD8EB596
S113065080618EBD26C08FB582608FBD8EB58061EE
S11306608EBD1FC08FB583608FBD8EB580618EBD7A
S113067018C08EB588618EBD14C08FB581608FBDE2
S11306808EB588618EBD0DC08FB582608FBD8EB56D
S113069088618EBD06C08FB583608FBD8EB58861BD
S11306A08EBD8FB583708FBD87B7837C87BFEDE721
S11306B0F0E080818E7F808350E0FA013197EC3046
S11306C0F10508F044C0EB5AFF4F0C94571287B75A
S11306D0846087BF3CC087B7806187BF38C087B755
S11306E0886087BF34C0EDE7F0E08081816080835B
S11306F02EC087B7806287BF2AC087B7846187BF4F
S113070026C087B78C6087BF22C087B7846087BF45
S1130710EDE7F0E080818160808319C087B784624F
S113072087BF15C087B78C6187BF11C087B78C613D
S113073087BFEDE7F0E080818160808308C087B7E0
S1130740886187BFEDE7F0E080818160808380E588
S113075092E011969C938E9385E692E013969C9377
S11307608E9312978AE792E015969C938E93149732
S11307708FE892E017969C938E93169782E992E005
S113078019969C938E93189785E992E01B969C93F7
S11307908E931A9789E092E01D969C938E931C97F2
S11307A08AE992E01F969C938E931E97CD011F9128
S11307B00F9108951F920F920FB60F9211240F906C
S11307C00FBE0F901F9018951F920F920FB60F92A5
S11307D011240F900FBE0F901F9018951F920F9227
S11307E00FB60F9211240F900FBE0F901F90189503
S11307F01F920F920FB60F9211240F900FBE0F90FD
S11308001F9018951F920F920FB60F9211240F90FC
S11308100FBE0F901F9018951F920F920FB60F9254
S113082011240F900FBE0F901F9018951F920F92D6
S11308300FB60F9211240F900FBE0F901F901895B2
S11308401F920F920FB60F9211240F900FBE0F90AC
S11308501F9018951F920F920FB60F9211240F90AC
S11308600FBE0F901F9018951F920F920FB60F9204
S113087011240F900FBE0F901F9018951F920F9286
S11308800FB60F9211240F900FBE0F901F90189562
S11308901F920F920FB60F9211240F900FBE0F905C
S11308A01F9018951F920F920FB60F9211240BB63A
S11308B00F928F939F93EF93FF938BB19AB18871AB
S11308C080939401E0919601EF5FEF71809195011F
S11308D0E81304C082E08093940111C09CB1E093BA
S11308E0960180919401882331F0F0E0E756FE4FA1
S11308F088E5808304C0F0E0E756FE4F9083FF91C3
S1130900EF919F918F910F900BBE0F900FBE0F90A0
S11309101F9018951F920F920FB60F9211240BB6C9
S11309200F928F939F93EF93FF93909198018091EF
S11309309701981302C055980BC0E0919701EF5F9F
S1130940EF71E0939701F0E0E754FE4F80818CB99A
S1130950FF91EF919F918F910F900BBE0F900FBE5F
S11309600F901F9018951F920F920FB60F9211249B
S11309700BB60F928F939F93EF93FF9380919B00FD
S113098090919A00887180934F01E0915101EF5F3B
S1130990EF7180915001E81304C082E080934F010D
S11309A012C090919C00E093510180914F018823E3
S11309B031F0F0E0EC5AFE4F88E5808304C0F0E0AB
S11309C0EC5AFE4F9083FF91EF919F918F910F907E
S11309D00BBE0F900FBE0F901F9018951F920F9291
S11309E00FB60F9211240BB60F928F939F93EF9330
S11309F0FF939091530180915201981306C0EAE944
S1130A00F0E080818F7D80830EC0809152018F5FE2
S1130A108F7180935201E0915201F0E0EC58FE4F47
S1130A20808180939C00FF91EF919F918F910F9013
S1130A300BBE0F900FBE0F901F901895EAEEF1E0D9
S1130A408083618342830895EAEEF1E082818F5FBF
S1130A5082838C330CF47AC081818F5F818312820C
S1130A608C3344F080818F5F80831182883114F04D
S1130A701092EA018091EA019091ED0189132AC054
S1130A809091F001943009F053C093E09093F001F9
S1130A902091EE019091EB01291309C004C09091BB
S1130AA0F001933051F492E09093F00106C020914C
S1130AB0EB019091EE0129130DC02091EC0190916E
S1130AC0EF01291307C09091F001923019F491E0DD
S1130AD09093F0019091E70198133FC08091E60153
S1130AE0843069F583E08093E6019091EB01809175
S1130AF0E801981309C004C08091E601833051F4E1
S1130B0082E08093E60106C09091EB018091E801B8
S1130B10981323C09091EC018091E90198131DC0B2
S1130B208091E6018230C9F481E08093E601089562
S1130B302091EB019091EE012913CCCFB0CF90918D
S1130B40EB018091E801981308C0D6CF8091EA01A7
S1130B509091ED019813BECF93CF0895EAEEF1E0A2
S1130B6082818150828388230CF047C08181815027
S1130B7081839BE3928388234CF48081815080831A
S1130B80918388231CF487E18093EA019091EA0120
S1130B908091E701981337C08091E601843031F5E4
S1130BA083E08093E6019091EB018091E801981332
S1130BB009C004C08091E601833051F482E080933F
S1130BC0E60106C09091EB018091E80198131BC0E7
S1130BD09091EC018091E901981315C08091E60190
S1130BE0823089F481E08093E60108959091EB01CD
S1130BF08091E801981307C0DDCF9091EA018091BC
S1130C00E701981749F208959091E601911108C0FF
S1130C10E7EEF1E080836183428384E08093E60120
S1130C208091E6010895CF92DF92EF92FF920F93A5
S1130C301F93CF93DF93FC018091F001811165C074
S1130C409F01A9E8B8E80E9460126C01D694C79489
S1130C50D694C794D694C794D694C794D694C7947C
S1130C604CE34C9DC0014D9D900D1124281B390B64
S1130C70CAEED1E08A81082E000C990B820F911DD7
S1130C800DEE11E00F2EFCE3EF2EF12CF02DB70149
S1130C900E940612562FD80112968C939601A9E849
S1130CA0B8E80E94601296958795929582958F7008
S1130CB089279F708927489F9001499F300D1124EF
S1130CC0C21AD30A8981082E000C990B8C0D911D30
S1130CD0850F911DB7010E940612262FD801119687
S1130CE08C93CF0160E17EE00E94F2118881680F4D
S1130CF0620F693128F088E1861B8093ED0102C000
S1130D006093ED0184E08093F0018091F001DF9124
S1130D10CF911F910F91FF90EF90DF90CF900895A6
S1130D201092E60108958FE08093E60108951092F1
S1130D30F00108958FE08093F0010895EDEDF1E066
S1130D401086AAEEB1E012962C91129787E628023B
S1130D50912D11249595959527FD9395492F440F31
S1130D60342F330F330F340F231B205D27832DECD7
S1130D70929F312D1124369536953695330F432F96
S1130D80440F440F340F931B905D96835AE35583AD
S1130D9011963C9111973802912D112495959595B2
S1130DA037FD9395692F660F462F440F440F460F66
S1130DB0341B305D3483929F312D11243695369542
S1130DC03695330F432F440F440F340F931B905D1C
S1130DD0938352839C919802812D11248595859546
S1130DE097FD8395482F440F342F330F330F340F5F
S1130DF0931B905D9183829F212D11242695269526
S1130E002695220F922F990F990F290F821B805D2F
S1130E108083CF010895FC01AAEEB1E06C93119692
S1130E204C93119712962C938FE08093E601809354
S1130E30F0018EE195E09183808384E295E09383D1
S1130E4082838EEA95E09583848384E096E0978399
S1130E50868383E196E09187808787E996E093878C
S1130E6082878AE996E09587848780E996E0978768
S1130E70868783E996E0918B808B8EE996E0938B4D
S1130E80828BCF0108956823442321F0861721F033
S1130E9080E00895611180E00895862B08958623EB
S1130EA0089586230895862B8095089586278623A2
S1130EB0089560958623089586270895CF92DF923A
S1130EC0EF92FF920F931F93FC0100811181228105
S1130ED03381FB01C080D180E280F380FC01C082B9
S1130EE0D182E282F382FB01008311832283338364
S1130EF01F910F91FF90EF90DF90CF900895FB0129
S1130F002081FC012083222339F0DB0111963196E4
S1130F109D9191939111FCCF0895CF93DF93EC01B0
S1130F209881992399F0FE01319620E030E0492F11
S1130F3050E04617570731F0DE01A20FB31F9C9310
S1130F402F5F3F4F91919111F2CF02C020E030E02A
S1130F50FE01E20FF31F1082DF91CF9108952F92CB
S1130F603F924F925F926F927F928F929F92AF9235
S1130F70BF92CF92DF92EF92FF920F931F93CF9382
S1130F80DF9300D000D0CDB7DEB72C011B014B019D
S1130F9077231CF42FEF821A920A959487941814DD
S1130FA019040CF451C06AC09601DD209CF1F501CE
S1130FB040815181F401608171816417750754F592
S1130FC08C010A0D1B1DD401BC82AB82BA82A9829A
S1130FD0EB81FC817183608311965C934E932E198F
S1130FE03F09C2F0F80140815181E981FA816081B1
S1130FF07181080F191FE80FF91FFA83E983EB8148
S1131000FC81E80FF91FFC83EB83A80FB91F641759
S11310107507F4F2FFEFCF1ADF0A22E0A20EB11C2B
S1131020E2E08E0E911CC614D70409F0BDCF47012F
S1131030FF201CF4FFEF8F1A9F0A959487941814CD
S11310401904E4F4740101C07401821493047CF75C
S11310506401CE18DF085601AA0CBB1CA40CB51CF5
S1131060880C991C840C951C31016E187F08C701EB
S1131070880F991F91958195910996CF0F900F90A4
S11310800F900F90DF91CF911F910F91FF90EF90F0
S1131090DF90CF90BF90AF909F908F907F906F9094
S11310A05F904F903F902F900895861797070CF408
S11310B0CB0108959B01672B11F408959A01B9019E
S11310C00E940612AC01822F932F41155105B1F7EE
S11310D00895FC01908180ED890F8A30D0F4319617
S11310E020E030E0A901440F551F220F331F220FC7
S11310F0331F220F331F420F531F292F30E0205379
S11311003109240F351F919180ED890F8A3050F3F6
S113111002C020E030E0C9010895862308950097B5
S113112039F020E030E02F5F3F4F82179307D9F763
S1131130089587FF08C09195819591099927919504
S11311408195910908958F779927089591FF08C093
S1131150919581959109937091958195910908953F
S113116091700895615021E030E002C0220F331FD6
S11311706A95E2F7A90141505109B901682379231D
S1131180672B29F084239523821B930B08958423D2
S1131190952308959DEC899F912D112496959695FC
S11311A09695392F330F232F220F220F230F821BE3
S11311B020E1929F800D11240895982F92959F709D
S11311C0990F292F220F220F920F8F70890F0895E4
S11311D0FC01DB01AF50BE4F1C921616170614F526
S11311E0908191110CC017C0919191110DC015C03F
S11311F081932F5F3F4F26173707D4F313C0A1EF16
S1131200B1E0319620E030E09D932F5F3F4F6217AD
S1131210730751F707C020E030E0F901EF50FE4FAB
S113122080E2E6CF81EF91E008954F925F926F9252
S11312307F92AF92BF92CF92DF92EF92FF920F9381
S11312401F93CF93DF93CDB7DEB729013A019B01FA
S1131250AC01241935094609570989899A89AB894A
S1131260BC89BC01CD016A197B098C099D090E94C6
S1131270E311A801970124193509460957090E9469
S11312803B12CA01B9016A0D7B1D8C1D9D1DDF91A6
S1131290CF911F910F91FF90EF90DF90CF90BF906F
S11312A0AF907F906F905F904F90089570E06115BC
S11312B0710599F041E050E021E030E090E0FA015E
S11312C0E89FA001E99F500DF89F500D11242F5F56
S11312D03F4F6217730798F702C041E050E0CA011C
S11312E00895FC012081222341F0319680E090E0B2
S11312F0019621912111FCCF089580E090E008959A
S1131300CF93DF93EC01EDDF9C012150310962F0B2
S1131310FE01E80FF91F9291903219F09950923022
S113132018F421503109B8F7C20FD31F1982C9012B
S1131330DF91CF910895CF93DF93EC01D2DF9C012D
S1131340215031091216130684F4DE01A80FB91FC7
S1131350FE0180E090E040815E9151934C930196B0
S11313602150310982179307B4F3DF91CF91089587
S11313708F929F92AF92BF92CF92DF92EF92FF92A1
S11313800F931F93CF93DF936B017C01DC01CB019F
S1131390FF203CF488279927DC018C199D09AE09AC
S11313A0BF09BC01CD0110E00F2EFAE08F2E912C65
S11313B0A12CB12CF02D01C0102F01E0010FC12F81
S11313C0D0E0CF50DE4FA50194010E943B12605D36
S11313D06883622F732F842F952F1616170618060D
S11313E0190654F3FF2044F4E02FF0E0EF50FE4FD1
S11313F08DE2808302E0010FE02FF0E0EF50FE4F1A
S1131400108281EF91E097DF81EF91E0DF91CF913E
S11314101F910F91FF90EF90DF90CF90BF90AF900E
S11314209F908F9008950F931F93CF93DF93EC01B8
S1131430992324F4882799278C1B9D0B20E00AE02C
S113144010E001C0232F31E0320FE22FF0E0EF5023
S1131450FE4FB801DBD7805D8083862F972F181647
S1131460190684F3DD2344F4E32FF0E0EF50FE4F3C
S11314708DE2808332E0320FE32FF0E0EF50FE4F35
S1131480108281EF91E057DF81EF91E0DF91CF91FE
S11314901F910F910895CF93AC01E0E0C1E0CE0F0E
S11314A0F0E0EF50FE4F9A01ADECBCEC0E946012EC
S11314B09695879596958795969587959C01220F85
S11314C0331F880F991F880F991F880F991F820F48
S11314D0931F9A01281B390BC901805D80839A01EF
S11314E0EFD7AC0156954795569547955695479530
S11314F0EC2F4115510591F6EC2FF0E0EF50FE4F23
S1131500108281EF91E017DF81EF91E0CF91089590
S1131510982F92959F70990F292F220F220F920FC7
S11315208F70890F0895AC019C01ADECBCECC8D759
S1131530969587959695879596958795BC01660FA0
S1131540771F9C01220F331F220F331F220F331FDB
S1131550260F371F421B530B342F20E1829F300D7F
S11315601124832F0895CF92DF92EF92FF92CF93AD
S1131570DF93CDB7DEB728970FB6F894DEBF0FBE62
S1131580CDBF6B017C0169837A838B839C832D831C
S11315903E834F835887C216D306E406F50634F417
S11315A0BE016B5F7F4FCE01019688DC8D819E81E9
S11315B0AF81B885892B8A2B8B2B69F469817A8159
S11315C08B819C8120E030E0A90155D7611571051C
S11315D08105910529F46D817E818F81988505C0EF
S11315E06D837E838F839887F6CF28960FB6F89401
S11315F0DEBF0FBECDBFDF91CF91FF90EF90DF90A4
S1131600CF90089590E002C0959587956A95E2F78A
S113161081700895E1EFF1E090E020E850E341E3C8
S1131620382F322311F0408301C0508326959F5FE9
S113163031969830A9F71092F90181EF91E008955D
S1131640A42FB0E0109761F021E030E0E1E0F0E099
S1131650EE0FFF1F2F5F3F4FA217B307C8F702C05B
S1131660E1E0F0E031976E237F238E239F238627CA
S113167097276823792302C0660F771F4A95E2F7FC
S1131680862B972B0895FC019FB78FB78F778FBF59
S11316909FBF86E599E09183808381E799E09383F6
S11316A082838BE999E09583848380E29BE097832E
S11316B0868383E497E09187808781E597E0938729
S11316C0828783E597E09587848786E597E0978707
S11316D0868789E597E0918B808B8CE597E0938BE7
S11316E0828B8DE497E0958B848B8FE497E0978BC6
S11316F0868B8EE597E0918F808F8FE797E0938FAD
S1131700828F8DE897E0958F848F8FEA97E0978F8B
S1131710868F83E19AE091A380A38BE49AE093A35C
S113172082A388EB99E095A384A380E899E097A32A
S113173086A385E598E091A780A78AE598E093A71A
S113174082A789E698E095A784A78DE898E097A7F3
S113175086A78FE898E091AB80AB89E998E093ABDA
S113176082AB86EA98E095AB84AB82EB98E097ABCA
S113177086AB8AEC98E091AF80AF8DED98E093AFA3
S113178082AF88EE98E095AF84AF85E199E097AF9A
S113179086AFDF01A05CBF4F88E89AE011969C9366
S11317A08E93129683E99AE011969C938E931296E7
S11317B083EB9AE011969C938E93129682E09BE0C1
S11317C011969C938E9312968AE09BE08D939C9342
S11317D0CF01089580E28093120210920F02E3E198
S11317E0F2E088E292E01192E817F907E1F7089530
S11317F0CF93DF9321E080E0A7E0B2E0EBE0F2E0FA
S113180060E071E001C02F5F9FEF920F913009F407
S11318104BC038F0923009F48CC0933009F4CEC038
S11318200EC14091280250912902EA0198819068E2
S113183098834091050250910602EA0198819F77AE
S113184098834091100250911102EA013881347753
S11318503C939081432F492794233083992399F013
S1131860943019F4EB0188810AC0903119F4EB012A
S1131870898109C0903219F4EB018A8104C0903443
S113188011F4EB018B814091280250912902EA0165
S113189098819F7798834091050250910602EA014E
S11318A0988190689883AFCF409128025091290283
S11318B0EA01988191609883409105025091060253
S11318C0EA0198819E7F9883409110025091110201
S11318D0EA013881347711963C9311979181432F13
S11318E0492794233183992399F0943019F4EB0117
S11318F08C810AC0903119F4EB018D8109C09032BA
S113190019F4EB018E8104C0903411F4EB018F8142
S11319104091280250912902EA0198819E7F988380
S11319204091050250910602EA01988191609883E2
S11319306ACF4091280250912902EA01988192606D
S113194098834091050250910602EA0198819D7F97
S113195098834091100250911102EA013881347742
S113196012963C9312979281432F492794233283F2
S1131970992399F0943019F4EB0188850AC09031C9
S113198019F4EB01898509C0903219F4EB018A85B9
S113199004C0903411F4EB018B85409128025091DE
S11319A02902EA0198819D7F988340910502509114
S11319B00602EA0198819260988325CFE09128027B
S11319C0F0912902908198609083E0910502F09152
S11319D006029081977F9083E0911002F0911102AA
S11319E02081247720930A02EBE0F2E09381322FE6
S11319F0392793232383992399F0943019F4809100
S1131A000C010AC0903119F480910D0109C0903283
S1131A1019F480910E0104C0903411F480910F01E7
S1131A20E0912802F09129029081977F9083E091C0
S1131A300502F091060290819860908303C02430DF
S1131A4008F4E1CEDF91CF910895CF93DF93EC01B9
S1131A50CFDE882389F08093120290910F02943193
S1131A6058F4E0910F02F0E0EE5EFD4F8183809127
S1131A700F028F5F80930F0286E1E2E1F2E0DE0164
S1131A8001900D928A95E1F7CE01DF91CF910895EF
S1131A90CF93DF9300D000D000D0CDB7DEB7FC01E8
S1131AA02FB780E2809312029FB79F779FBFF09376
S1131AB02902E0932802709311026093100250935C
S1131AC00602409305028BE88083E0910502F091C1
S1131AD0060284E78083A7E0B2E08C93EBE0F2E0B7
S1131AE0808311968C931197818312968C9312970D
S1131AF0828313968C93838310920F022FBFE091FD
S1131B000502F091060280818B68808363DE28EFF2
S1131B103BE03A83298345E25DE05C834B836AEED4
S1131B207BE07E836D833A815C817E8180E090E0FE
S1131B3026960FB6F894DEBF0FBECDBFDF91CF91CE
S1131B400895E0913402F091350290819D7F908355
S1131B50672B41F0E0913402F0913502908191605D
S1131B60908307C0E0913402F091350290819E7F0A
S1131B709083E0913102F09132029081906F9083D2
S1131B80E0913402F091350290819460908388232F
S1131B9044F4E0913402F09135029081906890838E
S1131BA007C0E0913402F091350290819F779083D1
S1131BB086FF08C0E0913402F09135029081906470
S1131BC0908307C0E0913402F091350290819F7BAD
S1131BD0908385FF08C0E0913402F0913502908132
S1131BE09062908307C0E0913402F09135029081B5
S1131BF09F7D908384FF08C0E0913402F091350208
S1131C0090819061908307C0E0913402F091350295
S1131C1090819F7E9083E0913402F091350290810F
S1131C209B7F9083E0913402F0913502908194601F
S1131C30908383FF08C0E0913402F09135029081D3
S1131C409068908307C0E0913402F091350290814E
S1131C509F77908382FF08C0E0913402F0913502AF
S1131C6090819064908307C0E0913402F091350232
S1131C7090819F7B908381FF08C0E0913402F091B2
S1131C80350290819062908307C0E0913402F09114
S1131C90350290819F7D908380FF08C0E0913402DB
S1131CA0F091350280818061808307C0E091340225
S1131CB0F091350280818F7E8083E0913402F0912F
S1131CC0350280818B7F80830895E0913102F09109
S1131CD0320220812F702083E0913402F09135028A
S1131CE02081206F2083E0913402F091350220811D
S1131CF022602083892B41F0E0913402F091350277
S1131D0080818160808307C0E0913402F0913502C4
S1131D1080818E7F8083E0913402F091350280814E
S1131D2084608083E0912A02F0912B0280818823D1
S1131D3014F080E001C080E8908196FF02C08064C6
S1131D4001C08F7B908195FF02C0806201C08F7DAE
S1131D50908194FF02C0806101C08F7EE0913402C3
S1131D60F091350290819B7F9083E0913402F09151
S1131D703502908194609083E0912A02F0912B02C5
S1131D809081992314F4886001C0877F908196FF25
S1131D9002C0846001C08B7F908195FF02C0826085
S1131DA001C08D7F908194FF02C0816001C08E7F4D
S1131DB0E0913402F091350290819B7F90830895E5
S1131DC0CF93DF9380E090E080DFCBE0D0E005C0EC
S1131DD080E090E07ADF219711F08823CCF3DF9143
S1131DE0CF91089561E070E0ACDEEACF0895CF931F
S1131DF081E090E06ADFC82FE3DF8C2FCF91089554
S1131E00CF93DF93EC018881882341F0219661E030
S1131E1070E097DED5DF89918111F9CFDF91CF9101
S1131E2008950F931F93CF93DF93FC01D62F8081E6
S1131E30882351F08F010F5F1F4F611109C01BC030
S1131E40CF5FDC1730F401C0C0E0CD1760F013C0E1
S1131E50C1E061E070E075DEB3DFF80181918F01CC
S1131E608111EECFF2CFCF5F61E070E080E269DEF6
S1131E70A7DFCD17C0F3DF91CF911F910F91089584
S1131E80CF93C82F882339F061E070E080E259DEF7
S1131E9097DFC150C9F7CF910895262F813091055E
S1131EA071F030F08230910589F00397B1F0089514
S1131EB060E070E080E8820F44DE82CF089560E045
S1131EC070E080EC820F3DDE7BCF089560E070E02F
S1131ED084E9820F36DE74CF089560E070E084ED0B
S1131EE0820F2FDE6DCF089560E070E081E029DE7F
S1131EF087EE97E10197F1F700C000000895E091A3
S1131F003102F091320287E08083E0913402F09153
S1131F10350288E080832FEF83EF91E021508040E9
S1131F209040E1F700C0000060E070E083E309DE68
S1131F3020ED2A95F1F760E070E083E302DE80EDA6
S1131F408A95F1F760E070E08BE2FBDD95EC9A9501
S1131F50F1F7000060E070E08CE0F3DD25EC2A95F9
S1131F60F1F7000060E070E081E0EBDD87EE97E1DF
S1131F700197F1F700C0000060E070E086E0E1DD69
S1131F8095EC9A95F1F7000008951F93CF93DF9392
S1131F90EC011FB78FB78F778FBF709332026093B6
S1131FA0310250932B0240932A023093350220933E
S1131FB03402FB011082E0913402F09135028FEF7C
S1131FC08083E0912A02F0912B02808188708093B3
S1131FD0330295DF1FBF81EA9DE09983888385E6FC
S1131FE09EE09B838A8380EE9EE09D838C8382EFB8
S1131FF09EE09F838E8387EF9EE09987888780E0A9
S11320009FE09B878A8781E19FE09D878C8780E49E
S11320109FE09F878E8784E79FE0998B888B8DE470
S11320209FE09B8B8A8B8CE190E19D8B8C8BCE0106
S1132030DF91CF911F910895CF93E0912A02F091FF
S11320402B02C081C870809133028C278C2309F045
S113205056DFC0933302CF910895109261008FE050
S11320608093620012B88FEF83B911BA82BB84BB2C
S113207015BA87B3806E87BB8FB780688FBF08950A
S1132080CF93DF93CDB7DEB7C05ED1090FB6F89416
S1132090DEBF0FBECDBFE1DFCE018D5B9F4FF3DA14
S11320A02BE330E049E350E06AE370E0CE0183576C
S11320B09F4F6BDFC956DF4F28803980C759D04006
S11320C0C756DF4F88819981C959D040C352DF4F29
S11320D099838883CD5DD040C156DF4F8880998035
S11320E0CF59D04043E250E061E270E082E290E0F8
S11320F0CFDCCD55DF4F2883C35AD040CC55DF4FBA
S11321003883C45AD040CB55DF4F4883C55AD0409A
S1132110CA55DF4F5883C65AD040C955DF4F68832C
S1132120C75AD040C855DF4F7883C85AD040CB55E2
S1132130DF4F68807980C55AD0401F921F921F924A
S113214081E08F9390E89F938F930E948B006B01A3
S11321507C0142E062E0CE0187559F4F0E94A202BB
S113216040E069E0CE0187549F4F0E94E40220E0E2
S113217040E06CE0CE0187539F4F0E940B0784E13F
S1132180FE01E753FF4FAAE3B2E001900D928A9556
S1132190E1F7C155DF4FE881F981CF5AD04089EF8B
S11321A00995C554DF4FE881F981CB5BD04082E0CB
S11321B00995C154DF4FE881F981CF5BD04080E2BB
S11321C09EE40995CB53DF4FE881F981C55CD0408B
S11321D088E090E00995CB54DF4FE881F981C55B35
S11321E0D04080E490E009950F900F900F900F90ED
S11321F00F900F90C152DF4FF982E882CF5DD0403B
S1132200CF55DF4FE881F981C15AD0400995CE01FD
S11322108D96F30109951DA560E070E083E090E0E0
S1132220F4010995CD56DF4FE881F981C359D040B7
S1132230812F09956AE070E083E090E0F40109954C
S1132240CE014796F3010995CE014896F10109950F
S1132250CE010196F301099560E171E0CE01029689
S113226048D1892BB9F460E070E082E090E0F40199
S1132270099560E184E191E0C352DF4FE881F9817F
S1132280CD5DD0400995C955DF4FE881F981C75A22
S1132290D040099560E070E080E090E0F401099599
S11322A080E090E0C152DF4FE881F981CF5DD040FA
S11322B009958C01A596EEADFFADA597099565E04E
S11322C0C352DF4FE881F981CD5DD0400995CF53EA
S11322D0DF4F48805980C15CD040B801110F880B92
S11322E0990B1F921F92F9E0FF9322E92F93CF5786
S11322F0DF4FE881F981C158D0400F2EF2ECAF2EA8
S1132300BB24B394C12CD12CF02DEE24EA9413E019
S1132310F12E00E010E020E030E0A9010995CB01A6
S1132320F2010995C556DF4FE881F981CB59D040B8
S113233083E00995E0914C02F0914D020995F10179
S113234009950F900F900F900F905ACF1F920F92F4
S11323500FB60F9211240BB60F922F933F934F9306
S11323605F936F937F938F939F93AF93BF93EF93F9
S1132370FF9380913802909139020196883E23E0C0
S1132380920728F4909339028093380209C010927E
S1132390390210923802E0913C02F0913D02099515
S11323A0FF91EF91BF91AF919F918F917F916F9129
S11323B05F914F913F912F910F900BBE0F900FBEE5
S11323C00F901F901895DB018F939F9388D0BF9136
S11323D0AF91A29F800D911DA39F900DB29F900D70
S11323E011240895AA1BBB1B51E107C0AA1FBB1FE0
S11323F0A617B70710F0A61BB70B881F991F5A958D
S1132400A9F780959095BC01CD01089597FB072EFF
S113241016F4009406D077FD08D0E4DF07FC05D05D
S11324203EF4909581959F4F0895709561957F4FE7
S11324300895A1E21A2EAA1BBB1BFD010DC0AA1F01
S1132440BB1FEE1FFF1FA217B307E407F50720F019
S1132450A21BB30BE40BF50B661F771F881F991F94
S11324601A9469F760957095809590959B01AC01DD
S1132470BD01CF010895052E97FB16F400940FD0EB
S113248057FD05D0D6DF07FC02D046F408C05095AE
S11324904095309521953F4F4F4F5F4F089590954C
S11324A08095709561957F4F8F4F9F4F0895EE0FE4
S11324B0FF1F0024001C0BBE0790F691E02D099429
S11324C0A29FB001B39FC001A39F700D811D112471
S11324D0911DB29F700D811D1124911D0895F0DF8F
S11324E0A59F900DB49F900DA49F800D911D112464
S11324F00895FB01DC018D91019080190110D9F33D
S10B2500990B0895F894FFCF34
S11325083132334134353642373839432A3023445B
S1132518313233006D637520726573706F6E646554
S1092528206F6C6100004D
S9030000FC
