:1000000060C000007DC000007BC0000079C000001F
:1000100077C0000075C0000073C0000071C0000010
:100020006FC000006DC000005CC3000028C300006A
:1000300030C3000038C300004AC3000061C00000A4
:1000400014C300005DC0000088C30000BEC30000F0
:1000500057C00000F6C0000053C0000051C00000AF
:100060002CC3000048C3000050C3000058C3000068
:1000700060C3000068C30000D1C300000AC40000D0
:100080003FC000003DC000003BC0000056025A02C5
:100090005E02620266026D0274027B027F028602C9
:1000A0008D02940298029F02A602C202C602CA02F0
:1000B000CE02D402D802DC02E002E902ED02F10233
:1000C000FA0211241FBECFEFD0E1DEBFCDBF11E099
:1000D000A0E0B1E0E6EAF8E200E00BBF02C0079062
:1000E0000D92A232B107D9F722E0A2E2B1E001C03D
:1000F0001D92A435B207E1F70E940E100C94511422
:100100007FCF369B369AFC01EE0FFF1FE55CFE4F5A
:100110008081918108950F931F93CF93DF93CDB783
:10012000DEB79F81688549855A851FB78FB78F775E
:100130008FBF50932A0140932901109228011092F9
:1001400027011092220187B18F7387B9913019F07E
:10015000933021F008C03E9A01E006C087B1806C60
:1001600087B903E001C000E03D98141615068CF431
:10017000DE011B9680E090E02D913D91FC01EE0F99
:10018000FF1FE55DFE4F3183208301964817590715
:1001900099F787B1807E87B9E0912701F091280116
:1001A000EE0FFF1FE55DFE4F8081918127B18F71BA
:1001B0009927822B87B9379A369A3598339A86B120
:1001C000887F86B96031D1F038F4643079F06830D6
:1001D00081F0623029F507C06034C1F06038D9F091
:1001E0006032F1F40EC0309A22E01EC0319A24E051
:1001F0001BC086B1836086B928E016C0329A20E120
:1002000013C086B1856086B920E20EC086B18660D3
:1002100086B920E409C086B1876086B920E804C0A9
:1002200086B1876086B920E81FBF8FB780688FBF0F
:10023000602F722F81E890E0DF91CF911F910F9195
:1002400008951F920F920FB60F9211240BB60F92C2
:100250002F933F938F939F93EF93FF9384B190E0FD
:10026000909324018093230125B1809123019091E3
:100270002401922B909324018093230180912201E9
:100280008430A0F4809122018F5F8093220120911D
:100290002301309124018091250190912601820F44
:1002A000931F909326018093250143C0E09127017D
:1002B000F0912801809125019091260195958795CF
:1002C00095958795EE0FFF1FE55CFE4F9183808328
:1002D00010922601109225011092220120912701EF
:1002E000309128018091290190912A01281739071E
:1002F00054F4809127019091280101969093280150
:100300008093270104C0109228011092270187B121
:10031000807E87B9E0912701F0912801EE0FFF1F41
:10032000E55DFE4F8081918127B18F719927822BE6
:1003300087B9FF91EF919F918F913F912F910F90EE
:100340000BBE0F900FBE0F901F9018952091D501F6
:10035000211142C02FEF3FEF3BBD2ABD2EB5287FB4
:100360002EBD88309105D1F048F48330910531F1EC
:100370008530910539F1019749F50CC0811521E0CF
:100380009207A1F0811524E09207A1F08034910535
:10039000E9F408C08EB581608EBD1BC08EB5826049
:1003A0008EBD17C08EB583608EBD13C08EB58460C0
:1003B0008EBD0FC08EB585608EBD0BC08EB58660BC
:1003C0008EBD07C08EB587608EBD03C08EB58560BB
:1003D0008EBD81E08093D50108959FB59F739FBD29
:1003E000823041F0833051F0813059F48FB5806410
:1003F0008FBD08958FB580688FBD08958FB5806CCF
:100400008FBD08959FB59F7C9FBD823041F08330A2
:1004100051F0813059F48FB580618FBD08958FB54B
:1004200080628FBD08958FB580638FBD08959FB59D
:10043000937F9FBD823041F0833051F0813059F479
:100440008FB584608FBD08958FB588608FBD089586
:100450008FB58C608FBD08959BBD8ABD089599BDF1
:1004600088BD0895909379008093780008958EB5A3
:10047000887F8EBD1DBC1CBC1092D50108950F93C2
:100480001F93DC011092D5018FB58C7F8FBD8EB587
:10049000877E8EBD062F10E0F8013197EF30F10511
:1004A00008F05AC0EA5BFF4F0C941F148FB58160AF
:1004B0008FBD52C08FB582608FBD4EC08FB5836037
:1004C0008FBD4AC08EB588608EBD46C08FB5816035
:1004D0008FBD8EB588608EBD3FC08FB582608FBDE9
:1004E0008EB588608EBD38C08FB583608FBD8EB5E8
:1004F00088608EBD31C08EB580618EBD2DC08FB538
:1005000081608FBD8EB580618EBD26C08FB5826043
:100510008FBD8EB580618EBD1FC08FB583608FBDCE
:100520008EB580618EBD18C08EB588618EBD14C039
:100530008FB581608FBD8EB588618EBD0DC08FB5C2
:1005400082608FBD8EB588618EBD06C08FB5836019
:100550008FBD8EB588618EBD8FB583708FBD87B717
:10056000837C87BFEDE7F0E080818E7F808350E061
:10057000FA013197EC30F10508F044C0EB5AFF4F17
:100580000C941F1487B7846087BF3CC087B7806115
:1005900087BF38C087B7886087BF34C0EDE7F0E019
:1005A0008081816080832EC087B7806287BF2AC028
:1005B00087B7846187BF26C087B78C6087BF22C09A
:1005C00087B7846087BFEDE7F0E08081816080833A
:1005D00019C087B7846287BF15C087B78C6187BF92
:1005E00011C087B78C6187BFEDE7F0E08081816043
:1005F000808308C087B7886187BFEDE7F0E080811E
:10060000816080838DEE91E011969C938E9382E0C1
:1006100092E013969C938E93129787E192E0159641
:100620009C938E9314978CE292E017969C938E93F2
:1006300016978FE292E019969C938E93189782E317
:1006400092E01B969C938E931A9786EA91E01D96F2
:100650009C938E931C9787E392E01F969C938E93B6
:100660001E97CD011F910F9108951F920F920FB603
:100670000F9211240F900FBE0F901F9018951F928C
:100680000F920FB60F9211240F900FBE0F901F9074
:1006900018951F920F920FB60F9211240F900FBE54
:1006A0000F901F9018951F920F920FB60F92112462
:1006B0000F900FBE0F901F9018951F920F920FB6BC
:1006C0000F9211240F900FBE0F901F9018951F923C
:1006D0000F920FB60F9211240F900FBE0F901F9024
:1006E00018951F920F920FB60F9211240F900FBE04
:1006F0000F901F9018951F920F920FB60F92112412
:100700000F900FBE0F901F9018951F920F920FB66B
:100710000F9211240F900FBE0F901F9018951F92EB
:100720000F920FB60F9211240F900FBE0F901F90D3
:1007300018951F920F920FB60F9211240F900FBEB3
:100740000F901F9018951F920F920FB60F921124C1
:100750000F900FBE0F901F9018951F920F920FB61B
:100760000F9211240BB60F928F939F93EF93FF93E9
:100770008BB19AB1887180939001E0919201EF5F03
:10078000EF7180919101E81304C082E080939001A1
:1007900011C09CB1E093920180919001882331F0C7
:1007A000F0E0EB56FE4F88E5808304C0F0E0EB56A6
:1007B000FE4F9083FF91EF919F918F910F900BBE11
:1007C0000F900FBE0F901F9018951F920F920FB6AB
:1007D0000F9211240BB60F928F939F93EF93FF9379
:1007E0009091940180919301981302C055980BC089
:1007F000E0919301EF5FEF71E0939301F0E0EB5430
:10080000FE4F80818CB9FF91EF919F918F910F9056
:100810000BBE0F900FBE0F901F9018951F920F9256
:100820000FB60F9211240BB60F928F939F93EF93F5
:10083000FF9380919B0090919A00887180934B0167
:10084000E0914D01EF5FEF7180914C01E81304C01E
:1008500082E080934B0112C090919C00E0934D0187
:1008600080914B01882331F0F0E0E05BFE4F88E59A
:10087000808304C0F0E0E05BFE4F9083FF91EF9136
:100880009F918F910F900BBE0F900FBE0F901F90F6
:1008900018951F920F920FB60F9211240BB60F925C
:1008A0008F939F93EF93FF9390914F0180914E010F
:1008B000981306C0EAE9F0E080818F7D80830EC046
:1008C00080914E018F5F8F7180934E01E0914E01B8
:1008D000F0E0E059FE4F808180939C00FF91EF9102
:1008E0009F918F910F900BBE0F900FBE0F901F9096
:1008F00018956823442321F0861721F080E008959D
:10090000611180E00895862B08958623089586233B
:100910000895862B809508958627862308956095EF
:100920008623089586270895CF92DF92EF92FF9253
:100930000F931F93FC010081118122813381FB0100
:10094000C080D180E280F380FC01C082D182E2824B
:10095000F382FB0100831183228333831F910F9164
:10096000FF90EF90DF90CF900895FB012081FC0174
:100970002083222339F0DB01119631969D919193CA
:100980009111FCCF0895CF93DF93EC0198819923C7
:1009900099F0FE01319620E030E0492F50E04617F3
:1009A000570731F0DE01A20FB31F9C932F5F3F4F1B
:1009B00091919111F2CF02C020E030E0FE01E20FF0
:1009C000F31F1082DF91CF9108952F923F924F92A3
:1009D0005F926F927F928F929F92AF92BF92CF92CF
:1009E000DF92EF92FF920F931F93CF93DF9300D08C
:1009F00000D0CDB7DEB72C011B014B0177231CF4CF
:100A00002FEF821A920A95948794181419040CF403
:100A100051C06AC09601DD209CF1F50140815181F1
:100A2000F401608171816417750754F58C010A0D1A
:100A30001B1DD401BC82AB82BA82A982EB81FC81EE
:100A40007183608311965C934E932E193F09C2F017
:100A5000F80140815181E981FA8160817181080F3B
:100A6000191FE80FF91FFA83E983EB81FC81E80F76
:100A7000F91FFC83EB83A80FB91F64177507F4F205
:100A8000FFEFCF1ADF0A22E0A20EB11CE2E08E0EC9
:100A9000911CC614D70409F0BDCF4701FF201CF4F8
:100AA000FFEF8F1A9F0A9594879418141904E4F4A1
:100AB000740101C07401821493047CF76401CE18A0
:100AC000DF085601AA0CBB1CA40CB51C880C991C91
:100AD000840C951C31016E187F08C701880F991F7F
:100AE00091958195910996CF0F900F900F900F904F
:100AF000DF91CF911F910F91FF90EF90DF90CF90FA
:100B0000BF90AF909F908F907F906F905F904F902D
:100B10003F902F900895861797070CF4CB01089506
:100B20009B01672B11F408959A01B9010E94CE131D
:100B3000AC01822F932F41155105B1F70895FC01A7
:100B4000908180ED890F8A30D0F4319620E030E03A
:100B5000A901440F551F220F331F220F331F220FED
:100B6000331F420F531F292F30E020533109240F28
:100B7000351F919180ED890F8A3050F302C020E03B
:100B800030E0C901089586230895009739F020E0E8
:100B900030E02F5F3F4F82179307D9F7089587FF03
:100BA00008C0919581959109992791958195910911
:100BB00008958F779927089591FF08C091958195A1
:100BC0009109937091958195910908959170089577
:100BD000615021E030E002C0220F331F6A95E2F736
:100BE000A90141505109B90168237923672B29F0E4
:100BF00084239523821B930B0895842395230895C2
:100C00009DEC899F912D1124969596959695392F57
:100C1000330F232F220F220F230F821B20E1929FDD
:100C2000800D11240895982F92959F70990F292F68
:100C3000220F220F920F8F70890F0895FC01DB01A4
:100C4000A752BE4F1C921616170614F590819111EB
:100C50000CC017C0919191110DC015C081932F5FE9
:100C60003F4F26173707D4F313C0A9EDB1E03196F3
:100C700020E030E09D932F5F3F4F6217730751F7DD
:100C800007C020E030E0F901E752FE4F80E2E6CFF6
:100C900089ED91E008954F925F926F927F92AF92AB
:100CA000BF92CF92DF92EF92FF920F931F93CF9359
:100CB000DF93CDB7DEB729013A019B01AC012419BE
:100CC00035094609570989899A89AB89BC89BC01CC
:100CD000CD016A197B098C099D090E94AB13A801FB
:100CE000970124193509460957090E940314CA01BE
:100CF000B9016A0D7B1D8C1D9D1DDF91CF911F9148
:100D00000F91FF90EF90DF90CF90BF90AF907F90CA
:100D10006F905F904F90089570E06115710599F0A4
:100D200041E050E021E030E090E0FA01E89FA001CE
:100D3000E99F500DF89F500D11242F5F3F4F621710
:100D4000730798F702C041E050E0CA010895FC0122
:100D50002081222341F0319680E090E0019621919C
:100D60002111FCCF089580E090E00895CF93DF93A8
:100D7000EC01EDDF9C012150310962F0FE01E80F2A
:100D8000F91F9291903219F09950923018F4215035
:100D90003109B8F7C20FD31F1982C901DF91CF9172
:100DA0000895CF93DF93EC01D2DF9C0121503109EC
:100DB0001216130684F4DE01A80FB91FFE0180E0AD
:100DC00090E040815E9151934C93019621503109FE
:100DD00082179307B4F3DF91CF9108958F929F927A
:100DE000AF92BF92CF92DF92EF92FF920F931F9339
:100DF000CF93DF936B017C01DC01CB01FF203CF43E
:100E000088279927DC018C199D09AE09BF09BC010F
:100E1000CD0110E00F2EFAE08F2E912CA12CB12CD9
:100E2000F02D01C0102F01E0010FC12FD0E0C752FB
:100E3000DE4FA50194010E940314605D6883622F58
:100E4000732F842F952F161617061806190654F3BC
:100E5000FF2044F4E02FF0E0E752FE4F8DE2808364
:100E600002E0010FE02FF0E0E752FE4F108289ED23
:100E700091E097DF89ED91E0DF91CF911F910F9184
:100E8000FF90EF90DF90CF90BF90AF909F908F90AA
:100E900008950F931F93CF93DF93EC01992324F4CC
:100EA000882799278C1B9D0B20E00AE010E001C0E9
:100EB000232F31E0320FE22FF0E0E752FE4FB8016E
:100EC0000E94CE13805D8083862F972F18161906F7
:100ED0007CF3DD2344F4E32FF0E0E752FE4F8DE294
:100EE000808332E0320FE32FF0E0E752FE4F1082B2
:100EF00089ED91E056DF89ED91E0DF91CF911F916F
:100F00000F910895CF93AC01E0E0C1E0CE0FF0E087
:100F1000E752FE4F9A01ADECBCEC0E942814969566
:100F2000879596958795969587959C01220F331FF7
:100F3000880F991F880F991F880F991F820F931F81
:100F40009A01281B390BC901805D80839A010E9498
:100F50002814AC0156954795569547955695479553
:100F6000EC2F4115510589F6EC2FF0E0E752FE4FCA
:100F7000108289ED91E015DF89ED91E0CF91089520
:100F8000982F92959F70990F292F220F220F920F61
:100F90008F70890F0895AC019C01ADECBCEC0E94F0
:100FA0002814969587959695879596958795BC0173
:100FB000660F771F9C01220F331F220F331F220F52
:100FC000331F260F371F421B530B342F20E1829F04
:100FD000300D1124832F0895CF92DF92EF92FF926C
:100FE000CF93DF93CDB7DEB728970FB6F894DEBF67
:100FF0000FBECDBF6B017C0169837A838B839C8399
:101000002D833E834F835887C216D306E406F50628
:1010100034F4BE016B5F7F4FCE01019685DC8D817C
:101020009E81AF81B885892B8A2B8B2B71F46981C6
:101030007A818B819C8120E030E0A9010E94031419
:10104000611571058105910529F46D817E818F817E
:10105000988505C06D837E838F839887F6CF289609
:101060000FB6F894DEBF0FBECDBFDF91CF91FF90DA
:10107000EF90DF90CF90089590E002C0959587950E
:101080006A95E2F781700895E9EDF1E090E020E8DB
:1010900050E341E3382F322311F0408301C05083E5
:1010A00026959F5F31969830A9F71092E10189ED5E
:1010B00091E00895A42FB0E0109761F021E030E0B6
:1010C000E1E0F0E0EE0FFF1F2F5F3F4FA217B307E5
:1010D000C8F702C0E1E0F0E031976E237F238E2352
:1010E0009F23862797276823792302C0660F771FDF
:1010F0004A95E2F7862B972B0895FC019FB78FB78F
:101100008F778FBF9FBF8CE896E09183808387EABB
:1011100096E09383828381ED96E0958384838AE5CC
:1011200098E09783868389E794E09187808787E8B2
:1011300094E09387828789E894E0958784878CE898
:1011400094E0978786878FE894E0918B808B82E983
:1011500094E0938B828B83E894E0958B848B85E875
:1011600094E0978B868B84E994E0918F808F85EB58
:1011700094E0938F828F83EC94E0958F848F85EE3B
:1011800094E0978F868F89E497E091A380A382E80B
:1011900097E093A382A38EEE96E095A384A386EBBB
:1011A00096E097A386A38BE895E091A780A780E9B6
:1011B00095E093A782A78FE995E095A784A783EC94
:1011C00095E097A786A785EC95E091AB80AB8FEC77
:1011D00095E093AB82AB8CED95E095AB84AB88EE5C
:1011E00095E097AB86AB80E096E091AF80AF83E16E
:1011F00096E093AF82AF8EE196E095AF84AF8BE43B
:1012000096E097AF86AFDF01A05CBF4F80EC97E020
:1012100011969C938E9312968BEC97E011969C936B
:101220008E9312968CEE97E011969C938E93129665
:101230008CE398E011969C938E93129684E498E048
:101240008D939C93CF010895E4E7F0E084EA8083D6
:101250008FEF93E09093EF018093EE0180818823DC
:101260005CF08EEF93E09093EF018093EE0120818C
:10127000222314F00197B8F7089580937300E4E7F0
:10128000F0E084E880838FEF93E09093EF01809308
:10129000EE01808188235CF08EEF93E09093EF0164
:1012A0008093EE012081222314F00197B8F708956E
:1012B00020E4829FC00111248468E4E7F0E0808389
:1012C0008FEF93E09093EF018093EE01808188236C
:1012D0005CF08EEF93E09093EF018093EE0120811C
:1012E000222314F00197B8F780917300089580913C
:1012F0007100887F089584E9809374008FE891E0FD
:101300000197F1F700C00000089591B3936091BB7D
:1013100092B3936092BB843079F018F4813031F04D
:101320001DC0803179F0803499F018C0E1E7F0E019
:1013300090819C7F908318C0E1E7F0E090819160FC
:10134000908312C0E1E7F0E09081926090830CC03E
:10135000E1E7F0E090819360908306C0E1E7F0E080
:1013600080818C7F808381E0282F30E0220F331F23
:10137000032E000C440B550B60E970E080E090E018
:101380000E94E1132093700008951F93CF93DF9381
:10139000EC01862F1FB79FB79F779FBFB6DF1FBF98
:1013A00084E299E0998388838BE799E09B838A8321
:1013B0008DE399E09D838C8388E599E09F838E83FC
:1013C00087E799E099878887CE01DF91CF911F91B8
:1013D0000895CF93DF9300D000D01F92CDB7DEB732
:1013E00085E0EDE2F2E0DE01119601900D928A9522
:1013F000E1F729813A814B815C816D8170E080E069
:1014000090E00F900F900F900F900F90DF91CF9181
:101410000895EDE2F2E080E2808381E291E0928340
:101420008183948383830895CF93DF9321E080E0C9
:10143000A2EFB1E0E6EFF1E060E071E001C02F5F04
:101440009FEF920F913009F44BC038F0923009F4BD
:101450008CC0933009F4CEC00EC14091FD01509173
:10146000FE01EA019881906898834091F0015091C3
:10147000F101EA0198819F7798834091FB01509197
:10148000FC01EA01388134773C939081432F49274E
:1014900094233083992399F0943019F4EB018881D7
:1014A0000AC0903119F4EB01898109C0903219F416
:1014B000EB018A8104C0903411F4EB018B814091DF
:1014C000FD015091FE01EA0198819F779883409138
:1014D000F0015091F101EA01988190689883AFCFB3
:1014E0004091FD015091FE01EA019881916098833D
:1014F0004091F0015091F101EA0198819E7F98831B
:101500004091FB015091FC01EA013881347711963A
:101510003C9311979181432F492794233183992339
:1015200099F0943019F4EB018C810AC0903119F4D0
:10153000EB018D8109C0903219F4EB018E8104C05A
:10154000903411F4EB018F814091FD015091FE0127
:10155000EA0198819E7F98834091F0015091F101BA
:10156000EA019881916098836ACF4091FD01509182
:10157000FE01EA019881926098834091F0015091B8
:10158000F101EA0198819D7F98834091FB01509180
:10159000FC01EA013881347712963C9312979281CC
:1015A000432F492794233283992399F0943019F4D7
:1015B000EB0188850AC0903119F4EB01898509C0D7
:1015C000903219F4EB018A8504C0903411F4EB01D8
:1015D0008B854091FD015091FE01EA0198819D7F2C
:1015E00098834091F0015091F101EA019881926055
:1015F000988325CFE091FD01F091FE0190819860E4
:101600009083E091F001F091F1019081977F9083B8
:10161000E091FB01F091FC01208124772093F501FA
:10162000E6EFF1E09381322F392793232383992327
:1016300099F0943019F480910C010AC0903119F49A
:1016400080910D0109C0903219F480910E0104C0FF
:10165000903411F480910F01E091FD01F091FE01B1
:101660009081977F9083E091F001F091F10190815A
:101670009860908303C0243008F4E1CEDF91CF91CD
:101680000895CF93DF9300D000D01F92CDB7DEB77F
:10169000CBDE8823B1F180932D029091FA01943131
:1016A00088F4E091FA01F0E0E150FE4F80839091E0
:1016B000FA019F5F9093FA01E091FA01F0E0E150A6
:1016C000FE4F1082843499F4E091FA01F0E0E25088
:1016D000FE4F10821092FA01EDE2F2E081E291E019
:1016E000928381838FEF91E0948383830AC0EDE23C
:1016F000F2E08FEF91E09283818381E291E0948325
:10170000838385E0EDE2F2E0DE01119601900D9217
:101710008A95E1F729813A814B815C816D8170E086
:1017200080E090E00F900F900F900F900F90DF915E
:10173000CF910895CF93DF93CDB7DEB728970FB63B
:10174000F894DEBF0FBECDBFFC012FB780E28093BF
:101750002D029FB79F779FBFF093FE01E093FD019D
:101760007093FC016093FB015093F1014093F001F1
:101770008BE88083E091F001F091F10184E78083B0
:10178000A2EFB1E08C93E6EFF1E0808311968C93A9
:101790001197818312968C931297828313968C9360
:1017A00083831092FA012FBFE091F001F091F101D3
:1017B00080818B68808324E13AE03A83298341E485
:1017C0005BE05C834B8369EE79E07E836D8389E027
:1017D0009AE098878F833A815C817E8198852896EC
:1017E0000FB6F894DEBF0FBECDBFDF91CF91089545
:1017F000E0911E02F0911F0290819D7F9083672BE4
:1018000041F0E0911E02F0911F029081916090835F
:1018100007C0E0911E02F0911F0290819E7F90838D
:10182000E0911B02F0911C029081906F9083E091F7
:101830001E02F0911F02908194609083882344F4EB
:10184000E0911E02F0911F0290819068908307C082
:10185000E0911E02F0911F0290819F77908386FF96
:1018600008C0E0911E02F0911F0290819064908365
:1018700007C0E0911E02F0911F0290819F7B908330
:1018800085FF08C0E0911E02F0911F0290819062D6
:10189000908307C0E0911E02F0911F0290819F7D0E
:1018A000908384FF08C0E0911E02F0911F02908196
:1018B0009061908307C0E0911E02F0911F02908119
:1018C0009F7E9083E0911E02F0911F0290819B7F8A
:1018D0009083E0911E02F0911F02908194609083AA
:1018E00083FF08C0E0911E02F0911F029081906872
:1018F000908307C0E0911E02F0911F0290819F77B4
:10190000908382FF08C0E0911E02F0911F02908137
:101910009064908307C0E0911E02F0911F029081B5
:101920009F7B908381FF08C0E0911E02F0911F020F
:1019300090819062908307C0E0911E02F0911F0297
:1019400090819F7D908380FF08C0E0911E02F091FE
:101950001F0280818061808307C0E0911E02F091A8
:101960001F0280818F7E8083E0911E02F0911F0212
:1019700080818B7F80830895E0911B02F0911C028F
:1019800020812F702083E0911E02F0911F022081A0
:10199000206F2083E0911E02F0911F0220812260BF
:1019A0002083892B41F0E0911E02F0911F0280817B
:1019B0008160808307C0E0911E02F0911F02808148
:1019C0008E7F8083E0911E02F0911F0280818460EF
:1019D0008083E0911402F09115028081882314F035
:1019E00080E001C080E8908196FF02C0806401C061
:1019F0008F7B908195FF02C0806201C08F7D9081B6
:101A000094FF02C0806101C08F7EE0911E02F091C0
:101A10001F0290819B7F9083E0911E02F0911F0234
:101A2000908194609083E0911402F091150290816E
:101A3000992314F4886001C0877F908196FF02C0CB
:101A4000846001C08B7F908195FF02C0826001C0DD
:101A50008D7F908194FF02C0816001C08E7FE091F4
:101A60001E02F0911F0290819B7F90830895CF9377
:101A7000DF9380E090E080DFCBE0D0E005C080E045
:101A800090E07ADF219711F08823CCF3DF91CF919A
:101A9000089561E070E0ACDEEACF0895CF9381E075
:101AA00090E06ADFC82FE3DF8C2FCF910895CF93AA
:101AB000DF93EC018881882341F0219661E070E09A
:101AC00097DED5DF89918111F9CFDF91CF9108950C
:101AD0000F931F93CF93DF93FC01D62F8081882330
:101AE00051F08F010F5F1F4F611109C01BC0CF5F05
:101AF000DC1730F401C0C0E0CD1760F013C0C1E0C6
:101B000061E070E075DEB3DFF80181918F01811132
:101B1000EECFF2CFCF5F61E070E080E269DEA7DF59
:101B2000CD17C0F3DF91CF911F910F910895CF93FF
:101B3000C82F882339F061E070E080E259DE97DF3A
:101B4000C150C9F7CF910895262F8130910571F0CA
:101B500030F08230910589F00397B1F0089560E08C
:101B600070E080E8820F44DE82CF089560E070E08C
:101B700080EC820F3DDE7BCF089560E070E084E969
:101B8000820F36DE74CF089560E070E084ED820F3E
:101B90002FDE6DCF089560E070E081E029DE87EEF2
:101BA00097E10197F1F700C000000895E0911B0252
:101BB000F0911C0287E08083E0911E02F0911F02E9
:101BC00088E080832FEF83EF91E0215080409040A8
:101BD000E1F700C0000060E070E083E309DE20ED83
:101BE0002A95F1F760E070E083E302DE80ED8A95EC
:101BF000F1F760E070E08BE2FBDD95EC9A95F1F790
:101C0000000060E070E08CE0F3DD25EC2A95F1F750
:101C1000000060E070E081E0EBDD87EE97E1019786
:101C2000F1F700C0000060E070E086E0E1DD95ECD7
:101C30009A95F1F7000008951F93CF93DF93EC017D
:101C40001FB78FB78F778FBF70931C0260931B02F3
:101C5000509315024093140230931F0220931E02EA
:101C6000FB011082E0911E02F0911F028FEF808332
:101C7000E0911402F09115028081887080931D021A
:101C800095DF1FBF88EF9BE0998388838CEB9CE0F6
:101C90009B838A8387E39DE09D838C8389E49DE019
:101CA0009F838E838EE49DE09987888787E59DE0FA
:101CB0009B878A8788E69DE09D878C8787E99DE0E2
:101CC0009F878E878BEC9DE0998B888B84EA9DE0C3
:101CD0009B8B8A8B83E79EE09D8B8C8BCE01DF9163
:101CE000CF911F910895CF93E0911402F0911502C6
:101CF000C081C87080911D028C278C2309F056DFAB
:101D0000C0931D02CF910895FF920F931F93CF931D
:101D1000DF93182F062FF42EC3E4D2E0E881F98177
:101D20000995EC81FD8182EA0995EC81FD8182E0D3
:101D30000995EC81FD818F2D0995EC81FD81802F26
:101D40000995EC81FD81812F0995EA81FB81099537
:101D5000DF91CF911F910F91FF9008951F93CF9323
:101D6000DF93882321F06370162F106801C010E004
:101D7000C3E4D2E0E881F9810995EC81FD8182EA32
:101D80000995EC81FD818DE00995EC81FD81812F24
:101D90000995EA81FB810995DF91CF911F91089503
:101DA000EF92FF920F931F93CF93DF93E82EF62EBF
:101DB000042F122FC3E4D2E0E881F9810995EC8168
:101DC000FD8182EA0995EC81FD8185E00995EC8130
:101DD000FD818E2D0995EC81FD818F2D0995EC817A
:101DE000FD81802F0995EC81FD81812F0995EA8184
:101DF000FB810995DF91CF911F910F91FF90EF909B
:101E00000895FF920F931F93CF93DF93C3E4D2E023
:101E1000E881F9810995EC81FD8182EA0995EC81DF
:101E2000FD8182E00995EA81FB810995E881F981CC
:101E30000995EC81FD8183EA0995EE81FF8181E0BE
:101E40000995F82EEE81FF8181E00995182FEE812A
:101E5000FF8180E00995082FEA81FB810995602FB9
:101E60006F73712F7F778F2D8F77DF91CF911F91B8
:101E70000F91FF900895EF92FF920F931F93CF93CE
:101E8000DF93C3E4D2E0E881F9810995EC81FD811B
:101E900082EA0995EC81FD8185E00995EA81FB8163
:101EA0000995E881F9810995EC81FD8183EA09951D
:101EB000EE81FF8181E00995082FEE81FF8181E0AD
:101EC0000995F82EEE81FF8181E00995182FEE81AA
:101ED000FF8180E00995E82EEA81FB810995712F49
:101EE0007F716E2D8F2D8770902F9F73DF91CF9113
:101EF0001F910F91FF90EF900895982F92959F70EA
:101F0000990F292F220F220F920F8F70890F08959A
:101F10009DEC899F912D1124969596959695392F34
:101F2000330F232F220F220F230F821B20E1929FBA
:101F3000800D11240895CF93DF93C3E4D2E0E881AC
:101F4000F9810995EC81FD8182EA0995EC81FD8199
:101F500080E00995EC81FD8180E00995EA81FB81B3
:101F60000995DF91CF910895FF920F931F93CF931F
:101F7000DF93CDB7DEB72A970FB6F894DEBF0FBE5A
:101F8000CDBF8C01FFB68FB78F778FBFCE01019683
:101F9000FCD98AE0FE013196A3E4B2E001900D92F3
:101FA0008A95E1F7C8DFFFBE84E89EE0F8019183DF
:101FB00080838EEA9EE09383828380ED9EE095830A
:101FC000848381E09FE0978386838BE39FE0918702
:101FD00080878DE79FE09387828788E89FE09587D9
:101FE0008487C8012A960FB6F894DEBF0FBECDBF16
:101FF000DF91CF911F910F91FF9008951092610092
:102000008FE08093620012B88FEF83B911BA82BB60
:1020100084BB15BA87B3806E87BB0895CF93DF93D7
:10202000CDB7DEB7C45CD1090FB6F894DEBF0FBEE2
:10203000CDBFE4DFCE01849660D826962EAD3FADAD
:102040002697C154DF4F39832883CF5BD040289631
:102050008EAD9FAD2897CB54DF4F99838883C55BA6
:10206000D040A496EEADFFADA497C554DF4FF983E1
:10207000E883CB5BD0402BE330E049E350E06AE3F8
:1020800070E0CE0182599F4FD7DDE6966EAC7FACF3
:10209000E697EC962EAC3FACEC97C258DF4F288108
:1020A0003981CE57D040CF53DF4F39832883C15C6D
:1020B000D040C058DF4F88809980C058D04043E25C
:1020C00050E061E270E082E290E034DBCA57DF4F1B
:1020D0004883C658D040C957DF4F5883C758D040AF
:1020E000C857DF4F6883C858D040C757DF4F788341
:1020F000C958D040C657DF4F8883CA58D040C5570B
:10210000DF4F9883CB58D040C857DF4F4880598065
:10211000C858D040C657DF4F88819981CA58D040EF
:10212000C754DF4F99838883C95BD0401F921F92A9
:102130001F9281E08F9390E89F938F930E948B0072
:10214000CD53DF4F99838883C35CD04040E069E082
:10215000CE0184579F4F0E943F02CC56DF4FE8814B
:10216000F981C459D040C354DF4FF983E883CD5B74
:10217000D04060E1CE0184569F4FF6DECA55DF4F56
:1021800028813981C65AD040C954DF4F398328830A
:10219000C75BD04080E390E0C655DF4F99838883CA
:1021A000CA5AD040C455DF4F19821882CC5AD04049
:1021B00089E390E3C255DF4F99838883CE5AD0409C
:1021C000C055DF4F19821882C05BD040C257DF4F25
:1021D000E881F981CE58D04082E00995CE56DF4F94
:1021E000E881F981C259D04080E29EE40995C85641
:1021F000DF4FE881F981C859D04088E090E0099527
:10220000C256DF4FE881F981CE59D04062E081E0CB
:1022100009950F900F900F900F900F900F9031E352
:10222000CE54DF4F3883C25BD040CE57DF4FE881BA
:10223000F981C258D0400995CA57DF4FE881F9812A
:10224000C658D040099560E070E083E090E0F4016A
:102250000995F2010995822FF30109956AE070E072
:1022600083E090E0F4010995F20109953B8F4C8FD2
:102270006AE08B8D9C8DF1010995CE54DF4FF8817A
:10228000C25BD040F23309F48CC0F33309F41AC1B5
:10229000F13309F0F9C1F2010995588F698F60E1B6
:1022A00071E0888D998DEDD2892BD1F4C255DF4F25
:1022B0001882CE5AD040CF53DF4FE881F981C15CFC
:1022C000D0400995C754DF4FE881F981C95BD04000
:1022D0000995F2E3CE54DF4FF883C25BD04034C29D
:1022E00080E090E0CD53DF4FE881F981C35CD040BE
:1022F0000995CD54DF4F99838883C35BD040BC01DF
:10230000990F880B990B1F921F92F9E0FF9322E916
:102310002F930F2EF2ECAF2EBB24B394C12CD12CF3
:10232000F02DEE24EA9413E0F12E00E010E020E01E
:1023300030E0A901C554DF4FE881F981CB5BD04083
:102340000995CB01C354DF4FE881F981CD5BD040C3
:10235000099560E070E080E090E0F401099567E0A5
:1023600082E191E0F1010995CD54DF4F8881998197
:10237000C35BD040C154DF4FE881F981CF5BD040CF
:102380000995BC01CE0186559F4F84D264E0CE01F1
:1023900086559F4FF10109950F900F900F900F9068
:1023A000D3C1F20109955B8B6C8B60E171E08B8985
:1023B0009C8967D2892BA9F4CF53DF4FE881F9813B
:1023C000C15CD0400995C754DF4FE881F981C95BF2
:1023D000D0400995F3E3CE54DF4FF883C25BD04081
:1023E000B3C160E070E080E090E0F401099567E03F
:1023F0008AE191E0F101099564E0CE0182559F4F99
:10240000F1010995F2010995243409F09DC1F20109
:10241000099559876A8769857A85CE0182559F4FCC
:1024200039D26296EEADFFAD6297CE0182559F4FD5
:102430000995853B910570F5BC01990F880B990BA7
:102440001F921F92F9E0FF9322E92F930F2EF2ECD7
:10245000AF2EBB24B394C12CD12CF02D14EBE12E64
:10246000F12C00E010E020E030E0A901C554DF4F7E
:10247000E881F981CB5BD0400995CB01C354DF4F94
:10248000E881F981CD5BD04009950F900F900F90B6
:102490000F9010C025E632E7C255DF4F39832883FD
:1024A000CE5AD04082E790E0C055DF4F99838883B1
:1024B000C05BD040C754DF4FE881F981C95BD04091
:1024C000099542C1F20109955C836D8360E171E079
:1024D0008C819D81D6D1892BA9F4CF53DF4FE88120
:1024E000F981C15CD0400995C754DF4FE881F9817B
:1024F000C95BD0400995F1E3CE54DF4FF883C25B4E
:10250000D04022C1CE55DF4FE881F981C25AD04078
:10251000099560934D0270934E0280934F0260E0E4
:1025200070E081E090E0F4010995EDE4F2E0808153
:10253000C954DF4FE881F981C75BD040099590E02D
:10254000CB54DF4FE881F981C55BD040099562E04B
:10255000F10109958AE3F301099580914E02C9546E
:10256000DF4FE881F981C75BD040099590E0CB54FB
:10257000DF4FE881F981C55BD040099562E0F10148
:1025800009958AE3F301099580914F02C954DF4F01
:10259000E881F981C75BD040099590E0CB54DF4FCB
:1025A000E881F981C55BD040099562E0F1010995A8
:1025B000EE96EEADFFADEE9787E0099580914F0264
:1025C00090E0CB54DF4FE881F981C55BD04009959D
:1025D00062E0F1010995CC55DF4FE881F981C45AD9
:1025E000D04009956093500270935102809352023B
:1025F0009093530260E070E082E090E0F40109956E
:1026000080915302C954DF4FE881F981C75BD04004
:10261000099590E0CB54DF4FE881F981C55BD0404C
:10262000099562E0F10109958AE3F301099580912A
:102630005102C954DF4FE881F981C75BD040099549
:1026400090E0CB54DF4FE881F981C55BD04009951C
:1026500062E0F10109958AE3F3010995E0E5F2E012
:102660008081C954DF4FE881F981C75BD04009956B
:1026700090E0CB54DF4FE881F981C55BD0400995EC
:1026800062E0F101099560C080E090E0CD53DF4F3A
:10269000E881F981C35CD0400995CD54DF4F99831F
:1026A0008883C35BD040BC01990F880B990B1F92A4
:1026B0001F92F9E0FF9322E92F930F2EF2ECAF2E39
:1026C000BB24B394C12CD12CF02DEE24EA9413E05A
:1026D000F12E00E010E020E030E0A901C554DF4F0A
:1026E000E881F981CB5BD0400995CB01C354DF4F22
:1026F000E881F981CD5BD040099560E070E080E031
:1027000090E0F401099567E082E191E0F10109951B
:10271000CD54DF4F88819981C35BD040C154DF4FD6
:10272000E881F981CF5BD0400995BC01CE01865587
:102730009F4FB0D064E0CE0186559F4FF1010995BF
:102740000F900F900F900F906CE070E080E090E0A1
:10275000F40109956ACDDB018F939F9388D0BF91D7
:10276000AF91A29F800D911DA39F900DB29F900DE0
:1027700011240895AA1BBB1B51E107C0AA1FBB1F50
:10278000A617B70710F0A61BB70B881F991F5A95FD
:10279000A9F780959095BC01CD01089597FB072E70
:1027A00016F4009406D077FD08D0E4DF07FC05D0CE
:1027B0003EF4909581959F4F0895709561957F4F58
:1027C0000895A1E21A2EAA1BBB1BFD010DC0AA1F72
:1027D000BB1FEE1FFF1FA217B307E407F50720F08A
:1027E000A21BB30BE40BF50B661F771F881F991F05
:1027F0001A9469F760957095809590959B01AC014E
:10280000BD01CF010895052E97FB16F400940FD05B
:1028100057FD05D0D6DF07FC02D046F408C050951E
:102820004095309521953F4F4F4F5F4F08959095BC
:102830008095709561957F4F8F4F9F4F0895EE0F54
:10284000FF1F0024001C0BBE0790F691E02D099499
:10285000A29FB001B39FC001A39F700D811D1124E1
:10286000911DB29F700D811D1124911D0895F0DFFF
:10287000A59F900DB49F900DA49F800D911D1124D4
:102880000895FB01DC018D91019080190110D9F3AD
:10289000990B0895FB01DC0101900D920020E1F7F6
:0628A0000895F894FFCF3B
:1028A6003132334134353642373839432A302344BE
:1028B600410053656E736F723A004D616E75616CBF
:0228C6003A00D6
:00000001FF
