:1000000067C0000084C0000082C0000080C0000003
:100010007EC000007CC000007AC0000078C00000F4
:1000200076C0000074C0000063C300002FC300004E
:1000300037C300003FC3000051C3000068C0000088
:100040001BC3000064C000008FC30000C5C30000D4
:100050005EC00000FDC000005AC0000058C0000093
:1000600033C300004FC3000057C300005FC300004C
:1000700067C300006FC30000D8C3000011C40000B4
:1000800046C0000044C0000042C000005D026102A2
:10009000650269026D0274027B02820286028D0291
:1000A00094029B029F02A602AD02C902CD02D102B8
:1000B000D502DB02DF02E302E702F002F402F802FB
:1000C0000103E414DB153E16A11604176717CA17BF
:1000D00011241FBECFEFD0E1DEBFCDBF11E0A0E005
:1000E000B1E0E8ECF1E300E00BBF02C007900D9235
:1000F000A838B107D9F722E0A8E8B1E001C01D9205
:10010000AB3BB207E1F70E94ED100C94E21878CFF8
:10011000369B369AFC01EE0FFF1FEF55FE4F808194
:10012000918108950F931F93CF93DF93CDB7DEB7DF
:100130009F81688549855A851FB78FB78F778FBF95
:100140005093900140938F0110928E0110928D0177
:100150001092880187B18F7387B9913019F093306D
:1001600021F008C03E9A01E006C087B1806C87B9D3
:1001700003E001C000E03D98141615068CF4DE0182
:100180001B9680E090E02D913D91FC01EE0FFF1F4A
:10019000EF56FE4F3183208301964817590799F790
:1001A00087B1807E87B9E0918D01F0918E01EE0FCD
:1001B000FF1FEF56FE4F8081918127B18F719927E4
:1001C000822B87B9379A369A3598339A86B1887FC9
:1001D00086B96031D1F038F4643079F0683081F05C
:1001E000623029F507C06034C1F06038D9F0603260
:1001F000F1F40EC0309A22E01EC0319A24E01BC0F8
:1002000086B1836086B928E016C0329A20E113C017
:1002100086B1856086B920E20EC086B1866086B957
:1002200020E409C086B1876086B920E804C086B1A1
:10023000876086B920E81FBF8FB780688FBF602FA7
:10024000722F88E890E0DF91CF911F910F91089570
:100250001F920F920FB60F9211240BB60F922F938D
:100260003F938F939F93EF93FF9384B190E090938C
:100270008A018093890125B18091890190918A0139
:10028000922B90938A018093890180918801843018
:10029000A0F4809188018F5F80938801209189016B
:1002A00030918A0180918B0190918C01820F931F74
:1002B00090938C0180938B0143C0E0918D01F0916C
:1002C0008E0180918B0190918C01959587959595E4
:1002D0008795EE0FFF1FEF55FE4F9183808310929D
:1002E0008C0110928B011092880120918D01309128
:1002F0008E0180918F01909190012817390754F455
:1003000080918D0190918E01019690938E01809342
:100310008D0104C010928E0110928D0187B1807EF4
:1003200087B9E0918D01F0918E01EE0FFF1FEF561E
:10033000FE4F8081918127B18F719927822B87B9D8
:10034000FF91EF919F918F913F912F910F900BBE55
:100350000F900FBE0F901F90189520913B02211116
:1003600042C02FEF3FEF3BBD2ABD2EB5287F2EBDEB
:1003700088309105D1F048F48330910531F1853012
:10038000910539F1019749F50CC0811521E09207DB
:10039000A1F0811524E09207A1F080349105E9F4E1
:1003A00008C08EB581608EBD1BC08EB582608EBDCB
:1003B00017C08EB583608EBD13C08EB584608EBDB0
:1003C0000FC08EB585608EBD0BC08EB586608EBDAC
:1003D00007C08EB587608EBD03C08EB585608EBDAB
:1003E00081E080933B0208959FB59F739FBD82304B
:1003F00041F0833051F0813059F48FB580648FBD66
:1004000008958FB580688FBD08958FB5806C8FBDBE
:1004100008959FB59F7C9FBD823041F0833051F09D
:10042000813059F48FB580618FBD08958FB580629A
:100430008FBD08958FB580638FBD08959FB5937F5D
:100440009FBD823041F0833051F0813059F48FB537
:1004500084608FBD08958FB588608FBD08958FB576
:100460008C608FBD08959BBD8ABD089599BD88BDE0
:100470000895909379008093780008958EB5887FD1
:100480008EBD1DBC1CBC10923B0208950F931F93A0
:10049000DC0110923B028FB58C7F8FBD8EB5877EBD
:1004A0008EBD062F10E0F8013197EF30F10508F00E
:1004B0005AC0EA5BFF4F0C94A1188FB581608FBDC5
:1004C00052C08FB582608FBD4EC08FB583608FBD27
:1004D0004AC08EB588608EBD46C08FB581608FBD25
:1004E0008EB588608EBD3FC08FB582608FBD8EB5E2
:1004F00088608EBD38C08FB583608FBD8EB5886033
:100500008EBD31C08EB580618EBD2DC08FB581602E
:100510008FBD8EB580618EBD26C08FB582608FBDC8
:100520008EB580618EBD1FC08FB583608FBD8EB5C7
:1005300080618EBD18C08EB588618EBD14C08FB528
:1005400081608FBD8EB588618EBD0DC08FB5826014
:100550008FBD8EB588618EBD06C08FB583608FBD9F
:100560008EB588618EBD8FB583708FBD87B7837C54
:1005700087BFEDE7F0E080818E7F808350E0FA0155
:100580003197EC30F10508F044C0EB5AFF4F0C9462
:10059000A11887B7846087BF3CC087B7806187BFD9
:1005A00038C087B7886087BF34C0EDE7F0E080814E
:1005B000816080832EC087B7806287BF2AC087B7DB
:1005C000846187BF26C087B78C6087BF22C087B78A
:1005D000846087BFEDE7F0E080818160808319C08F
:1005E00087B7846287BF15C087B78C6187BF11C08A
:1005F00087B78C6187BFEDE7F0E080818160808301
:1006000008C087B7886187BFEDE7F0E0808181602F
:10061000808384EF91E011969C938E9389E092E021
:1006200013969C938E9312978EE192E015969C936D
:100630008E93149783E392E017969C938E9316976C
:1006400086E392E019969C938E93189789E392E043
:100650001B969C938E931A978DEA91E01D969C931E
:100660008E931C978EE392E01F969C938E931E9719
:10067000CD011F910F9108951F920F920FB60F9207
:1006800011240F900FBE0F901F9018951F920F927C
:100690000FB60F9211240F900FBE0F901F90189558
:1006A0001F920F920FB60F9211240F900FBE0F9052
:1006B0001F9018951F920F920FB60F9211240F9052
:1006C0000FBE0F901F9018951F920F920FB60F92AA
:1006D00011240F900FBE0F901F9018951F920F922C
:1006E0000FB60F9211240F900FBE0F901F90189508
:1006F0001F920F920FB60F9211240F900FBE0F9002
:100700001F9018951F920F920FB60F9211240F9001
:100710000FBE0F901F9018951F920F920FB60F9259
:1007200011240F900FBE0F901F9018951F920F92DB
:100730000FB60F9211240F900FBE0F901F901895B7
:100740001F920F920FB60F9211240F900FBE0F90B1
:100750001F9018951F920F920FB60F9211240F90B1
:100760000FBE0F901F9018951F920F920FB60F9209
:1007700011240BB60F928F939F93EF93FF938BB13E
:100780009AB188718093F601E091F801EF5FEF7103
:100790008091F701E81304C082E08093F60111C054
:1007A0009CB1E093F8018091F601882331F0F0E0EC
:1007B000E550FE4F88E5808304C0F0E0E550FE4F31
:1007C0009083FF91EF919F918F910F900BBE0F90AF
:1007D0000FBE0F901F9018951F920F920FB60F9299
:1007E00011240BB60F928F939F93EF93FF939091E9
:1007F000FA018091F901981302C055980BC0E0915D
:10080000F901EF5FEF71E093F901F0E0E55EFD4F74
:1008100080818CB9FF91EF919F918F910F900BBECA
:100820000F900FBE0F901F9018951F920F920FB64A
:100830000F9211240BB60F928F939F93EF93FF9318
:1008400080919B0090919A0088718093B101E09112
:10085000B301EF5FEF718091B201E81304C082E051
:100860008093B10112C090919C00E093B3018091FC
:10087000B101882331F0F0E0EA54FE4F88E580832F
:1008800004C0F0E0EA54FE4F9083FF91EF919F91F6
:100890008F910F900BBE0F900FBE0F901F90189569
:1008A0001F920F920FB60F9211240BB60F928F93D7
:1008B0009F93EF93FF939091B5018091B4019813AA
:1008C00006C0EAE9F0E080818F7D80830EC08091D0
:1008D000B4018F5F8F718093B401E091B401F0E0B7
:1008E000EA52FE4F808180939C00FF91EF919F918F
:1008F0008F910F900BBE0F900FBE0F901F90189509
:100900006823442321F0861721F080E008956111C7
:1009100080E00895862B0895862308958623089500
:10092000862B8095089586278623089560958623D3
:10093000089586270895CF92DF92EF92FF920F934A
:100940001F93FC010081118122813381FB01C08052
:10095000D180E280F380FC01C082D182E282F38206
:10096000FB0100831183228333831F910F91FF903A
:10097000EF90DF90CF900895FB012081FC01208350
:10098000222339F0DB01119631969D9191939111BB
:10099000FCCF0895CF93DF93EC019881992399F0D0
:1009A000FE01319620E030E0492F50E0461757070E
:1009B00031F0DE01A20FB31F9C932F5F3F4F919147
:1009C0009111F2CF02C020E030E0FE01E20FF31FF0
:1009D0001082DF91CF9108952F923F924F925F92B4
:1009E0006F927F928F929F92AF92BF92CF92DF923F
:1009F000EF92FF920F931F93CF93DF9300D000D01D
:100A0000CDB7DEB72C011B014B0177231CF42FEF70
:100A1000821A920A95948794181419040CF451C000
:100A20006AC09601DD209CF1F50140815181F401FD
:100A3000608171816417750754F58C010A0D1B1DC7
:100A4000D401BC82AB82BA82A982EB81FC81718322
:100A5000608311965C934E932E193F09C2F0F80102
:100A600040815181E981FA8160817181080F191FEC
:100A7000E80FF91FFA83E983EB81FC81E80FF91F86
:100A8000FC83EB83A80FB91F64177507F4F2FFEF1F
:100A9000CF1ADF0A22E0A20EB11CE2E08E0E911CFA
:100AA000C614D70409F0BDCF4701FF201CF4FFEFA7
:100AB0008F1A9F0A9594879418141904E4F474010A
:100AC00001C07401821493047CF76401CE18DF081E
:100AD0005601AA0CBB1CA40CB51C880C991C840CD8
:100AE000951C31016E187F08C701880F991F9195D9
:100AF0008195910996CF0F900F900F900F90DF91F5
:100B0000CF911F910F91FF90EF90DF90CF90BF900A
:100B1000AF909F908F907F906F905F904F903F909D
:100B20002F900895861797070CF4CB0108959B0129
:100B3000672B11F408959A01B9010E945018AC0175
:100B4000822F932F41155105B1F70895FC01908133
:100B500080ED890F8A30D0F4319620E030E0A90191
:100B6000440F551F220F331F220F331F220F331F35
:100B7000420F531F292F30E020533109240F351F16
:100B8000919180ED890F8A3050F302C020E030E06F
:100B9000C901089586230895009739F020E030E0D8
:100BA0002F5F3F4F82179307D9F7089587FF08C03B
:100BB000919581959109992791958195910908952C
:100BC0008F779927089591FF08C091958195910994
:100BD0009370919581959109089591700895615050
:100BE00021E030E002C0220F331F6A95E2F7A9012D
:100BF00041505109B90168237923672B29F08423D7
:100C00009523821B930B08958423952308959DECCF
:100C1000899F912D1124969596959695392F330F8E
:100C2000232F220F220F230F821B20E1929F800D82
:100C300011240895982F92959F70990F292F220FB4
:100C4000220F920F8F70890F0895FC01DB01A15CC8
:100C5000BD4F1C921616170614F5908191110CC009
:100C600017C0919191110DC015C081932F5F3F4F17
:100C700026173707D4F313C0AFE3B2E0319620E074
:100C800030E09D932F5F3F4F6217730751F707C006
:100C900020E030E0F901E15CFD4F80E2E6CF8FE338
:100CA00092E008954F925F926F927F92AF92BF92BF
:100CB000CF92DF92EF92FF920F931F93CF93DF9328
:100CC000CDB7DEB729013A019B01AC0124193509E2
:100CD0004609570989899A89AB89BC89BC01CD012C
:100CE0006A197B098C099D090E942D18A80197019A
:100CF00024193509460957090E948518CA01B90106
:100D00006A0D7B1D8C1D9D1DDF91CF911F910F9151
:100D1000FF90EF90DF90CF90BF90AF907F906F905B
:100D20005F904F90089570E06115710599F041E072
:100D300050E021E030E090E0FA01E89FA001E99F57
:100D4000500DF89F500D11242F5F3F4F621773070E
:100D500098F702C041E050E0CA010895FC012081EB
:100D6000222341F0319680E090E0019621912111FB
:100D7000FCCF089580E090E00895CF93DF93EC01DD
:100D8000EDDF9C012150310962F0FE01E80FF91FEF
:100D90009291903219F09950923018F42150310903
:100DA000B8F7C20FD31F1982C901DF91CF910895FF
:100DB000CF93DF93EC01D2DF9C0121503109121651
:100DC000130684F4DE01A80FB91FFE0180E090E055
:100DD00040815E9151934C930196215031098217C5
:100DE0009307B4F3DF91CF9108958F929F92AF92C2
:100DF000BF92CF92DF92EF92FF920F931F93CF9308
:100E0000DF936B017C01DC01CB01FF203CF48827E0
:100E10009927DC018C199D09AE09BF09BC01CD01E0
:100E200010E00F2EFAE08F2E912CA12CB12CF02D7A
:100E300001C0102F01E0010FC12FD0E0C15CDD4FD8
:100E4000A50194010E948518605D6883622F732F4D
:100E5000842F952F161617061806190654F3FF202F
:100E600044F4E02FF0E0E15CFD4F8DE2808302E08E
:100E7000010FE02FF0E0E15CFD4F10828FE392E084
:100E800097DF8FE392E0DF91CF911F910F91FF9059
:100E9000EF90DF90CF90BF90AF909F908F9008958C
:100EA0000F931F93CF93DF93EC01992324F48827AA
:100EB00099278C1B9D0B20E00AE010E001C0232F36
:100EC00031E0320FE22FF0E0E15CFD4FB8010E940B
:100ED0005018805D8083862F972F181619067CF393
:100EE000DD2344F4E32FF0E0E15CFD4F8DE28083ED
:100EF00032E0320FE32FF0E0E15CFD4F10828FE330
:100F000092E056DF8FE392E0DF91CF911F910F9136
:100F10000895CF93AC01E0E0C1E0CE0FF0E0E15CDA
:100F2000FD4F9A01ADECBCEC0E94AA1896958795EE
:100F300096958795969587959C01220F331F880F6C
:100F4000991F880F991F880F991F820F931F9A016D
:100F5000281B390BC901805D80839A010E94AA1861
:100F6000AC01569547955695479556954795EC2F64
:100F70004115510589F6EC2FF0E0E15CFD4F108240
:100F80008FE392E015DF8FE392E0CF910895982FE1
:100F900092959F70990F292F220F220F920F8F7019
:100FA000890F0895AC019C01ADECBCEC0E94AA181D
:100FB000969587959695879596958795BC01660F2A
:100FC000771F9C01220F331F220F331F220F331F65
:100FD000260F371F421B530B342F20E1829F300D09
:100FE0001124832F0895CF92DF92EF92FF92CF9337
:100FF000DF93CDB7DEB728970FB6F894DEBF0FBEEC
:10100000CDBF6B017C0169837A838B839C832D83A5
:101010003E834F835887C216D306E406F50634F4A0
:10102000BE016B5F7F4FCE01019685DC8D819E8175
:10103000AF81B885892B8A2B8B2B71F469817A81DA
:101040008B819C8120E030E0A9010E948518611508
:1010500071058105910529F46D817E818F819885C7
:1010600005C06D837E838F839887F6CF28960FB651
:10107000F894DEBF0FBECDBFDF91CF91FF90EF9010
:10108000DF90CF90089590E002C0959587956A957E
:10109000E2F781700895EFE3F2E090E020E850E39A
:1010A00041E3382F322311F0408301C0508326954D
:1010B0009F5F31969830A9F7109247028FE392E034
:1010C0000895A42FB0E0109761F021E030E0E1E056
:1010D000F0E0EE0FFF1F2F5F3F4FA217B307C8F7D7
:1010E00002C0E1E0F0E031976E237F238E239F233F
:1010F000862797276823792302C0660F771F4A95B2
:10110000E2F7862B972B0895FC019FB78FB78F7757
:101110008FBF9FBF83E996E0918380838EEA96E03C
:101120009383828388ED96E09583848381E698E0BB
:101130009783868380E894E0918780878EE894E0A7
:101140009387828780E994E09587848783E994E098
:101150009787868786E994E0918B808B89E994E074
:10116000938B828B8AE894E0958B848B8CE894E057
:10117000978B868B8BE994E0918F808F8CEB94E03A
:10118000938F828F8AEC94E0958F848F8CEE94E01D
:10119000978F868F80E597E091A380A389E897E0F9
:1011A00093A382A385EF96E095A384A38DEB96E0AD
:1011B00097A386A382E995E091A780A787E995E0A8
:1011C00093A782A786EA95E095A784A78AEC95E085
:1011D00097A786A78CEC95E091AB80AB86ED95E068
:1011E00093AB82AB83EE95E095AB84AB8FEE95E04D
:1011F00097AB86AB87E096E091AF80AF8AE196E04F
:1012000093AF82AF85E296E095AF84AF82E596E03A
:1012100097AF86AFDF01A05CBF4F87EC97E01196D8
:101220009C938E93129682ED97E011969C938E93E9
:10123000129683EF97E011969C938E93129683E417
:1012400098E011969C938E9312968BE498E08D9380
:101250009C93CF010895E4E7F0E084EA80838FEF68
:1012600093E09093550280935402808188235CF030
:101270008EEF93E0909355028093540220812223B5
:1012800014F00197B8F7089580937300E4E7F0E055
:1012900084E880838FEF93E090935502809354020B
:1012A000808188235CF08EEF93E0909355028093C9
:1012B00054022081222314F00197B8F7089520E406
:1012C000829FC00111248468E4E7F0E080838FEFFF
:1012D00093E09093550280935402808188235CF0C0
:1012E0008EEF93E090935502809354022081222345
:1012F00014F00197B8F78091730008958091710000
:10130000887F089584E9809374008FE891E00197C5
:10131000F1F700C00000089591B3936091BB92B3C0
:10132000936092BB843079F018F4813031F01DC0A5
:10133000803179F0803499F018C0E1E7F0E09081D5
:101340009C7F908318C0E1E7F0E0908191609083EA
:1013500012C0E1E7F0E09081926090830CC0E1E779
:10136000F0E090819360908306C0E1E7F0E0808137
:101370008C7F808381E0282F30E0220F331F032EE3
:10138000000C440B550B60E970E080E090E00E9497
:1013900063182093700008951F93CF93DF93EC019F
:1013A000862F1FB79FB79F779FBFB6DF1FBF8BE208
:1013B00099E09983888382E899E09B838A8384E417
:1013C00099E09D838C838FE599E09F838E838EE7E0
:1013D00099E099878887CE01DF91CF911F91089579
:1013E000CF93DF9300D000D01F92CDB7DEB785E05A
:1013F000E4E9F2E0DE01119601900D928A95E1F7A1
:1014000029813A814B815C816D8170E080E090E0C0
:101410000F900F900F900F900F90DF91CF91089544
:1014200010926102E4E9F2E080E2808380E191E0E1
:1014300092838183948383830895CF93DF9321E004
:1014400080E0A9E5B2E0EDE5F2E060E071E001C026
:101450002F5F9FEF920F913009F44BC038F092301C
:1014600009F48CC0933009F4CEC00EC140916402DF
:1014700050916502EA0198819068988340915602E4
:1014800050915702EA0198819F77988340916202B8
:1014900050916302EA01388134773C939081432F65
:1014A000492794233083992399F0943019F4EB0160
:1014B00088810AC0903119F4EB01898109C090320A
:1014C00019F4EB018A8104C0903411F4EB018B8193
:1014D0004091640250916502EA0198819F77988358
:1014E0004091560250915702EA0198819068988382
:1014F000AFCF4091640250916502EA0198819160FA
:1015000098834091560250915702EA0198819E7F3C
:1015100098834091620250916302EA0138813477E6
:1015200011963C9311979181432F4927942331833E
:10153000992399F0943019F4EB018C810AC0903111
:1015400019F4EB018D8109C0903219F4EB018E8101
:1015500004C0903411F4EB018F81409164025091EA
:101560006502EA0198819E7F9883409156025091CE
:101570005702EA019881916098836ACF4091640292
:1015800050916502EA0198819260988340915602D9
:1015900050915702EA0198819D7F988340916202A1
:1015A00050916302EA013881347712963C93129786
:1015B0009281432F492794233283992399F09430C1
:1015C00019F4EB0188850AC0903119F4EB01898583
:1015D00009C0903219F4EB018A8504C0903411F4EB
:1015E000EB018B854091640250916502EA0198817C
:1015F0009D7F98834091560250915702EA0198814D
:101600009260988325CFE0916402F0916502908109
:1016100098609083E0915602F09157029081977FF5
:101620009083E0916202F0916302208124772093FD
:101630005C02EDE5F2E09381322F39279323238377
:10164000992399F0943019F480910C010AC09031DB
:1016500019F480910D0109C0903219F480910E01A6
:1016600004C0903411F480910F01E0916402F09174
:1016700065029081977F9083E0915602F091570226
:1016800090819860908303C0243008F4E1CEDF910C
:10169000CF910895CF93DF9300D000D01F92CDB7A4
:1016A000DEB7CBDE8823B1F1809394029091610282
:1016B000943188F4E0916102F0E0EA59FD4F8083B3
:1016C000909161029F5F90936102E0916102F0E06E
:1016D000EA59FD4F1082843499F4E0916102F0E000
:1016E000EB59FD4F108210926102E4E9F2E080E1D3
:1016F00091E09283818386E692E0948383830AC09B
:10170000E4E9F2E086E692E09283818380E191E071
:101710009483838385E0E4E9F2E0DE011196019091
:101720000D928A95E1F729813A814B815C816D8127
:1017300070E080E090E00F900F900F900F900F906E
:10174000DF91CF910895CF93DF93CDB7DEB7289780
:101750000FB6F894DEBF0FBECDBF2FB730E2309387
:101760009402909365028093640270936302609385
:10177000620250935702409356023BE8FC013083CB
:10178000E0915602F091570284E78083A9E5B2E028
:101790008C93EDE5F2E0808311968C931197818311
:1017A00012968C931297828313968C938383109254
:1017B00061022FBFE0915602F091570280818B6841
:1017C00080832DE13AE03A8329834AE45BE05C833D
:1017D0004B8360EF79E07E836D8380E19AE09887A8
:1017E0008F833A815C817E81988528960FB6F89424
:1017F000DEBF0FBECDBFDF91CF910895E09185028E
:10180000F091860290819D7F9083672B41F0E0915B
:101810008502F091860290819160908307C0E091EB
:101820008502F091860290819E7F9083E0918202F2
:10183000F09183029081906F9083E0918502F09106
:101840008602908194609083882344F4E09185021D
:10185000F091860290819068908307C0E0918502A4
:10186000F091860290819F77908386FF08C0E09177
:101870008502F091860290819064908307C0E09188
:101880008502F091860290819F7B908385FF08C03E
:10189000E0918502F091860290819062908307C06A
:1018A000E0918502F091860290819F7D908384FF74
:1018B00008C0E0918502F09186029081906190834A
:1018C00007C0E0918502F091860290819F7E90830F
:1018D000E0918502F091860290819B7F9083E09158
:1018E0008502F091860290819460908383FF08C006
:1018F000E0918502F091860290819068908307C004
:10190000E0918502F091860290819F77908382FF1B
:1019100008C0E0918502F0918602908190649083E6
:1019200007C0E0918502F091860290819F7B9083B1
:1019300081FF08C0E0918502F0918602908190625B
:10194000908307C0E0918502F091860290819F7D8F
:10195000908380FF08C0E0918502F091860280812B
:101960008061808307C0E0918502F09186028081CA
:101970008F7E8083E0918502F091860280818B7F4B
:1019800080830895E0918202F091830220812F707C
:101990002083E0918502F09186022081206F2083D0
:1019A000E0918502F0918602208122602083892BBC
:1019B00041F0E0918502F091860280818160808310
:1019C00007C0E0918502F091860280818E7F80833E
:1019D000E0918502F0918602808184608083E091AD
:1019E0007B02F0917C028081882314F080E001C0AA
:1019F00080E8908196FF02C0806401C08F7B908157
:101A000095FF02C0806201C08F7D908194FF02C06B
:101A1000806101C08F7EE0918502F0918602908105
:101A20009B7F9083E0918502F09186029081946083
:101A30009083E0917B02F0917C029081992314F4D1
:101A4000886001C0877F908196FF02C0846001C0DA
:101A50008B7F908195FF02C0826001C08D7F908155
:101A600094FF02C0816001C08E7FE0918502F091F9
:101A7000860290819B7F90830895CF93DF9380E0CF
:101A800090E080DFCBE0D0E005C080E090E07ADF3E
:101A9000219711F08823CCF3DF91CF91089561E075
:101AA00070E0ACDEEACF0895CF9381E090E06ADF8A
:101AB000C82FE3DF8C2FCF910895CF93DF93EC01F4
:101AC0008881882341F0219661E070E097DED5DFC0
:101AD00089918111F9CFDF91CF9108950F931F93D1
:101AE000CF93DF93FC01D62F8081882351F08F01A3
:101AF0000F5F1F4F611109C01BC0CF5FDC1730F4AF
:101B000001C0C0E0CD1760F013C0C1E061E070E03B
:101B100075DEB3DFF80181918F018111EECFF2CF35
:101B2000CF5F61E070E080E269DEA7DFCD17C0F330
:101B3000DF91CF911F910F910895CF93C82F8823E4
:101B400039F061E070E080E259DE97DFC150C9F7FB
:101B5000CF910895262F8130910571F030F08230B9
:101B6000910589F00397B1F0089560E070E080E896
:101B7000820F44DE82CF089560E070E080EC820F37
:101B80003DDE7BCF089560E070E084E9820F36DEB1
:101B900074CF089560E070E084ED820F2FDE6DCF8A
:101BA000089560E070E081E029DE87EE97E101971B
:101BB000F1F700C000000895E0918202F0918302E5
:101BC00087E08083E0918502F091860288E080833F
:101BD0002FEF83EF91E0215080409040E1F700C06B
:101BE000000060E070E083E309DE20ED2A95F1F764
:101BF00060E070E083E302DE80ED8A95F1F760E05B
:101C000070E08BE2FBDD95EC9A95F1F7000060E067
:101C100070E08CE0F3DD25EC2A95F1F7000060E040
:101C200070E081E0EBDD87EE97E10197F1F700C00E
:101C3000000060E070E086E0E1DD95EC9A95F1F758
:101C4000000008951F93CF93DF93EC011FB78FB768
:101C50008F778FBF709383026093820250937C02D0
:101C600040937B023093860220938502FB01108211
:101C7000E0918502F09186028FEF8083E0917B02F4
:101C8000F0917C02808188708093840295DF1FBF71
:101C90008EEF9BE09983888382EC9CE09B838A8310
:101CA0008DE39DE09D838C838FE49DE09F838E83F5
:101CB00084E59DE0998788878DE59DE09B878A87ED
:101CC0008EE69DE09D878C878DE99DE09F878E87BE
:101CD00081ED9DE0998B888B8AEA9DE09B8B8A8BB6
:101CE00089E79EE09D8B8C8BCE01DF91CF911F9178
:101CF0000895CF93E0917B02F0917C02C081C8707F
:101D0000809184028C278C2309F056DFC0938402D3
:101D1000CF910895FF920F931F93CF93DF93182FC6
:101D2000062FF42ECAEAD2E0E881F9810995EC8108
:101D3000FD8182EA0995EC81FD8182E00995EC81C3
:101D4000FD818F2D0995EC81FD81802F0995EC8116
:101D5000FD81812F0995EA81FB810995DF91CF9162
:101D60001F910F91FF9008951F93CF93DF93182F2A
:101D7000CAEAD2E0E881F9810995EC81FD8182EA25
:101D80000995EC81FD8184E00995EC81FD81812F2D
:101D90000995EA81FB810995DF91CF911F91089503
:101DA0001F93CF93DF93182FCAEAD2E0E881F9811D
:101DB0000995EC81FD8182EA0995EC81FD8183E042
:101DC0000995EC81FD81812F0995EA81FB810995B7
:101DD000DF91CF911F9108951F93CF93DF93182F19
:101DE000CAEAD2E0E881F9810995EC81FD8182EAB5
:101DF0000995EC81FD8182E00995EC81FD81812FBF
:101E00000995EA81FB810995DF91CF911F91089592
:101E10001F93CF93DF93882321F06370162F1068F0
:101E200001C010E0CAEAD2E0E881F9810995EC81AD
:101E3000FD8182EA0995EC81FD818DE00995EC81B7
:101E4000FD81812F0995EA81FB810995DF91CF9171
:101E50001F910895EF92FF920F931F93CF93DF93FB
:101E6000E82EF62E042F122FCAEAD2E0E881F9817B
:101E70000995EC81FD8182EA0995EC81FD8185E07F
:101E80000995EC81FD818E2D0995EC81FD818F2DC9
:101E90000995EC81FD81802F0995EC81FD81812FD1
:101EA0000995EA81FB810995DF91CF911F910F91EF
:101EB000FF90EF9008951F93CF93DF93182FCAEAF6
:101EC000D2E0E881F9810995EC81FD8182EA0995EA
:101ED000EC81FD8188E00995EC81FD81812F0995D8
:101EE000EA81FB810995DF91CF911F9108951F939E
:101EF000CF93DF93182FCAEAD2E0E881F9810995E0
:101F0000EC81FD8182EA0995EC81FD8187E00995EC
:101F1000EC81FD81812F0995EA81FB810995DF9193
:101F2000CF911F9108951F93CF93DF93182FCAEA83
:101F3000D2E0E881F9810995EC81FD8182EA099579
:101F4000EC81FD8186E00995EC81FD81812F099569
:101F5000EA81FB810995DF91CF911F9108951F932D
:101F6000CF93DF93182FCAEAD2E0E881F98109956F
:101F7000EC81FD8182EA0995EC81FD8185E009957E
:101F8000EC81FD81812F0995EA81FB810995DF9123
:101F9000CF911F910895FF920F931F93CF93DF93DB
:101FA000CAEAD2E0E881F9810995EC81FD8182EAF3
:101FB0000995EC81FD8182E00995EA81FB81099513
:101FC000E881F9810995EC81FD8183EA0995EE812B
:101FD000FF8181E00995F82EEE81FF8181E009956E
:101FE000182FEE81FF8180E00995082FEA81FB819F
:101FF0000995602F6F73712F7F778F2D8F77DF910A
:10200000CF911F910F91FF900895EF92FF920F9340
:102010001F93CF93DF93CAEAD2E0E881F981099553
:10202000EC81FD8182EA0995EC81FD8185E00995CD
:10203000EA81FB810995E881F9810995EC81FD81AF
:1020400083EA0995EE81FF8181E00995082FEE81F1
:10205000FF8181E00995F82EEE81FF8181E00995ED
:10206000182FEE81FF8180E00995E82EEA81FB813F
:102070000995712F7F716E2D8F2D8770902F9F7313
:10208000DF91CF911F910F91FF90EF900895982FBE
:1020900092959F70990F292F220F220F920F8F7008
:1020A000890F08959DEC899F912D11249695969501
:1020B0009695392F330F232F220F220F230F821BC8
:1020C00020E1929F800D11240895CF93DF93CAEAF7
:1020D000D2E0E881F9810995EC81FD8182EA0995D8
:1020E000EC81FD8180E00995EC81FD8180E009951E
:1020F000EA81FB810995DF91CF910895FF920F93BB
:102100001F93CF93DF93CDB7DEB72A970FB6F8941E
:10211000DEBF0FBECDBF8C01FFB68FB78F778FBFED
:10212000CE01019639D98AE0FE013196AAEAB2E0E1
:1021300001900D928A95E1F7C8DFFFBE8AE89EE024
:10214000F8019183808384EB9EE09383828380ED0A
:102150009EE0958384838CEE9EE09783868388E05F
:102160009FE0918780878AE29FE0938782878FEA4A
:102170009FE09587848783E99FE09787868787E735
:102180009FE0918B808B8BE59FE0938B828B8BEC18
:102190009FE0958B848B85E090E1978B868B87E41D
:1021A00090E1918F808F82E590E1938F828FC801BB
:1021B0002A960FB6F894DEBF0FBECDBFDF91CF9148
:1021C0001F910F91FF900895109261008FE080930E
:1021D000620087B3806E87BB0895CF93DF93CDB73E
:1021E000DEB7C554D1400FB6F894DEBF0FBECDBFE9
:1021F000EBDFCE0188579F4F0E948408C655DF4F02
:1022000028813981CA5AD040CF5CDE4F3983288378
:10221000C153D140CC54DF4F88819981C45BD040F9
:10222000CE5BDE4F99838883C254D140CA53DF4FBF
:10223000A881B981C65CD040C65CDE4FB983A88353
:10224000CA53D1402BE330E049E350E06AE370E049
:10225000CE018E529F4FF6DCC852DF4FE881F981E4
:10226000C85DD040CB5CDE4FF983E883C553D140D5
:10227000C252DF4F68807980CE5DD040CE51DF4FB3
:1022800028813981C25ED040C15DDE4F3983288309
:10229000CF52D140CC51DF4F28803980C45ED0402E
:1022A00043E250E061E270E082E290E04CDAC65135
:1022B000DF4F4883CA5ED040C551DF4F5883CB5EA5
:1022C000D040C451DF4F6883CC5ED040C351DF4F54
:1022D0007883CD5ED040C251DF4F8883CE5ED04040
:1022E000C151DF4F9883CF5ED040C451DF4F88800B
:1022F0009980CC5ED040C251DF4F48805980CE5E7D
:10230000D0401F921F921F9281E08F9390E89F937D
:102310008F930E949200C25CDE4F688379838A8328
:102320009B83CE53D14040E069E0CE0180519F4F66
:102330000E944602C850DF4F88819981C85FD04013
:10234000C45CDE4F99838883CC53D14060E1CE01D9
:102350009395D4DEC85EDE4FA881B981C851D140C3
:10236000CD5CDE4FB983A883C353D140C65EDE4F38
:10237000E881F981CA51D140CC5BDE4FF983E88313
:10238000C454D140FE01E45EFE4F80E390E08193AF
:10239000919384E0DF011D928A95E9F789E390E348
:1023A000CE5DDE4F99838883C252D140CC5DDE4F33
:1023B00019821882C452D140CA5DDE4F1982188238
:1023C000C652D140CE50DF4FE881F981C25FD04084
:1023D00082E00995CA50DF4FE881F981C65FD0409D
:1023E00080E29EE40995C450DF4FE881F981CC5F1B
:1023F000D04088E090E00995C85FDE4FE881F98120
:10240000C850D14062E081E009950F900F900F9085
:102410000F900F900F90B0E3C75CDE4FB883C953A5
:10242000D140E1E3C25DDE4FE883CE52D14006C029
:10243000F0E3C75CDE4FF883C953D140C25DDE4F85
:102440001881CE52D140CA51DF4FE881F981C65E72
:10245000D0400995C651DF4FE881F981CA5ED0406E
:1024600009956EE070E083E090E0F1010995F401D8
:102470000995CC57DF4F3883C458D040CB57DF4F36
:102480004883C558D04066E0CC57DF4F888199819A
:10249000C458D040F3010995123309F480C11333B5
:1024A00009F435C2113379F6F4010995CF57DF4F9E
:1024B0005883C158D040CE57DF4F6883C258D040B0
:1024C00062E171E0CF57DF4F88819981C158D040D8
:1024D0005AD6892BA9F4CE5DDE4F1882C252D14064
:1024E000F2010995C15DDE4FE881F981CF52D140FB
:1024F0000995F2E3C25DDE4FF883CE52D1409ECF04
:10250000F4010995ED965FAFED97EE966FAFEE97FC
:1025100064E171E0EE968EAD9FADEE9734D6892BD7
:10252000A9F4CE5DDE4F1882C252D140F201099566
:10253000C15DDE4FE881F981CF52D1400995F3E3C7
:10254000C25DDE4FF883CE52D14078CFCC5EDE4FF5
:10255000E881F981C451D14009956093B402709328
:10256000B5028093B602CA5EDE4FE881F981C6519A
:10257000D14009956093B7027093B8028093B90275
:102580009093BA0280E090E0C05CDE4FE881F98170
:10259000C054D1400995C95CDE4F99838883C753E5
:1025A000D140BC01990F880B990B1F921F9229E013
:1025B0002F932EE22F930F2EF4EFAF2EBB24B39464
:1025C000C12CD12CF02DEE24EA9413E0F12E00E082
:1025D00010E020E030E0A901C65CDE4FE881F9811F
:1025E000CA53D1400995CB01C45CDE4FE881F98123
:1025F000CC53D140099560E070E080E090E0F101BB
:10260000099567E086E191E0F3010995C855DF4F30
:10261000E881F981C85AD040C95CDE4F8881998130
:10262000C753D1400995BC01CE01845E9E4FB4D5FD
:1026300064E0CE01845E9E4FF30109956CE070E08A
:1026400080E090E0F101099507EB12E0D8011396C4
:102650008C91CD5CDE4FE881F981C353D14009955F
:1026600090E0CF5CDE4FE881F981C153D1400995FC
:1026700062E0F30109958AE3CB5CDE4FE881F981E2
:10268000C553D1400995D80111968C91CD5CDE4F90
:10269000E881F981C353D140099590E0CF5CDE4FCA
:1026A000E881F981C153D140099562E0F3010995B0
:1026B0008AE3CB5CDE4FE881F981C553D1400995AF
:1026C000D8018C91CD5CDE4FE881F981C353D140B4
:1026D000099590E0CF5CDE4FE881F981C153D1408C
:1026E000099562E0F30109956CE070E081E090E00B
:1026F000F101099504EB12E0D8018C91CD5CDE4F1D
:10270000E881F981C353D140099590E0CF5CDE4F59
:10271000E881F981C153D140099562E0F30109953F
:102720008AE3CB5CDE4FE881F981C553D14009953E
:10273000D80111968C91CD5CDE4FE881F981C353AD
:10274000D140099590E0CF5CDE4FE881F981C1531B
:10275000D140099562E0F30109958AE3CB5CDE4F35
:10276000E881F981C553D1400995D80112968C9121
:10277000CD5CDE4FE881F981C353D140099590E0EB
:10278000CF5CDE4FE881F981C153D140099562E009
:10279000F30109950F900F900F900F904FCEF40119
:1027A0000995E8965FAFE897E9966FAFE99762E120
:1027B00071E0E9968EAD9FADE997E5D4892B81F460
:1027C000F2010995C15DDE4FE881F981CF52D14018
:1027D0000995F3E3C25DDE4FF883CE52D1402ECE91
:1027E000F4010995E3965FAFE397E4966FAFE49742
:1027F00064E171E0E4968EAD9FADE497C4D4892B7B
:1028000081F4F2010995C15DDE4FE881F981CF5273
:10281000D1400995F1E3C25DDE4FF883CE52D1403D
:102820000DCE60E070E080E090E0F101099568E095
:102830008EE191E0F301099563E0CE018E5D9E4F3C
:10284000F3010995F4010995243409F0F7CDF40159
:102850000995A9965FAFA997AA966FAFAA97AA966E
:102860006EAD7FADAA9746E050E0CE018E5D9E4FE3
:102870009AD4CE018E5D9E4FCE5BDE4FE881F9810A
:10288000C254D1400995853B910570F5BC01990F63
:10289000880B990B1F921F9229E02F932EE22F9302
:1028A0000F2EF4EFAF2EBB24B394C12CD12CF02DFE
:1028B00014EBE12EF12C00E010E020E030E0A90163
:1028C000C65CDE4FE881F981CA53D1400995CB013E
:1028D000C45CDE4FE881F981CC53D14009950F905B
:1028E0000F900F900F9010C085E692E7CE5DDE4FFF
:1028F00099838883C252D14082E790E0CC5DDE4F5D
:1029000099838883C452D140F201099597CDF4018F
:102910000995A4965FAFA497A5966FAFA59762E1BE
:1029200071E0A5968EAD9FADA5972DD4892B81F42E
:10293000F2010995C15DDE4FE881F981CF52D140A6
:102940000995F1E3C25DDE4FF883CE52D14076CDDA
:10295000F40109956F965FAF6F97A0966FAFA09740
:1029600064E171E0A0968EAD9FADA0970CD4892B49
:1029700081F4F2010995C15DDE4FE881F981CF5202
:10298000D1400995F2E3C25DDE4FF883CE52D140CB
:1029900055CD60E070E080E090E0F101099563E1E1
:1029A00087E291E0F3010995C75CDE4FF881C953D6
:1029B000D1408F2F90E0FC01F097E730F10508F04F
:1029C00037CDEF59FF4FBDC360E070E081E090E08C
:1029D000F101099567E08BE391E0F301099568E067
:1029E00082E491E0F301099565E08AE491E0F30166
:1029F000099560E070E082E090E0F101099567E000
:102A000080E591E0F301099568E087E591E0F30145
:102A1000099565E08DE591E0F301099560E070E0CE
:102A200083E090E0F101099568E083E691E0F3012D
:102A30000995F40109956A965FAF6A976B966FAF37
:102A40006B976CE671E06B968EAD9FAD6B979BD3E9
:102A5000892B79F4F2010995C15DDE4FE881F98196
:102A6000CF52D1400995F1E3C75CDE4FF883C953DB
:102A7000D140F401099565965FAF659766966FAF93
:102A800066976EE671E066968EAD9FAD66977BD3D6
:102A9000892B79F4F2010995C15DDE4FE881F98156
:102AA000CF52D1400995F2E3C75CDE4FF883C9539A
:102AB000D140F401099560965FAF609761966FAF62
:102AC000619760E771E061968EAD9FAD61975BD3D2
:102AD000892B79F4F2010995C15DDE4FE881F98116
:102AE000CF52D1400995F3E3C75CDE4FF883C95359
:102AF000D140F40109952B965FAF2B972C966FAFC1
:102B00002C9762E771E02C968EAD9FAD2C973BD34E
:102B1000892B79F4F2010995C15DDE4FE881F981D5
:102B2000CF52D1400995F4E3C75CDE4FF883C95317
:102B3000D140F401099526965FAF269727966FAF8F
:102B4000279764E771E027968EAD9FAD27971BD33B
:102B5000892B79F4F2010995C15DDE4FE881F98195
:102B6000CF52D1400995F5E3C75CDE4FF883C953D6
:102B7000D140F401099521965FAF219722966FAF5E
:102B8000229766E771E022968EAD9FAD2297FBD229
:102B9000892B09F053CCF2010995C15DDE4FE88124
:102BA000F981CF52D1400995F6E3C75CDE4FF88337
:102BB000C953D14043CC60E070E081E090E0F10186
:102BC000099569E088E791E0F3010995F401099519
:102BD000243409F033CCF40109955EAB6FAB6EA9D8
:102BE0007FA9CE01885D9E4FD7D2CE01885D9E4FD2
:102BF000CE5BDE4FE881F981C254D14009958C014A
:102C000065E871E0CE01885D9E4FBDD2892B49F405
:102C1000F2010995F0E3C75CDE4FF883C953D14058
:102C20000DCC04361105B8F4CE5EDE4FE880F98095
:102C3000C251D140802FCC5BDE4FE881F981C45472
:102C4000D1400995F7010995F0E3C75CDE4FF883A1
:102C5000C953D14010C085E692E7C85DDE4F998325
:102C60008883C852D14082E790E0C65DDE4F9983E9
:102C70008883CA52D140F2010995E0CB60E070E050
:102C800081E090E0F101099569E088E791E0F301C6
:102C90000995F4010995243409F0D0CBF401099584
:102CA0005CA76DA76CA57DA5CE01885D9E4F74D2F3
:102CB000CE01885D9E4FCE5BDE4FE881F981C25424
:102CC000D14009958C0165E871E0CE01885D9E4F89
:102CD0005AD2892B49F4F2010995F0E3C75CDE4F23
:102CE000F883C953D140AACB0D301105B8F4C05FA9
:102CF000DE4FE880F980C051D140802FCC5BDE4FA1
:102D0000E881F981C454D1400995F7010995F0E3B0
:102D1000C75CDE4FF883C953D14010C085E692E707
:102D2000C85DDE4F99838883C852D14082E790E026
:102D3000C65DDE4F99838883CA52D140F20109955E
:102D40007DCB60E070E081E090E0F101099569E001
:102D500088E791E0F3010995F4010995243409F01D
:102D60006DCBF40109955AA36BA36AA17BA1CE0197
:102D7000885D9E4F11D2CE01885D9E4FCE5BDE4FA7
:102D8000E881F981C254D14009958C0165E871E070
:102D9000CE01885D9E4FF7D1892B49F4F201099548
:102DA000F0E3C75CDE4FF883C953D14047CB003214
:102DB0001105B8F4C45FDE4FE880F980CC50D140F3
:102DC000802FCC5BDE4FE881F981C454D140099556
:102DD000F7010995F0E3C75CDE4FF883C953D14092
:102DE00010C085E692E7C85DDE4F99838883C8529C
:102DF000D14082E790E0C65DDE4F99838883CA5256
:102E0000D140F20109951ACB60E070E081E090E0DA
:102E1000F101099569E088E791E0F3010995F40172
:102E20000995243409F00ACBF4010995588F698F6C
:102E3000688D798DCE01885D9E4FAED1CE01885DC3
:102E40009E4FCE5BDE4FE881F981C254D140099597
:102E50008C0165E871E0CE01885D9E4F94D1892B8D
:102E600049F4F2010995F0E3C75CDE4FF883C953DA
:102E7000D140E4CA08311105B8F4CE5FDE4FE880D6
:102E8000F980C250D140802FCC5BDE4FE881F981C0
:102E9000C454D1400995F7010995F0E3C75CDE4FB2
:102EA000F883C953D14010C085E692E7C85DDE4F74
:102EB00099838883C852D14082E790E0C65DDE4F97
:102EC00099838883CA52D140F2010995B7CA60E05C
:102ED00070E081E090E0F101099569E088E791E018
:102EE000F3010995F4010995243409F0A7CAF40106
:102EF00009955E876F876E857F85CE01885D9E4FC1
:102F00004BD1CE01885D9E4FCE5BDE4FE881F981CB
:102F1000C254D14009958C0165E871E0CE01885D0D
:102F20009E4F31D1892B49F4F2010995F0E3C75C3A
:102F3000DE4FF883C953D14081CA08311105B8F476
:102F4000CC5FDE4FE880F980C450D140802FCC5B4D
:102F5000DE4FE881F981C454D1400995F701099504
:102F6000F0E3C75CDE4FF883C953D14010C085E65B
:102F700092E7C85DDE4F99838883C852D14082E7CB
:102F800090E0C65DDE4F99838883CA52D140F2013A
:102F9000099554CA60E070E081E090E0F101099584
:102FA00069E088E791E0F3010995F401099524347B
:102FB00009F044CAF40109955C836D836C817D81BD
:102FC000CE01885D9E4FE8D0CE01885D9E4FCE5BDE
:102FD000DE4FE881F981C254D14009958C0165E842
:102FE00071E0CE01885D9E4FCED0892B49F4F2016D
:102FF0000995F0E3C75CDE4FF883C953D1401ECA80
:1030000008311105B8F4CA5FDE4FE880F980C65078
:10301000D140802FCC5BDE4FE881F981C454D14090
:103020000995F7010995F0E3C75CDE4FF883C953B2
:10303000D14010C085E692E7C85DDE4F9983888352
:10304000C852D14082E790E0C65DDE4F9983888305
:10305000CA52D140F2010995F1C9DB018F939F93C8
:1030600088D0BF91AF91A29F800D911DA39F900D1D
:10307000B29F900D11240895AA1BBB1B51E107C0FC
:10308000AA1FBB1FA617B70710F0A61BB70B881FF8
:10309000991F5A95A9F780959095BC01CD01089587
:1030A00097FB072E16F4009406D077FD08D0E4DFD6
:1030B00007FC05D03EF4909581959F4F089570953B
:1030C00061957F4F0895A1E21A2EAA1BBB1BFD013B
:1030D0000DC0AA1FBB1FEE1FFF1FA217B307E407F7
:1030E000F50720F0A21BB30BE40BF50B661F771F4F
:1030F000881F991F1A9469F760957095809590952F
:103100009B01AC01BD01CF010895052E97FB16F47C
:1031100000940FD057FD05D0D6DF07FC02D046F44F
:1031200008C050954095309521953F4F4F4F5F4FC8
:10313000089590958095709561957F4F8F4F9F4F23
:103140000895EE0FFF1F0024001C0BBE0790F691A0
:10315000E02D0994A29FB001B39FC001A39F700D01
:10316000811D1124911DB29F700D811D1124911D8F
:103170000895F0DFA59F900DB49F900DA49F800D42
:10318000911D11240895FB01DC018D91019080199E
:103190000110D9F3990B0895FB01DC0101900D9208
:1031A0000020E1F70895FB01DC014150504048F058
:1031B00001900D920020C9F701C01D92415050406E
:0831C000E0F70895F894FFCF39
:1031C8003132334134353642373839432A30234493
:1031D80000004100420053656E73653A20004D615E
:1031E8006E75616C3A20004461746520616E6420DC
:1031F80054696D6520536574757000312D5965618A
:103208007200322D4D6F6E746800332D4461790061
:10321800342D486F757200352D4D696E00362D536B
:1032280065630043202D2065786974003100320001
:103238003300340035003600456E746572205661DF
:083248006C75653A00430000BB
:00000001FF
