S011000041746D6567613132382E7372656329
S113000067C0000084C0000082C0000080C00000FF
S11300107EC000007CC000007AC0000078C00000F0
S113002076C0000074C0000063C300002FC300004A
S113003037C300003FC3000051C3000068C0000084
S11300401BC3000064C000008FC30000C5C30000D0
S11300505EC00000FDC000005AC0000058C000008F
S113006033C300004FC3000057C300005FC3000048
S113007067C300006FC30000D8C3000011C40000B0
S113008046C0000044C0000042C000005D0261029E
S1130090650269026D0274027B02820286028D028D
S11300A094029B029F02A602AD02C902CD02D102B4
S11300B0D502DB02DF02E302E702F002F402F802F7
S11300C00103B715CC162C178C17EC174C18AC1869
S11300D011241FBECFEFD0E1DEBFCDBF11E0A0E001
S11300E0B1E0E6EDF3E300E00BBF02C007900D9230
S11300F0AE3CB107D9F723E0AEECB1E001C01D92EC
S1130100A130B207E1F70E94ED100C94E91978CF01
S1130110369B369AFC01EE0FFF1FE951FE4F80819A
S1130120918108950F931F93CF93DF93CDB7DEB7DB
S11301309F81688549855A851FB78FB78F778FBF91
S11301405093D6014093D5011092D4011092D3015B
S11301501092CE0187B18F7387B9913019F0933023
S113016021F008C03E9A01E006C087B1806C87B9CF
S113017003E001C000E03D98141615068CF4DE017E
S11301801B9680E090E02D913D91FC01EE0FFF1F46
S1130190E952FE4F3183208301964817590799F796
S11301A087B1807E87B9E091D301F091D401EE0F3D
S11301B0FF1FE952FE4F8081918127B18F719927EA
S11301C0822B87B9379A369A3598339A86B1887FC5
S11301D086B96031D1F038F4643079F0683081F058
S11301E0623029F507C06034C1F06038D9F060325C
S11301F0F1F40EC0309A22E01EC0319A24E01BC0F4
S113020086B1836086B928E016C0329A20E113C013
S113021086B1856086B920E20EC086B1866086B953
S113022020E409C086B1876086B920E804C086B19D
S1130230876086B920E81FBF8FB780688FBF602FA3
S1130240722F88E890E0DF91CF911F910F9108956C
S11302501F920F920FB60F9211240BB60F922F9389
S11302603F938F939F93EF93FF9384B190E0909388
S1130270D0018093CF0125B18091CF019091D0011D
S1130280922B9093D0018093CF018091CE01843042
S1130290A0F48091CE018F5F8093CE012091CF0195
S11302A03091D0018091D1019091D201820F931F9E
S11302B09093D2018093D10143C0E091D301F09196
S11302C0D4018091D1019091D2019595879595950E
S11302D08795EE0FFF1FE951FE4F918380831092A3
S11302E0D2011092D1011092CE012091D30130910C
S11302F0D4018091D5019091D6012817390754F47F
S11303008091D3019091D40101969093D40180936C
S1130310D30104C01092D4011092D30187B1807E1E
S113032087B9E091D301F091D401EE0FFF1FE95298
S1130330FE4F8081918127B18F719927822B87B9D4
S1130340FF91EF919F918F913F912F910F900BBE51
S11303500F900FBE0F901F901895209181022111CC
S113036042C02FEF3FEF3BBD2ABD2EB5287F2EBDE7
S113037088309105D1F048F48330910531F185300E
S1130380910539F1019749F50CC0811521E09207D7
S1130390A1F0811524E09207A1F080349105E9F4DD
S11303A008C08EB581608EBD1BC08EB582608EBDC7
S11303B017C08EB583608EBD13C08EB584608EBDAC
S11303C00FC08EB585608EBD0BC08EB586608EBDA8
S11303D007C08EB587608EBD03C08EB585608EBDA7
S11303E081E08093810208959FB59F739FBD823001
S11303F041F0833051F0813059F48FB580648FBD62
S113040008958FB580688FBD08958FB5806C8FBDBA
S113041008959FB59F7C9FBD823041F0833051F099
S1130420813059F48FB580618FBD08958FB5806296
S11304308FBD08958FB580638FBD08959FB5937F59
S11304409FBD823041F0833051F0813059F48FB533
S113045084608FBD08958FB588608FBD08958FB572
S11304608C608FBD08959BBD8ABD089599BD88BDDC
S11304700895909379008093780008958EB5887FCD
S11304808EBD1DBC1CBC1092810208950F931F9356
S1130490DC01109281028FB58C7F8FBD8EB5877E73
S11304A08EBD062F10E0F8013197EF30F10508F00A
S11304B05AC0EA5BFF4F0C94A8198FB581608FBDB9
S11304C052C08FB582608FBD4EC08FB583608FBD23
S11304D04AC08EB588608EBD46C08FB581608FBD21
S11304E08EB588608EBD3FC08FB582608FBD8EB5DE
S11304F088608EBD38C08FB583608FBD8EB588602F
S11305008EBD31C08EB580618EBD2DC08FB581602A
S11305108FBD8EB580618EBD26C08FB582608FBDC4
S11305208EB580618EBD1FC08FB583608FBD8EB5C3
S113053080618EBD18C08EB588618EBD14C08FB524
S113054081608FBD8EB588618EBD0DC08FB5826010
S11305508FBD8EB588618EBD06C08FB583608FBD9B
S11305608EB588618EBD8FB583708FBD87B7837C50
S113057087BFEDE7F0E080818E7F808350E0FA0151
S11305803197EC30F10508F044C0EB5AFF4F0C945E
S1130590A81987B7846087BF3CC087B7806187BFCD
S11305A038C087B7886087BF34C0EDE7F0E080814A
S11305B0816080832EC087B7806287BF2AC087B7D7
S11305C0846187BF26C087B78C6087BF22C087B786
S11305D0846087BFEDE7F0E080818160808319C08B
S11305E087B7846287BF15C087B78C6187BF11C086
S11305F087B78C6187BFEDE7F0E0808181608083FD
S113060008C087B7886187BFEDE7F0E0808181602B
S1130610808384EF91E011969C938E9389E092E01D
S113062013969C938E9312978EE192E015969C9369
S11306308E93149783E392E017969C938E93169768
S113064086E392E019969C938E93189789E392E03F
S11306501B969C938E931A978DEA91E01D969C931A
S11306608E931C978EE392E01F969C938E931E9715
S1130670CD011F910F9108951F920F920FB60F9203
S113068011240F900FBE0F901F9018951F920F9278
S11306900FB60F9211240F900FBE0F901F90189554
S11306A01F920F920FB60F9211240F900FBE0F904E
S11306B01F9018951F920F920FB60F9211240F904E
S11306C00FBE0F901F9018951F920F920FB60F92A6
S11306D011240F900FBE0F901F9018951F920F9228
S11306E00FB60F9211240F900FBE0F901F90189504
S11306F01F920F920FB60F9211240F900FBE0F90FE
S11307001F9018951F920F920FB60F9211240F90FD
S11307100FBE0F901F9018951F920F920FB60F9255
S113072011240F900FBE0F901F9018951F920F92D7
S11307300FB60F9211240F900FBE0F901F901895B3
S11307401F920F920FB60F9211240F900FBE0F90AD
S11307501F9018951F920F920FB60F9211240F90AD
S11307600FBE0F901F9018951F920F920FB60F9205
S113077011240BB60F928F939F93EF93FF938BB13A
S11307809AB1887180933C02E0913E02EF5FEF7171
S113079080913D02E81304C082E080933C0211C0C2
S11307A09CB1E0933E0280913C02882331F0F0E05A
S11307B0EF5BFD4F88E5808304C0F0E0EF5BFD4F05
S11307C09083FF91EF919F918F910F900BBE0F90AB
S11307D00FBE0F901F9018951F920F920FB60F9295
S11307E011240BB60F928F939F93EF93FF939091E5
S11307F0400280913F02981302C055980BC0E091CB
S11308003F02EF5FEF71E0933F02F0E0EF59FD4FDD
S113081080818CB9FF91EF919F918F910F900BBEC6
S11308200F900FBE0F901F9018951F920F920FB646
S11308300F9211240BB60F928F939F93EF93FF9314
S113084080919B0090919A0088718093F701E091C8
S1130850F901EF5FEF718091F801E81304C082E0C1
S11308608093F70112C090919C00E093F90180916C
S1130870F701882331F0F0E0E450FE4F88E58083EF
S113088004C0F0E0E450FE4F9083FF91EF919F91FC
S11308908F910F900BBE0F900FBE0F901F90189565
S11308A01F920F920FB60F9211240BB60F928F93D3
S11308B09F93EF93FF939091FB018091FA0198131A
S11308C006C0EAE9F0E080818F7D80830EC08091CC
S11308D0FA018F5F8F718093FA01E091FA01F0E0E1
S11308E0E45EFD4F808180939C00FF91EF919F9186
S11308F08F910F900BBE0F900FBE0F901F90189505
S11309006823442321F0861721F080E008956111C3
S113091080E00895862B08958623089586230895FC
S1130920862B8095089586278623089560958623CF
S1130930089586270895CF92DF92EF92FF920F9346
S11309401F93FC010081118122813381FB01C0804E
S1130950D180E280F380FC01C082D182E282F38202
S1130960FB0100831183228333831F910F91FF9036
S1130970EF90DF90CF900895FB012081FC0120834C
S1130980222339F0DB01119631969D9191939111B7
S1130990FCCF0895CF93DF93EC019881992399F0CC
S11309A0FE01319620E030E0492F50E0461757070A
S11309B031F0DE01A20FB31F9C932F5F3F4F919143
S11309C09111F2CF02C020E030E0FE01E20FF31FEC
S11309D01082DF91CF9108952F923F924F925F92B0
S11309E06F927F928F929F92AF92BF92CF92DF923B
S11309F0EF92FF920F931F93CF93DF9300D000D019
S1130A00CDB7DEB72C011B014B0177231CF42FEF6C
S1130A10821A920A95948794181419040CF451C0FC
S1130A206AC09601DD209CF1F50140815181F401F9
S1130A30608171816417750754F58C010A0D1B1DC3
S1130A40D401BC82AB82BA82A982EB81FC8171831E
S1130A50608311965C934E932E193F09C2F0F801FE
S1130A6040815181E981FA8160817181080F191FE8
S1130A70E80FF91FFA83E983EB81FC81E80FF91F82
S1130A80FC83EB83A80FB91F64177507F4F2FFEF1B
S1130A90CF1ADF0A22E0A20EB11CE2E08E0E911CF6
S1130AA0C614D70409F0BDCF4701FF201CF4FFEFA3
S1130AB08F1A9F0A9594879418141904E4F4740106
S1130AC001C07401821493047CF76401CE18DF081A
S1130AD05601AA0CBB1CA40CB51C880C991C840CD4
S1130AE0951C31016E187F08C701880F991F9195D5
S1130AF08195910996CF0F900F900F900F90DF91F1
S1130B00CF911F910F91FF90EF90DF90CF90BF9006
S1130B10AF909F908F907F906F905F904F903F9099
S1130B202F900895861797070CF4CB0108959B0125
S1130B30672B11F408959A01B9010E945719AC0169
S1130B40822F932F41155105B1F70895FC0190812F
S1130B5080ED890F8A30D0F4319620E030E0A9018D
S1130B60440F551F220F331F220F331F220F331F31
S1130B70420F531F292F30E020533109240F351F12
S1130B80919180ED890F8A3050F302C020E030E06B
S1130B90C901089586230895009739F020E030E0D4
S1130BA02F5F3F4F82179307D9F7089587FF08C037
S1130BB09195819591099927919581959109089528
S1130BC08F779927089591FF08C091958195910990
S1130BD0937091958195910908959170089561504C
S1130BE021E030E002C0220F331F6A95E2F7A90129
S1130BF041505109B90168237923672B29F08423D3
S1130C009523821B930B08958423952308959DECCB
S1130C10899F912D1124969596959695392F330F8A
S1130C20232F220F220F230F821B20E1929F800D7E
S1130C3011240895982F92959F70990F292F220FB0
S1130C40220F920F8F70890F0895FC01DB01AB57BF
S1130C50BD4F1C921616170614F5908191110CC005
S1130C6017C0919191110DC015C081932F5F3F4F13
S1130C7026173707D4F313C0A5E8B2E0319620E075
S1130C8030E09D932F5F3F4F6217730751F707C002
S1130C9020E030E0F901EB57FD4F80E2E6CF85E834
S1130CA092E008954F925F926F927F92AF92BF92BB
S1130CB0CF92DF92EF92FF920F931F93CF93DF9324
S1130CC0CDB7DEB729013A019B01AC0124193509DE
S1130CD04609570989899A89AB89BC89BC01CD0128
S1130CE06A197B098C099D090E943419A80197018E
S1130CF024193509460957090E948C19CA01B901FA
S1130D006A0D7B1D8C1D9D1DDF91CF911F910F914D
S1130D10FF90EF90DF90CF90BF90AF907F906F9057
S1130D205F904F90089570E06115710599F041E06E
S1130D3050E021E030E090E0FA01E89FA001E99F53
S1130D40500DF89F500D11242F5F3F4F621773070A
S1130D5098F702C041E050E0CA010895FC012081E7
S1130D60222341F0319680E090E0019621912111F7
S1130D70FCCF089580E090E00895CF93DF93EC01D9
S1130D80EDDF9C012150310962F0FE01E80FF91FEB
S1130D909291903219F09950923018F421503109FF
S1130DA0B8F7C20FD31F1982C901DF91CF910895FB
S1130DB0CF93DF93EC01D2DF9C012150310912164D
S1130DC0130684F4DE01A80FB91FFE0180E090E051
S1130DD040815E9151934C930196215031098217C1
S1130DE09307B4F3DF91CF9108958F929F92AF92BE
S1130DF0BF92CF92DF92EF92FF920F931F93CF9304
S1130E00DF936B017C01DC01CB01FF203CF48827DC
S1130E109927DC018C199D09AE09BF09BC01CD01DC
S1130E2010E00F2EFAE08F2E912CA12CB12CF02D76
S1130E3001C0102F01E0010FC12FD0E0CB57DD4FCF
S1130E40A50194010E948C19605D6883622F732F41
S1130E50842F952F161617061806190654F3FF202B
S1130E6044F4E02FF0E0EB57FD4F8DE2808302E085
S1130E70010FE02FF0E0EB57FD4F108285E892E080
S1130E8097DF85E892E0DF91CF911F910F91FF905A
S1130E90EF90DF90CF90BF90AF909F908F90089588
S1130EA00F931F93CF93DF93EC01992324F48827A6
S1130EB099278C1B9D0B20E00AE010E001C0232F32
S1130EC031E0320FE22FF0E0EB57FD4FB8010E9402
S1130ED05719805D8083862F972F181619067CF387
S1130EE0DD2344F4E32FF0E0EB57FD4F8DE28083E4
S1130EF032E0320FE32FF0E0EB57FD4F108285E82C
S1130F0092E056DF85E892E0DF91CF911F910F9137
S1130F100895CF93AC01E0E0C1E0CE0FF0E0EB57D1
S1130F20FD4F9A01ADECBCEC0E94B11996958795E2
S1130F3096958795969587959C01220F331F880F68
S1130F40991F880F991F880F991F820F931F9A0169
S1130F50281B390BC901805D80839A010E94B11955
S1130F60AC01569547955695479556954795EC2F60
S1130F704115510589F6EC2FF0E0EB57FD4F108237
S1130F8085E892E015DF85E892E0CF910895982FE7
S1130F9092959F70990F292F220F220F920F8F7015
S1130FA0890F0895AC019C01ADECBCEC0E94B11911
S1130FB0969587959695879596958795BC01660F26
S1130FC0771F9C01220F331F220F331F220F331F61
S1130FD0260F371F421B530B342F20E1829F300D05
S1130FE01124832F0895CF92DF92EF92FF92CF9333
S1130FF0DF93CDB7DEB728970FB6F894DEBF0FBEE8
S1131000CDBF6B017C0169837A838B839C832D83A1
S11310103E834F835887C216D306E406F50634F49C
S1131020BE016B5F7F4FCE01019685DC8D819E8171
S1131030AF81B885892B8A2B8B2B71F469817A81D6
S11310408B819C8120E030E0A9010E948C196115FC
S113105071058105910529F46D817E818F819885C3
S113106005C06D837E838F839887F6CF28960FB64D
S1131070F894DEBF0FBECDBFDF91CF91FF90EF900C
S1131080DF90CF90089590E002C0959587956A957A
S1131090E2F781700895E5E8F2E090E020E850E39B
S11310A041E3382F322311F0408301C05083269549
S11310B09F5F31969830A9F710928D0285E892E0EF
S11310C00895A42FB0E0109761F021E030E0E1E052
S11310D0F0E0EE0FFF1F2F5F3F4FA217B307C8F7D3
S11310E002C0E1E0F0E031976E237F238E239F233B
S11310F0862797276823792302C0660F771F4A95AE
S1131100E2F7862B972B0895FC019FB78FB78F7753
S11311108FBF9FBF83E996E0918380838EEA96E038
S11311209383828388ED96E09583848381E698E0B7
S11311309783868380E894E0918780878EE894E0A3
S11311409387828780E994E09587848783E994E094
S11311509787868786E994E0918B808B89E994E070
S1131160938B828B8AE894E0958B848B8CE894E053
S1131170978B868B8BE994E0918F808F8CEB94E036
S1131180938F828F8AEC94E0958F848F8CEE94E019
S1131190978F868F80E597E091A380A389E897E0F5
S11311A093A382A385EF96E095A384A38DEB96E0A9
S11311B097A386A382E995E091A780A787E995E0A4
S11311C093A782A786EA95E095A784A78AEC95E081
S11311D097A786A78CEC95E091AB80AB86ED95E064
S11311E093AB82AB83EE95E095AB84AB8FEE95E049
S11311F097AB86AB87E096E091AF80AF8AE196E04B
S113120093AF82AF85E296E095AF84AF82E596E036
S113121097AF86AFDF01A05CBF4F87EC97E01196D4
S11312209C938E93129682ED97E011969C938E93E5
S1131230129683EF97E011969C938E93129683E413
S113124098E011969C938E9312968BE498E08D937C
S11312509C93CF010895E4E7F0E084EA80838FEF64
S113126093E090939B0280939A02808188235CF0A0
S11312708EEF93E090939B0280939A022081222325
S113128014F00197B8F7089580937300E4E7F0E051
S113129084E880838FEF93E090939B0280939A027B
S11312A0808188235CF08EEF93E090939B0280937F
S11312B09A022081222314F00197B8F7089520E4BC
S11312C0829FC00111248468E4E7F0E080838FEFFB
S11312D093E090939B0280939A02808188235CF030
S11312E08EEF93E090939B0280939A0220812223B5
S11312F014F00197B8F780917300089580917100FC
S1131300887F089584E9809374008FE891E00197C1
S1131310F1F700C00000089591B3936091BB92B3BC
S1131320936092BB843079F018F4813031F01DC0A1
S1131330803179F0803499F018C0E1E7F0E09081D1
S11313409C7F908318C0E1E7F0E0908191609083E6
S113135012C0E1E7F0E09081926090830CC0E1E775
S1131360F0E090819360908306C0E1E7F0E0808133
S11313708C7F808381E0282F30E0220F331F032EDF
S1131380000C440B550B60E970E080E090E00E9493
S11313906A192093700008951F93CF93DF93EC0193
S11313A0862F1FB79FB79F779FBFB6DF1FBF8BE204
S11313B099E09983888382E899E09B838A8384E413
S11313C099E09D838C838FE599E09F838E838EE7DC
S11313D099E099878887CE01DF91CF911F91089575
S11313E0CF93DF9300D000D01F92CDB7DEB785E056
S11313F0EAEDF2E0DE01119601900D928A95E1F793
S113140029813A814B815C816D8170E080E090E0BC
S11314100F900F900F900F900F90DF91CF91089540
S11314201092A702EAEDF2E080E2808380E191E08D
S113143092838183948383830895CF93DF9321E000
S113144080E0AFE9B2E0E3EAF2E060E071E001C01D
S11314502F5F9FEF920F913009F44BC038F0923018
S113146009F48CC0933009F4CEC00EC14091AA0295
S11314705091AB02EA0198819068988340919C0254
S113148050919D02EA0198819F7798834091A80228
S11314905091A902EA01388134773C939081432F1B
S11314A0492794233083992399F0943019F4EB015C
S11314B088810AC0903119F4EB01898109C0903206
S11314C019F4EB018A8104C0903411F4EB018B818F
S11314D04091AA025091AB02EA0198819F779883C8
S11314E040919C0250919D02EA01988190689883F2
S11314F0AFCF4091AA025091AB02EA01988191606A
S1131500988340919C0250919D02EA0198819E7FAC
S113151098834091A8025091A902EA013881347756
S113152011963C9311979181432F4927942331833A
S1131530992399F0943019F4EB018C810AC090310D
S113154019F4EB018D8109C0903219F4EB018E81FD
S113155004C0903411F4EB018F814091AA025091A0
S1131560AB02EA0198819E7F988340919C0250913E
S11315709D02EA019881916098836ACF4091AA0202
S11315805091AB02EA0198819260988340919C0249
S113159050919D02EA0198819D7F98834091A80211
S11315A05091A902EA013881347712963C9312973C
S11315B09281432F492794233283992399F09430BD
S11315C019F4EB0188850AC0903119F4EB0189857F
S11315D009C0903219F4EB018A8504C0903411F4E7
S11315E0EB018B854091AA025091AB02EA019881EC
S11315F09D7F988340919C0250919D02EA019881BD
S11316009260988325CFE091AA02F091AB02908179
S113161098609083E0919C02F0919D029081977F65
S11316209083E091A802F091A9022081247720936D
S1131630A202E3EAF2E09381322F39279323238332
S1131640992399F0943019F480910C010AC09031D7
S113165019F480910D0109C0903219F480910E01A2
S113166004C0903411F480910F01E091AA02F0912A
S1131670AB029081977F9083E0919C02F0919D0250
S113168090819860908303C0243008F4E1CEDF9108
S1131690CF910895CF93DF9300D000D01F92CDB7A0
S11316A0DEB7CBDE8823B1F18093DA029091A702F2
S11316B0943188F4E091A702F0E0E455FD4F808373
S11316C09091A7029F5F9093A702E091A702F0E098
S11316D0E455FD4F1082843499F4E091A702F0E0C0
S11316E0E555FD4F10821092A702EAEDF2E080E189
S11316F091E0928381838CEA92E0948383830AC08D
S1131700EAEDF2E08CEA92E09283818380E191E059
S11317109483838385E0EAEDF2E0DE011196019083
S11317200D928A95E1F729813A814B815C816D8123
S113173070E080E090E00F900F900F900F900F906A
S1131740DF91CF910895CF93DF93CDB7DEB728977C
S11317500FB6F894DEBF0FBECDBF2FB730E2309383
S1131760DA029093AB028093AA027093A902609369
S1131770A80250939D0240939C023BE8FC013083F5
S1131780E0919C02F0919D0284E78083AFE9B2E08E
S11317908C93E3EAF2E0808311968C931197818312
S11317A012968C931297828313968C938383109250
S11317B0A7022FBFE0919C02F0919D0280818B686B
S11317C080832DE13AE03A8329834AE45BE05C8339
S11317D04B8360EF79E07E836D8380E19AE09887A4
S11317E08F833A815C817E81988528960FB6F89420
S11317F0DEBF0FBECDBFDF91CF910895E091CB0244
S1131800F091CC0290819D7F9083672B41F0E09111
S1131810CB02F091CC0290819160908307C0E0915B
S1131820CB02F091CC0290819E7F9083E091C8021C
S1131830F091C9029081906F9083E091CB02F09176
S1131840CC02908194609083882344F4E091CB028D
S1131850F091CC0290819068908307C0E091CB0214
S1131860F091CC0290819F77908386FF08C0E0912D
S1131870CB02F091CC0290819064908307C0E091F8
S1131880CB02F091CC0290819F7B908385FF08C0AE
S1131890E091CB02F091CC0290819062908307C0DA
S11318A0E091CB02F091CC0290819F7D908384FFE4
S11318B008C0E091CB02F091CC02908190619083BA
S11318C007C0E091CB02F091CC0290819F7E90837F
S11318D0E091CB02F091CC0290819B7F9083E091C8
S11318E0CB02F091CC0290819460908383FF08C076
S11318F0E091CB02F091CC0290819068908307C074
S1131900E091CB02F091CC0290819F77908382FF8B
S113191008C0E091CB02F091CC0290819064908356
S113192007C0E091CB02F091CC0290819F7B908321
S113193081FF08C0E091CB02F091CC0290819062CB
S1131940908307C0E091CB02F091CC0290819F7DFF
S1131950908380FF08C0E091CB02F091CC0280819B
S11319608061808307C0E091CB02F091CC0280813A
S11319708F7E8083E091CB02F091CC0280818B7FBB
S113198080830895E091C802F091C90220812F70EC
S11319902083E091CB02F091CC022081206F208340
S11319A0E091CB02F091CC02208122602083892B2C
S11319B041F0E091CB02F091CC0280818160808380
S11319C007C0E091CB02F091CC0280818E7F8083AE
S11319D0E091CB02F091CC02808184608083E0911D
S11319E0C102F091C2028081882314F080E001C01A
S11319F080E8908196FF02C0806401C08F7B908153
S1131A0095FF02C0806201C08F7D908194FF02C067
S1131A10806101C08F7EE091CB02F091CC02908175
S1131A209B7F9083E091CB02F091CC0290819460F3
S1131A309083E091C102F091C2029081992314F441
S1131A40886001C0877F908196FF02C0846001C0D6
S1131A508B7F908195FF02C0826001C08D7F908151
S1131A6094FF02C0816001C08E7FE091CB02F091AF
S1131A70CC0290819B7F90830895CF93DF9380E085
S1131A8090E080DFCBE0D0E005C080E090E07ADF3A
S1131A90219711F08823CCF3DF91CF91089561E071
S1131AA070E0ACDEEACF0895CF9381E090E06ADF86
S1131AB0C82FE3DF8C2FCF910895CF93DF93EC01F0
S1131AC08881882341F0219661E070E097DED5DFBC
S1131AD089918111F9CFDF91CF9108950F931F93CD
S1131AE0CF93DF93FC01D62F8081882351F08F019F
S1131AF00F5F1F4F611109C01BC0CF5FDC1730F4AB
S1131B0001C0C0E0CD1760F013C0C1E061E070E037
S1131B1075DEB3DFF80181918F018111EECFF2CF31
S1131B20CF5F61E070E080E269DEA7DFCD17C0F32C
S1131B30DF91CF911F910F910895CF93C82F8823E0
S1131B4039F061E070E080E259DE97DFC150C9F7F7
S1131B50CF910895262F8130910571F030F08230B5
S1131B60910589F00397B1F0089560E070E080E892
S1131B70820F44DE82CF089560E070E080EC820F33
S1131B803DDE7BCF089560E070E084E9820F36DEAD
S1131B9074CF089560E070E084ED820F2FDE6DCF86
S1131BA0089560E070E081E029DE87EE97E1019717
S1131BB0F1F700C000000895E091C802F091C90255
S1131BC087E08083E091CB02F091CC0288E08083AF
S1131BD02FEF83EF91E0215080409040E1F700C067
S1131BE0000060E070E083E309DE20ED2A95F1F760
S1131BF060E070E083E302DE80ED8A95F1F760E057
S1131C0070E08BE2FBDD95EC9A95F1F7000060E063
S1131C1070E08CE0F3DD25EC2A95F1F7000060E03C
S1131C2070E081E0EBDD87EE97E10197F1F700C00A
S1131C30000060E070E086E0E1DD95EC9A95F1F754
S1131C40000008951F93CF93DF93EC011FB78FB764
S1131C508F778FBF7093C9026093C8025093C202FA
S1131C604093C1023093CC022093CB02FB0110823B
S1131C70E091CB02F091CC028FEF8083E091C1021E
S1131C80F091C202808188708093CA0295DF1FBFE1
S1131C908EEF9BE09983888382EC9CE09B838A830C
S1131CA08DE39DE09D838C838FE49DE09F838E83F1
S1131CB084E59DE0998788878DE59DE09B878A87E9
S1131CC08EE69DE09D878C878DE99DE09F878E87BA
S1131CD081ED9DE0998B888B8AEA9DE09B8B8A8BB2
S1131CE089E79EE09D8B8C8BCE01DF91CF911F9174
S1131CF00895CF93E091C102F091C202C081C870EF
S1131D008091CA028C278C2309F056DFC093CA0243
S1131D10CF910895FF920F931F93CF93DF93182FC2
S1131D20062FF42EC0EFD2E0E881F9810995EC8109
S1131D30FD8182EA0995EC81FD8182E00995EC81BF
S1131D40FD818F2D0995EC81FD81802F0995EC8112
S1131D50FD81812F0995EA81FB810995DF91CF915E
S1131D601F910F91FF9008951F93CF93DF93182F26
S1131D70C0EFD2E0E881F9810995EC81FD8182EA26
S1131D800995EC81FD8184E00995EC81FD81812F29
S1131D900995EA81FB810995DF91CF911F910895FF
S1131DA01F93CF93DF93182FC0EFD2E0E881F9811E
S1131DB00995EC81FD8182EA0995EC81FD8183E03E
S1131DC00995EC81FD81812F0995EA81FB810995B3
S1131DD0DF91CF911F9108951F93CF93DF93182F15
S1131DE0C0EFD2E0E881F9810995EC81FD8182EAB6
S1131DF00995EC81FD8182E00995EC81FD81812FBB
S1131E000995EA81FB810995DF91CF911F9108958E
S1131E101F93CF93DF93882321F06370162F1068EC
S1131E2001C010E0C0EFD2E0E881F9810995EC81AE
S1131E30FD8182EA0995EC81FD818DE00995EC81B3
S1131E40FD81812F0995EA81FB810995DF91CF916D
S1131E501F910895EF92FF920F931F93CF93DF93F7
S1131E60E82EF62E042F122FC0EFD2E0E881F9817C
S1131E700995EC81FD8182EA0995EC81FD8185E07B
S1131E800995EC81FD818E2D0995EC81FD818F2DC5
S1131E900995EC81FD81802F0995EC81FD81812FCD
S1131EA00995EA81FB810995DF91CF911F910F91EB
S1131EB0FF90EF9008951F93CF93DF93182FC0EFF7
S1131EC0D2E0E881F9810995EC81FD8182EA0995E6
S1131ED0EC81FD8188E00995EC81FD81812F0995D4
S1131EE0EA81FB810995DF91CF911F9108951F939A
S1131EF0CF93DF93182FC0EFD2E0E881F9810995E1
S1131F00EC81FD8182EA0995EC81FD8187E00995E8
S1131F10EC81FD81812F0995EA81FB810995DF918F
S1131F20CF911F9108951F93CF93DF93182FC0EF84
S1131F30D2E0E881F9810995EC81FD8182EA099575
S1131F40EC81FD8186E00995EC81FD81812F099565
S1131F50EA81FB810995DF91CF911F9108951F9329
S1131F60CF93DF93182FC0EFD2E0E881F981099570
S1131F70EC81FD8182EA0995EC81FD8185E009957A
S1131F80EC81FD81812F0995EA81FB810995DF911F
S1131F90CF911F910895FF920F931F93CF93DF93D7
S1131FA0C0EFD2E0E881F9810995EC81FD8182EAF4
S1131FB00995EC81FD8182E00995EA81FB8109950F
S1131FC0E881F9810995EC81FD8183EA0995EE8127
S1131FD0FF8181E00995F82EEE81FF8181E009956A
S1131FE0182FEE81FF8180E00995082FEA81FB819B
S1131FF00995602F6F73712F7F778F2D8F77DF9106
S1132000CF911F910F91FF900895EF92FF920F933C
S11320101F93CF93DF93C0EFD2E0E881F981099554
S1132020EC81FD8182EA0995EC81FD8185E00995C9
S1132030EA81FB810995E881F9810995EC81FD81AB
S113204083EA0995EE81FF8181E00995082FEE81ED
S1132050FF8181E00995F82EEE81FF8181E00995E9
S1132060182FEE81FF8180E00995E82EEA81FB813B
S11320700995712F7F716E2D8F2D8770902F9F730F
S1132080DF91CF911F910F91FF90EF900895982FBA
S113209092959F70990F292F220F220F920F8F7004
S11320A0890F08959DEC899F912D112496959695FD
S11320B09695392F330F232F220F220F230F821BC4
S11320C020E1929F800D11240895CF93DF93C0EFF8
S11320D0D2E0E881F9810995EC81FD8182EA0995D4
S11320E0EC81FD8180E00995EC81FD8180E009951A
S11320F0EA81FB810995DF91CF910895FF920F93B7
S11321001F93CF93DF93CDB7DEB72A970FB6F8941A
S1132110DEBF0FBECDBF8C01FFB68FB78F778FBFE9
S1132120CE01019639D98AE0FE013196A0EFB2E0E2
S113213001900D928A95E1F7C8DFFFBE8AE89EE020
S1132140F8019183808384EB9EE09383828380ED06
S11321509EE0958384838CEE9EE09783868388E05B
S11321609FE0918780878AE29FE0938782878FEA46
S11321709FE09587848783E99FE09787868787E731
S11321809FE0918B808B8BE59FE0938B828B8BEC14
S11321909FE0958B848B85E090E1978B868B87E419
S11321A090E1918F808F82E590E1938F828FC801B7
S11321B02A960FB6F894DEBF0FBECDBFDF91CF9144
S11321C01F910F91FF900895109261008FE080930A
S11321D0620087B3806E87BB0895CF93DF93CDB73A
S11321E0DEB7C155D1400FB6F894DEBF0FBECDBFE8
S11321F0EBDFCE018E569F4F0E948408CC54DF4FF4
S113220088819981C45BD040C15CDE4F9983888307
S1132210CF53D140C254DF4FA881B981CE5BD040A7
S1132220C25BDE4FB983A883CE54D140C053DF4F85
S1132230E881F981C05DD040CD5BDE4FF983E8834E
S1132240C354D1402BE330E049E350E06AE370E04B
S1132250CE0184529F4FF6DCCE51DF4F88819981A5
S1132260C25ED040C75CDE4F99838883C953D14096
S1132270C851DF4F68807980C85ED040C451DF4FB9
S1132280A881B981CC5ED040C35CDE4FB983A883FA
S1132290CD53D140C251DF4F28803980CE5ED0402B
S11322A043E250E061E270E082E290E04CDACC502C
S11322B0DF4F4883C45FD040CB50DF4F5883C55FA6
S11322C0D040CA50DF4F6883C65FD040C950DF4F4B
S11322D07883C75FD040C850DF4F8883C85FD04041
S11322E0C750DF4F9883C95FD040CA50DF4F888002
S11322F09980C65FD040C850DF4FE881F981C85F3C
S1132300D040C55CDE4FF983E883CB53D1401F92A4
S11323101F921F9281E08F9390E89F938F930E9466
S11323209200C85BDE4F688379838A839B83C85499
S1132330D14040E069E0CE0186509F4F0E944602A2
S1132340CE5FDE4F88819981C250D140CB5BDE4F96
S113235099838883C554D14060E1CE01865F9E4F46
S1132360CDDECE5DDE4FA881B981C252D140CF5BB4
S1132370DE4FB983A883C154D140CC5DDE4FE881E0
S1132380F981C452D140C05BDE4FF983E883C05564
S1132390D140FE01EA5DFE4F80E390E0819391938A
S11323A084E0DF011D928A95E9F789E390E3C45D37
S11323B0DE4F99838883CC52D140C25DDE4F1982AF
S11323C01882CE52D140C05DDE4F19821882C053AC
S11323D0D140C450DF4FE881F981CC5FD04082E026
S11323E00995C050DF4FE881F981C050D14080E2A7
S11323F09EE40995CA5FDE4FE881F981C650D14059
S113240088E090E00995CE5EDE4FE881F981C25103
S1132410D14062E081E009950F900F900F900F90EA
S11324200F900F90B0E3C95BDE4FB883C754D1401F
S1132430E1E3C85CDE4FE883C853D14006C0F0E353
S1132440C95BDE4FF883C754D140C051DF4F488089
S11324505980C05FD040F2010995CC50DF4F08810C
S11324601981C45FD040F80109956DE070E083E004
S113247090E0F10109958AE3C75CDE4FE881F981B8
S1132480C953D1400995F4010995C257DF4F3883E8
S1132490CE58D040C157DF4F4883CF58D04066E074
S11324A0C257DF4F88819981CE58D040F3010995F6
S11324B0C85CDE4FF881C853D140F23309F483C1BC
S11324C0F33309F4C1C2F13309F0A6C6F401099546
S11324D0C557DF4F5883CB58D040C457DF4F68836C
S11324E0CC58D04062E171E0C557DF4F88819981B3
S11324F0CB58D0404FD7892BA9F4C55CDE4FE88177
S1132500F981CB53D1400995C35CDE4FE881F98151
S1132510CD53D1400995F2E3C85CDE4FF883C8532C
S1132520D14093CFF4010995CA57DF4F5883C65859
S1132530D040C957DF4F6883C758D04064E171E089
S1132540CA57DF4F88819981C658D04023D7892B39
S1132550A9F4C55CDE4FE881F981CB53D1400995DC
S1132560C35CDE4FE881F981CD53D1400995F3E393
S1132570C85CDE4FF883C853D14067CFC25EDE4FDC
S1132580E881F981CE51D14009956093FA027093A4
S1132590FB028093FC02C05EDE4FE881F981C052E9
S11325A0D14009956093FD027093FE028093FF026F
S11325B09093000380E090E0C65BDE4FE881F981F0
S11325C0CA54D14009952C01BC01990F880B990B71
S11325D01F921F9229E02F932EE22F930F2EF4EFD8
S11325E0AF2EBB24B394C12CD12CF02DEE24EA944D
S11325F013E0F12E00E010E020E030E0A901CD5B13
S1132600DE4FE881F981C354D1400995CB01CB5BFE
S1132610DE4FE881F981C554D140099560E070E04E
S113262080E090E0F101099567E086E191E0F30133
S11326300995CE54DF4FE881F981C25BD040C201D5
S11326400995BC01CE018A5D9E4FADD664E0CE01F2
S11326508A5D9E4FF30109956CE070E080E090E0A4
S1132660F10109950DEF12E0D80113968C91CF5B1F
S1132670DE4FE881F981C154D140099590E0C15CF5
S1132680DE4FE881F981CF53D140099562E0F3012F
S113269009958AE3C75CDE4FE881F981C953D140CB
S11326A00995D80111968C91CF5BDE4FE881F981B1
S11326B0C154D140099590E0C15CDE4FE881F981B5
S11326C0CF53D140099562E0F30109958AE3C75CD1
S11326D0DE4FE881F981C953D1400995D8018C9125
S11326E0CF5BDE4FE881F981C154D140099590E078
S11326F0C15CDE4FE881F981CF53D140099562E096
S1132700F30109956CE070E081E090E0F101099536
S11327100AEF12E0D8018C91CF5BDE4FE881F9819A
S1132720C154D140099590E0C15CDE4FE881F98144
S1132730CF53D140099562E0F30109958AE3C75C60
S1132740DE4FE881F981C953D1400995D80111962A
S11327508C91CF5BDE4FE881F981C154D14009955A
S113276090E0C15CDE4FE881F981CF53D1400995F7
S113277062E0F30109958AE3C75CDE4FE881F981E1
S1132780C953D1400995D80112968C91CF5BDE4F85
S1132790E881F981C154D140099590E0C15CDE4FD4
S11327A0E881F981CF53D140099562E0F30109959D
S11327B00F900F900F900F90F1E3C85CDE4FF883F9
S11327C0C853D14042CEF4010995CF57DF4F588307
S11327D0C158D040CE57DF4F6883C258D04062E121
S11327E071E0CF57DF4F88819981C158D040D2D54D
S11327F0892BA9F4C55CDE4FE881F981CB53D14024
S11328000995C35CDE4FE881F981CD53D140099528
S1132810F3E3C85CDE4FF883C853D14016CEF4010D
S11328200995ED965FAFED97EE966FAFEE9764E185
S113283071E0EE968EAD9FADEE97ACD5892BA9F4E1
S1132840C55CDE4FE881F981CB53D1400995C35C67
S1132850DE4FE881F981CD53D1400995F1E3C85C9D
S1132860DE4FF883C853D140F0CDF4010995E896C2
S11328705FAFE897E9966FAFE9976EE171E0E9968B
S11328808EAD9FADE99786D5892BA9F4C55CDE4F43
S1132890E881F981CB53D1400995C35CDE4FE881CF
S11328A0F981CD53D1400995F1E3C85CDE4FF8833B
S11328B0C853D140CACD60E070E080E090E0F101FF
S11328C0099568E080E291E0F301099563E0CE01A7
S11328D0845D9E4FF3010995F4010995243409F0B0
S11328E069C0F4010995AE965FAFAE97AF966FAF2E
S11328F0AF97AF966EAD7FADAF9746E050E0CE0197
S1132900845D9E4F57D5CE01845D9E4FC25BDE4FE2
S1132910E881F981CE54D14009952C01853B91057C
S1132920E0F5BC01990F880B990B1F921F9229E0C7
S11329302F932EE22F930F2EF4EFAF2EBB24B394DC
S1132940C12CD12CF02D14EBE12EF12C00E010E081
S113295020E030E0A901CD5BDE4FE881F981C3546A
S1132960D1400995CB01CB5BDE4FE881F981C55499
S1132970D1400995C651DF4FE881F981CA5ED04044
S113298085E009950F900F900F900F90C45BDE4F78
S113299059824882CC54D14005C065E089E291E077
S11329A0F3010995C55CDE4FE881F981CB53D14031
S11329B0099533C01F921F9289E08F938EE28F9303
S11329C00F2EF4EFAF2EBB24B394C12CD12CF02DD9
S11329D014EBE12EF12C00E010E020E030E0A9013E
S11329E0C45BDE4FA881B981CC54D140BD01BB0F7B
S11329F0880B990BCD5BDE4FE881F981C354D1403C
S1132A000995CB01CB5BDE4FE881F981C554D140F8
S1132A1009950F900F900F900F9060E070E083E0A5
S1132A2090E0F101099568E08FE291E0F3010995E6
S1132A3060E070E083E090E0F101099568E08FE2E6
S1132A4091E0F301099501CDF4010995A9965FAFD1
S1132A50A997AA966FAFAA9762E171E0AA968EAD84
S1132A609FADAA9797D4892BA9F4C55CDE4FE88162
S1132A70F981CB53D1400995C35CDE4FE881F981DC
S1132A80CD53D1400995F1E3C85CDE4FF883C853B8
S1132A90D140DBCCF4010995A4965FAFA497A59629
S1132AA06FAFA59764E171E0A5968EAD9FADA59734
S1132AB071D4892BA9F4C55CDE4FE881F981CB532D
S1132AC0D1400995C35CDE4FE881F981CD53D140F3
S1132AD00995F2E3C85CDE4FF883C853D140B5CC06
S1132AE0F40109956F965FAF6F97A0966FAFA097AB
S1132AF06EE171E0A0968EAD9FADA0974BD4892B6B
S1132B00D9F4C55CDE4FE881F981CB53D1400995F6
S1132B10C35CDE4FE881F981CD53D1400995F0E3E0
S1132B20C95BDE4FF883C754D14021E3C85CDE4F54
S1132B302883C853D14089CC60E070E080E090E005
S1132B40F101099563E188E391E0F3010995C95B1B
S1132B50DE4FF881C754D1408F2F90E0FC01F097ED
S1132B60E730F10508F06BCCEF59FF4FF1C360E09B
S1132B7070E081E090E0F101099567E08CE491E078
S1132B80F301099568E083E591E0F301099565E0B7
S1132B908BE591E0F301099560E070E082E090E05C
S1132BA0F101099567E081E691E0F301099568E098
S1132BB088E691E0F301099565E08EE691E0F30182
S1132BC0099560E070E083E090E0F101099568E028
S1132BD08FE291E0F3010995F40109956A965FAFDC
S1132BE06A976B966FAF6B9764E771E06B968EADE7
S1132BF09FAD6B97CFD3892BA1F4C55CDE4FE881E1
S1132C00F981CB53D1400995C35CDE4FE881F9814A
S1132C10CD53D1400995F1E3C95BDE4FF883C75426
S1132C20D140F401099565965FAF659766966FAFDD
S1132C30669766E771E066968EAD9FAD6697AAD3F8
S1132C40892BA1F4C55CDE4FE881F981CB53D140D7
S1132C500995C35CDE4FE881F981CD53D1400995D4
S1132C60F2E3C95BDE4FF883C754D140F401099500
S1132C7060965FAF609761966FAF619768E771E0A8
S1132C8061968EAD9FAD619785D3892BA1F4C55C08
S1132C90DE4FE881F981CB53D1400995C35CDE4F07
S1132CA0E881F981CD53D1400995F3E3C95BDE4F47
S1132CB0F883C754D140F40109952B965FAF2B9745
S1132CC02C966FAF2C976AE771E02C968EAD9FAD72
S1132CD02C9760D3892BA1F4C55CDE4FE881F98180
S1132CE0CB53D1400995C35CDE4FE881F981CD53C4
S1132CF0D1400995F4E3C95BDE4FF883C754D14052
S1132D00F401099526965FAF269727966FAF27970C
S1132D106CE771E027968EAD9FAD27973BD3892B47
S1132D20A1F4C55CDE4FE881F981CB53D14009950C
S1132D30C35CDE4FE881F981CD53D1400995F5E3B9
S1132D40C95BDE4FF883C754D140F401099521963D
S1132D505FAF219722966FAF22976EE771E02296BC
S1132D608EAD9FAD229716D3892B09F06ECBC55C2F
S1132D70DE4FE881F981CB53D1400995C35CDE4F26
S1132D80E881F981CD53D1400995F6E3C95BDE4F63
S1132D90F883C754D14059CB60E070E081E090E003
S1132DA0F10109956BE080E891E0F301099560E099
S1132DB070E083E090E0F101099568E08FE291E032
S1132DC0F3010995F4010995243409F03ECBF4018B
S1132DD009955EAB6FAB6EA97FA9CE018E5C9E4F49
S1132DE0E2D2CE018E5C9E4FC25BDE4FE881F98158
S1132DF0CE54D140099584369105B0F4C45EDE4FBB
S1132E0008811981CC51D140C05BDE4FE881F98142
S1132E10C055D1400995F8010995F0E3C95BDE4F2F
S1132E20F883C754D14010C085E692E7CE5CDE4FEC
S1132E3099838883C253D14082E790E0CC5CDE4F13
S1132E4099838883C453D140C55CDE4FE881F981FE
S1132E50CB53D1400995F9CA60E070E081E090E07D
S1132E60F10109956CE08CE891E0F301099560E0CB
S1132E7070E083E090E0F101099568E08FE291E071
S1132E80F3010995F4010995243409F0DECAF4012B
S1132E9009955CA76DA76CA57DA5CE018E5C9E4FA0
S1132EA082D2CE018E5C9E4FC25BDE4FE881F981F7
S1132EB0CE54D14009958D309105B0F4C65EDE4FF5
S1132EC008811981CA51D140C05BDE4FE881F98184
S1132ED0C055D1400995F8010995F0E3C95BDE4F6F
S1132EE0F883C754D14010C085E692E7CE5CDE4F2C
S1132EF099838883C253D14082E790E0CC5CDE4F53
S1132F0099838883C453D140C55CDE4FE881F9813D
S1132F10CB53D140099599CA60E070E081E090E01C
S1132F20F10109956AE089E991E0F301099560E00E
S1132F3070E083E090E0F101099568E08FE291E0B0
S1132F40F3010995F4010995243409F07ECAF401CA
S1132F5009955AA36BA36AA17BA1CE018E5C9E4FF7
S1132F6022D2CE018E5C9E4FC25BDE4FE881F98196
S1132F70CE54D140099580329105B0F4CA5EDE4F3B
S1132F8008811981C651D140C05BDE4FE881F981C7
S1132F90C055D1400995F8010995F0E3C95BDE4FAE
S1132FA0F883C754D14010C085E692E7CE5CDE4F6B
S1132FB099838883C253D14082E790E0CC5CDE4F92
S1132FC099838883C453D140C55CDE4FE881F9817D
S1132FD0CB53D140099539CA60E070E081E090E0BC
S1132FE0F10109956BE084EA91E0F301099560E051
S1132FF070E083E090E0F101099568E08FE291E0F0
S1133000F3010995F4010995243409F01ECAF40169
S11330100995588F698F688D798DCE018E5C9E4F8E
S1133020C2D1CE018E5C9E4FC25BDE4FE881F98136
S1133030CE54D140099588319105B0F4C45FDE4F78
S113304008811981CC50D140C05BDE4FE881F98101
S1133050C055D1400995F8010995F0E3C95BDE4FED
S1133060F883C754D14010C085E692E7CE5CDE4FAA
S113307099838883C253D14082E790E0CC5CDE4FD1
S113308099838883C453D140C55CDE4FE881F981BC
S1133090CB53D1400995D9C960E070E081E090E05C
S11330A0F10109956DE080EB91E0F301099560E091
S11330B070E083E090E0F101099568E08FE291E02F
S11330C0F3010995F4010995243409F0BEC9F4010A
S11330D009955E876F876E857F85CE018E5C9E4FD6
S11330E062D1CE018E5C9E4FC25BDE4FE881F981D6
S11330F0CE54D14009958C339105B0F4C25FDE4FB4
S113310008811981CE50D140C05BDE4FE881F9813E
S1133110C055D1400995F8010995F0E3C95BDE4F2C
S1133120F883C754D14010C085E692E7CE5CDE4FE9
S113313099838883C253D14082E790E0CC5CDE4F10
S113314099838883C453D140C55CDE4FE881F981FB
S1133150CB53D140099579C960E070E081E090E0FB
S1133160F10109956DE08FEB91E0F301099560E0C1
S113317070E083E090E0F101099568E08FE291E06E
S1133180F3010995F4010995243409F05EC9F401A9
S113319009955C836D836C817D81CE018E5C9E4F2D
S11331A002D1CE018E5C9E4FC25BDE4FE881F98175
S11331B0CE54D14009958C339105B0F4C05FDE4FF5
S11331C008811981C051D140C05BDE4FE881F9818B
S11331D0C055D1400995F8010995F0E3C95BDE4F6C
S11331E0F883C754D14010C085E692E7CE5CDE4F29
S11331F099838883C253D14082E790E0CC5CDE4F50
S113320099838883C453D140C55CDE4FE881F9813A
S1133210CB53D140099519C9F2010995F8010995D3
S11332206DE070E083E090E0F10109958AE3C75C0A
S1133230DE4FE881F981C953D1400995F40109951C
S1133240C257DF4F3883CE58D040C157DF4F488331
S1133250CF58D04066E0C257DF4F88819981CE585D
S1133260D040F301099532C9DB018F939F9388D035
S1133270BF91AF91A29F800D911DA39F900DB29F0E
S1133280900D11240895AA1BBB1B51E107C0AA1F6E
S1133290BB1FA617B70710F0A61BB70B881F991FF3
S11332A05A95A9F780959095BC01CD01089597FB97
S11332B0072E16F4009406D077FD08D0E4DF07FC4F
S11332C005D03EF4909581959F4F08957095619532
S11332D07F4F0895A1E21A2EAA1BBB1BFD010DC04E
S11332E0AA1FBB1FEE1FFF1FA217B307E407F507B2
S11332F020F0A21BB30BE40BF50B661F771F881F8E
S1133300991F1A9469F760957095809590959B0123
S1133310AC01BD01CF010895052E97FB16F400946E
S11333200FD057FD05D0D6DF07FC02D046F408C005
S113333050954095309521953F4F4F4F5F4F0895DD
S113334090958095709561957F4F8F4F9F4F08950D
S1133350EE0FFF1F0024001C0BBE0790F691E02D1A
S11333600994A29FB001B39FC001A39F700D811D5A
S11333701124911DB29F700D811D1124911D08957A
S1133380F0DFA59F900DB49F900DA49F800D911D1B
S113339011240895FB01DC018D9101908019011025
S11333A0D9F3990B0895FB01DC0101900D920020E3
S11333B0E1F70895FB01DC014150504048F00190D1
S11333C00D920020C9F701C01D9241505040E0F712
S10933D00895F894FFCFFC
S11333D63132334134353642373839432A3023447F
S11333E600004100420053656E73653A20004300B5
S11333F64D616E75616C3A2000202065727200433F
S1133406202D2065786974004461746520616E64BA
S11334162054696D6520536574757000312D5965A6
S1133426617200322D4D6F6E746800332D446179DC
S113343600342D486F757200352D4D696E00362D9A
S11334465365630031003200330034003500360022
S1133456456E74657220596561723A00456E7465ED
S113346672204D6F6E74683A00456E74657220441E
S113347661793A00456E74657220486F75723A0038
S1133486456E746572204D696E757465733A0045B0
S11134966E746572205365636F6E64733A0042
S9030000FC
