S011000041746D6567613132382E7372656329
S113000060C000007DC000007BC0000079C000001B
S113001077C0000075C0000073C0000071C000000C
S11300206FC000006DC0000001C40000CDC300001B
S1130030D5C30000DDC30000EFC300000C94B81367
S1130040B9C300005DC000002DC4000063C40000FB
S113005057C00000F6C0000053C0000051C00000AB
S1130060D1C30000EDC30000F5C30000FDC30000D0
S113007005C400000DC4000076C40000AFC4000035
S11300803FC000003DC000003BC00000FB02FF0277
S1130090030307030B0312031903200324032B0395
S11300A0320339033D0344034B0367036B036F03BC
S11300B0730379037D03810385038E0392039603FF
S11300C09F0311241FBECFEFD0E1DEBFCDBF11E0EF
S11300D0A0E0B1E0EAE3F9E200E00BBF02C0079060
S11300E00D92A833B107D9F722E0A8E3B1E001C02B
S11300F01D92A138B207E1F70E949C100C949B1446
S11301007FCF369B369AFC01EE0FFF1FEF5AFE4F4E
S11301108081918108950F931F93CF93DF93CDB77F
S1130120DEB79F81688549855A851FB78FB78F775A
S11301308FBF5093400140933F0110923E011092B3
S11301403D011092380187B18F7387B9913019F04E
S1130150933021F008C03E9A01E006C087B1806C5C
S113016087B903E001C000E03D98141615068CF42D
S1130170DE011B9680E090E02D913D91FC01EE0F95
S1130180FF1FEF5BFE4F3183208301964817590709
S113019099F787B1807E87B9E0913D01F0913E01E6
S11301A0EE0FFF1FEF5BFE4F8081918127B18F71AE
S11301B09927822B87B9379A369A3598339A86B11C
S11301C0887F86B96031D1F038F4643079F06830D2
S11301D081F0623029F507C06034C1F06038D9F08D
S11301E06032F1F40EC0309A22E01EC0319A24E04D
S11301F01BC086B1836086B928E016C0329A20E11C
S113020013C086B1856086B920E20EC086B18660CF
S113021086B920E409C086B1876086B920E804C0A5
S113022086B1876086B920E81FBF8FB780688FBF0B
S1130230602F722F81E890E0DF91CF911F910F9191
S113024008951F920F920FB60F9211240BB60F92BE
S11302502F933F938F939F93EF93FF9384B190E0F9
S113026090933A018093390125B18091390190919D
S11302703A01922B90933A0180933901809138018D
S11302808430A0F4809138018F5F809338012091ED
S1130290390130913A0180913B0190913C01820FE8
S11302A0931F90933C0180933B0143C0E0913D0137
S11302B0F0913E0180913B0190913C019595879589
S11302C095958795EE0FFF1FEF5AFE4F918380831C
S11302D010923C0110923B011092380120913D0193
S11302E030913E0180913F019091400128173907D8
S11302F054F480913D0190913E01019690933E010A
S113030080933D0104C010923E0110923D0187B1DB
S1130310807E87B9E0913D01F0913E01EE0FFF1F11
S1130320EF5BFE4F8081918127B18F719927822BDA
S113033087B9FF91EF919F918F913F912F910F90EA
S11303400BBE0F900FBE0F901F9018952091EE01D9
S1130350211140C02FEF21BF23B7287F23BF803452
S1130360910511F148F488309105B1F0803291057E
S1130370B9F0019749F50CC0811521E09207E1F02D
S1130380811524E09207E1F080389105E9F410C06A
S113039083B7816083BF1BC083B7826083BF17C0EC
S11303A083B7836083BF13C083B7846083BF0FC0E8
S11303B083B7856083BF0BC083B7866083BF07C0E4
S11303C083B7876083BF03C083B7876083BF81E03F
S11303D08093EE01089593B79F7C93BF823041F0E0
S11303E0833051F0813059F483B7806183BF08951D
S11303F083B7806283BF089583B7806383BF089502
S113040081BF089583B7887F83BF12BE1092EE0127
S113041008952091EB01211142C02FEF3FEF3BBD26
S11304202ABD2EB5287F2EBD88309105D1F048F421
S11304308330910531F18530910539F1019749F502
S11304400CC0811521E09207A1F0811524E09207E8
S1130450A1F080349105E9F408C08EB581608EBDA9
S11304601BC08EB582608EBD17C08EB583608EBDF5
S113047013C08EB584608EBD0FC08EB585608EBDF1
S11304800BC08EB586608EBD07C08EB587608EBDED
S113049003C08EB585608EBD81E08093EB01089525
S11304A09FB59F739FBD823041F0833051F08130FE
S11304B059F48FB580648FBD08958FB580688FBD62
S11304C008958FB5806C8FBD08959FB59F7C9FBDA7
S11304D0823041F0833051F0813059F48FB580611E
S11304E08FBD08958FB580628FBD08958FB58063E9
S11304F08FBD08959FB5937F9FBD823041F08330B7
S113050051F0813059F48FB584608FBD08958FB553
S113051088608FBD08958FB58C608FBD08959BBD95
S11305208ABD089599BD88BD0895909379008093FC
S1130530780008958EB5887F8EBD1DBC1CBC1092BA
S1130540EB0108951092EE0123B7277B23BF62309D
S113055041F0633051F0613059F423B7206423BF74
S113056007C023B7286023BF03C023B7286423BF71
S113057027B72E7F27BF27B72D7F27BF423041F0F3
S1130580433051F0413071F427B7216027BF0AC0CE
S113059027B7226027BF06C027B7216027BF27B728
S11305A0226027BF2BEE31E0FC013183208320E061
S11305B032E03783268326EA31E03587248722E038
S11305C032E03787268708950F931F93DC0110923A
S11305D0EB018FB58C7F8FBD8EB5877E8EBD062FC8
S11305E010E0F8013197EF30F10508F05AC0EA5BEA
S11305F0FF4F0C9469148FB581608FBD52C08FB5C5
S113060082608FBD4EC08FB583608FBD4AC08EB5EA
S113061088608EBD46C08FB581608FBD8EB5886001
S11306208EBD3FC08FB582608FBD8EB588608EBD94
S113063038C08FB583608FBD8EB588608EBD31C0E4
S11306408EB580618EBD2DC08FB581608FBD8EB596
S113065080618EBD26C08FB582608FBD8EB58061EE
S11306608EBD1FC08FB583608FBD8EB580618EBD7A
S113067018C08EB588618EBD14C08FB581608FBDE2
S11306808EB588618EBD0DC08FB582608FBD8EB56D
S113069088618EBD06C08FB583608FBD8EB58861BD
S11306A08EBD8FB583708FBD87B7837C87BFEDE721
S11306B0F0E080818E7F808350E0FA013197EC3046
S11306C0F10508F044C0EB5AFF4F0C94691487B746
S11306D0846087BF3CC087B7806187BF38C087B755
S11306E0886087BF34C0EDE7F0E08081816080835B
S11306F02EC087B7806287BF2AC087B7846187BF4F
S113070026C087B78C6087BF22C087B7846087BF45
S1130710EDE7F0E080818160808319C087B784624F
S113072087BF15C087B78C6187BF11C087B78C613D
S113073087BFEDE7F0E080818160808308C087B7E0
S1130740886187BFEDE7F0E080818160808380E588
S113075092E011969C938E9385E692E013969C9377
S11307608E9312978AE792E015969C938E93149732
S11307708FE892E017969C938E93169782E992E005
S113078019969C938E93189785E992E01B969C93F7
S11307908E931A9789E092E01D969C938E931C97F2
S11307A08AE992E01F969C938E931E97CD011F9128
S11307B00F9108951F920F920FB60F9211240F906C
S11307C00FBE0F901F9018951F920F920FB60F92A5
S11307D011240F900FBE0F901F9018951F920F9227
S11307E00FB60F9211240F900FBE0F901F90189503
S11307F01F920F920FB60F9211240F900FBE0F90FD
S11308001F9018951F920F920FB60F9211240F90FC
S11308100FBE0F901F9018951F920F920FB60F9254
S113082011240F900FBE0F901F9018951F920F92D6
S11308300FB60F9211240F900FBE0F901F901895B2
S11308401F920F920FB60F9211240F900FBE0F90AC
S11308501F9018951F920F920FB60F9211240F90AC
S11308600FBE0F901F9018951F920F920FB60F9204
S113087011240F900FBE0F901F9018951F920F9286
S11308800FB60F9211240F900FBE0F901F90189562
S11308901F920F920FB60F9211240F900FBE0F905C
S11308A01F9018951F920F920FB60F9211240BB63A
S11308B00F928F939F93EF93FF938BB19AB18871AB
S11308C08093A601E091A801EF5FEF718091A701E9
S11308D0E81304C082E08093A60111C09CB1E093A8
S11308E0A8018091A601882331F0F0E0E555FE4F80
S11308F088E5808304C0F0E0E555FE4F9083FF91C6
S1130900EF919F918F910F900BBE0F900FBE0F90A0
S11309101F9018951F920F920FB60F9211240BB6C9
S11309200F928F939F93EF93FF939091AA018091DD
S1130930A901981302C055980BC0E091A901EF5F7B
S1130940EF71E093A901F0E0E553FE4F80818CB98B
S1130950FF91EF919F918F910F900BBE0F900FBE5F
S11309600F901F9018951F920F920FB60F9211249B
S11309700BB60F928F939F93EF93FF9380919B00FD
S113098090919A00887180936101E0916301EF5F17
S1130990EF7180916201E81304C082E080936101E9
S11309A012C090919C00E0936301809161018823BF
S11309B031F0F0E0EA59FE4F88E5808304C0F0E0AE
S11309C0EA59FE4F9083FF91EF919F918F910F9081
S11309D00BBE0F900FBE0F901F9018951F920F9291
S11309E00FB60F9211240BB60F928F939F93EF9330
S11309F0FF939091650180916401981306C0EAE920
S1130A00F0E080818F7D80830EC0809164018F5FD0
S1130A108F7180936401E0916401F0E0EA57FE4F26
S1130A20808180939C00FF91EF919F918F910F9013
S1130A300BBE0F900FBE0F901F901895ECEFF1E0D6
S1130A408083618342830895ECEFF1E082818F5FBC
S1130A5082838C330CF47AC081818F5F818312820C
S1130A608C3344F080818F5F80831182883114F04D
S1130A701092FC018091FC019091FF0189132AC01E
S1130A8090910202943009F053C093E090930202D3
S1130A90209100029091FD01291309C004C0909196
S1130AA00202933051F492E09093020206C0209126
S1130AB0FD019091000229130DC02091FE01909137
S1130AC00102291307C090910202923019F491E0B7
S1130AD0909302029091F90198133FC08091F8011C
S1130AE0843069F583E08093F8019091FD01809151
S1130AF0FA01981309C004C08091F801833051F4BD
S1130B0082E08093F80106C09091FD018091FA0182
S1130B10981323C09091FE018091FB0198131DC08E
S1130B208091F8018230C9F481E08093F80108953E
S1130B302091FD01909100022913CCCFB0CF909168
S1130B40FD018091FA01981308C0D6CF8091FC0171
S1130B509091FF019813BECF93CF0895ECEFF1E08D
S1130B6082818150828388230CF047C08181815027
S1130B7081839BE3928388234CF48081815080831A
S1130B80918388231CF487E18093FC019091FC01FC
S1130B908091F901981337C08091F801843031F5C0
S1130BA083E08093F8019091FD018091FA019813FC
S1130BB009C004C08091F801833051F482E080932D
S1130BC0F80106C09091FD018091FA0198131BC0B1
S1130BD09091FE018091FB01981315C08091F8015A
S1130BE0823089F481E08093F80108959091FD01A9
S1130BF08091FA01981307C0DDCF9091FC01809198
S1130C00F901981749F208959091F801911108C0DB
S1130C10E9EFF1E080836183428384E08093F8010B
S1130C208091F8010895CF92DF92EF92FF920F9393
S1130C301F93CF93DF93FC0180910202811165C061
S1130C409F01A9E8B8E80E9472146C01D694C79475
S1130C50D694C794D694C794D694C794D694C7947C
S1130C604CE34C9DC0014D9D900D1124281B390B64
S1130C70CCEFD1E08A81082E000C990B820F911DD4
S1130C800FEF11E00F2EFCE3EF2EF12CF02DB70146
S1130C900E941814562FD80112968C939601A9E835
S1130CA0B8E80E94721496958795929582958F70F4
S1130CB089279F708927489F9001499F300D1124EF
S1130CC0C21AD30A8981082E000C990B8C0D911D30
S1130CD0850F911DB7010E941814262FD801119673
S1130CE08C93CF0160E17EE00E9404148881680F38
S1130CF0620F693128F088E1861B8093FF0102C0EE
S1130D006093FF0184E08093020280910202DF91EC
S1130D10CF911F910F91FF90EF90DF90CF900895A6
S1130D201092F80108958FE08093F80108951092CD
S1130D30020208958FE0809302020895EFEEF1E03D
S1130D401086ACEFB1E012962C91129787E6280238
S1130D50912D11249595959527FD9395492F440F31
S1130D60342F330F330F340F231B205D27832DECD7
S1130D70929F312D1124369536953695330F432F96
S1130D80440F440F340F931B905D96835AE35583AD
S1130D9011963C9111973802912D112495959595B2
S1130DA037FD9395692F660F462F440F440F460F66
S1130DB0341B305D3483929F312D11243695369542
S1130DC03695330F432F440F440F340F931B905D1C
S1130DD0938352839C919802812D11248595859546
S1130DE097FD8395482F440F342F330F330F340F5F
S1130DF0931B905D9183829F212D11242695269526
S1130E002695220F922F990F990F290F821B805D2F
S1130E108083CF010895FC01ACEFB1E06C9311968F
S1130E204C93119712962C938FE08093F801809342
S1130E3002028EE195E09183808384E295E09383BE
S1130E4082838EEA95E09583848384E096E0978399
S1130E50868383E196E09187808787E996E093878C
S1130E6082878AE996E09587848780E996E0978768
S1130E70868783E996E0918B808B8EE996E0938B4D
S1130E80828BCF0108956823442321F0861721F033
S1130E9080E00895611180E00895862B08958623EB
S1130EA0089586230895862B8095089586278623A2
S1130EB0089560958623089586270895CF92DF923A
S1130EC0EF92FF920F931F93FC0100811181228105
S1130ED03381FB01C080D180E280F380FC01C082B9
S1130EE0D182E282F382FB01008311832283338364
S1130EF01F910F91FF90EF90DF90CF900895FB0129
S1130F002081FC012083222339F0DB0111963196E4
S1130F109D9191939111FCCF0895CF93DF93EC01B0
S1130F209881992399F0FE01319620E030E0492F11
S1130F3050E04617570731F0DE01A20FB31F9C9310
S1130F402F5F3F4F91919111F2CF02C020E030E02A
S1130F50FE01E20FF31F1082DF91CF9108952F92CB
S1130F603F924F925F926F927F928F929F92AF9235
S1130F70BF92CF92DF92EF92FF920F931F93CF9382
S1130F80DF9300D000D0CDB7DEB72C011B014B019D
S1130F9077231CF42FEF821A920A959487941814DD
S1130FA019040CF451C06AC09601DD209CF1F501CE
S1130FB040815181F401608171816417750754F592
S1130FC08C010A0D1B1DD401BC82AB82BA82A9829A
S1130FD0EB81FC817183608311965C934E932E198F
S1130FE03F09C2F0F80140815181E981FA816081B1
S1130FF07181080F191FE80FF91FFA83E983EB8148
S1131000FC81E80FF91FFC83EB83A80FB91F641759
S11310107507F4F2FFEFCF1ADF0A22E0A20EB11C2B
S1131020E2E08E0E911CC614D70409F0BDCF47012F
S1131030FF201CF4FFEF8F1A9F0A959487941814CD
S11310401904E4F4740101C07401821493047CF75C
S11310506401CE18DF085601AA0CBB1CA40CB51CF5
S1131060880C991C840C951C31016E187F08C701EB
S1131070880F991F91958195910996CF0F900F90A4
S11310800F900F90DF91CF911F910F91FF90EF90F0
S1131090DF90CF90BF90AF909F908F907F906F9094
S11310A05F904F903F902F900895861797070CF408
S11310B0CB0108959B01672B11F408959A01B9019E
S11310C00E941814AC01822F932F41155105B1F7DA
S11310D00895FC01908180ED890F8A30D0F4319617
S11310E020E030E0A901440F551F220F331F220FC7
S11310F0331F220F331F420F531F292F30E0205379
S11311003109240F351F919180ED890F8A3050F3F6
S113111002C020E030E0C9010895862308950097B5
S113112039F020E030E02F5F3F4F82179307D9F763
S1131130089587FF08C09195819591099927919504
S11311408195910908958F779927089591FF08C093
S1131150919581959109937091958195910908953F
S113116091700895615021E030E002C0220F331FD6
S11311706A95E2F7A90141505109B901682379231D
S1131180672B29F084239523821B930B08958423D2
S1131190952308959DEC899F912D112496959695FC
S11311A09695392F330F232F220F220F230F821BE3
S11311B020E1929F800D11240895982F92959F709D
S11311C0990F292F220F220F920F8F70890F0895E4
S11311D0FC01DB01AD5FBD4F1C921616170614F51A
S11311E0908191110CC017C0919191110DC015C03F
S11311F081932F5F3F4F26173707D4F313C0A3E023
S1131200B2E0319620E030E09D932F5F3F4F6217AC
S1131210730751F707C020E030E0F901ED5FFD4F9F
S113122080E2E6CF83E092E008954F925F926F925E
S11312307F92AF92BF92CF92DF92EF92FF920F9381
S11312401F93CF93DF93CDB7DEB729013A019B01FA
S1131250AC01241935094609570989899A89AB894A
S1131260BC89BC01CD016A197B098C099D090E94C6
S1131270F513A801970124193509460957090E9455
S11312804D14CA01B9016A0D7B1D8C1D9D1DDF9192
S1131290CF911F910F91FF90EF90DF90CF90BF906F
S11312A0AF907F906F905F904F90089570E06115BC
S11312B0710599F041E050E021E030E090E0FA015E
S11312C0E89FA001E99F500DF89F500D11242F5F56
S11312D03F4F6217730798F702C041E050E0CA011C
S11312E00895FC012081222341F0319680E090E0B2
S11312F0019621912111FCCF089580E090E008959A
S1131300CF93DF93EC01EDDF9C012150310962F0B2
S1131310FE01E80FF91F9291903219F09950923022
S113132018F421503109B8F7C20FD31F1982C9012B
S1131330DF91CF910895CF93DF93EC01D2DF9C012D
S1131340215031091216130684F4DE01A80FB91FC7
S1131350FE0180E090E040815E9151934C930196B0
S11313602150310982179307B4F3DF91CF91089587
S11313708F929F92AF92BF92CF92DF92EF92FF92A1
S11313800F931F93CF93DF936B017C01DC01CB019F
S1131390FF203CF488279927DC018C199D09AE09AC
S11313A0BF09BC01CD0110E00F2EFAE08F2E912C65
S11313B0A12CB12CF02D01C0102F01E0010FC12F81
S11313C0D0E0CD5FDD4FA50194010E944D14605D16
S11313D06883622F732F842F952F1616170618060D
S11313E0190654F3FF2044F4E02FF0E0ED5FFD4FC5
S11313F08DE2808302E0010FE02FF0E0ED5FFD4F0E
S1131400108283E092E097DF83E092E0DF91CF9156
S11314101F910F91FF90EF90DF90CF90BF90AF900E
S11314209F908F9008950F931F93CF93DF93EC01B8
S1131430992324F4882799278C1B9D0B20E00AE02C
S113144010E001C0232F31E0320FE22FF0E0ED5F16
S1131450FD4FB8010E941814805D8083862F972F5A
S1131460181619067CF3DD2344F4E32FF0E0ED5F56
S1131470FD4F8DE2808332E0320FE32FF0E0ED5F29
S1131480FD4F108283E092E056DF83E092E0DF912B
S1131490CF911F910F910895CF93AC01E0E0C1E08B
S11314A0CE0FF0E0ED5FFD4F9A01ADECBCEC0E9475
S11314B072149695879596958795969587959C0130
S11314C0220F331F880F991F880F991F880F991FA8
S11314D0820F931F9A01281B390BC901805D8083F9
S11314E09A010E947214AC015695479556954795FA
S11314F056954795EC2F4115510589F6EC2FF0E0F0
S1131500ED5FFD4F108283E092E015DF83E092E00F
S1131510CF910895982F92959F70990F292F220F9C
S1131520220F920F8F70890F0895AC019C01ADECCE
S1131530BCEC0E947214969587959695879596951E
S11315408795BC01660F771F9C01220F331F220F62
S1131550331F220F331F260F371F421B530B342F09
S113156020E1829F300D1124832F0895CF92DF92C2
S1131570EF92FF92CF93DF93CDB7DEB728970FB6E4
S1131580F894DEBF0FBECDBF6B017C0169837A8303
S11315908B839C832D833E834F835887C216D30647
S11315A0E406F50634F4BE016B5F7F4FCE0101966D
S11315B085DC8D819E81AF81B885892B8A2B8B2B0D
S11315C071F469817A818B819C8120E030E0A901EA
S11315D00E944D14611571058105910529F46D81F1
S11315E07E818F81988505C06D837E838F839887E4
S11315F0F6CF28960FB6F894DEBF0FBECDBFDF91AD
S1131600CF91FF90EF90DF90CF90089590E002C0CB
S1131610959587956A95E2F781700895E3E0F2E085
S113162090E020E850E341E3382F322311F0408367
S113163001C0508326959F5F31969830A9F7109288
S11316400B0283E092E00895A42FB0E0109761F0BC
S113165021E030E0E1E0F0E0EE0FFF1F2F5F3F4FAD
S1131660A217B307C8F702C0E1E0F0E031976E2398
S11316707F238E239F23862797276823792302C0FD
S1131680660F771F4A95E2F7862B972B0895FC0186
S11316909FB78FB78F778FBF9FBF86E599E0918300
S11316A0808381E799E0938382838BE999E0958332
S11316B0848384E29BE09783868383E497E0918725
S11316C0808781E597E09387828783E597E0958714
S11316D0848786E597E09787868789E597E0918BED
S11316E0808B8CE597E0938B828B8DE497E0958BD0
S11316F0848B8FE497E0978B868B8EE597E0918FB0
S1131700808F8FE797E0938F828F8DE897E0958F96
S1131710848F8FEA97E0978F868F83E19AE091A375
S113172080A38CE49AE093A382A388EB99E095A329
S113173084A380E899E097A386A385E598E091A720
S113174080A78AE598E093A782A789E698E095A701
S113175084A78DE898E097A786A78FE898E091ABD7
S113176080AB89E998E093AB82AB86EA98E095ABCD
S113177084AB82EB98E097AB86AB8AEC98E091AFB0
S113178080AF8DED98E093AF82AF88EE98E095AF8F
S113179084AF85E199E097AF86AFDF01A05CBF4FCE
S11317A08AE89AE011969C938E93129685E99AE0C2
S11317B011969C938E93129686EB9AE011969C93C5
S11317C08E93129686E09BE011969C938E931296CC
S11317D08EE09BE08D939C93CF010895CF93DF938C
S11317E000D000D01F92CDB7DEB785E0E5E5F2E08A
S11317F0DE01119601900D928A95E1F729813A81D3
S11318004B815C816D8170E080E090E00F900F90DF
S11318100F900F900F90DF91CF910895E5E5F2E0DE
S113182080E2808386E391E092838183948383833F
S11318300895CF93DF9321E080E0AAE1B2E0EEE1E6
S1131840F2E060E071E001C02F5F9FEF920F9130F2
S113185009F44BC038F0923009F48CC0933009F489
S1131860CEC00EC14091250250912602EA01988112
S1131870906898834091180250911902EA01988166
S11318809F7798834091230250912402EA01388182
S113189034773C939081432F4927942330839923B1
S11318A099F0943019F4EB0188810AC0903119F44D
S11318B0EB01898109C0903219F4EB018A8104C0DB
S11318C0903411F4EB018B81409125025091260252
S11318D0EA0198819F7798834091180250911902E8
S11318E0EA01988190689883AFCF40912502509186
S11318F02602EA01988191609883409118025091E0
S11319001902EA0198819E7F9883409123025091A5
S11319102402EA013881347711963C93119791811E
S1131920432F492794233183992399F0943019F450
S1131930EB018C810AC0903119F4EB018D8109C04F
S1131940903219F4EB018E8104C0903411F4EB0150
S11319508F814091250250912602EA0198819E7F51
S113196098834091180250911902EA01988191607C
S113197098836ACF4091250250912602EA0198810A
S1131980926098834091180250911902EA0198815B
S11319909D7F98834091230250912402EA0138816B
S11319A0347712963C9312979281432F49279423BC
S11319B03283992399F0943019F4EB0188850AC095
S11319C0903119F4EB01898509C0903219F4EB01C7
S11319D08A8504C0903411F4EB018B854091250273
S11319E050912602EA0198819D7F988340911802C4
S11319F050911902EA0198819260988325CFE09171
S1131A002502F0912602908198609083E09118025B
S1131A10F09119029081977F9083E0912302F091D5
S1131A2024022081247720931D02EEE1F2E09381C9
S1131A30322F392793232383992399F0943019F46F
S1131A4080910C010AC0903119F480910D0109C0F4
S1131A50903219F480910E0104C0903411F48091F5
S1131A600F01E0912502F09126029081977F9083E7
S1131A70E0911802F091190290819860908303C05C
S1131A80243008F4E1CEDF91CF910895CF93DF9312
S1131A9000D000D01F92CDB7DEB7CBDE8823B1F1E2
S1131AA08093550290912202943188F4E0912202AD
S1131AB0F0E0E95DFD4F8083909122029F5F909357
S1131AC02202E0912202F0E0E95DFD4F10828434AD
S1131AD099F4E0912202F0E0EA5DFD4F1082109249
S1131AE02202E5E5F2E086E391E09283818387E2D6
S1131AF092E0948383830AC0E5E5F2E087E292E012
S1131B009283818386E391E09483838385E0E5E592
S1131B10F2E0DE01119601900D928A95E1F7298198
S1131B203A814B815C816D8170E080E090E00F90A0
S1131B300F900F900F900F90DF91CF910895CF9356
S1131B40DF93CDB7DEB728970FB6F894DEBF0FBE8C
S1131B50CDBFFC012FB780E2809355029FB79F77DA
S1131B609FBFF0932602E0932502709324026093B2
S1131B70230250931902409318028BE88083E0916A
S1131B801802F091190284E78083AAE1B2E08C93F1
S1131B90EEE1F2E0808311968C9311978183129683
S1131BA08C931297828313968C93838310922202D0
S1131BB02FBFE0911802F091190280818B68808315
S1131BC029E13CE03A83298346E45DE05C834B836E
S1131BD06EEE7BE07E836D838EE09CE098878F833E
S1131BE03A815C817E81988528960FB6F894DEBF91
S1131BF00FBECDBFDF91CF910895E0914602F091E1
S1131C00470290819D7F9083672B41F0E0914602CB
S1131C10F091470290819160908307C0E091460261
S1131C20F091470290819E7F9083E0914302F0916E
S1131C3044029081906F9083E0914602F0914702B4
S1131C40908194609083882344F4E0914602F0915B
S1131C50470290819068908307C0E0914602F0911A
S1131C60470290819F77908386FF08C0E0914602E7
S1131C70F091470290819064908307C0E0914602FE
S1131C80F091470290819F7B908385FF08C0E0918B
S1131C904602F091470290819062908307C0E091E0
S1131CA04602F091470290819F7D908384FF08C093
S1131CB0E0914602F091470290819061908307C0C1
S1131CC0E0914602F091470290819F7E9083E091DB
S1131CD04602F091470290819B7F9083E0914602F7
S1131CE0F091470290819460908383FF08C0E09153
S1131CF04602F091470290819068908307C0E0917A
S1131D004602F091470290819F77908382FF08C03A
S1131D10E0914602F091470290819064908307C05D
S1131D20E0914602F091470290819F7B908381FF6E
S1131D3008C0E0914602F09147029081906290833E
S1131D4007C0E0914602F091470290819F7D908305
S1131D5080FF08C0E0914602F091470280818061D3
S1131D60808307C0E0914602F091470280818F7E14
S1131D708083E0914602F091470280818B7F8083CB
S1131D800895E0914302F091440220812F70208352
S1131D90E0914602F09147022081206F2083E09178
S1131DA04602F0914702208122602083892B41F072
S1131DB0E0914602F091470280818160808307C0F0
S1131DC0E0914602F091470280818E7F8083E0910A
S1131DD04602F0914702808184608083E0913C0256
S1131DE0F0913D028081882314F080E001C080E8F6
S1131DF0908196FF02C0806401C08F7B908195FF23
S1131E0002C0806201C08F7D908194FF02C0806116
S1131E1001C08F7EE0914602F091470290819B7F42
S1131E209083E0914602F091470290819460908300
S1131E30E0913C02F0913D029081992314F4886072
S1131E4001C0877F908196FF02C0846001C08B7FB0
S1131E50908195FF02C0826001C08D7F908194FFC4
S1131E6002C0816001C08E7FE0914602F09147027A
S1131E7090819B7F90830895CF93DF9380E090E0DF
S1131E8080DFCBE0D0E005C080E090E07ADF2197EE
S1131E9011F08823CCF3DF91CF91089561E070E0D5
S1131EA0ACDEEACF0895CF9381E090E06ADFC82FDB
S1131EB0E3DF8C2FCF910895CF93DF93EC018881DA
S1131EC0882341F0219661E070E097DED5DF8991A7
S1131ED08111F9CFDF91CF9108950F931F93CF9381
S1131EE0DF93FC01D62F8081882351F08F010F5F8F
S1131EF01F4F611109C01BC0CF5FDC1730F401C054
S1131F00C0E0CD1760F013C0C1E061E070E075DEA1
S1131F10B3DFF80181918F018111EECFF2CFCF5F52
S1131F2061E070E080E269DEA7DFCD17C0F3DF91E6
S1131F30CF911F910F910895CF93C82F882339F023
S1131F4061E070E080E259DE97DFC150C9F7CF91BC
S1131F500895262F8130910571F030F0823091057B
S1131F6089F00397B1F0089560E070E080E8820F93
S1131F7044DE82CF089560E070E080EC820F3DDEA5
S1131F807BCF089560E070E084E9820F36DE74CF81
S1131F90089560E070E084ED820F2FDE6DCF089528
S1131FA060E070E081E029DE87EE97E10197F1F7C8
S1131FB000C000000895E0914302F091440287E0DC
S1131FC08083E0914602F091470288E080832FEFFE
S1131FD083EF91E0215080409040E1F700C0000081
S1131FE060E070E083E309DE20ED2A95F1F760E01C
S1131FF070E083E302DE80ED8A95F1F760E070E043
S11320008BE2FBDD95EC9A95F1F7000060E070E05F
S11320108CE0F3DD25EC2A95F1F7000060E070E038
S113202081E0EBDD87EE97E10197F1F700C0000056
S113203060E070E086E0E1DD95EC9A95F1F7000050
S113204008951F93CF93DF93EC011FB78FB78F775A
S11320508FBF709344026093430250933D024093B8
S11320603C023093470220934602FB011082E09128
S11320704602F09147028FEF8083E0913C02F09199
S11320803D02808188708093450295DF1FBF8DEFEC
S11320909DE09983888381EC9EE09B838A838CE313
S11320A09FE09D838C838EE49FE09F838E8383E5F2
S11320B09FE0998788878CE59FE09B878A878DE6D8
S11320C09FE09D878C878CE99FE09F878E8780EDBA
S11320D09FE0998B888B89EA9FE09B8B8A8B88E7AA
S11320E090E19D8B8C8BCE01DF91CF911F91089550
S11320F0CF93E0913C02F0913D02C081C870809181
S113210045028C278C2309F056DFC0934502CF91FA
S11321100895109261008FE08093620012B88FEFEF
S113212083B911BA82BB84BB15BA87B3806E87BBEF
S11321308FB780688FBF0895CF93DF93CDB7DEB795
S1132140C35ED1090FB6F894DEBF0FBECDBFE1DF89
S1132150CE01C3969CDAA1968EAD9FADA197C052D5
S1132160DF4F99838883C05ED040E396EEADFFAD28
S1132170E397C652DF4FF983E883CA5DD0402BE36F
S113218030E049E350E06AE370E0CE0183589F4FAA
S113219058DFC757DF4F28803980C958D040C3570C
S11321A0DF4F88819981CD58D040C252DF4F998347
S11321B08883CE5DD040C157DF4F88809980CF5847
S11321C0D04043E250E061E270E082E290E0B7DCAC
S11321D0CD56DF4F2883C359D040CC56DF4F3883C8
S11321E0C459D040CB56DF4F4883C559D040CA5656
S11321F0DF4F5883C659D040C956DF4F6883C7594B
S1132200D040C856DF4F7883C859D040C756DF4FF7
S11322108883C959D040C656DF4F9883CA59D040E5
S1132220C956DF4F68807980C759D040C756DF4F01
S1132230E881F981C959D040C852DF4FF983E88356
S1132240C85DD0401F921F921F9281E08F9390E847
S11322509F938F930E948B006B017C0142E062E0AC
S1132260CE0185569F4F0E94A20240E069E0CE0154
S113227085559F4F0E94E402CD54DF4F8881998198
S1132280C35BD040C452DF4F99838883CC5DD04078
S113229020E040E06CE0CE018D539F4F0E940B077D
S11322A084E1FE01ED53FF4FADE6B2E001900D92E3
S11322B08A95E1F780E390E0C554DF4F99838883E2
S11322C0CB5BD040C354DF4F19821882CD5BD04022
S11322D089E390E3C154DF4F99838883CF5BD04077
S11322E0CF53DF4F19821882C15CD040CF55DF4FE6
S11322F0E881F981C15AD04089EF0995C355DF4F70
S1132300E881F981CD5AD04082E00995CF54DF4F5E
S1132310E881F981C15BD04080E29EE40995C9540B
S1132320DF4FE881F981C75BD04088E090E00995F0
S1132330C955DF4FE881F981C75AD04080E490E065
S113234009950F900F900F900F900F900F9091E3BD
S1132350C952DF4F9883C75DD040CE51DF4FF98219
S1132360E882C25ED040CF56DF4FE881F981C1597F
S1132370D0400995CB56DF4FE881F981C559D0404B
S1132380099560E070E083E090E0F4010995CD5791
S1132390DF4F48805980C358D040F3010995822FFC
S11323A02EA73FA748AB59AB6AABF20109956AE087
S11323B070E083E090E0F4010995F301099529A701
S11323C03AA74BA75CA76DA76AE08AA59BA5F10174
S11323D00995C952DF4FF881C75DD040F23309F443
S11323E083C0F33309F41EC1F13309F04AC1F30188
S11323F009952CA33DA34EA35FA368A760E171E0F8
S11324008FA198A588D2892BD1F4C154DF4F1882AB
S1132410CF5BD040C252DF4FE881F981CE5DD0401E
S11324200995C852DF4FE881F981C85DD04009950C
S1132430F2E3C952DF4FF883C75DD04085C180E025
S113244090E0CE51DF4FE881F981C25ED04009951A
S11324502C01BC01990F880B990B1F921F92F9E074
S1132460FF9322E92F930F2EF2ECAF2EBB24B394EB
S1132470C12CD12CF02DEE24EA9413E0F12E00E0CF
S113248010E020E030E0A901C652DF4FE881F98175
S1132490CA5DD0400995CB01C452DF4FE881F98170
S11324A0CC5DD040099560E070E080E090E0F401FC
S11324B0099567E082E191E0F10109956596EEAD39
S11324C0FFAD6597C2010995BC01CE0185549F4FAC
S11324D02BD264E0CE0185549F4FF10109950F90F2
S11324E00F900F900F9030C1F30109952F8F38A3EF
S11324F049A35AA36BA360E171E08AA19BA10BD20B
S1132500892BA9F4C252DF4FE881F981CE5DD04016
S11325100995C852DF4FE881F981C85DD04009951B
S1132520F3E3C952DF4FF883C75DD0400DC160E0CB
S113253070E080E090E0F401099567E08AE191E0C1
S1132540F101099564E0CE0181549F4FF101099591
S1132550F30109952A8F3B8F4C8F5D8F6E8F243446
S113256009F0F2C0F30109952D8B3E8B4F8B588FE8
S1132570698F688D798DCE0181549F4FD5D1CE015D
S113258081549F4FC052DF4FE881F981C05ED04033
S11325900995853B910570F5BC01990F880B990B42
S11325A01F921F92F9E0FF9322E92F930F2EF2EC72
S11325B0AF2EBB24B394C12CD12CF02D14EBE12EFF
S11325C0F12C00E010E020E030E0A901C652DF4F1A
S11325D0E881F981CA5DD0400995CB01C452DF4F2F
S11325E0E881F981CC5DD04009950F900F900F9050
S11325F00F9010C085E692E7C154DF4F998388831A
S1132600CF5BD040E2E7F0E0CF53DF4FF983E883BC
S1132610C15CD040C852DF4FE881F981C85DD04029
S1132620099592C0F3010995288B398B4A8B5B8BF2
S11326306C8B60E171E08B899C896DD1892BA9F445
S1132640C252DF4FE881F981CE5DD0400995C8526E
S1132650DF4FE881F981C85DD0400995F1E3C952A3
S1132660DF4FF883C75DD0406FC060E070E081E069
S113267090E0F401099564E182E291E0F1010995A9
S113268063C060E070E080E090E0F4010995F3013C
S113269009952B873C874D875E876F8765E08E851C
S11326A09F85F1010995F30109952E833F8348879E
S11326B059876A87E985FA858081882369F0F3015F
S11326C0099529833A834B835C836D836C817D8177
S11326D0CE0185549F4F28D1CE0185549F4FC052BF
S11326E0DF4FE881F981C05ED0400995BC01990FA4
S11326F0880B990B1F921F92F9E0FF9322E92F9305
S11327000F2EF2ECAF2EBB24B394C12CD12CF02DA0
S1132710EE24EA9413E0F12E00E010E020E030E033
S1132720A901C652DF4FE881F981CA5DD0400995FD
S1132730CB01C452DF4FE881F981CC5DD0400995CB
S11327400F900F900F900F906CE070E080E090E09D
S1132750F4010995C957DF4F48805980C758D040C4
S1132760E0917F02F09180020995F2010995FBCD79
S11327701F920F920FB60F9211240BB60F922F9344
S11327803F934F935F936F937F938F939F93AF93F5
S1132790BF93EF93FF9380916B0290916C0201962B
S11327A0883E23E0920728F490936C0280936B0296
S11327B009C010926C0210926B02E0916F02F091CA
S11327C070020995FF91EF91BF91AF919F918F9105
S11327D07F916F915F914F913F912F910F900BBE1D
S11327E00F900FBE0F901F901895DB018F939F934E
S11327F088D0BF91AF91A29F800D911DA39F900D92
S1132800B29F900D11240895AA1BBB1B51E107C070
S1132810AA1FBB1FA617B70710F0A61BB70B881F6C
S1132820991F5A95A9F780959095BC01CD010895FB
S113283097FB072E16F4009406D077FD08D0E4DF4A
S113284007FC05D03EF4909581959F4F08957095AF
S113285061957F4F0895A1E21A2EAA1BBB1BFD01AF
S11328600DC0AA1FBB1FEE1FFF1FA217B307E4076B
S1132870F50720F0A21BB30BE40BF50B661F771FC3
S1132880881F991F1A9469F76095709580959095A3
S11328909B01AC01BD01CF010895052E97FB16F4F1
S11328A000940FD057FD05D0D6DF07FC02D046F4C4
S11328B008C050954095309521953F4F4F4F5F4F3D
S11328C0089590958095709561957F4F8F4F9F4F98
S11328D00895EE0FFF1F0024001C0BBE0790F69115
S11328E0E02D0994A29FB001B39FC001A39F700D76
S11328F0811D1124911DB29F700D811D1124911D04
S11329000895F0DFA59F900DB49F900DA49F800DB6
S1132910911D11240895FB01DC018D910190801912
S11329200110D9F3990B0895FB01DC0101900D927C
S10D29300020E1F70895F894FFCFAA
S113293A3132334134353642373839432A30234425
S113294A410053656E736F723A004D616E75616C26
S113295A3A004E6F7468696E6720746F20736565F8
S10B296A20686572652100007C
S9030000FC
