S011000041746D6567613132382E7372656329
S113000067C0000084C0000082C0000080C00000FF
S11300107EC000007CC000007AC0000078C00000F0
S113002076C0000074C00000EEC40000BAC4000032
S1130030C2C40000CAC40000DCC400000C94B81C94
S1130040A6C4000064C0000049C500007FC50000CC
S11300505EC00000DAC100005AC0000058C00000B1
S1130060BEC40000DAC40000E2C40000EAC4000018
S1130070F2C40000FAC4000003C700003CC700003B
S113008046C0000044C0000042C00000E803EC0386
S1130090F003F403F803FF0306040D041104180429
S11300A01F0426042A0431043804540458045C044C
S11300B0600466046A046E0472047B047F0483048F
S11300C08C040C19301A931AF61A591BBC1B1F1CEA
S11300D011241FBECFEFD0E1DEBFCDBF12E0A0E000
S11300E0B1E0EEECFCE300E00BBF02C007900D9220
S11300F0A030B107D9F724E0A0E0B2E001C01D921E
S1130100A530B207E1F70E9418140C94651E78CF4D
S1130110882389F0E091BC02F091BD02208181E046
S113012090E00090BE0202C0880F991F0A94E2F783
S1130130822B808311C0E091BC02F091BD0220812A
S113014081E090E00090BE0202C0880F991F0A94DB
S1130150E2F7809582238083E091BC02F091BD0296
S1130160408181E090E09C010090C00202C0220F17
S1130170331F0A94E2F7242B2083E091BC02F09110
S1130180BD0220810090C00202C0880F991F0A940A
S1130190E2F78095822380830895E091BC02F09178
S11301A0BD02408181E090E09C010090BF0202C04A
S11301B0220F331F0A94E2F7242B2083E091BC0220
S11301C0F091BD0220810090BF0202C0880F991FE8
S11301D00A94E2F78095822380830895FF920F9317
S11301E01F93CF93DF93F82EC0E0D0E001E010E03E
S11301F0C8010C2E02C0880F991F0A94E2F78F21C0
S113020087DF2196C830D10599F7C7DFDF91CF91F9
S11302101F910F91FF9008950F93CF93DF9300D018
S113022000D000D0CDB7DEB75FB73FB73F773FBF51
S11302309093BB028093BA027093BD026093BC0298
S11302404093BE022093C0020093BF02FC013081A0
S113025061E070E0DB0102C0AA0FBB1F2A95E2F740
S1130260FB0102C0EE0FFF1F0A95E2F7EA2B02C062
S1130270660F771F4A95E2F76E2B232F262BFC017E
S11302802083E091BC02F091BD02808160956823D7
S113029060835FBF28E830E03A8329834EEE50E064
S11302A05C834B836DEC70E07E836D833A815C816B
S11302B07E8180E090E026960FB6F894DEBF0FBEF4
S11302C0CDBFDF91CF910F910895369B369AFC01F3
S11302D0EE0FFF1FE75EFD4F8081918108950F931C
S11302E01F93CF93DF93CDB7DEB79F816885498590
S11302F05A851FB78FB78F778FBF509308024093EB
S1130300070210920602109205021092000287B1B1
S11303108F7387B9913019F0933021F008C03E9A59
S113032001E006C087B1806C87B903E001C000E03A
S11303303D98141615068CF4DE011B9680E090E0BF
S11303402D913D91FC01EE0FFF1FE75FFD4F3183BF
S1130350208301964817590799F787B1807E87B99A
S1130360E0910502F0910602EE0FFF1FE75FFD4FDB
S11303708081918127B18F719927822B87B9379A10
S1130380369A3598339A86B1887F86B96031D1F030
S113039038F4643079F0683081F0623029F507C0B0
S11303A06034C1F06038D9F06032F1F40EC0309A94
S11303B022E01EC0319A24E01BC086B1836086B956
S11303C028E016C0329A20E113C086B1856086B950
S11303D020E20EC086B1866086B920E409C086B1E9
S11303E0876086B920E804C086B1876086B920E8B2
S11303F01FBF8FB780688FBF602F722F85E691E093
S1130400DF91CF911F910F9108951F920F920FB614
S11304100F9211240BB60F922F933F934F935F9338
S11304208F939F93EF93FF932FB78FB78F778FBFE0
S113043084B190E0909302028093010235B18091DF
S1130440010290910202932B909302028093010285
S1130450809100028430A0F4809100028F5F809329
S11304600002409101025091020280910302909196
S11304700402840F951F909304028093030243C0E7
S1130480E0910502F091060280910302909104022A
S11304909595879595958795EE0FFF1FE75EFD4F20
S11304A0918380831092040210920302109200023E
S11304B04091050250910602809107029091080232
S11304C04817590754F48091050290910602019649
S11304D0909306028093050204C0109206021092C3
S11304E0050287B1807E87B9E0910502F09106028A
S11304F0EE0FFF1FE75FFD4F8081918137B18F7150
S11305009927832B87B92FBFFF91EF919F918F91EB
S11305105F914F913F912F910F900BBE0F900FBEA3
S11305200F901F9018952091C402211140C02FEF05
S113053021BF23B7287F23BF8034910511F148F4EC
S113054088309105B1F080329105B9F0019749F5F1
S11305500CC0811521E09207E1F0811524E0920797
S1130560E1F080389105E9F410C083B7816083BF5E
S11305701BC083B7826083BF17C083B7836083BF08
S113058013C083B7846083BF0FC083B7856083BF04
S11305900BC083B7866083BF07C083B7876083BF00
S11305A003C083B7876083BF81E08093C40208954A
S11305B093B79F7C93BF823041F0833051F08130F8
S11305C059F483B7806183BF089583B7806283BF82
S11305D0089583B7806383BF089581BF089583B767
S11305E0887F83BF12BE1092C40208952091C10275
S11305F0211142C02FEF3FEF3BBD2ABD2EB5287F0E
S11306002EBD88309105D1F048F48330910531F145
S11306108530910539F1019749F50CC0811521E028
S11306209207A1F0811524E09207A1F0803491058E
S1130630E9F408C08EB581608EBD1BC08EB58260A2
S11306408EBD17C08EB583608EBD13C08EB5846019
S11306508EBD0FC08EB585608EBD0BC08EB5866015
S11306608EBD07C08EB587608EBD03C08EB5856014
S11306708EBD81E08093C10208959FB59F739FBD95
S1130680823041F0833051F0813059F48FB5806469
S11306908FBD08958FB580688FBD08958FB5806C28
S11306A08FBD08959FB59F7C9FBD823041F08330FC
S11306B051F0813059F48FB580618FBD08958FB5A5
S11306C080628FBD08958FB580638FBD08959FB5F7
S11306D0937F9FBD823041F0833051F0813059F4D3
S11306E08FB584608FBD08958FB588608FBD0895E0
S11306F08FB58C608FBD08959BBD8ABD089599BD4B
S113070088BD0895909379008093780008958EB5FC
S1130710887F8EBD1DBC1CBC1092C102089510922E
S1130720C40223B7277B23BF623041F0633051F00A
S1130730613059F423B7206423BF07C023B728606E
S113074023BF03C023B7286423BF27B72E7F27BF47
S113075027B72D7F27BF423041F0433051F041305D
S113076071F427B7216027BF0AC027B7226027BFCB
S113077006C027B7216027BF27B7226027BF28ED0F
S113078032E0FC01318320832DEE32E0378326836F
S113079023E932E0358724872FEE32E03787268736
S11307A008950F931F93DC011092C1028FB58C7FC3
S11307B08FBD8EB5877E8EBD062F10E0F801319770
S11307C0EF30F10508F05AC0EA5BFF4F0C94241E89
S11307D08FB581608FBD52C08FB582608FBD4EC012
S11307E08FB583608FBD4AC08EB588608EBD46C00C
S11307F08FB581608FBD8EB588608EBD3FC08FB5CB
S113080082608FBD8EB588608EBD38C08FB5836021
S11308108FBD8EB588608EBD31C08EB580618EBDB2
S11308202DC08FB581608FBD8EB580618EBD26C011
S11308308FB582608FBD8EB580618EBD1FC08FB5B0
S113084083608FBD8EB580618EBD18C08EB5886102
S11308508EBD14C08FB581608FBD8EB588618EBD8D
S11308600DC08FB582608FBD8EB588618EBD06C008
S11308708FB583608FBD8EB588618EBD8FB5837053
S11308808FBD87B7837C87BFEDE7F0E080818E7FE3
S1130890808350E0FA013197EC30F10508F044C050
S11308A0EB5AFF4F0C94241E87B7846087BF3CC06B
S11308B087B7806187BF38C087B7886087BF34C077
S11308C0EDE7F0E08081816080832EC087B780628D
S11308D087BF2AC087B7846187BF26C087B78C606B
S11308E087BF22C087B7846087BFEDE7F0E08081CF
S11308F08160808319C087B7846287BF15C087B7BA
S11309008C6187BF11C087B78C6187BFEDE7F0E0CA
S113091080818160808308C087B7886187BFEDE7E5
S1130920F0E08081816080838DE393E011969C9355
S11309308E9382E593E013969C938E93129787E6A9
S113094093E015969C938E9314978CE793E01796F7
S11309509C938E9316978FE793E019969C938E93AE
S1130960189782E893E01B969C938E931A9786EFD0
S113097092E01D969C938E931C9787E893E01F96B4
S11309809C938E931E97CD011F910F9108951F92F2
S11309900F920FB60F9211240F900FBE0F901F905D
S11309A018951F920F920FB60F9211240F900FBE3D
S11309B00F901F9018951F920F920FB60F9211244B
S11309C00F900FBE0F901F9018951F920F920FB6A5
S11309D00F9211240F900FBE0F901F9018951F9225
S11309E00F920FB60F9211240F900FBE0F901F900D
S11309F018951F920F920FB60F9211240F900FBEED
S1130A000F901F9018951F920F920FB60F921124FA
S1130A100F900FBE0F901F9018951F920F920FB654
S1130A200F9211240F900FBE0F901F9018951F92D4
S1130A300F920FB60F9211240F900FBE0F901F90BC
S1130A4018951F920F920FB60F9211240F900FBE9C
S1130A500F901F9018951F920F920FB60F921124AA
S1130A600F900FBE0F901F9018951F920F920FB604
S1130A700F9211240F900FBE0F901F901895909114
S1130A802B0280912A029817A1F080912A028F5F8D
S1130A908F7180932A02E0912A02F0E0E25DFD4F1B
S1130AA020818091290290E0982F8827820F911D40
S1130AB0089580E091E0089580912B0220912A020C
S1130AC090E04F96821B91096FE170E00C94D31D66
S1130AD0089580912A0280932B0208951F920F9209
S1130AE00FB60F9211240BB60F928F939F93EF932F
S1130AF0FF938BB19AB1887180936E02E09170027A
S1130B00EF5FEF7180916F02E81304C082E080937D
S1130B106E0211C09CB1E093700280916E02882332
S1130B2031F0F0E0ED58FD4F88E5808304C0F0E03B
S1130B30ED58FD4F9083FF91EF919F918F910F900E
S1130B400BBE0F900FBE0F901F9018951F920F921F
S1130B500FB60F9211240BB60F928F939F93EF93BE
S1130B60FF939091720280917102981302C055987C
S1130B700BC0E0917102EF5FEF71E0937102F0E05E
S1130B80ED56FD4F80818CB9FF91EF919F918F912C
S1130B900F900BBE0F900FBE0F901F901895FF92F1
S1130BA00F931F93CF93DF93FC01FFB68FB78F771B
S1130BB08FBF10922D0210922C0210922B021092D1
S1130BC02A021092E6021092E5021092E7027723BD
S1130BD034F482E080939B00CB019F7701C0CB016A
S1130BE0909398008093990088E980939A00473005
S1130BF0510551F140F44530510509F445C04630E2
S1130C00510591F14EC04830510589F049305105E4
S1130C1009F047C0CAE9D0E0888184608883CDE9BF
S1130C20D0E0888186608883C9E0D0E046C0CAE904
S1130C30D0E088818B7F8883CDE9D0E0888186608D
S1130C408883C8E0D0E039C0CAE9D0E088818B7FCE
S1130C508883CDE9D0E088818460888388818D7F12
S1130C608883C7E0D0E029C0CAE9D0E088818B7FBF
S1130C708883CDE9D0E088818B7F888388818260F6
S1130C808883C6E0D0E019C0CAE9D0E088818B7FB0
S1130C908883CDE9D0E08881897F8883C5E0D0E06E
S1130CA00CC0CAE9D0E088818B7F8883CDE9D0E08D
S1130CB0888186608883C8E0D0E02130310521F046
S1130CC02230310551F012C02DE930E0D9018C9168
S1130CD0877F8C9341E050E011C02DE930E0D901C9
S1130CE08C9188608C9342E050E008C02DE930E09C
S1130CF0D9018C91877F8C9341E050E0023011053B
S1130D0071F003301105B9F0012BF1F42DE930E055
S1130D10D9018C918F7C8C9320E030E01DC08DE94B
S1130D2090E0DC012C9120622C932C912F7E2C934B
S1130D3022E030E011C02DE930E0D9018C918063CC
S1130D408C9323E030E008C02DE930E0D9018C9188
S1130D508F7C8C9320E030E0FFBE8FB780688FBF1C
S1130D6071836083D383C28355834483378326830B
S1130D708CEE96E0918780878FE395E09387828756
S1130D808BE297E09587848782E397E0978786874D
S1130D908CE595E0918B808B89E695E0938B828B33
S1130DA0CF01DF91CF911F910F91FF900895909102
S1130DB02B0280912A02981769F080912A028F5F92
S1130DC08F7180932A02E0912A02F0E0E25DFD4FE8
S1130DD08081089580E00895CF93DF9390912A0253
S1130DE080912B029817D9F0C091E502D091E602C8
S1130DF0CF31D105A4F4DBDFC951DD4F8883809165
S1130E00E5029091E60201969093E6028093E50252
S1130E10FC01E951FD4F108280E191E006C010927F
S1130E20E6021092E50287EE92E0DF91CF910895F9
S1130E3090912D029F5F9F7190932D0220912D021E
S1130E4090912C022917D1F3E0912D02F0E0E25B9E
S1130E50FD4F80830895ECDFEAE9F0E08081806251
S1130E6080830895CF93DF93EC018881882329F050
S1130E702196F1DF89918111FCCFDF91CF91089503
S1130E801F920F920FB60F9211240BB60F928F93ED
S1130E909F93EF93FF9380919B0090919A008871A8
S1130EA080932902E0912B02EF5FEF7180912A0277
S1130EB0E81304C082E08093290212C090919C0040
S1130EC0E0932B0280912902882331F0F0E0E25D67
S1130ED0FD4F88E5808304C0F0E0E25DFD4F908320
S1130EE0FF91EF919F918F910F900BBE0F900FBECA
S1130EF00F901F9018951F920F920FB60F92112406
S1130F000BB60F928F939F93EF93FF9390912D02C3
S1130F1080912C02981306C0EAE9F0E080818F7D6D
S1130F2080830EC080912C028F5F8F7180932C027E
S1130F30E0912C02F0E0E25BFD4F808180939C0005
S1130F40FF91EF919F918F910F900BBE0F900FBE69
S1130F500F901F9018956823442321F0861721F0E1
S1130F6080E00895611180E00895862B089586231A
S1130F70089586230895862B8095089586278623D1
S1130F80089560958623089586270895CF92DF9269
S1130F90EF92FF920F931F93FC0100811181228134
S1130FA03381FB01C080D180E280F380FC01C082E8
S1130FB0D182E282F382FB01008311832283338393
S1130FC01F910F91FF90EF90DF90CF900895FB0158
S1130FD02081FC012083222339F0DB011196319614
S1130FE09D9191939111FCCF0895CF93DF93EC01E0
S1130FF09881992399F0FE01319620E030E0492F41
S113100050E04617570731F0DE01A20FB31F9C933F
S11310102F5F3F4F91919111F2CF02C020E030E059
S1131020FE01E20FF31F1082DF91CF9108952F92FA
S11310303F924F925F926F927F928F929F92AF9264
S1131040BF92CF92DF92EF92FF920F931F93CF93B1
S1131050DF9300D000D0CDB7DEB72C011B014B01CC
S113106077231CF42FEF821A920A9594879418140C
S113107019040CF451C06AC09601DD209CF1F501FD
S113108040815181F401608171816417750754F5C1
S11310908C010A0D1B1DD401BC82AB82BA82A982C9
S11310A0EB81FC817183608311965C934E932E19BE
S11310B03F09C2F0F80140815181E981FA816081E0
S11310C07181080F191FE80FF91FFA83E983EB8177
S11310D0FC81E80FF91FFC83EB83A80FB91F641789
S11310E07507F4F2FFEFCF1ADF0A22E0A20EB11C5B
S11310F0E2E08E0E911CC614D70409F0BDCF47015F
S1131100FF201CF4FFEF8F1A9F0A959487941814FC
S11311101904E4F4740101C07401821493047CF78B
S11311206401CE18DF085601AA0CBB1CA40CB51C24
S1131130880C991C840C951C31016E187F08C7011A
S1131140880F991F91958195910996CF0F900F90D3
S11311500F900F90DF91CF911F910F91FF90EF901F
S1131160DF90CF90BF90AF909F908F907F906F90C3
S11311705F904F903F902F900895861797070CF437
S1131180CB0108959B01672B11F408959A01B901CD
S11311900E94D31DAC01822F932F41155105B1F745
S11311A00895FC01908180ED890F8A30D0F4319646
S11311B020E030E0A901440F551F220F331F220FF6
S11311C0331F220F331F420F531F292F30E02053A8
S11311D03109240F351F919180ED890F8A3050F326
S11311E002C020E030E0C9010895862308950097E5
S11311F039F020E030E02F5F3F4F82179307D9F793
S1131200089587FF08C09195819591099927919533
S11312108195910908958F779927089591FF08C0C2
S1131220919581959109937091958195910908956E
S113123091700895615021E030E002C0220F331F05
S11312406A95E2F7A90141505109B901682379234C
S1131250672B29F084239523821B930B0895842301
S1131260952308959DEC899F912D1124969596952B
S11312709695392F330F232F220F220F230F821B12
S113128020E1929F800D11240895982F92959F70CC
S1131290990F292F220F220F920F8F70890F089513
S11312A0FC01DB01A75FBC4F1C921616170614F550
S11312B0908191110CC017C0919191110DC015C06E
S11312C081932F5F3F4F26173707D4F313C0A9E04C
S11312D0B3E0319620E030E09D932F5F3F4F6217DB
S11312E0730751F707C020E030E0F901E75FFC4FD6
S11312F080E2E6CF89E093E008954F925F926F9287
S11313007F92AF92BF92CF92DF92EF92FF920F93B0
S11313101F93CF93DF93CDB7DEB729013A019B0129
S1131320AC01241935094609570989899A89AB8979
S1131330BC89BC01CD016A197B098C099D090E94F5
S1131340B01DA801970124193509460957090E94BF
S1131350081ECA01B9016A0D7B1D8C1D9D1DDF91FC
S1131360CF911F910F91FF90EF90DF90CF90BF909E
S1131370AF907F906F905F904F90089570E06115EB
S1131380710599F041E050E021E030E090E0FA018D
S1131390E89FA001E99F500DF89F500D11242F5F85
S11313A03F4F6217730798F702C041E050E0CA014B
S11313B00895FC012081222341F0319680E090E0E1
S11313C0019621912111FCCF089580E090E00895C9
S11313D0CF93DF93EC01EDDF9C012150310962F0E2
S11313E0FE01E80FF91F9291903219F09950923052
S11313F018F421503109B8F7C20FD31F1982C9015B
S1131400DF91CF910895CF93DF93EC01D2DF9C015C
S1131410215031091216130684F4DE01A80FB91FF6
S1131420FE0180E090E040815E9151934C930196DF
S11314302150310982179307B4F3DF91CF910895B6
S11314408F929F92AF92BF92CF92DF92EF92FF92D0
S11314500F931F93CF93DF936B017C01DC01CB01CE
S1131460FF203CF488279927DC018C199D09AE09DB
S1131470BF09BC01CD0110E00F2EFAE08F2E912C94
S1131480A12CB12CF02D01C0102F01E0010FC12FB0
S1131490D0E0C75FDC4FA50194010E94081E605D87
S11314A06883622F732F842F952F1616170618063C
S11314B0190654F3FF2044F4E02FF0E0E75FFC4FFB
S11314C08DE2808302E0010FE02FF0E0E75FFC4F44
S11314D0108289E093E097DF89E093E0DF91CF9178
S11314E01F910F91FF90EF90DF90CF90BF90AF903E
S11314F09F908F9008950F931F93CF93DF93EC01E8
S1131500992324F4882799278C1B9D0B20E00AE05B
S113151010E001C0232F31E0320FE22FF0E0E75F4B
S1131520FC4FB8010E94D31D805D8083862F972FC6
S1131530181619067CF3DD2344F4E32FF0E0E75F8B
S1131540FC4F8DE2808332E0320FE32FF0E0E75F5F
S1131550FC4F108289E093E056DF89E093E0DF914D
S1131560CF911F910F910895CF93AC01E0E0C1E0BA
S1131570CE0FF0E0E75FFC4F9A01ADECBCEC0E94AB
S11315802D1E9695879596958795969587959C019A
S1131590220F331F880F991F880F991F880F991FD7
S11315A0820F931F9A01281B390BC901805D808328
S11315B09A010E942D1EAC01569547955695479564
S11315C056954795EC2F4115510589F6EC2FF0E01F
S11315D0E75FFC4F108289E093E015DF89E093E038
S11315E0CF910895982F92959F70990F292F220FCC
S11315F0220F920F8F70890F0895AC019C01ADECFE
S1131600BCEC0E942D1E9695879596958795969588
S11316108795BC01660F771F9C01220F331F220F91
S1131620331F220F331F260F371F421B530B342F38
S113163020E1829F300D1124832F0895CF92DF92F1
S1131640EF92FF92CF93DF93CDB7DEB728970FB613
S1131650F894DEBF0FBECDBF6B017C0169837A8332
S11316608B839C832D833E834F835887C216D30676
S1131670E406F50634F4BE016B5F7F4FCE0101969C
S113168085DC8D819E81AF81B885892B8A2B8B2B3C
S113169071F469817A818B819C8120E030E0A90119
S11316A00E94081E611571058105910529F46D815B
S11316B07E818F81988505C06D837E838F83988713
S11316C0F6CF28960FB6F894DEBF0FBECDBFDF91DC
S11316D0CF91FF90EF90DF90CF90089590E002C0FB
S11316E0959587956A95E2F781700895E9E0F3E0AE
S11316F090E020E850E341E3382F322311F0408397
S113170001C0508326959F5F31969830A9F71092B7
S1131710110389E093E00895A42FB0E0109761F0DD
S113172021E030E0E1E0F0E0EE0FFF1F2F5F3F4FDC
S1131730A217B307C8F702C0E1E0F0E031976E23C7
S11317407F238E239F23862797276823792302C02C
S1131750660F771F4A95E2F7862B972B0895FC01B5
S11317609FB78FB78F778FBF9FBF8EEB99E0918321
S1131770808389ED99E09383828383E09AE0958363
S113178084838CE89BE0978386838BEA97E0918738
S1131790808789EB97E0938782878BEB97E0958727
S11317A084878EEB97E09787868781EC97E0918B0F
S11317B0808B84EC97E0938B828B85EB97E0958B01
S11317C0848B87EB97E0978B868B86EC97E0918FE1
S11317D0808F87EE97E0938F828F85EF97E0958FC8
S11317E0848F87E198E0978F868F8BE79AE091A3A7
S11317F080A384EB9AE093A382A380E29AE095A36A
S113180084A388EE99E097A386A38DEB98E091A733
S113181080A782EC98E093A782A781ED98E095A732
S113182084A785EF98E097A786A787EF98E091AB08
S113183080AB81E099E093AB82AB8EE099E095AB0D
S113184084AB8AE199E097AB86AB82E399E091AFF0
S113185080AF85E499E093AF82AF80E599E095AFDE
S113186084AF8DE799E097AF86AFDF01A05CBF4FEF
S113187082EF9AE011969C938E9312968DEF9AE0E4
S113188011969C938E9312968EE19BE011969C93F5
S11318908E9312968EE69BE011969C938E931296ED
S11318A086E79BE08D939C93CF010895E4E7F0E0F5
S11318B084EA80838FEF93E090931F0380931E0349
S11318C0808188235CF08EEF93E090931F038093D4
S11318D01E032081222314F00197B8F70895809302
S11318E07300E4E7F0E084E880838FEF93E0909363
S11318F01F0380931E03808188235CF08EEF93E0A6
S113190090931F0380931E032081222314F00197D8
S1131910B8F7089520E4829FC00111248468E4E7A5
S1131920F0E080838FEF93E090931F0380931E0376
S1131930808188235CF08EEF93E090931F03809363
S11319401E032081222314F00197B8F780917300BD
S1131950089580917100887F089584E980937400CC
S11319608FE891E00197F1F700C00000089591B36A
S1131970936091BB92B3936092BB843079F018F476
S1131980813031F01DC0803179F0803499F018C075
S1131990E1E7F0E090819C7F908318C0E1E7F0E0FC
S11319A090819160908312C0E1E7F0E090819260B1
S11319B090830CC0E1E7F0E090819360908306C0CF
S11319C0E1E7F0E080818C7F808381E0282F30E0A4
S11319D0220F331F032E000C440B550B60E970E0FB
S11319E080E090E00E94E61D2093700008951F930C
S11319F0CF93DF93EC01862F1FB79FB79F779FBFCD
S1131A00B6DF1FBF86E59CE0998388838DEA9CE05E
S1131A109B838A838FE69CE09D838C838AE89CE089
S1131A209F838E8389EA9CE099878887CE01DF9122
S1131A30CF911F910895CF93DF9300D000D01F92D0
S1131A40CDB7DEB785E0EEE5F3E0DE011196019057
S1131A500D928A95E1F729813A814B815C816D81F0
S1131A6070E080E090E00F900F900F900F900F9037
S1131A70DF91CF91089510922B03EEE5F3E080E21D
S1131A80808382E191E092838183948383830895A8
S1131A90CF93DF9321E080E0A3E2B3E0E7E2F3E059
S1131AA060E071E001C02F5F9FEF920F913009F465
S1131AB04BC038F0923009F48CC0933009F4CEC096
S1131AC00EC140912E0350912F03EA019881906832
S1131AD098834091200350912103EA0198819F77D4
S1131AE0988340912C0350912D03EA013881347777
S1131AF03C939081432F492794233083992399F071
S1131B00943019F4EB0188810AC0903119F4EB0187
S1131B10898109C0903219F4EB018A8104C09034A0
S1131B2011F4EB018B8140912E0350912F03EA01B4
S1131B3098819F7798834091200350912103EA0173
S1131B40988190689883AFCF40912E0350912F03D2
S1131B50EA01988191609883409120035091210378
S1131B60EA0198819E7F988340912C0350912D0324
S1131B70EA013881347711963C9311979181432F70
S1131B80492794233183992399F0943019F4EB0174
S1131B908C810AC0903119F4EB018D8109C0903217
S1131BA019F4EB018E8104C0903411F4EB018F81A0
S1131BB040912E0350912F03EA0198819E7F9883D0
S1131BC04091200350912103EA0198819160988308
S1131BD06ACF40912E0350912F03EA0198819260BD
S1131BE098834091200350912103EA0198819D7FBD
S1131BF0988340912C0350912D03EA013881347766
S1131C0012963C9312979281432F4927942332834F
S1131C10992399F0943019F4EB0188850AC0903126
S1131C2019F4EB01898509C0903219F4EB018A8516
S1131C3004C0903411F4EB018B8540912E03509134
S1131C402F03EA0198819D7F98834091200350914E
S1131C502103EA0198819260988325CFE0912E03B5
S1131C60F0912F03908198609083E0912003F0918C
S1131C7021039081977F9083E0912C03F0912D03B1
S1131C802081247720932603E7E2F3E09381322F27
S1131C90392793232383992399F0943019F480915D
S1131CA00C010AC0903119F480910D0109C09032E1
S1131CB019F480910E0104C0903411F480910F0145
S1131CC0E0912E03F0912F039081977F9083E09110
S1131CD02003F091210390819860908303C0243005
S1131CE008F4E1CEDF91CF910895CF93DF9300D034
S1131CF000D01F92CDB7DEB7CBDE8823B1F180933D
S1131D005E0390912B03943188F4E0912B03F0E06F
S1131D10E05DFC4F808390912B039F5F90932B0396
S1131D20E0912B03F0E0E05DFC4F1082843499F4E1
S1131D30E0912B03F0E0E15DFC4F108210922B0345
S1131D40EEE5F3E082E191E09283818380E393E026
S1131D50948383830AC0EEE5F3E080E393E0928307
S1131D60818382E191E09483838385E0EEE5F3E06F
S1131D70DE01119601900D928A95E1F729813A814D
S1131D804B815C816D8170E080E090E00F900F905A
S1131D900F900F900F90DF91CF910895CF93DF9321
S1131DA0CDB7DEB728970FB6F894DEBF0FBECDBF10
S1131DB02FB730E230935E0390932F0380932E036A
S1131DC070932D0360932C035093210340932003BD
S1131DD03BE8FC013083E0912003F091210384E788
S1131DE08083A3E2B3E08C93E7E2F3E0808311966F
S1131DF08C931197818312968C93129782831396F6
S1131E008C93838310922B032FBFE0912003F091D6
S1131E10210380818B68808328E43DE03A83298311
S1131E2045E75EE05C834B836BE17DE07E836D83FD
S1131E308BE39DE098878F833A815C817E819885CE
S1131E4028960FB6F894DEBF0FBECDBFDF91CF91B9
S1131E500895E0914F03F091500390819D7F90830A
S1131E60672B41F0E0914F03F09150039081916012
S1131E70908307C0E0914F03F091500390819E7FBF
S1131E809083E0914C03F0914D039081906F908387
S1131E90E0914F03F09150039081946090838823E4
S1131EA044F4E0914F03F091500390819068908343
S1131EB007C0E0914F03F091500390819F77908386
S1131EC086FF08C0E0914F03F09150039081906425
S1131ED0908307C0E0914F03F091500390819F7B62
S1131EE0908385FF08C0E0914F03F09150039081E7
S1131EF09062908307C0E0914F03F091500390816A
S1131F009F7D908384FF08C0E0914F03F0915003BC
S1131F1090819061908307C0E0914F03F09150034A
S1131F2090819F7E9083E0914F03F09150039081C4
S1131F309B7F9083E0914F03F091500390819460D4
S1131F40908383FF08C0E0914F03F0915003908188
S1131F509068908307C0E0914F03F0915003908103
S1131F609F77908382FF08C0E0914F03F091500364
S1131F7090819064908307C0E0914F03F0915003E7
S1131F8090819F7B908381FF08C0E0914F03F09183
S1131F90500390819062908307C0E0914F03F091C9
S1131FA0500390819F7D908380FF08C0E0914F0390
S1131FB0F091500380818061808307C0E0914F03DA
S1131FC0F091500380818F7E8083E0914F03F091E4
S1131FD0500380818B7F80830895E0914C03F091BE
S1131FE04D0320812F702083E0914F03F091500323
S1131FF02081206F2083E0914F03F09150032081D2
S113200022602083892B41F0E0914F03F09150032B
S113201080818160808307C0E0914F03F091500379
S113202080818E7F8083E0914F03F0915003808103
S113203084608083E0914503F09146038081882386
S113204014F080E001C080E8908196FF02C08064B3
S113205001C08F7B908195FF02C0806201C08F7D9B
S1132060908194FF02C0806101C08F7EE0914F0394
S1132070F091500390819B7F9083E0914F03F09106
S11320805003908194609083E0914503F09146035E
S11320909081992314F4886001C0877F908196FF12
S11320A002C0846001C08B7F908195FF02C0826072
S11320B001C08D7F908194FF02C0816001C08E7F3A
S11320C0E0914F03F091500390819B7F908308959A
S11320D0CF93DF9380E090E080DFCBE0D0E005C0D9
S11320E080E090E07ADF219711F08823CCF3DF9130
S11320F0CF91089561E070E0ACDEEACF0895CF930C
S113210081E090E06ADFC82FE3DF8C2FCF91089540
S1132110CF93DF93EC018881882341F0219661E01D
S113212070E097DED5DF89918111F9CFDF91CF91EE
S113213008950F931F93CF93DF93FC01D62F8081D3
S1132140882351F08F010F5F1F4F611109C01BC01D
S1132150CF5FDC1730F401C0C0E0CD1760F013C0CE
S1132160C1E061E070E075DEB3DFF80181918F01B9
S11321708111EECFF2CFCF5F61E070E080E269DEE3
S1132180A7DFCD17C0F3DF91CF911F910F91089571
S1132190CF93C82F882339F061E070E080E259DEE4
S11321A097DFC150C9F7CF910895262F813091054B
S11321B071F030F08230910589F00397B1F0089501
S11321C060E070E080E8820F44DE82CF089560E032
S11321D070E080EC820F3DDE7BCF089560E070E01C
S11321E084E9820F36DE74CF089560E070E084EDF8
S11321F0820F2FDE6DCF089560E070E081E029DE6C
S113220087EE97E10197F1F700C000000895E0918F
S11322104C03F0914D0387E08083E0914F03F091EC
S1132220500388E080832FEF83EF91E021508040BA
S11322309040E1F700C0000060E070E083E309DE55
S113224020ED2A95F1F760E070E083E302DE80ED93
S11322508A95F1F760E070E08BE2FBDD95EC9A95EE
S1132260F1F7000060E070E08CE0F3DD25EC2A95E6
S1132270F1F7000060E070E081E0EBDD87EE97E1CC
S11322800197F1F700C0000060E070E086E0E1DD56
S113229095EC9A95F1F7000008951F93CF93DF937F
S11322A0EC011FB78FB78F778FBF70934D03609387
S11322B04C035093460340934503309350032093BB
S11322C04F03FB011082E0914F03F09150038FEF15
S11322D08083E0914503F091460380818870809368
S11322E04E0395DF1FBF89E29FE0998388838DEEBB
S11322F09FE09B838A8388E690E19D838C838AE7B1
S113230090E19F838E838FE790E19987888788E89F
S113231090E19B878A8789E990E19D878C8788EC87
S113232090E19F878E878CEF90E1998B888B85ED68
S113233090E19B8B8A8B84EA91E19D8B8C8BCE01FF
S1132340DF91CF911F910895CF93E0914503F091D0
S11323504603C081C87080914E038C278C2309F0FA
S113236056DFC0934E03CF910895FF920F931F93AE
S1132370CF93DF93182F062FF42EC4E7D3E0E88120
S1132380F9810995EC81FD8182EA0995EC81FD8151
S113239082E00995EC81FD818F2D0995EC81FD8109
S11323A0802F0995EC81FD81812F0995EA81FB81BC
S11323B00995DF91CF911F910F91FF9008951F937D
S11323C0CF93DF93182FC4E7D3E0E881F98109950F
S11323D0EC81FD8182EA0995EC81FD8184E0099517
S11323E0EC81FD81812F0995EA81FB810995DF91BB
S11323F0CF911F9108951F93CF93DF93182FC4E7B4
S1132400D3E0E881F9810995EC81FD8182EA09959F
S1132410EC81FD8183E00995EC81FD81812F099593
S1132420EA81FB810995DF91CF911F9108951F9354
S1132430CF93DF93182FC4E7D3E0E881F98109959E
S1132440EC81FD8182EA0995EC81FD8182E00995A8
S1132450EC81FD81812F0995EA81FB810995DF914A
S1132460CF911F9108951F93CF93DF93882321F079
S11324706370162F106801C010E0C4E7D3E0E88150
S1132480F9810995EC81FD8182EA0995EC81FD8150
S11324908DE00995EC81FD81812F0995EA81FB810D
S11324A00995DF91CF911F910895EF92FF920F93B9
S11324B01F93CF93DF93E82EF62E042F122FC4E739
S11324C0D3E0E881F9810995EC81FD8182EA0995DF
S11324D0EC81FD8185E00995EC81FD818E2D0995C6
S11324E0EC81FD818F2D0995EC81FD81802F09956B
S11324F0EC81FD81812F0995EA81FB810995DF91AA
S1132500CF911F910F91FF90EF9008951F93CF9358
S1132510DF93182FC4E7D3E0E881F9810995EC81B2
S1132520FD8182EA0995EC81FD8188E00995EC81C1
S1132530FD81812F0995EA81FB810995DF91CF9176
S11325401F9108951F93CF93DF93182FC4E7D3E00F
S1132550E881F9810995EC81FD8182EA0995EC8194
S1132560FD8187E00995EC81FD81812F0995EA8140
S1132570FB810995DF91CF911F9108951F93CF930C
S1132580DF93182FC4E7D3E0E881F9810995EC8142
S1132590FD8182EA0995EC81FD8186E00995EC8153
S11325A0FD81812F0995EA81FB810995DF91CF9106
S11325B01F9108951F93CF93DF93182FC4E7D3E09F
S11325C0E881F9810995EC81FD8182EA0995EC8124
S11325D0FD8185E00995EC81FD81812F0995EA81D2
S11325E0FB810995DF91CF911F910895FF920F937D
S11325F01F93CF93DF93C4E7D3E0E881F981099572
S1132600EC81FD8182EA0995EC81FD8182E00995E6
S1132610EA81FB810995E881F9810995EC81FD81C5
S113262083EA0995EE81FF8181E00995F82EEE8118
S1132630FF8181E00995182FEE81FF8180E00995E3
S1132640082FEA81FB810995602F6F73712F7F77C3
S11326508F2D8F77DF91CF911F910F91FF90089568
S1132660EF92FF920F931F93CF93DF93C4E7D3E0CE
S1132670E881F9810995EC81FD8182EA0995EC8173
S1132680FD8185E00995EA81FB810995E881F9815D
S11326900995EC81FD8183EA0995EE81FF8181E052
S11326A00995082FEE81FF8181E00995F82EEE81CE
S11326B0FF8181E00995182FEE81FF8180E0099563
S11326C0E82EEA81FB810995712F7F716E2D8F2D84
S11326D08770902F9F73DF91CF911F910F91FF907F
S11326E0EF900895982F92959F70990F292F220F9C
S11326F0220F920F8F70890F08959DEC899F912D61
S11327001124969596959695392F330F232F220FE2
S1132710220F230F821B20E1929F800D1124089524
S1132720CF93DF93C4E7D3E0E881F9810995EC8185
S1132730FD8182EA0995EC81FD8180E00995EC81B7
S1132740FD8180E00995EA81FB810995DF91CF91B4
S11327500895FF920F931F93CF93DF93CDB7DEB706
S11327602A970FB6F894DEBF0FBECDBF8C01FFB61B
S11327708FB78F778FBFCE01019639D98AE0FE01DA
S11327803196A4E7B3E001900D928A95E1F7C8DF92
S1132790FFBE85EB91E1F801918380838FED91E198
S11327A0938382838BEF91E19583848387E192E124
S11327B09783868383E392E19187808785E592E11D
S11327C0938782878AED92E1958784878EEB92E1E5
S11327D09787868782EA92E1918B808B86E892E1E3
S11327E0938B828B86EF92E1958B848B80E393E1CC
S11327F0978B868B82E793E1918F808F8DE793E1AE
S1132800938F828FC8012A960FB6F894DEBF0FBE4D
S1132810CDBFDF91CF911F910F91FF90089510923A
S113282061008FE08093620087B3806E87BB089558
S1132830CF93DF93CDB7DEB7CC53D1400FB6F89426
S1132840DEBF0FBECDBFEBDFCE018E519F4F0E9486
S1132850AF0B8AE4FE01EE51FF4FA4E8B3E0019010
S11328600D928A95E1F72BE330E049E350E06AE307
S113287070E0CE018E569F4F10DDC856DF4F288181
S11328803981C859D040C25DDE4F39832883CE5286
S1132890D140C256DF4F88809980CE59D040CE5562
S11328A0DF4F88819981C25AD040CE5CDE4F998334
S11328B08883C253D140CC55DF4FA881B981C45A13
S11328C0D040C45DDE4FB983A883CC52D14043E2EB
S11328D050E061E270E082E290E060DAC855DF4FD8
S11328E02883C85AD040C755DF4F3883C95AD040CF
S11328F0C655DF4F4883CA5AD040C555DF4F588369
S1132900CB5AD040C455DF4F6883CC5AD040C3550E
S1132910DF4F7883CD5AD040C255DF4F8883CE5ADB
S1132920D040C155DF4F9883CF5AD040C455DF4FB4
S113293028803980CC5AD040C255DF4FE881F981D4
S1132940CE5AD040C05DDE4FF983E883C053D140F6
S11329501F921F921F9281E08F9390E89F938F9311
S11329600E946F01C75CDE4F688379838A839B83EF
S1132970C953D14042E062E0CE0180559F4F0E948E
S11329808F0340E069E0CE0180549F4F0E94D10341
S1132990C853DF4F28813981C85CD040C95CDE4F01
S11329A039832883C753D14060E1CE018E519F4FB4
S11329B0D0DE8CE1FE01EE51FF4FA1EDB3E00190BA
S11329C00D928A95E1F701E020E042E065E670E0CF
S11329D084E690E00E940C0120937E0330937F03F1
S11329E04093800350938103609382037093830325
S11329F000E010E021E030E048E050E067E670E0FD
S1132A00CE018E519F4F0E94CF0584E1FE01EE510D
S1132A10FF4FA1EFB3E001900D928A95E1F7CE014B
S1132A2080539F4FFC0120E330E02193319324E055
S1132A30DF011D922A95E9F729E330E3CA52DF4FFB
S1132A4039832883C65DD040C852DF4F198218826B
S1132A50C85DD040C652DF4F19821882CA5DD0408B
S1132A609093B6028093B502CA54DF4FE881F9818E
S1132A70C65BD04089EF0995C454DF4FE881F981E2
S1132A80CC5BD04080E490E00995CE53DF4FE881E1
S1132A90F981C25CD04082E00995CA53DF4FE881D6
S1132AA0F981C65CD04080E29EE40995C453DF4FAF
S1132AB0E881F981CC5CD04088E090E00995E09110
S1132AC0D903F091DA0362E081E009950F900F9049
S1132AD00F900F900F900F90B0E3CA5CDE4FB88355
S1132AE0C653D1400F2EF1E35F2EF02D06C0E0E374
S1132AF0CA5CDE4FE883C653D140CA55DF4F6880B5
S1132B007980C65AD040F3010995C655DF4F088134
S1132B101981CA5AD040F8010995E091F903F0915E
S1132B20FA0309959093B4028093B3026DE070E0C8
S1132B3083E090E0C45DDE4FE881F981CC52D1405E
S1132B4009958AE3C25DDE4FE881F981CE52D14016
S1132B500995F1010995C257DF4F3883CE58D0400B
S1132B60C157DF4F4883CF58D04066E0C257DF4F8C
S1132B7088819981CE58D040F4010995F2E35F161B
S1132B8009F4ADC123E3521609F4B4C231E353127C
S1132B90B9C6F1010995C557DF4F5883CB58D040CA
S1132BA0C457DF4F6883CC58D04064E171E0C55707
S1132BB0DF4F88819981CB58D0400E94461E892BD3
S1132BC099F4C05DDE4FE881F981C053D140099585
S1132BD0CE5CDE4FE881F981C253D14009950F2EB6
S1132BE0F2E35F2EF02D89CFF1010995CA57DF4F2B
S1132BF05883C658D040C957DF4F6883C758D04060
S1132C0066E171E0CA57DF4F88819981C658D04088
S1132C100E94461E892B99F4C05DDE4FE881F9813C
S1132C20C053D1400995CE5CDE4FE881F981C2538F
S1132C30D14009950F2EF3E35F2EF02D5ECF0F2EBA
S1132C40F1ED4F2EF3E05F2EF02DD2015496ED916D
S1132C50FC91559709956093CE037093CF038093AD
S1132C60D003D2015696ED91FC9157970995609344
S1132C70ED037093EE038093EF039093F00380E0F1
S1132C8090E0C55CDE4FE881F981CB53D1400995D2
S1132C90CC5CDE4F99838883C453D140BC01990F27
S1132CA0880B990B0F2EF4E86F2EF3E07F2EF02D96
S1132CB01F921F9229E02F932EE22F93D301DE96C9
S1132CC0ED91FC91DF970F2EF4EFAF2EBB24B3945C
S1132CD0C12CD12CF02DEE24EA9413E0F12E00E067
S1132CE010E020E030E0A9010995CB01C95CDE4F7A
S1132CF0E881F981C753D140099560E070E080E034
S1132D0090E0C45DDE4FE881F981CC52D140099551
S1132D1067E088E191E0F4010995D3019096ED9183
S1132D20FC919197CC5CDE4F88819981C453D1404A
S1132D300995BC01CE0180539F4FB1D764E0CE0109
S1132D4080539F4FF40109956CE070E080E090E0BF
S1132D50C45DDE4FE881F981CC52D1400995D3019D
S1132D609296ED90FC9093970DEE13E0D201589655
S1132D70ED91FC915997D80113968C91099590E0A7
S1132D80F701099562E0F40109958AE3C25DDE4F1B
S1132D90E881F981CE52D1400995D3019296ED9004
S1132DA0FC909397D2015896ED91FC915997D801D4
S1132DB011968C91099590E0F701099562E0F40170
S1132DC009958AE3C25DDE4FE881F981CE52D14094
S1132DD00995D3019296ED90FC909397D201589661
S1132DE0ED91FC915997D8018C91099590E0F701E8
S1132DF0099562E0F40109956CE070E081E090E0EF
S1132E00C45DDE4FE881F981CC52D1400995D301EC
S1132E109296ED90FC9093970EEC13E0D2015896A5
S1132E20ED91FC915997D8018C91099590E0F701A7
S1132E30099562E0F40109958AE3C25DDE4FE881F9
S1132E40F981CE52D1400995D3019296ED90FC9030
S1132E509397D2015896ED91FC915997D801119608
S1132E608C91099590E0F701099562E0F4010995C8
S1132E708AE3C25DDE4FE881F981CE52D1400995E3
S1132E80D30192966D907C909397D2015896ED91D0
S1132E90FC915997D80112968C91099590E0F30111
S1132EA0099562E0F401099560E070E082E090E049
S1132EB0C45DDE4FE881F981CC52D140099564E1CB
S1132EC08091B3029091B402F40109950F900F9090
S1132ED00F900F900F2EF1E35F2EF02D0ECEF10127
S1132EE00995CF57DF4F5883C158D040CE57DF4F95
S1132EF06883C258D04064E171E0CF57DF4F8881C6
S1132F009981C158D040C2D6892B99F4C05DDE4F57
S1132F10E881F981C053D1400995CE5CDE4FE88148
S1132F20F981C253D14009950F2EF3E35F2EF02DA2
S1132F30E4CDF1010995ED965FAFED97EE966FAF95
S1132F40EE9766E171E0EE968EAD9FADEE979ED65C
S1132F50892B99F4C05DDE4FE881F981C053D140DB
S1132F600995CE5CDE4FE881F981C253D1400995C1
S1132F700F2EF1E35F2EF02DC0CDF1010995E896F7
S1132F805FAFE897E9966FAFE99760E271E0E99681
S1132F908EAD9FADE9977AD6892B99F4C05DDE4F4B
S1132FA0E881F981C053D1400995CE5CDE4FE881B8
S1132FB0F981C253D14009950F2EF1E35F2EF02D14
S1132FC09CCD60E070E080E090E0C45DDE4FE8817D
S1132FD0F981CC52D140099568E082E291E0F40194
S1132FE0099563E0CE018A529F4FF401099560E090
S1132FF070E081E090E0C45DDE4FE881F981CC525D
S1133000D14009956BE08BE291E0F4010995F1015F
S11330100995243409F05DC0F1010995AE965FAFBE
S1133020AE97AF966FAFAF97AF966EAD7FADAF97DC
S113303046E050E0CE018A529F4F38D6E091B0036B
S1133040F091B103CE018A529F4F0995853B9105BA
S1133050A0F5BC01990F880B990B1F921F9229E0D0
S11330602F932EE22F93E091C203F091C3030F2E0E
S1133070F4EFAF2EBB24B394C12CD12CF02D14EB60
S1133080E12EF12C00E010E020E030E0A9010995E8
S1133090CB01C95CDE4FE881F981C753D140099562
S11330A0C056DF4FE881F981C05AD04085E00995C8
S11330B00F900F900F900F9005C065E087E391E0AB
S11330C0F4010995C05DDE4FE881F981C053D14018
S11330D0099560E070E083E090E0C45DDE4FE88134
S11330E0F981CC52D140099568E08DE391E0F40177
S11330F0099503CDF1010995A9965FAFA997AA9601
S11331006FAFAA9764E171E0AA968EAD9FADAA97BE
S1133110BDD5892B99F4C05DDE4FE881F981C05398
S1133120D1400995CE5CDE4FE881F981C253D1408C
S113313009950F2EF1E35F2EF02DDFCCF1010995F7
S1133140A4965FAFA497A5966FAFA59766E171E0CB
S1133150A5968EAD9FADA59799D5892B99F4C05DA1
S1133160DE4FE881F981C053D1400995CE5CDE4F32
S1133170E881F981C253D14009950F2EF2E35F2E05
S1133180F02DBBCCF10109956F965FAF6F97A096B8
S11331906FAFA09760E271E0A0968EAD9FADA0974F
S11331A075D5892BC9F4C05DDE4FE881F981C05320
S11331B0D1400995CE5CDE4FE881F981C253D140FC
S11331C00995F0E3CA5CDE4FF883C653D1400F2E55
S11331D0F1E35F2EF02D91CC60E070E080E090E0B0
S11331E0C45DDE4FE881F981CC52D140099563E199
S11331F086E491E0F4010995CA5CDE4FF881C65378
S1133200D1408F2F90E0FC01F097E730F10508F0F2
S11332106ECCEF59FF4F18C560E070E081E090E09C
S1133220C45DDE4FE881F981CC52D140099567E055
S11332308AE591E0F401099568E081E691E0F40102
S1133240099565E089E691E0F401099560E070E094
S113325082E090E0C45DDE4FE881F981CC52D14038
S1133260099567E08FE691E0F401099568E086E747
S113327091E0F401099565E08CE791E0F40109958A
S113328060E070E083E090E0C45DDE4FE881F981A6
S1133290CC52D140099568E08DE391E0F4010995A1
S11332A0F10109956A965FAF6A976B966FAF6B975A
S11332B062E871E06B968EAD9FAD6B97E7D4892B76
S11332C0A1F4C05DDE4FE881F981C053D140099576
S11332D0CE5CDE4FE881F981C253D1400995F1E318
S11332E0CA5CDE4FF883C653D140F1010995659657
S11332F05FAF659766966FAF669764E871E0669610
S11333008EAD9FAD6697C2D4892BA1F4C05DDE4F0C
S1133310E881F981C053D1400995CE5CDE4FE88144
S1133320F981C253D1400995F2E3CA5CDE4FF883B8
S1133330C653D140F101099560965FAF60976196DD
S11333406FAF619766E871E061968EAD9FAD61974E
S11333509DD4892BA1F4C05DDE4FE881F981C0536F
S1133360D1400995CE5CDE4FE881F981C253D1404A
S11333700995F3E3CA5CDE4FF883C653D140F101EB
S113338009952B965FAF2B972C966FAF2C9768E817
S113339071E02C968EAD9FAD2C9778D4892BA1F437
S11333A0C05DDE4FE881F981C053D1400995CE5C00
S11333B0DE4FE881F981C253D1400995F4E3CA5C38
S11333C0DE4FF883C653D140F101099526965FAFCD
S11333D0269727966FAF27976AE871E027968EADF8
S11333E09FAD279753D4892BA1F4C05DDE4FE881AC
S11333F0F981C053D1400995CE5CDE4FE881F98153
S1133400C253D1400995F5E3CA5CDE4FF883C65335
S1133410D140F101099521965FAF219722966FAFB4
S113342022976CE871E022968EAD9FAD22972ED440
S1133430892B09F062CBC05DDE4FE881F981C0536E
S1133440D1400995CE5CDE4FE881F981C253D14069
S11334500995F6E3CA5CDE4FF883C653D1404DCBE1
S113346060E070E081E090E0C45DDE4FE881F981C6
S1133470CC52D14009956BE08EE891E0F4010995B6
S113348060E070E083E090E0C45DDE4FE881F981A4
S1133490CC52D140099568E08DE391E0F40109959F
S11334A0F1010995243409F028CBF10109955EABAB
S11334B06FAB6EA97FA9CE0184529F4FF0D3E091E8
S11334C0B003F091B103CE0184529F4F0995843625
S11334D0910588F4E1EDF3E002891389028CF38D00
S11334E0E02D0995F8010995F0E3CA5CDE4FF883F5
S11334F0C653D14010C085E692E7C452DF4F99838A
S11335008883CC5DD04082E790E0C252DF4F99833C
S11335108883CE5DD040C05DDE4FE881F981C05321
S1133520D1400995EACA60E070E081E090E0C45DB2
S1133530DE4FE881F981CC52D14009956CE08AE9EB
S113354091E0F401099560E070E083E090E0C45DEF
S1133550DE4FE881F981CC52D140099568E08DE3D2
S113356091E0F4010995F1010995243409F0C5CAE3
S1133570F10109955CA76DA76CA57DA5CE018452C8
S11335809F4F8DD3E091B003F091B103CE018452EB
S11335909F4F09958D30910588F4E1EDF3E00089A2
S11335A01189028CF38DE02D0995F8010995F0E35A
S11335B0CA5CDE4FF883C653D14010C085E692E75B
S11335C0C452DF4F99838883CC5DD04082E790E07A
S11335D0C252DF4F99838883CE5DD040C05DDE4FF9
S11335E0E881F981C053D140099587CA60E070E051
S11335F081E090E0C45DDE4FE881F981CC52D14096
S113360009956AE087EA91E0F401099560E070E0C9
S113361083E090E0C45DDE4FE881F981CC52D14073
S1133620099568E08DE391E0F4010995F1010995AC
S1133630243409F062CAF10109955AA36BA36AA163
S11336407BA1CE0184529F4F2AD3E091B003F09125
S1133650B103CE0184529F4F09958032910588F4BD
S1133660E1EDF3E004851585028CF38DE02D0995D9
S1133670F8010995F0E3CA5CDE4FF883C653D140E4
S113368010C085E692E7C452DF4F99838883CC5DEE
S1133690D04082E790E0C252DF4F99838883CE5DA9
S11336A0D040C05DDE4FE881F981C053D140099517
S11336B024CA60E070E081E090E0C45DDE4FE88100
S11336C0F981CC52D14009956BE082EB91E0F40191
S11336D0099560E070E083E090E0C45DDE4FE8812E
S11336E0F981CC52D140099568E08DE391E0F40171
S11336F00995F1010995243409F0FFC9F1010995EF
S1133700588F698F688D798DCE0184529F4FC7D2AF
S1133710E091B003F091B103CE0184529F4F09951B
S11337208831910588F4E1EDF3E002811381028C84
S1133730F38DE02D0995F8010995F0E3CA5CDE4F9D
S1133740F883C653D14010C085E692E7C452DF4FD8
S113375099838883CC5DD04082E790E0C252DF4FEA
S113376099838883CE5DD040C05DDE4FE881F981C6
S1133770C053D1400995C1C960E070E081E090E098
S1133780C45DDE4FE881F981CC52D14009956DE0EA
S11337908EEB91E0F401099560E070E083E090E045
S11337A0C45DDE4FE881F981CC52D140099568E0CF
S11337B08DE391E0F4010995F1010995243409F0B0
S11337C09CC9F10109955E876F876E857F85CE015F
S11337D084529F4F64D2E091B003F091B103CE01C3
S11337E084529F4F09958C33910588F4E1EDF3E001
S11337F004811581028CF38DE02D0995F80109955A
S1133800F0E3CA5CDE4FF883C653D14010C085E6AE
S113381092E7C452DF4F99838883CC5DD04082E71E
S113382090E0C252DF4F99838883CE5DD040C05D63
S1133830DE4FE881F981C053D14009955EC960E04B
S113384070E081E090E0C45DDE4FE881F981CC5204
S1133850D14009956DE08DEC91E0F401099560E0AB
S113386070E083E090E0C45DDE4FE881F981CC52E2
S1133870D140099568E08DE391E0F4010995F101E7
S11338800995243409F039C9F10109955C836D83E4
S11338906C817D81CE0184529F4F01D2E091B003AF
S11338A0F091B103CE0184529F4F09958C33910559
S11338B088F4E1EDF3E006811781028CF38DE02DAD
S11338C00995F8010995F0E3CA5CDE4FF883C65305
S11338D0D14010C085E692E7C452DF4F99838883B4
S11338E0CC5DD04082E790E0C252DF4F9983888359
S11338F0CE5DD040C05DDE4FE881F981C053D14038
S11339000995FBC8F3010995F8010995E091F903BC
S1133910F091FA0309959093B4028093B3026DE099
S113392070E083E090E0C45DDE4FE881F981CC5221
S1133930D14009958AE3C25DDE4FE881F981CE5218
S1133940D1400995F1010995C257DF4F3883CE580C
S1133950D040C157DF4F4883CF58D04066E0C257AC
S1133960DF4F88819981CE58D040F401099511C95F
S11339701F920F920FB60F9211240BB60F927F92E3
S11339808F929F92AF92BF92CF92DF92EF92FF926B
S11339900F931F932F933F934F935F936F937F9353
S11339A08F939F93AF93BF93CF93DF93EF93FF9343
S11339B07FB68091B9028C33F8F08091B8028F5FA2
S11339C08093B8028F7090E0089754F4CEE7D3E068
S11339D0E881F98180E00995EC81FD81099509C0B0
S11339E0CEE7D3E0E881F98181E00995EC81FD819E
S11339F009951092B90203C08F5F8093B902809138
S1133A00B702853608F488C06CED71E08091B3028A
S1133A109091B4023BD1892BB9F4C1EFD3E0EC858A
S1133A20FD858EE30995EE85FF8586EE91E0099587
S1133A30EE85FF858091B5029091B6020995EE85D9
S1133A40FF8587EF91E009956AEF71E08091B302F9
S1133A509091B4021BD1892B09F05BC0C1EFD3E074
S1133A60AE84BF840F2EF4E8CF2EF3E0DF2EF02DCA
S1133A70D60192968D909C9093970EEC13E00F2EA6
S1133A80F1EDEF2EF3E0FF2EF02DD7015896ED91D6
S1133A90FC915997D8018C91099590E0F40109950E
S1133AA0F5010995EC85FD858AE30995AE84BF840B
S1133AB0D60192968D909C909397D7015896ED914C
S1133AC0FC915997D80111968C91099590E0F401D5
S1133AD00995F5010995EC85FD858AE30995AE8480
S1133AE0BF84D6019296CD90DC909397D7015896D7
S1133AF0ED91FC915997D80112968C91099590E01B
S1133B00F6010995F5010995EE85FF8587EF91E0AA
S1133B1009951092B70203C08F5F8093B7027FBEEE
S1133B20FF91EF91DF91CF91BF91AF919F918F91D1
S1133B307F916F915F914F913F912F911F910F91C1
S1133B40FF90EF90DF90CF90BF90AF909F908F90B9
S1133B507F900F900BBE0F900FBE0F901F90189583
S1133B60DB018F939F9388D0BF91AF91A29F800D6B
S1133B70911DA39F900DB29F900D11240895AA1B2F
S1133B80BB1B51E107C0AA1FBB1FA617B70710F044
S1133B90A61BB70B881F991F5A95A9F78095909576
S1133BA0BC01CD01089597FB072E16F4009406D0AE
S1133BB077FD08D0E4DF07FC05D03EF490958195AD
S1133BC09F4F0895709561957F4F0895A1E21A2E35
S1133BD0AA1BBB1BFD010DC0AA1FBB1FEE1FFF1FAD
S1133BE0A217B307E407F50720F0A21BB30BE40BFD
S1133BF0F50B661F771F881F991F1A9469F7609544
S1133C007095809590959B01AC01BD01CF010895FD
S1133C10052E97FB16F400940FD057FD05D0D6DF80
S1133C2007FC02D046F408C0509540953095219584
S1133C303F4F4F4F5F4F08959095809570956195D4
S1133C407F4F8F4F9F4F0895EE0FFF1F0024001CDE
S1133C500BBE0790F691E02D0994A29FB001B39F8B
S1133C60C001A39F700D811D1124911DB29F700D81
S1133C70811D1124911D0895F0DFA59F900DB49F1F
S1133C80900DA49F800D911D11240895FB01DC016A
S1133C908D91019080190110D9F3990B0895FB01BE
S1133CA0DC0101900D920020E1F70895FB01DC0195
S1133CB04150504048F001900D920020C9F701C0D6
S1113CC01D9241505040E0F70895F894FFCF54
S1133CCE3132334134353642373839432A3023447E
S1133CDE000000004100420053656E73653A2000F7
S1133CEE43004D616E75616C3A2000456E746572C9
S1133CFE20416E676C650020206572720043202D92
S1133D0E2065786974004461746520616E64205482
S1133D1E696D6520536574757000312D5965617236
S1133D2E00322D4D6F6E746800332D44617900346A
S1133D3E2D486F757200352D4D696E00362D536505
S1133D4E6300310032003300340035003600456E16
S1133D5E74657220596561723A00456E74657220FD
S1133D6E4D6F6E74683A00456E74657220446179C5
S1133D7E3A00456E74657220486F75723A00456E4E
S1133D8E746572204D696E757465733A00456E7470
S1133D9E6572205365636F6E64733A00706F736956
S1133DAE74696F6E0D00616E616C6F672052656190
S1133DBE64696E673A20000D0A0074696D650D0022
S9030000FC
