S011000041746D6567613132382E7372656329
S113000067C0000084C0000082C0000080C00000FF
S11300107EC000007CC000007AC0000078C00000F0
S113002076C0000074C00000EEC40000BAC4000032
S1130030C2C40000CAC40000DCC400000C94401D0B
S1130040A6C4000064C000006EC50000A2C5000084
S11300505EC00000DAC100005AC0000058C00000B1
S1130060BEC40000DAC40000E2C40000EAC4000018
S1130070F2C40000FAC40000E2C6000019C7000080
S113008046C0000044C0000042C00000E803EC0386
S1130090F003F403F803FF0306040D041104180429
S11300A01F0426042A0431043804540458045C044C
S11300B0600466046A046E0472047B047F0483048F
S11300C08C04DF19F41A4D1BA61BFF1B581CB11C12
S11300D011241FBECFEFD0E1DEBFCDBF12E0A0E000
S11300E0B1E0ECEAFCE300E00BBF02C007900D9224
S11300F0A831B107D9F724E0A8E1B2E001C01D920C
S1130100A93DB207E1F70E94F3130C94541E78CF73
S1130110882389F0E0914902F0914A02208181E02C
S113012090E000904B0202C0880F991F0A94E2F7F6
S1130130822B808311C0E0914902F0914A02208110
S113014081E090E000904B0202C0880F991F0A944E
S1130150E2F7809582238083E0914902F0914A027C
S1130160408181E090E09C0100904D0202C0220F8A
S1130170331F0A94E2F7242B2083E0914902F09183
S11301804A02208100904D0202C0880F991F0A94F0
S1130190E2F78095822380830895E0914902F091EB
S11301A04A02408181E090E09C0100904C0202C030
S11301B0220F331F0A94E2F7242B2083E091490293
S11301C0F0914A02208100904C0202C0880F991FCE
S11301D00A94E2F78095822380830895FF920F9317
S11301E01F93CF93DF93F82EC0E0D0E001E010E03E
S11301F0C8010C2E02C0880F991F0A94E2F78F21C0
S113020087DF2196C830D10599F7C7DFDF91CF91F9
S11302101F910F91FF9008950F93CF93DF9300D018
S113022000D000D0CDB7DEB75FB73FB73F773FBF51
S1130230909348028093470270934A026093490264
S113024040934B0220934D0200934C02FC013081F9
S113025061E070E0DB0102C0AA0FBB1F2A95E2F740
S1130260FB0102C0EE0FFF1F0A95E2F7EA2B02C062
S1130270660F771F4A95E2F76E2B232F262BFC017E
S11302802083E0914902F0914A02808160956823BD
S113029060835FBF28E830E03A8329834EEE50E064
S11302A05C834B836DEC70E07E836D833A815C816B
S11302B07E8180E090E026960FB6F894DEBF0FBEF4
S11302C0CDBFDF91CF910F910895369B369AFC01F3
S11302D0EE0FFF1FEF5CFD4F8081918108950F9316
S11302E01F93CF93DF93CDB7DEB79F816885498590
S11302F05A851FB78FB78F778FBF509320024093D3
S11303001F0210921E0210921D021092180287B151
S11303108F7387B9913019F0933021F008C03E9A59
S113032001E006C087B1806C87B903E001C000E03A
S11303303D98141615068CF4DE011B9680E090E0BF
S11303402D913D91FC01EE0FFF1FEF5DFD4F3183B9
S1130350208301964817590799F787B1807E87B99A
S1130360E0911D02F0911E02EE0FFF1FEF5DFD4FA5
S11303708081918127B18F719927822B87B9379A10
S1130380369A3598339A86B1887F86B96031D1F030
S113039038F4643079F0683081F0623029F507C0B0
S11303A06034C1F06038D9F06032F1F40EC0309A94
S11303B022E01EC0319A24E01BC086B1836086B956
S11303C028E016C0329A20E113C086B1856086B950
S11303D020E20EC086B1866086B920E409C086B1E9
S11303E0876086B920E804C086B1876086B920E8B2
S11303F01FBF8FB780688FBF602F722F85E691E093
S1130400DF91CF911F910F9108951F920F920FB614
S11304100F9211240BB60F922F933F934F935F9338
S11304208F939F93EF93FF932FB78FB78F778FBFE0
S113043084B190E090931A028093190235B18091AF
S1130440190290911A02932B90931A028093190225
S1130450809118028430A0F4809118028F5F8093F9
S113046018024091190250911A0280911B02909136
S11304701C02840F951F90931C0280931B0243C09F
S1130480E0911D02F0911E0280911B0290911C02CA
S11304909595879595958795EE0FFF1FEF5CFD4F1A
S11304A09183808310921C0210921B0210921802F6
S11304B040911D0250911E0280911F0290912002D2
S11304C04817590754F480911D0290911E02019619
S11304D090931E0280931D0204C010921E0210927B
S11304E01D0287B1807E87B9E0911D02F0911E0242
S11304F0EE0FFF1FEF5DFD4F8081918137B18F714A
S11305009927832B87B92FBFFF91EF919F918F91EB
S11305105F914F913F912F910F900BBE0F900FBEA3
S11305200F901F90189520915102211140C02FEF78
S113053021BF23B7287F23BF8034910511F148F4EC
S113054088309105B1F080329105B9F0019749F5F1
S11305500CC0811521E09207E1F0811524E0920797
S1130560E1F080389105E9F410C083B7816083BF5E
S11305701BC083B7826083BF17C083B7836083BF08
S113058013C083B7846083BF0FC083B7856083BF04
S11305900BC083B7866083BF07C083B7876083BF00
S11305A003C083B7876083BF81E0809351020895BD
S11305B093B79F7C93BF823041F0833051F08130F8
S11305C059F483B7806183BF089583B7806283BF82
S11305D0089583B7806383BF089581BF089583B767
S11305E0887F83BF12BE10925102089520914E025B
S11305F0211142C02FEF3FEF3BBD2ABD2EB5287F0E
S11306002EBD88309105D1F048F48330910531F145
S11306108530910539F1019749F50CC0811521E028
S11306209207A1F0811524E09207A1F0803491058E
S1130630E9F408C08EB581608EBD1BC08EB58260A2
S11306408EBD17C08EB583608EBD13C08EB5846019
S11306508EBD0FC08EB585608EBD0BC08EB5866015
S11306608EBD07C08EB587608EBD03C08EB5856014
S11306708EBD81E080934E0208959FB59F739FBD08
S1130680823041F0833051F0813059F48FB5806469
S11306908FBD08958FB580688FBD08958FB5806C28
S11306A08FBD08959FB59F7C9FBD823041F08330FC
S11306B051F0813059F48FB580618FBD08958FB5A5
S11306C080628FBD08958FB580638FBD08959FB5F7
S11306D0937F9FBD823041F0833051F0813059F4D3
S11306E08FB584608FBD08958FB588608FBD0895E0
S11306F08FB58C608FBD08959BBD8ABD089599BD4B
S113070088BD0895909379008093780008958EB5FC
S1130710887F8EBD1DBC1CBC10924E0208951092A1
S1130720510223B7277B23BF623041F0633051F07D
S1130730613059F423B7206423BF07C023B728606E
S113074023BF03C023B7286423BF27B72E7F27BF47
S113075027B72D7F27BF423041F0433051F041305D
S113076071F427B7216027BF0AC027B7226027BFCB
S113077006C027B7216027BF27B7226027BF28ED0F
S113078032E0FC01318320832DEE32E0378326836F
S113079023E932E0358724872FEE32E03787268736
S11307A008950F931F93DC0110924E028FB58C7F36
S11307B08FBD8EB5877E8EBD062F10E0F801319770
S11307C0EF30F10508F05AC0EA5BFF4F0C94131E9A
S11307D08FB581608FBD52C08FB582608FBD4EC012
S11307E08FB583608FBD4AC08EB588608EBD46C00C
S11307F08FB581608FBD8EB588608EBD3FC08FB5CB
S113080082608FBD8EB588608EBD38C08FB5836021
S11308108FBD8EB588608EBD31C08EB580618EBDB2
S11308202DC08FB581608FBD8EB580618EBD26C011
S11308308FB582608FBD8EB580618EBD1FC08FB5B0
S113084083608FBD8EB580618EBD18C08EB5886102
S11308508EBD14C08FB581608FBD8EB588618EBD8D
S11308600DC08FB582608FBD8EB588618EBD06C008
S11308708FB583608FBD8EB588618EBD8FB5837053
S11308808FBD87B7837C87BFEDE7F0E080818E7FE3
S1130890808350E0FA013197EC30F10508F044C050
S11308A0EB5AFF4F0C94131E87B7846087BF3CC07C
S11308B087B7806187BF38C087B7886087BF34C077
S11308C0EDE7F0E08081816080832EC087B780628D
S11308D087BF2AC087B7846187BF26C087B78C606B
S11308E087BF22C087B7846087BFEDE7F0E08081CF
S11308F08160808319C087B7846287BF15C087B7BA
S11309008C6187BF11C087B78C6187BFEDE7F0E0CA
S113091080818160808308C087B7886187BFEDE7E5
S1130920F0E08081816080838DE393E011969C9355
S11309308E9382E593E013969C938E93129787E6A9
S113094093E015969C938E9314978CE793E01796F7
S11309509C938E9316978FE793E019969C938E93AE
S1130960189782E893E01B969C938E931A9786EFD0
S113097092E01D969C938E931C9787E893E01F96B4
S11309809C938E931E97CD011F910F9108951F92F2
S11309900F920FB60F9211240F900FBE0F901F905D
S11309A018951F920F920FB60F9211240F900FBE3D
S11309B00F901F9018951F920F920FB60F9211244B
S11309C00F900FBE0F901F9018951F920F920FB6A5
S11309D00F9211240F900FBE0F901F9018951F9225
S11309E00F920FB60F9211240F900FBE0F901F900D
S11309F018951F920F920FB60F9211240F900FBEED
S1130A000F901F9018951F920F920FB60F921124FA
S1130A100F900FBE0F901F9018951F920F920FB654
S1130A200F9211240F900FBE0F901F9018951F92D4
S1130A300F920FB60F9211240F900FBE0F901F90BC
S1130A4018951F920F920FB60F9211240F900FBE9C
S1130A500F901F9018951F920F920FB60F921124AA
S1130A600F900FBE0F901F9018951F920F920FB604
S1130A700F9211240F900FBE0F901F901895A09104
S1130A80DA02E1E0EA0FEF73E093DA029091940264
S1130A90E91741F0B0E0A45EBC4F8C93F0E0E45E53
S1130AA0FC4F1082EAE9F0E080818062808308953F
S1130AB0CF93DF93EC018881882329F02196DFDF2F
S1130AC089918111FCCFDF91CF910895E0919E032C
S1130AD08091D8028E1749F0EF5FEF73E0939E0385
S1130AE0F0E0EB56FD4F8081089580E008958091F9
S1130AF0D80290E0CF9620919E03821B91096FE368
S1130B0070E00C94C21D0895EBEDF2E010821182A6
S1130B10128280919E038093D8020895809194025A
S1130B208093DA0208951F920F920FB60F92112448
S1130B300BB60F928F939F93EF93FF938BB19AB160
S1130B40887180939302E0919C03EF5FEF7390911F
S1130B509D03E91304C082E0809393020FC09CB10B
S1130B60E0939C03882331F0F0E0E156FC4F88E5E4
S1130B70808304C0F0E0E156FC4F9083FF91EF9135
S1130B809F918F910F900BBE0F900FBE0F901F90EF
S1130B9018951F920F920FB60F9211240BB60F9255
S1130BA08F939F93EF93FF93E091D70281E08E0F91
S1130BB08F738093D702F0E0E45AFC4F80818CB9A4
S1130BC09091D70280919202981301C05598FF9199
S1130BD0EF919F918F910F900BBE0F900FBE0F90CE
S1130BE01F9018950F931F93CF93DF93FC01BFB70A
S1130BF08FB78F778FBF1092DA02109294021092FF
S1130C00D80210929E031092D6021092D50210922E
S1130C10DB02A62F772324F482E080939B007F7766
S1130C20709398006093990088E980939A00473004
S1130C30510541F140F44530510509F441C04630B5
S1130C40510579F149C04830510581F049305105C9
S1130C5009F042C0CAE9D0E0888184608883CDE984
S1130C60D0E088818660888349E041C0CAE9D0E049
S1130C7088818B7F8883CDE9D0E0888186608883F2
S1130C8048E035C0CAE9D0E088818B7F8883CDE90C
S1130C90D0E088818460888388818D7F888347E061
S1130CA026C0CAE9D0E088818B7F8883CDE9D0E073
S1130CB088818B7F888388818260888346E017C01F
S1130CC0CAE9D0E088818B7F8883CDE9D0E0888130
S1130CD0897F888345E00BC0CAE9D0E088818B7F97
S1130CE08883CDE9D0E088818660888348E021301C
S1130CF0310521F02230310541F00EC0CDE9D0E0BC
S1130D008881877F888321E00DC0CDE9D0E0888188
S1130D108860888322E006C0CDE9D0E08881877F9F
S1130D20888321E00230110561F00330110599F048
S1130D30012BC1F4CDE9D0E088818F7C888390E0D9
S1130D4017C0CDE9D0E088818062888388818F7E56
S1130D50888392E00DC0CDE9D0E0888180638883E8
S1130D6093E006C0CDE9D0E088818F7C888390E051
S1130D70BFBF8FB780688FBFA083418322839383D3
S1130D8083EF96E09583848386E695E09783868354
S1130D908FE395E09187808788E595E09387828744
S1130DA087E795E09587848784E895E09787868729
S1130DB08EE895E0918B808BCF01DF91CF911F91CD
S1130DC00F910895E0919E038091D802E81749F0AD
S1130DD0EF5FEF73E0939E03F0E0EB56FD4F8081ED
S1130DE0089580E00895CF93DF9390919E038091BE
S1130DF0D8029817D9F0C091D502D091D602CF333A
S1130E00D105A4F4DFDFC552DD4F88838091D5027C
S1130E109091D60201969093D6028093D502FC015C
S1130E20E552FD4F108280E191E006C01092D60297
S1130E301092D5028BED92E0DF91CF9108951F922D
S1130E400F920FB60F9211240BB60F928F939F93AC
S1130E50EF93FF9380919B0090919A008871809307
S1130E60D902E091D802EF5FEF7390919E03E913EA
S1130E7004C082E08093D90210C090919C00E0935A
S1130E80D802882331F0F0E0EB56FD4F88E58083EB
S1130E9004C0F0E0EB56FD4F9083FF91EF919F91DA
S1130EA08F910F900BBE0F900FBE0F901F9018954F
S1130EB01F920F920FB60F9211240BB60F928F93BD
S1130EC09F93EF93FF93E091940281E08E0F8F73D1
S1130ED080939402F0E0E45EFC4F808180939C0058
S1130EE0909194028091DA02981305C0EAE9F0E047
S1130EF080818F7D8083FF91EF919F918F910F90DF
S1130F000BBE0F900FBE0F901F90189568234423BB
S1130F1021F0861721F080E00895611180E00895A2
S1130F20862B08958623089586230895862B80951D
S1130F300895862786230895609586230895862735
S1130F400895CF92DF92EF92FF920F931F93FC01CB
S1130F500081118122813381FB01C080D180E28034
S1130F60F380FC01C082D182E282F382FB01008320
S1130F701183228333831F910F91FF90EF90DF90B1
S1130F80CF900895FB012081FC012083222339F0B6
S1130F90DB01119631969D9191939111FCCF0895A7
S1130FA0CF93DF93EC019881992399F0FE01319658
S1130FB020E030E0492F50E04617570731F0DE01BA
S1130FC0A20FB31F9C932F5F3F4F91919111F2CFCA
S1130FD002C020E030E0FE01E20FF31F1082DF9137
S1130FE0CF9108952F923F924F925F926F927F928A
S1130FF08F929F92AF92BF92CF92DF92EF92FF9225
S11310000F931F93CF93DF9300D000D0CDB7DEB7FB
S11310102C011B014B0177231CF42FEF821A920A37
S113102095948794181419040CF451C06AC096015D
S1131030DD209CF1F50140815181F40160817181D1
S11310406417750754F58C010A0D1B1DD401BC826D
S1131050AB82BA82A982EB81FC8171836083119691
S11310605C934E932E193F09C2F0F80140815181DF
S1131070E981FA8160817181080F191FE80FF91F56
S1131080FA83E983EB81FC81E80FF91FFC83EB838E
S1131090A80FB91F64177507F4F2FFEFCF1ADF0A20
S11310A022E0A20EB11CE2E08E0E911CC614D704FD
S11310B009F0BDCF4701FF201CF4FFEF8F1A9F0AF0
S11310C09594879418141904E4F4740101C074010C
S11310D0821493047CF76401CE18DF085601AA0C2D
S11310E0BB1CA40CB51C880C991C840C951C3101E8
S11310F06E187F08C701880F991F919581959109F2
S113110096CF0F900F900F900F90DF91CF911F917A
S11311100F91FF90EF90DF90CF90BF90AF909F9092
S11311208F907F906F905F904F903F902F90089595
S1131130861797070CF4CB0108959B01672B11F4D4
S113114008959A01B9010E94C21DAC01822F932F08
S113115041155105B1F70895FC01908180ED890F87
S11311608A30D0F4319620E030E0A901440F551FB5
S1131170220F331F220F331F220F331F420F531F1F
S1131180292F30E020533109240F351F919180ED30
S1131190890F8A3050F302C020E030E0C90108957D
S11311A086230895009739F020E030E02F5F3F4F09
S11311B082179307D9F7089587FF08C09195819501
S11311C09109992791958195910908958F77992788
S11311D0089591FF08C09195819591099370919517
S11311E081959109089591700895615021E030E04E
S11311F002C0220F331F6A95E2F7A9014150510939
S1131200B90168237923672B29F084239523821B52
S1131210930B08958423952308959DEC899F912D24
S11312201124969596959695392F330F232F220FD7
S1131230220F230F821B20E1929F800D1124089519
S1131240982F92959F70990F292F220F220F920F9A
S11312508F70890F0895FC01DB01A152BC4F1C92D1
S11312601616170614F5908191110CC017C09191B0
S113127091110DC015C081932F5F3F4F261737077B
S1131280D4F313C0AFEDB3E0319620E030E09D938A
S11312902F5F3F4F6217730751F707C020E030E01C
S11312A0F901E152FC4F80E2E6CF8FED93E008951F
S11312B04F925F926F927F92AF92BF92CF92DF92E2
S11312C0EF92FF920F931F93CF93DF93CDB7DEB7C7
S11312D029013A019B01AC01241935094609570932
S11312E089899A89AB89BC89BC01CD016A197B09BA
S11312F08C099D090E949F1DA80197012419350995
S1131300460957090E94F71DCA01B9016A0D7B1DE0
S11313108C1D9D1DDF91CF911F910F91FF90EF9038
S1131320DF90CF90BF90AF907F906F905F904F9081
S1131330089570E06115710599F041E050E021E0F5
S113134030E090E0FA01E89FA001E99F500DF89F7A
S1131350500D11242F5F3F4F6217730798F702C097
S113136041E050E0CA010895FC012081222341F0AC
S1131370319680E090E0019621912111FCCF0895EF
S113138080E090E00895CF93DF93EC01EDDF9C01C2
S11313902150310962F0FE01E80FF91F9291903259
S11313A019F09950923018F421503109B8F7C20F4E
S11313B0D31F1982C901DF91CF910895CF93DF9391
S11313C0EC01D2DF9C01215031091216130684F47A
S11313D0DE01A80FB91FFE0180E090E040815E911C
S11313E051934C9301962150310982179307B4F31A
S11313F0DF91CF9108958F929F92AF92BF92CF9237
S1131400DF92EF92FF920F931F93CF93DF936B01C1
S11314107C01DC01CB01FF203CF488279927DC0107
S11314208C199D09AE09BF09BC01CD0110E00F2E36
S1131430FAE08F2E912CA12CB12CF02D01C0102F8D
S113144001E0010FC12FD0E0C152DC4FA50194018E
S11314500E94F71D605D6883622F732F842F952F80
S1131460161617061806190654F3FF2044F4E02F45
S1131470F0E0E152FC4F8DE2808302E0010FE02FA7
S1131480F0E0E152FC4F10828FED93E097DF8FED97
S113149093E0DF91CF911F910F91FF90EF90DF9038
S11314A0CF90BF90AF909F908F9008950F931F930C
S11314B0CF93DF93EC01992324F4882799278C1B7D
S11314C09D0B20E00AE010E001C0232F31E0320F31
S11314D0E22FF0E0E152FC4FB8010E94C21D805D92
S11314E08083862F972F181619067CF3DD2344F486
S11314F0E32FF0E0E152FC4F8DE2808332E0320FC3
S1131500E32FF0E0E152FC4F10828FED93E056DFC1
S11315108FED93E0DF91CF911F910F910895CF93B9
S1131520AC01E0E0C1E0CE0FF0E0E152FC4F9A01E3
S1131530ADECBCEC0E941C1E9695879596958795FC
S1131540969587959C01220F331F880F991F880F4A
S1131550991F880F991F820F931F9A01281B390B1B
S1131560C901805D80839A010E941C1EAC015695BE
S113157047955695479556954795EC2F4115510536
S113158089F6EC2FF0E0E152FC4F10828FED93E0EE
S113159015DF8FED93E0CF910895982F92959F706A
S11315A0990F292F220F220F920F8F70890F089500
S11315B0AC019C01ADECBCEC0E941C1E9695879579
S11315C09695879596958795BC01660F771F9C0124
S11315D0220F331F220F331F220F331F260F371FF3
S11315E0421B530B342F20E1829F300D1124832F93
S11315F00895CF92DF92EF92FF92CF93DF93CDB70E
S1131600DEB728970FB6F894DEBF0FBECDBF6B01CF
S11316107C0169837A838B839C832D833E834F83F0
S11316205887C216D306E406F50634F4BE016B5F90
S11316307F4FCE01019685DC8D819E81AF81B88577
S1131640892B8A2B8B2B71F469817A818B819C8104
S113165020E030E0A9010E94F71D611571058105A4
S1131660910529F46D817E818F81988505C06D83F4
S11316707E838F839887F6CF28960FB6F894DEBFC3
S11316800FBECDBFDF91CF91FF90EF90DF90CF9051
S1131690089590E002C0959587956A95E2F7817068
S11316A00895EFEDF3E090E020E850E341E3382FB4
S11316B0322311F0408301C0508326959F5F3196F9
S11316C09830A9F71092E7038FED93E00895A42FC3
S11316D0B0E0109761F021E030E0E1E0F0E0EE0FDF
S11316E0FF1F2F5F3F4FA217B307C8F702C0E1E007
S11316F0F0E031976E237F238E239F23862797273D
S11317006823792302C0660F771F4A95E2F7862B78
S1131710972B0895FC019FB78FB78F778FBF9FBF1B
S113172089E999E09183808384EB99E093838283B0
S11317308EED99E09583848387E69BE09783868387
S113174086E897E09187808784E997E0938782878A
S113175086E997E09587848789E997E09787868764
S11317608CE997E0918B808B8FE997E0938B828B48
S113177080E997E0958B848B82E997E0978B868B41
S113178081EA97E0918F808F82EC97E0938F828F2C
S113179080ED97E0958F848F82EF97E0978F868F07
S11317A086E59AE091A380A38FE89AE093A382A3AD
S11317B08BEF99E095A384A383EC99E097A386A388
S11317C088E998E091A780A78DE998E093A782A77C
S11317D08CEA98E095A784A780ED98E097A786A760
S11317E082ED98E091AB80AB8CED98E093AB82AB4B
S11317F089EE98E095AB84AB85EF98E097AB86AB28
S11318008DE099E091AF80AF80E299E093AF82AF31
S11318108BE299E095AF84AF88E599E097AF86AF06
S1131820DF01A05CBF4F8DEC9AE011969C938E93E0
S1131830129688ED9AE011969C938E93129689EFF6
S11318409AE011969C938E93129689E49BE01196EC
S11318509C938E93129681E59BE08D939C93CF018C
S11318600895E4E7F0E084EA80838FEF93E09093B7
S1131870F5038093F403808188235CF08EEF93E07A
S11318809093F5038093F4032081222314F00197AD
S1131890B8F7089580937300E4E7F0E084E8808368
S11318A08FEF93E09093F5038093F4038081882372
S11318B05CF08EEF93E09093F5038093F403208122
S11318C0222314F00197B8F7089520E4829FC00101
S11318D011248468E4E7F0E080838FEF93E0909331
S11318E0F5038093F403808188235CF08EEF93E00A
S11318F09093F5038093F4032081222314F001973D
S1131900B8F780917300089580917100887F0895DD
S113191084E9809374008FE891E00197F1F700C0A7
S11319200000089591B3936091BB92B3936092BB0E
S1131930843079F018F4813031F01DC0803179F0B1
S1131940803499F018C0E1E7F0E090819C7F9083A7
S113195018C0E1E7F0E090819160908312C0E1E764
S1131960F0E09081926090830CC0E1E7F0E0908118
S11319709360908306C0E1E7F0E080818C7F8083F0
S113198081E0282F30E0220F331F032E000C440B7C
S1131990550B60E970E080E090E00E94D51D209333
S11319A0700008951F93CF93DF93EC01862F1FB728
S11319B09FB79F779FBFB6DF1FBF81E39CE09983EA
S11319C0888388E89CE09B838A838AE49CE09D83E7
S11319D08C8385E69CE09F838E8384E89CE09987D2
S11319E08887CE01DF91CF911F910895CF93DF9324
S11319F000D000D01F92CDB7DEB785E0E4E3F4E079
S1131A00DE01119601900D928A95E1F729813A81C0
S1131A104B815C816D8170E080E090E00F900F90CD
S1131A200F900F900F90DF91CF91089510920104C1
S1131A30E4E3F4E080E2808382E191E092838183B5
S1131A40948383830895CF93DF9321E080E0A9EF0B
S1131A50B3E0EDEFF3E060E071E001C02F5F9FEFD2
S1131A60920F913009F44BC038F0923009F48CC0D5
S1131A70933009F4CEC00EC1409104045091050482
S1131A80EA019881906898834091F6035091F70396
S1131A90EA0198819F77988340910204509103044E
S1131AA0EA01388134773C939081432F492794236A
S1131AB03083992399F0943019F4EB0188810AC09A
S1131AC0903119F4EB01898109C0903219F4EB01CA
S1131AD08A8104C0903411F4EB018B814091040499
S1131AE050910504EA0198819F7798834091F60309
S1131AF05091F703EA01988190689883AFCF4091A1
S1131B00040450910504EA019881916098834091FE
S1131B10F6035091F703EA0198819E7F98834091E0
S1131B20020450910304EA013881347711963C93FE
S1131B3011979181432F492794233183992399F055
S1131B40943019F4EB018C810AC0903119F4EB0143
S1131B508D8109C0903219F4EB018E8104C0903458
S1131B6011F4EB018F814091040450910504EA01C2
S1131B7098819E7F98834091F6035091F703EA0180
S1131B809881916098836ACF409104045091050430
S1131B90EA019881926098834091F6035091F7038B
S1131BA0EA0198819D7F9883409102045091030437
S1131BB0EA013881347712963C9312979281432F2D
S1131BC0492794233283992399F0943019F4EB0133
S1131BD088850AC0903119F4EB01898509C09032D7
S1131BE019F4EB018A8504C0903411F4EB018B8560
S1131BF04091040450910504EA0198819D7F9883E3
S1131C004091F6035091F703EA019881926098831A
S1131C1025CFE0910404F0910504908198609083AD
S1131C20E091F603F091F7039081977F9083E09120
S1131C300204F0910304208124772093FC03EDEF48
S1131C40F3E09381322F392793232383992399F047
S1131C50943019F480910C010AC0903119F48091E8
S1131C600D0109C0903219F480910E0104C0903422
S1131C7011F480910F01E0910404F0910504908126
S1131C80977F9083E091F603F091F7039081986039
S1131C90908303C0243008F4E1CEDF91CF910895FE
S1131CA0CF93DF9300D000D01F92CDB7DEB7CBDE49
S1131CB08823B1F18093340490910104943188F421
S1131CC0E0910104F0E0EA5FFB4F8083909101040E
S1131CD09F5F90930104E0910104F0E0EA5FFB4F01
S1131CE01082843499F4E0910104F0E0EB5FFB4F3F
S1131CF0108210920104E4E3F4E082E191E0928323
S1131D00818386E094E0948383830AC0E4E3F4E06F
S1131D1086E094E09283818382E191E094838383DB
S1131D2085E0E4E3F4E0DE01119601900D928A95DA
S1131D30E1F729813A814B815C816D8170E080E01B
S1131D4090E00F900F900F900F900F90DF91CF9134
S1131D500895CF93DF93CDB7DEB728970FB6F894E5
S1131D60DEBF0FBECDBF2FB730E230933404909363
S1131D700504809304047093030460930204509355
S1131D80F7034093F6033BE8FC013083E091F6034C
S1131D90F091F70384E78083A9EFB3E08C93EDEF30
S1131DA0F3E0808311968C931197818312968C9320
S1131DB01297828313968C938383109201042FBF0E
S1131DC0E091F603F091F70380818B68808323E22E
S1131DD03DE03A83298340E55EE05C834B8366EF14
S1131DE07CE07E836D8386E19DE098878F833A81D2
S1131DF05C817E81988528960FB6F894DEBF0FBE6D
S1131E00CDBFDF91CF910895E0912504F091260490
S1131E1090819D7F9083672B41F0E0912504F091A0
S1131E20260490819160908307C0E0912504F0918D
S1131E30260490819E7F9083E0912204F0912304F4
S1131E409081906F9083E0912504F0912604908115
S1131E5094609083882344F4E0912504F09126044F
S1131E6090819068908307C0E0912504F091260446
S1131E7090819F77908386FF08C0E0912504F091BC
S1131E80260490819064908307C0E0912504F0912A
S1131E90260490819F7B908385FF08C0E0912504F0
S1131EA0F091260490819062908307C0E09125040C
S1131EB0F091260490819F7D908384FF08C0E09177
S1131EC02504F091260490819061908307C0E091ED
S1131ED02504F091260490819F7E9083E09125044F
S1131EE0F091260490819B7F9083E0912504F091EA
S1131EF0260490819460908383FF08C0E0912504B8
S1131F00F091260490819068908307C0E0912504A5
S1131F10F091260490819F77908382FF08C0E0911E
S1131F202504F091260490819064908307C0E09189
S1131F302504F091260490819F7B908381FF08C043
S1131F40E0912504F091260490819062908307C06B
S1131F50E0912504F091260490819F7D908380FF79
S1131F6008C0E0912504F09126048081806180837B
S1131F7007C0E0912504F091260480818F7E808340
S1131F80E0912504F091260480818B7F808308955D
S1131F90E0912204F091230420812F702083E091AA
S1131FA02504F09126042081206F2083E0912504EC
S1131FB0F0912604208122602083892B41F0E09156
S1131FC02504F091260480818160808307C0E0911C
S1131FD02504F091260480818E7F8083E09125047E
S1131FE0F0912604808184608083E0911B04F09149
S1131FF01C048081882314F080E001C080E8908173
S113200096FF02C0806401C08F7B908195FF02C05F
S1132010806201C08F7D908194FF02C0806101C005
S11320208F7EE0912504F091260490819B7F90831C
S1132030E0912504F0912604908194609083E091CE
S11320401B04F0911C049081992314F4886001C04E
S1132050877F908196FF02C0846001C08B7F90814E
S113206095FF02C0826001C08D7F908194FF02C001
S1132070816001C08E7FE0912504F0912604908157
S11320809B7F90830895CF93DF9380E090E080DF7F
S1132090CBE0D0E005C080E090E07ADF219711F03A
S11320A08823CCF3DF91CF91089561E070E0ACDE3A
S11320B0EACF0895CF9381E090E06ADFC82FE3DF91
S11320C08C2FCF910895CF93DF93EC0188818823DF
S11320D041F0219661E070E097DED5DF89918111AE
S11320E0F9CFDF91CF9108950F931F93CF93DF938F
S11320F0FC01D62F8081882351F08F010F5F1F4F81
S1132100611109C01BC0CF5FDC1730F401C0C0E00F
S1132110CD1760F013C0C1E061E070E075DEB3DF9D
S1132120F80181918F018111EECFF2CFCF5F61E091
S113213070E080E269DEA7DFCD17C0F3DF91CF91B5
S11321401F910F910895CF93C82F882339F061E030
S113215070E080E259DE97DFC150C9F7CF9108954E
S1132160262F8130910571F030F08230910589F08D
S11321700397B1F0089560E070E080E8820F44DED8
S113218082CF089560E070E080EC820F3DDE7BCF6B
S1132190089560E070E084E9820F36DE74CF08951C
S11321A060E070E084ED820F2FDE6DCF089560E073
S11321B070E081E029DE87EE97E10197F1F700C036
S11321C000000895E0912204F091230487E08083C5
S11321D0E0912504F091260488E080832FEF83EFBB
S11321E091E0215080409040E1F700C0000060E0A1
S11321F070E083E309DE20ED2A95F1F760E070E0FA
S113220083E302DE80ED8A95F1F760E070E08BE213
S1132210FBDD95EC9A95F1F7000060E070E08CE04E
S1132220F3DD25EC2A95F1F7000060E070E081E031
S1132230EBDD87EE97E10197F1F700C0000060E065
S113224070E086E0E1DD95EC9A95F1F700000895E1
S11322501F93CF93DF93EC011FB78FB78F778FBF97
S1132260709323046093220450931C0440931B0432
S11322703093260420932504FB011082E091250469
S1132280F09126048FEF8083E0911B04F0911C04ED
S1132290808188708093240495DF1FBF84E09FE0D1
S11322A09983888388EC9FE09B838A8383E490E10D
S11322B09D838C8385E590E19F838E838AE590E1FD
S11322C09987888783E690E19B878A8784E790E1F2
S11322D09D878C8783EA90E19F878E8787ED90E1C5
S11322E0998B888B80EB90E19B8B8A8B8FE791E1B4
S11322F09D8B8C8BCE01DF91CF911F910895CF934D
S1132300E0911B04F0911C04C081C87080912404E6
S11323108C278C2309F056DFC0932404CF910895B1
S1132320FF920F931F93CF93DF93182F062FF42E52
S1132330CAE4D4E0E881F9810995EC81FD8182EA5F
S11323400995EC81FD8182E00995EC81FD818F2D59
S11323500995EC81FD81802F0995EC81FD81812F08
S11323600995EA81FB810995DF91CF911F910F9126
S1132370FF9008951F93CF93DF93182FCAE4D4E0FE
S1132380E881F9810995EC81FD8182EA0995EC8166
S1132390FD8184E00995EC81FD81812F0995EA8115
S11323A0FB810995DF91CF911F9108951F93CF93DE
S11323B0DF93182FCAE4D4E0E881F9810995EC8110
S11323C0FD8182EA0995EC81FD8183E00995EC8128
S11323D0FD81812F0995EA81FB810995DF91CF91D8
S11323E01F9108951F93CF93DF93182FCAE4D4E06D
S11323F0E881F9810995EC81FD8182EA0995EC81F6
S1132400FD8182E00995EC81FD81812F0995EA81A6
S1132410FB810995DF91CF911F9108951F93CF936D
S1132420DF93882321F06370162F106801C010E039
S1132430CAE4D4E0E881F9810995EC81FD8182EA5E
S11324400995EC81FD818DE00995EC81FD81812F59
S11324500995EA81FB810995DF91CF911F91089538
S1132460EF92FF920F931F93CF93DF93E82EF62EF4
S1132470042F122FCAE4D4E0E881F9810995EC8194
S1132480FD8182EA0995EC81FD8185E00995EC8165
S1132490FD818E2D0995EC81FD818F2D0995EC81AF
S11324A0FD81802F0995EC81FD81812F0995EA81B9
S11324B0FB810995DF91CF911F910F91FF90EF90D0
S11324C008951F93CF93DF93182FCAE4D4E0E881D3
S11324D0F9810995EC81FD8182EA0995EC81FD8100
S11324E088E00995EC81FD81812F0995EA81FB81C2
S11324F00995DF91CF911F9108951F93CF93DF9397
S1132500182FCAE4D4E0E881F9810995EC81FD81B2
S113251082EA0995EC81FD8187E00995EC81FD81D2
S1132520812F0995EA81FB810995DF91CF911F9154
S113253008951F93CF93DF93182FCAE4D4E0E88162
S1132540F9810995EC81FD8182EA0995EC81FD818F
S113255086E00995EC81FD81812F0995EA81FB8153
S11325600995DF91CF911F9108951F93CF93DF9326
S1132570182FCAE4D4E0E881F9810995EC81FD8142
S113258082EA0995EC81FD8185E00995EC81FD8164
S1132590812F0995EA81FB810995DF91CF911F91E4
S11325A00895FF920F931F93CF93DF93CAE4D4E06F
S11325B0E881F9810995EC81FD8182EA0995EC8134
S11325C0FD8182E00995EA81FB810995E881F98121
S11325D00995EC81FD8183EA0995EE81FF8181E013
S11325E00995F82EEE81FF8181E00995182FEE817F
S11325F0FF8180E00995082FEA81FB810995602F0E
S11326006F73712F7F778F2D8F77DF91CF911F910C
S11326100F91FF900895EF92FF920F931F93CF9322
S1132620DF93CAE4D4E0E881F9810995EC81FD8166
S113263082EA0995EC81FD8185E00995EA81FB81B7
S11326400995E881F9810995EC81FD8183EA099571
S1132650EE81FF8181E00995082FEE81FF8181E001
S11326600995F82EEE81FF8181E00995182FEE81FE
S1132670FF8180E00995E82EEA81FB810995712F9D
S11326807F716E2D8F2D8770902F9F73DF91CF9167
S11326901F910F91FF90EF900895982F92959F703E
S11326A0990F292F220F220F920F8F70890F0895EF
S11326B09DEC899F912D1124969596959695392F89
S11326C0330F232F220F220F230F821B20E1929F0F
S11326D0800D11240895CF93DF93CAE4D4E0E881F8
S11326E0F9810995EC81FD8182EA0995EC81FD81EE
S11326F080E00995EC81FD8180E00995EA81FB8108
S11327000995DF91CF910895FF920F931F93CF9373
S1132710DF93CDB7DEB72A970FB6F894DEBF0FBEAE
S1132720CDBF8C01FFB68FB78F778FBFCE010196D7
S113273039D98AE0FE013196AAE4B4E001900D9201
S11327408A95E1F7C8DFFFBE80E991E1F801918342
S113275080838AEB91E19383828386ED91E1958373
S1132760848382EF91E1978386838EE092E191875F
S1132770808780E392E19387828785EB92E1958756
S1132780848789E992E1978786878DE792E1918B27
S1132790808B81E692E1938B828B81ED92E1958B24
S11327A0848B8BE093E1978B868B8DE493E1918FFF
S11327B0808F88E593E1938F828FC8012A960FB6A4
S11327C0F894DEBF0FBECDBFDF91CF911F910F9163
S11327D0FF900895109261008FE08093620087B3A8
S11327E0806E87BB0895CF93DF93CDB7DEB7CC530C
S11327F0D1400FB6F894DEBF0FBECDBFEBDFCE01E4
S11328008E519F4F0E948A0B8AE4FE01EE51FF4FC6
S1132810AAE5B4E001900D928A95E1F72BE330E04C
S113282049E350E06AE370E0CE018E569F4F10DD1D
S1132830C856DF4F28803980C859D040C256DF4F70
S113284048805980CE59D040CE55DF4F28813981F8
S1132850C25AD040C05DDE4F39832883C053D14073
S1132860CC55DF4F88809980C45AD04043E250E071
S113287061E270E082E290E06CDAC855DF4F2883B1
S1132880C85AD040C755DF4F3883C95AD040C655BF
S1132890DF4F4883CA5AD040C555DF4F5883CB5ABF
S11328A0D040C455DF4F6883CC5AD040C355DF4F66
S11328B07883CD5AD040C255DF4F8883CE5AD0405A
S11328C0C155DF4F9883CF5AD040C455DF4F68803D
S11328D07980CC5AD040C255DF4F88819981CE5A35
S11328E0D040C25DDE4F99838883CE52D1401F927F
S11328F01F921F9281E08F9390E89F938F930E9481
S11329006F01C95CDE4F688379838A839B83C753D5
S1132910D14042E062E0CE0180559F4F0E948F0378
S113292040E069E0CE0180549F4F0E94D103C85318
S1132930DF4FA881B981C85CD040C55CDE4FB98344
S1132940A883CB53D14060E1CE018E519F4FDCDE92
S11329508CE1FE01EE51FF4FA7EAB4E001900D9225
S11329608A95E1F701E020E042E065E670E084E664
S113297090E00E940C01209354043093550440933A
S1132980560450935704609358047093590400E01C
S113299010E021E030E048E050E067E670E0CE016E
S11329A08E519F4F0E94F20582E1FE01EE51FF4FCE
S11329B0A7ECB4E001900D928A95E1F7CE01805323
S11329C09F4FFC0120E330E02193319324E0DF01A9
S11329D01D922A95E9F729E330E3CA52DF4F398380
S11329E02883C65DD040C852DF4F19821882C85D63
S11329F0D040C652DF4F19821882CA5DD0409093EE
S1132A00440280934302CA54DF4FE881F981C65BD4
S1132A10D04089EF0995C454DF4FE881F981CC5B3C
S1132A20D04080E490E00995CE53DF4FE881F981EE
S1132A30C25CD04082E00995CA53DF4FE881F98136
S1132A40C65CD04080E29EE40995C453DF4FE88120
S1132A50F981CC5CD04088E090E00995E091AF0426
S1132A60F091B00462E081E009950F900F900F900F
S1132A700F900F900F90ECE0F0E0CE5CDE4FF98306
S1132A80E883C253D140F0E3CA5CDE4FF883C653F7
S1132A90D14021E3C45DDE4F2883CC52D1400DC028
S1132AA031E3C45DDE4F3883CC52D14006C080E3AD
S1132AB0CA5CDE4F8883C653D140CA55DF4FE881D4
S1132AC0F981C65AD0400995C655DF4FE881F9818E
S1132AD0CA5AD0400995E091CB04F091CC040995F1
S1132AE090934202809341026DE070E083E090E0B5
S1132AF0F40109958AE3F1010995F3010995C25797
S1132B00DF4F3883CE58D040C157DF4F4883CF586A
S1132B10D04066E0C257DF4F88819981CE58D040BB
S1132B20F2010995C45DDE4FF881CC52D140F233F5
S1132B3009F4A2C2F33309F4A8C3F13309F06AC754
S1132B40F3010995C557DF4F5883CB58D040C4577C
S1132B50DF4F6883CC58D04064E171E0C557DF4F44
S1132B6088819981CB58D0400E94351E892BA9F4C5
S1132B70C25DDE4FE881F981CE52D1400995C05D36
S1132B80DE4FE881F981C053D1400995F2E3C45D79
S1132B90DE4FF883CC52D14090CFF3010995CA5748
S1132BA0DF4F5883C658D040C957DF4F6883C75892
S1132BB0D04066E171E0CA57DF4F88819981C658D9
S1132BC0D0400E94351E892BA9F4C25DDE4FE881F6
S1132BD0F981CE52D1400995C05DDE4FE881F9817B
S1132BE0C053D1400995F3E3C45DDE4FF883CC5262
S1132BF0D14063CF07EA14E0D8015496ED91FC91DB
S1132C00559709956093A4047093A5048093A60432
S1132C10D8015696ED91FC91579709956093C3049A
S1132C207093C4048093C5049093C60480E090E03C
S1132C30C75CDE4FE881F981C953D1400995C45D71
S1132C40DE4F99838883CC52D140CE5CDE4F88819D
S1132C509981C253D14006970F9708F067C0CE5CA4
S1132C60DE4F28813981C253D140B90180E090E020
S1132C701F921F9229E02F932EE22F93E091980444
S1132C80F09199040F2EF4EFAF2EBB24B394C12C12
S1132C90D12CF02D17E1E12EF12C00E010E022E020
S1132CA030E040E050E00995CE5CDE4F68837983E4
S1132CB08A839B83C253D140C45DDE4FE881F9818E
S1132CC0CC52D140CF01A0E0B0E01F921F921F92DE
S1132CD028EC2F93E0919804F09199040F2EF8E3D7
S1132CE0AF2EBB24BA94CB2CDB2CF02DEE24EA942B
S1132CF013E0F12E00E010E020E030E0A901BC0177
S1132D00CD010995CE5CDE4F88819981C253D140B3
S1132D10860F971FC55CDE4FE881F981CB53D14004
S1132D2009950FB6F894DEBF0FBECDBF60E070E02A
S1132D3080E090E0F401099567E088E191E0F20118
S1132D4009950F2EFAE5CF2EF4E0DF2EF02DD601F3
S1132D509096ED91FC919197C45DDE4F88819981A5
S1132D60CC52D1400995BC01CE0180539F4F86D7E8
S1132D7064E0CE0180539F4FF20109956CE070E04E
S1132D8080E090E0F4010995D6019296ED90FC90D4
S1132D90939703EC14E00F2EF7EAAF2EF4E0BF2E66
S1132DA0F02DD5015896ED91FC915997D8011396C1
S1132DB08C91099590E0F701099562E0F20109957B
S1132DC08AE3F1010995D6019296ED90FC909397D0
S1132DD0D5015896ED91FC915997D80111968C9193
S1132DE0099590E0F701099562E0F20109958AE3FB
S1132DF0F1010995D6019296ED90FC909397D50137
S1132E005896ED91FC915997D8018C91099590E0D1
S1132E10F701099562E0F20109956CE070E081E048
S1132E2090E0F40109950F2EF4EAEF2EF4E0FF2E62
S1132E30F02DD5015896ED91FC915997D7018C91BD
S1132E400995E82FF0E0CE5CDE4FF983E883C253A6
S1132E50D140D6019296ED91FC919397CE5CDE4FD2
S1132E6088819981C253D140099562E0F2010995A4
S1132E708AE3F1010995D60192960D911C919397DD
S1132E80D5015896ED91FC915997D70111968C91E3
S1132E90099590E0F801099562E0F20109958AE349
S1132EA0F1010995D60192960D911C919397D50144
S1132EB05896ED91FC915997D70112968C910995EA
S1132EC090E0F801099562E0F201099560E070E094
S1132ED082E090E0F401099564E1809141029091CF
S1132EE04202F201099560E271E080914102909101
S1132EF04202BBD6892B49F507EC14E0D801189699
S1132F00ED91FC9119978EE30995D8011A96ED91EC
S1132F10FC911B978AE291E00995D8011A96ED91EC
S1132F20FC911B9780914302909144020995D8012A
S1132F301A96ED91FC911B978FE791E00995D801C2
S1132F401E96ED91FC911F9709956BE371E08091BA
S1132F5041029091420289D6892B09F0A1CD0F2E0E
S1132F60F7ECCF2EF4E0DF2EF02DF6010284F3858A
S1132F70E02DC45DDE4FF983E883CC52D1400F2E9F
S1132F80FAE5EF2EF4E0FF2EF02DD70192960D9185
S1132F901C9193970F2EF7EAAF2EF4E0BF2EF02D7D
S1132FA0D5015896ED91FC915997A4EAB4E08C911F
S1132FB0099590E0F8010995C45DDE4FE881F98137
S1132FC0CC52D1400995D6011896ED91FC911997F0
S1132FD08AE30995F6010284F385E02DC45DDE4F92
S1132FE0F983E883CC52D140D70192960D911C917C
S1132FF09397D5015896ED91FC9159978091A5042A
S1133000099590E0F8010995C45DDE4FE881F981E6
S1133010CC52D1400995D6011896ED91FC9119979F
S11330208AE30995F60102851385D7019296ED90FE
S1133030FC909397D5015896ED91FC915997809106
S1133040A604099590E0F7010995F8010995D601C0
S11330501A96ED91FC911B978FE791E00995D601A3
S11330601E96ED91FC911F970995B1E3C45DDE4F67
S1133070B883CC52D14021CDF3010995CF57DF4F0E
S11330805883C158D040CE57DF4F6883C258D040D0
S113309064E171E0CF57DF4F88819981C158D040F6
S11330A0E4D5892BA9F4C25DDE4FE881F981CE52C3
S11330B0D1400995C05DDE4FE881F981C053D1400C
S11330C00995F3E3C45DDE4FF883CC52D140F5CCCF
S11330D0F3010995ED965FAFED97EE966FAFEE971E
S11330E066E171E0EE968EAD9FADEE97BED5892B6D
S11330F0A9F4C25DDE4FE881F981CE52D140099531
S1133100C05DDE4FE881F981C053D1400995F1E3F8
S1133110C45DDE4FF883CC52D140CFCCF301099586
S1133120E8965FAFE897E9966FAFE99761E471E0DD
S1133130E9968EAD9FADE99798D5892BE1F4C25DF0
S1133140DE4FE881F981CE52D1400995C05DDE4F52
S1133150E881F981C053D1400995E091D104F091FF
S1133160D20483E491E00995F1E3C45DDE4FF88372
S1133170CC52D140A2CC60E070E080E090E0F40159
S1133180099568E081E591E0F201099563E0CE01DB
S11331908A529F4FF201099560E070E081E090E06F
S11331A0F40109956BE08AE591E0F2010995F301D8
S11331B00995243409F05DC0F3010995AE965FAF1B
S11331C0AE97AF966FAFAF97AF966EAD7FADAF973B
S11331D046E050E0CE018A529F4F57D5E0918604D5
S11331E0F0918704CE018A529F4F0995853B910542
S11331F0A0F5BC01990F880B990B1F921F9229E02F
S11332002F932EE22F93E0919804F09199040F2EBE
S1133210F4EFAF2EBB24B394C12CD12CF02D14EBBE
S1133220E12EF12C00E010E020E030E0A901099546
S1133230CB01C55CDE4FE881F981CB53D1400995C0
S1133240C056DF4FE881F981C05AD04085E0099526
S11332500F900F900F900F9005C065E086E691E007
S1133260F2010995C25DDE4FE881F981CE52D14069
S1133270099560E070E083E090E0F401099568E06E
S11332808CE691E0F201099518CCF3010995A99611
S11332905FAFA997AA966FAFAA9764E171E0AA9667
S11332A08EAD9FADAA97E1D4892BA9F4C25DDE4F00
S11332B0E881F981CE52D1400995C05DDE4FE881A5
S11332C0F981C053D1400995F1E3C45DDE4FF88321
S11332D0CC52D140F2CBF3010995A4965FAFA497E9
S11332E0A5966FAFA59766E171E0A5968EAD9FADEB
S11332F0A597BBD4892BA9F4C25DDE4FE881F9817F
S1133300CE52D1400995C05DDE4FE881F981C053AA
S1133310D1400995F2E3C45DDE4FF883CC52D1402D
S1133320CCCBF30109956F965FAF6F97A0966FAF03
S1133330A09761E471E0A0968EAD9FADA09795D45F
S1133340892B11F5C25DDE4FE881F981CE52D1405F
S11333500995C05DDE4FE881F981C053D1400995DC
S1133360E091D104F091D20485E791E00995F0E36E
S1133370CA5CDE4FF883C653D14021E3C45DDE4FFF
S11333802883CC52D14099CB60E070E080E090E09B
S1133390F401099563E182E891E0F2010995CA5CC0
S11333A0DE4FF881C653D1408F2F90E0FC01F09797
S11333B0E730F10508F07BCBEF59FF4F34C460E0F0
S11333C070E081E090E0F401099567E086E991E01E
S11333D0F201099568E08DE991E0F201099565E053
S11333E085EA91E0F201099560E070E082E090E006
S11333F0F401099567E08BEA91E0F201099568E030
S113340082EB91E0F201099565E088EB91E0F2012D
S1133410099560E070E083E090E0F401099568E0CC
S11334208CE691E0F2010995F30109956A965FAF84
S11334306A976B966FAF6B976EEB71E06B968EAD80
S11334409FAD6B9712D4892BA1F4C25DDE4FE88146
S1133450F981CE52D1400995C05DDE4FE881F981F2
S1133460C053D1400995F1E3CA5CDE4FF883C653DB
S1133470D140F301099565965FAF659766966FAF86
S1133480669760EC71E066968EAD9FAD6697EDD35E
S1133490892BA1F4C25DDE4FE881F981CE52D1407F
S11334A00995C05DDE4FE881F981C053D14009958B
S11334B0F2E3CA5CDE4FF883C653D140F3010995A9
S11334C060965FAF609761966FAF619762EC71E051
S11334D061968EAD9FAD6197C8D3892BA1F4C25D6F
S11334E0DE4FE881F981CE52D1400995C05DDE4FAF
S11334F0E881F981C053D1400995F3E3CA5CDE4FFA
S1133500F883C653D140F30109952B965FAF2B97EF
S11335102C966FAF2C9764EC71E02C968EAD9FAD1A
S11335202C97A3D3892BA1F4C25DDE4FE881F981E6
S1133530CE52D1400995C05DDE4FE881F981C05378
S1133540D1400995F4E3CA5CDE4FF883C653D140F9
S1133550F301099526965FAF269727966FAF2797B5
S113356066EC71E027968EAD9FAD27977ED3892BAD
S1133570A1F4C25DDE4FE881F981CE52D1400995B4
S1133580C05DDE4FE881F981C053D1400995F5E370
S1133590CA5CDE4FF883C653D140F30109952196E6
S11335A05FAF219722966FAF229768EC71E0229665
S11335B08EAD9FAD229759D3892B09F07ECAC25D87
S11335C0DE4FE881F981CE52D1400995C05DDE4FCE
S11335D0E881F981C053D1400995F6E3CA5CDE4F16
S11335E0F883C653D14069CA60E070E081E090E09E
S11335F0F40109956BE08AEC91E0F201099560E031
S113360070E083E090E0F401099568E08CE691E0D5
S1133610F2010995F3010995243409F04ECAF30126
S113362009955EAB6FAB6EA97FA9CE0184529F4F03
S113363025D3E0918604F0918704CE0184529F4FF4
S113364009958436910588F4E7EAF4E00289138940
S1133650028CF38DE02D0995F8010995F0E3CA5C1D
S1133660DE4FF883C653D14010C085E692E7C452BA
S1133670DF4F99838883CC5DD04082E790E0C252CB
S1133680DF4F99838883CE5DD040C25DDE4FE881F1
S1133690F981CE52D140099510CA60E070E081E012
S11336A090E0F40109956CE086ED91E0F201099552
S11336B060E070E083E090E0F401099568E08CE656
S11336C091E0F2010995F3010995243409F0F5C953
S11336D0F30109955CA76DA76CA57DA5CE01845265
S11336E09F4FCCD2E0918604F0918704CE0184529E
S11336F09F4F09958D30910588F4E7EAF4E000893D
S11337001189028CF38DE02D0995F8010995F0E3F8
S1133710CA5CDE4FF883C653D14010C085E692E7F9
S1133720C452DF4F99838883CC5DD04082E790E018
S1133730C252DF4F99838883CE5DD040C25DDE4F95
S1133740E881F981CE52D1400995B7C960E070E0B3
S113375081E090E0F40109956AE083EE91E0F201E2
S1133760099560E070E083E090E0F401099568E079
S11337708CE691E0F2010995F3010995243409F0EE
S11337809CC9F30109955AA36BA36AA17BA1CE013D
S113379084529F4F73D2E0918604F0918704CE0146
S11337A084529F4F09958032910588F4E7EAF4E04A
S11337B004851585028CF38DE02D0995F801099592
S11337C0F0E3CA5CDE4FF883C653D14010C085E6EF
S11337D092E7C452DF4F99838883CC5DD04082E75F
S11337E090E0C252DF4F99838883CE5DD040C25DA2
S11337F0DE4FE881F981CE52D14009955EC960E07F
S113380070E081E090E0F40109956BE08EEE91E0C8
S1133810F201099560E070E083E090E0F40109951D
S113382068E08CE691E0F2010995F30109952434EE
S113383009F043C9F3010995588F698F688D798D13
S1133840CE0184529F4F1AD2E0918604F0918704EE
S1133850CE0184529F4F09958831910588F4E7EA97
S1133860F4E002811381028CF38DE02D0995F801B7
S11338700995F0E3CA5CDE4FF883C653D14010C00B
S113388085E692E7C452DF4F99838883CC5DD040AC
S113389082E790E0C252DF4F99838883CE5DD040A7
S11338A0C25DDE4FE881F981CE52D140099505C948
S11338B060E070E081E090E0F40109956DE08AEF4A
S11338C091E0F201099560E070E083E090E0F4019A
S11338D0099568E08CE691E0F2010995F3010995F8
S11338E0243409F0EAC8F30109955E876F876E8571
S11338F07F85CE0184529F4FC1D1E0918604F0911F
S11339008704CE0184529F4F09958C33910588F426
S1133910E7EAF4E004811581028CF38DE02D09952A
S1133920F8010995F0E3CA5CDE4FF883C653D14031
S113393010C085E692E7C452DF4F99838883CC5D3B
S1133940D04082E790E0C252DF4F99838883CE5DF6
S1133950D040C25DDE4FE881F981CE52D140099555
S1133960ACC860E070E081E090E0F40109956DE09E
S113397089E092E0F201099560E070E083E090E074
S1133980F401099568E08CE691E0F2010995F301F0
S11339900995243409F091C8F30109955C836D837A
S11339A06C817D81CE0184529F4F68D1E091860461
S11339B0F0918704CE0184529F4F09958C33910571
S11339C088F4E7EAF4E006811781028CF38DE02D98
S11339D00995F8010995F0E3CA5CDE4FF883C653F4
S11339E0D14010C085E692E7C452DF4F99838883A3
S11339F0CC5DD04082E790E0C252DF4F9983888348
S1133A00CE5DD040C25DDE4FE881F981CE52D14017
S1133A10099553C8CA55DF4FE881F981C65AD04089
S1133A200995C655DF4FE881F981CA5AD0400995F6
S1133A30E091CB04F091CC040995909342028093D9
S1133A4041026DE070E083E090E0F40109958AE3BF
S1133A50F1010995F3010995C257DF4F3883CE5818
S1133A60D040C157DF4F4883CF58D04066E0C2579B
S1133A70DF4F88819981CE58D040F201099560C802
S1133A801F920F920FB60F9211240BB60F920F9341
S1133A901F932F933F934F935F936F937F938F93D2
S1133AA09F93AF93BF93CF93EF93FF93CFB78FB70A
S1133AB08F778FBF809146028C3338F18091450215
S1133AC08F5F809345028F7090E0089774F404E54B
S1133AD014E0D801ED91FC9180E00995D801149689
S1133AE0ED91FC91159709950DC004E514E0D801FA
S1133AF0ED91FC9181E00995D8011496ED91FC912A
S1133B00159709951092460203C08F5F8093460271
S1133B10CFBFFF91EF91CF91BF91AF919F918F91C3
S1133B207F916F915F914F913F912F911F910F91D1
S1133B300F900BBE0F900FBE0F901F901895DB01D6
S1133B408F939F9388D0BF91AF91A29F800D911DB9
S1133B50A39F900DB29F900D11240895AA1BBB1B27
S1133B6051E107C0AA1FBB1FA617B70710F0A61B79
S1133B70B70B881F991F5A95A9F780959095BC019A
S1133B80CD01089597FB072E16F4009406D077FD17
S1133B9008D0E4DF07FC05D03EF4909581959F4F53
S1133BA00895709561957F4F0895A1E21A2EAA1B7E
S1133BB0BB1BFD010DC0AA1FBB1FEE1FFF1FA217D9
S1133BC0B307E407F50720F0A21BB30BE40BF50BD6
S1133BD0661F771F881F991F1A9469F7609570955F
S1133BE0809590959B01AC01BD01CF010895052EF0
S1133BF097FB16F400940FD057FD05D0D6DF07FCD1
S1133C0002D046F408C050954095309521953F4F19
S1133C104F4F5F4F089590958095709561957F4FB4
S1133C208F4F9F4F0895EE0FFF1F0024001C0BBE03
S1133C300790F691E02D0994A29FB001B39FC001B3
S1133C40A39F700D811D1124911DB29F700D811DC4
S1133C501124911D0895F0DFA59F900DB49F900D40
S1133C60A49F800D911D11240895FB01DC018D9109
S1133C70019080190110D9F3990B0895FB01DC011F
S1133C8001900D920020E1F70895FB01DC01415001
S1133C90504048F001900D920020C9F701C01D92D8
S10F3CA041505040E0F70895F894FFCF25
S1133CAC3132334134353642373839432A302344A0
S1133CBC000000004100420053656E73653A200019
S1133CCC706F736974696F6E0D00616E616C6F67F0
S1133CDC2052656164696E673A200074696D650DE4
S1133CEC0043004D616E75616C20657869740D0A32
S1133CFC004D616E75616C3A2000456E74657220DE
S1133D0C416E676C650020206572720043202D2083
S1133D1C6578697400436C6F636B20657869740D06
S1133D2C0A004461746520616E642054696D6520D9
S1133D3C536574757000312D5965617200322D4DC7
S1133D4C6F6E746800332D44617900342D486F759F
S1133D5C7200352D4D696E00362D536563003100AC
S1133D6C32003300340035003600456E7465722021
S1133D7C596561723A00456E746572204D6F6E74AC
S1133D8C683A00456E746572204461793A00456E58
S1133D9C74657220486F75723A00456E74657220B2
S1133DAC4D696E757465733A00456E746572205373
S10B3DBC65636F6E64733A0045
S9030000FC
