S010000041746D65676138382E7372656355
S113000019C020C01FC01EC01DC01CC01BC01AC008
S113001019C018C017C016C015C014C013C012C030
S113002011C010C00FC00EC00DC00CC00BC00AC060
S113003009C008C011241FBECFEFD4E0DEBFCDBF7E
S113004080D097C0DDCF80E18AB9559A579A8FEE58
S11300508BB95D985F980895882359F02BB181E09E
S113006090E002C0880F991F6A95E2F7822B8BB942
S11300700BC02BB181E090E002C0880F991F6A95F4
S1130080E2F7809582238BB92BB181E090E002C026
S1130090880F991F4A95E2F7922F982B9BB99BB131
S11300A0809589238BB908959F92AF92BF92CF9286
S11300B0DF92EF92FF920F931F93CF93DF93982ECB
S11300C0A62EB42E81E090E07C0102C0EE0CFF1C51
S11300D02A95E2F7CE2CDE2CD094C0E0D0E001E0EB
S11300E010E02FEF80E792E0215080409040E1F74C
S11300F000C00000C8010C2E02C0880F991F0A948A
S1130100E2F74B2D6A2D8921A7DF8BB18C298BB99E
S11301108BB18D218BB92196C830D10511F78BB1E4
S1130120E82AEBB88BB1D822DBB8DF91CF911F91CD
S11301300F91FF90EF90DF90CF90BF90AF909F9082
S1130140089581DF5F985D9827E045E064E085E5E8
S1130150ABDF27E045E064E08AEAA6DF27E045E07C
S113016064E08FEFA1DF27E045E064E080E09CDFFE
S1090170EBCFF894FFCF71
S9030000FC
